:100000000C9490000C94B8000C94B8000C94B800B8
:100010000C94B8000C94B8000C94B8000C94B80080
:100020000C94B8000C94B8000C94F6060C94680775
:100030000C94B8000C94B8000C94B8000C94B80060
:100040000C94B8000C94B8000C94B8000C94B80050
:100050000C94B8000C94B8000C94B8000C94410CAB
:100060000C94B8000C94B8000C94B8000C94B80030
:100070000C94B8000C94B8000C94B8000C94B80020
:100080000C94B8000C94B8000C94B8000C94B80010
:100090000C94B8000C94B8000C94B8000C94B80000
:1000A0000C94B8000C94B8000C94B800080B000233
:1000B0000202010009040000010202000005240000
:1000C0001001052401010104240206052406000193
:1000D0000705810310004009040100020A00000026
:1000E00007050202400000070583024000000403E8
:1000F000090412010002EF02014041233780000190
:100100000102030141726475696E6F204C4C43001B
:1001100041726475696E6F204D6963726F00FE0DE8
:1001200011241FBECFEFDAE0DEBFCDBF11E0A0E0AB
:10013000B1E0E6EFFFE102C005900D92AC36B107E9
:10014000D9F722E0ACE6B1E001C01D92A537B207B5
:10015000E1F710E0C0E9D0E004C02197FE010E9461
:10016000BE0ECF38D107C9F70E948B0C0C94F90F43
:100170000C940000CF92DF92EF92FF920F931F93A7
:10018000CF93DF936C017A018B01C0E0D0E0CE15F4
:10019000DF0581F0D8016D918D01D601ED91FC91C3
:1001A0000190F081E02DC6010995892B11F021966F
:1001B000EECF7E01C701DF91CF911F910F91FF908C
:1001C000EF90DF90CF900895CF93DF931F92CDB73C
:1001D000DEB76983DC01ED91FC910280F381E02DB3
:1001E00041E050E0BE016F5F7F4F09950F90DF91B6
:1001F000CF91089583E08093E9008091F2008823F5
:1002000019F08AE38093E8000895FC0184859585C0
:1002100097FD0BC09FB7F89482E08093E90080912E
:10022000F2009FBF90E0019608959FB7F89482E096
:100230008093E9008091F2009FBF90E008950895B7
:1002400080E090E008950F931F93CF93DF93209168
:100250006D012F5F322F377030936D0120FF02C088
:1002600020E801C020E031FD2064347009F02062F4
:10027000205FFC01EC01239600E011E06485662319
:1002800031F070E0C8010E94620E6F5F01C060E053
:100290006187322F369F030E30E0311D112431115A
:1002A00002C0168202C031503683662311F06150BD
:1002B00061873196CE17DF0709F7DF91CF911F9144
:1002C0000F91089580E991E00895579A08950F934A
:1002D0001F93CF93DF93CDB7DEB762970FB6F89435
:1002E000DEBF0FBECDBF8C01F901DC011C968C91E5
:1002F0007A8369835C834B835E834D8390819D8782
:1003000091819E8792819F87813029F4CE01019649
:100310000E94230106C01C861B861A861986188631
:100320001F8283E0888B1A8A198AD801ED91FC918B
:100330000484F585E02DBE016F5F7F4FC8010995EC
:1003400062960FB6F894DEBF0FBECDBFDF91CF919E
:100350001F910F9108950F931F93CF93DF93CDB704
:10036000DEB762970FB6F894DEBF0FBECDBF8C012B
:10037000F901DC011C968C917A8369835C834B8341
:100380005E834D8390819D8791819E8792819F8717
:10039000813029F4CE0101960E94230106C01C86FB
:1003A0001B861A86198618861F82188A1A8A198A45
:1003B000D801ED91FC910484F585E02DBE016F5FBD
:1003C0007F4FC801099562960FB6F894DEBF0FBE45
:1003D000CDBFDF91CF911F910F910895CF93DF9300
:1003E00000D000D000D0CDB7DEB7AB011C821D829B
:1003F0001E82DC01ED91FC910190F081E02D1982CB
:100400001A821B829E012F5F3F4FBE016C5F7F4FA0
:10041000099526960FB6F894DEBF0FBECDBFDF91CB
:10042000CF910895FC0185859685089580E090E040
:1004300008958F929F92AF92BF92CF92DF92EF92E8
:10044000FF920F931F93CF93DF936C017B018A017F
:1004500080910B01882309F45CC08091920188236C
:1004600009F457C08091730180FF05C08091E000BE
:1004700082608093E000E801B12C8AEFA82E93E01F
:10048000892E2AE3922E209711F4BB20D9F10E94E5
:100490008E0A81110AC0AA94AA20D9F161E070E005
:1004A00080E090E00E94070CEECF282F30E0C217CA
:1004B000D3070CF48C2F9FB7F8948092E900209119
:1004C000E80025FF1DC0282F30E0C21BD30BF70129
:1004D000815020F041914093F100FACFE20EF31EDB
:1004E000BB2019F09092E8000AC08091E80085FDD9
:1004F00007C09092E800BB24B394209709F0B12C78
:100500009FBFC1CF5D9A84E68093720110161106D9
:1005100044F081E090E0F6019383828380E090E0F4
:1005200001C0C801DF91CF911F910F91FF90EF9013
:10053000DF90CF90BF90AF909F908F9008950E94D2
:100540008E0A90E008950F931F93CF93DF931F922D
:10055000CDB7DEB78C01FC018485958597FF0EC071
:10056000CE0101960E94600A019719F4898190E0FA
:1005700002C08FEF9FEFF80195878487F80184858B
:1005800095850F90DF91CF911F910F910895CF9393
:10059000DF931F92CDB7DEB7FC018485958597FD6B
:1005A00005C02FEF3FEF358724870BC0CE010196A2
:1005B0000E94600A019719F4898190E002C08FEFD0
:1005C0009FEF0F90DF91CF9108954F925F926F92BE
:1005D0007F928F92AF92BF92CF92DF92EF920F9362
:1005E0001F93CF93DF933C01EB010E94B30AF30109
:1005F00027853089621B730B6A307105B0F3F8945C
:10060000E881F9817BB170686BB16F776BB9CB848E
:1006100088852C2D281B822F2887BF844A805B80E9
:100620001E850C85DD841F5F0F5FD3949E813F8103
:10063000A984EA844281D20120E0C32F522F322FB5
:100640003281442788943111380F08F43FEF8195A7
:10065000889410FD430F4795889411FD430F4795EB
:10066000889412FD430F4795889413FD430F4795D7
:10067000889414FD430F4795889415FD430F4795C3
:10068000889416FD430F4795889417FD430F4795AF
:100690008894232F1111242F8C0D422F002C7BB90D
:1006A00000C000C000C047FF6BB93081222788948A
:1006B00000C000C000C000C000C000C000C0002CCE
:1006C00000C000C06BB93111390F00C000C0002C50
:1006D0007BB900C000C000C046FF6BB908F43FEF13
:1006E0009195889400C000C000C000C000C000C048
:1006F00000C0002C00C000C06BB900FD230F00C07B
:1007000000C0002C7BB900C000C000C045FF6BB921
:100710002795889401FD230F00C000C000C000C0D1
:1007200000C000C000C0002C00C000C06BB92795FD
:10073000889400C000C0002C7BB900C000C000C07D
:1007400044FF6BB902FD230F2795889400C000C0B9
:1007500000C000C000C000C000C0002C00C000C02D
:100760006BB903FD230F00C000C0002C7BB900C093
:1007700000C000C043FF6BB92795889404FD230F88
:1007800000C000C000C000C000C000C000C0002CFD
:1007900000C000C06BB92795889400C000C0002C31
:1007A0007BB900C000C000C042FF6BB905FD230F3C
:1007B0002795889400C000C000C000C000C000C0E1
:1007C00000C0002C00C000C06BB906FD230F00C0A4
:1007D00000C0002C7BB900C000C000C041FF6BB955
:1007E0002795889407FD230F00C000C000C000C0FB
:1007F00000C000C000C0002C00C000C06BB927952D
:10080000889400C000C0002C7BB900C000C000C0AC
:1008100040FF6BB9432F0111422F9A0D00C000C059
:1008200000C000C000C000C000C0002C00C000C05C
:100830006BB900C000C000C0002C7BB900C000C074
:1008400000C047FF6BB931812227889400C000C0E7
:1008500000C000C000C000C000C0002C00C000C02C
:100860006BB931113C0F00C000C0002C7BB900C037
:1008700000C000C046FF6BB908F43FEFEB0DF11D5F
:1008800000C000C000C000C000C000C000C0002CFC
:1008900000C000C06BB9D0FC230F00C000C0002C0A
:1008A0007BB900C000C000C045FF6BB92795889494
:1008B000D1FC230F00C000C000C000C000C000C0B9
:1008C00000C0002C00C000C06BB92795889400C000
:1008D00000C0002C7BB900C000C000C044FF6BB951
:1008E000D2FC230F2795889400C000C000C000C030
:1008F00000C000C000C0002C00C000C06BB9D3FC19
:10090000230F00C000C0002C7BB900C000C000C095
:1009100043FF6BB927958894D4FC230F00C000C017
:1009200000C000C000C000C000C0002C00C000C05B
:100930006BB92795889400C000C0002C7BB900C01B
:1009400000C000C042FF6BB9D5FC230F27958894E7
:1009500000C000C000C000C000C000C000C0002C2B
:1009600000C000C06BB9D6FC230F00C000C0002C33
:100970007BB900C000C000C041FF6BB927958894C7
:10098000D7FC230F00C000C000C000C000C000C0E2
:1009900000C0002C00C000C06BB92795889400C02F
:1009A00000C0002C7BB900C000C000C040FF6BB984
:1009B000432FD110422FC19500C000C000C000C01D
:1009C00000C000C000C0002C00C000C06BB9CE0D3C
:1009D00000C000C000C07BB900C000C000C047FF1D
:1009E0006BB932812227889400C000C000C000C0CB
:1009F00000C000C000C0002C00C000C06BB93111A5
:100A0000380F00C000C0002C7BB900C000C000C07F
:100A100046FF6BB908F43FEF8195889400C000C091
:100A200000C000C000C000C000C0002C00C000C05A
:100A30006BB910FD230F00C000C0002C7BB900C0B3
:100A400000C000C045FF6BB92795889411FD230FA6
:100A500000C000C000C000C000C000C000C0002C2A
:100A600000C000C06BB92795889400C000C0002C5E
:100A70007BB900C000C000C044FF6BB912FD230F5A
:100A80002795889400C000C000C000C000C000C00E
:100A900000C0002C00C000C06BB913FD230F00C0C4
:100AA00000C0002C7BB900C000C000C043FF6BB980
:100AB0002795889414FD230F00C000C000C000C01B
:100AC00000C000C000C0002C00C000C06BB927955A
:100AD000889400C000C0002C7BB900C000C000C0DA
:100AE00042FF6BB915FD230F2795889400C000C005
:100AF00000C000C000C000C000C0002C00C000C08A
:100B00006BB916FD230F00C000C0002C7BB900C0DC
:100B100000C000C041FF6BB92795889417FD230FD3
:100B200000C000C000C000C000C000C000C0002C59
:100B300000C000C06BB92795889400C000C0002C8D
:100B40007BB900C000C000C040FF6BB9432F11113A
:100B5000422F8C0D00C000C000C000C000C000C00B
:100B600000C0002C00C000C06BB900C0119709F094
:100B700096CD20EC33E0D2010E94980EDC01CB012F
:100B8000F4E0B695A79597958795FA95D1F720E06B
:100B900030E0B901EAE94E9E040C611D5E9E600DD5
:100BA000711D1124650D711D860F971FA11DB11DAB
:100BB000893E43E09407A105B10508F434C0885E7E
:100BC0009340A109B10942E0B695A79597958795FD
:100BD0004A95D1F747E0849F080E211D949F200D70
:100BE000311D1124290F311D60916C0170E0860FB9
:100BF000971F820F931F4091C3015091C4016091D0
:100C0000C5017091C601292F3327420F531F611D63
:100C1000711D4093C3015093C4016093C50170934B
:100C2000C60180936C0178940E94B30AF301708B23
:100C30006787DF91CF911F910F91EF90DF90CF9059
:100C4000BF90AF908F907F906F905F904F9008957E
:100C50000C946B0F409170015091710120916E01C5
:100C600030916F0142175307B4F49091E8009570EA
:100C7000E1F39091E80092FD19C08093F10080911A
:100C800070019091710101968F739927892B19F446
:100C90008EEF8093E8008091700190917101019630
:100CA000909371018093700181E0089580E0089530
:100CB000615030F02091F100FC0120830196F8CFC3
:100CC000289A84E680939101089508950E94F40F74
:100CD000DF92EF92FF920F931F93CF93DF93D82E63
:100CE000F92EE42E062F10E0C8010196880F0E940D
:100CF0002A0683E00E942A06CD2DDF2D0C0F1D1F32
:100D0000C017D10789F0E7FE03C0FE01849101C03E
:100D100088810E942A06F82E80E00E942A068F21F0
:100D200021968111EDCF01C081E0DF91CF911F911C
:100D30000F91FF90EF90DF900895DF92EF92FF9276
:100D40000F931F93CF93DF93D82E8A017B01E40E7C
:100D5000F51EEB01CE15DF0571F0D7FE03C0FE01D5
:100D6000849101C088810E942A0621968111F2CFC8
:100D70008FEF9FEF01C0C801DF91CF911F910F91BD
:100D8000FF90EF90DF9008950F931F93CF93DF9321
:100D90001F92CDB7DEB782E0898342E450E06CEA6F
:100DA00070E080E80E949D060E949F0ADC01129676
:100DB0000D911C9113970115110589F0D801ED9142
:100DC000FC910280F381E02DBE016F5F7F4FC8016F
:100DD000099597FD04C0F80100851185ECCF898144
:100DE0000F90DF91CF911F910F9108951F920F9255
:100DF0000FB60F9211248F939F938091E1009091F1
:100E0000E100937F9093E10083FF0FC01092E9000F
:100E100091E09093EB001092EC0092E39093ED0040
:100E20001092920198E09093F00082FF20C093E02E
:100E30009093E9009091F200992319F09AE390932E
:100E4000E80090917201992339F0909172019150CC
:100E500090937201992389F190919101992339F02E
:100E600090919101915090939101992341F184FFC8
:100E700010C08091E2008E7E81608093E2008091BC
:100E8000E1008F7E8093E100809173018E7E80610E
:100E900011C080FF16C08091E2008E7E8061809339
:100EA000E2008091E1008E7E8093E10080917301E9
:100EB0008E7E81608093730104C05D98CDCF2898A9
:100EC000D6CF9F918F910F900FBE0F901F901895C6
:100ED0001F920F920FB60F921124CF92DF92EF92D2
:100EE000FF920F931F932F933F934F935F936F93B3
:100EF0007F938F939F93AF93BF93EF93FF93CF9382
:100F0000DF93CDB7DEB76C97DEBFCDBF1092E9009F
:100F10008091E80083FFFBC168E0CE0145960E9406
:100F2000580682EF8093E8008D8987FF05C0909175
:100F3000E80090FFFCCF03C09EEF9093E800982F4D
:100F4000907609F0C6C09E894F89588D2F89F88CFC
:100F500091110CC0803829F4809175018093F100C3
:100F600002C01092F1001092F10045C1913051F48D
:100F7000811141C14130510509F03DC18091750198
:100F80008D7F0BC0933061F4811135C14130510523
:100F900009F031C1809175018260809375012BC188
:100FA000953049F48091E80080FFFCCF822F806863
:100FB0008093E30020C1963009F05EC00B8D1C8D3C
:100FC00022E01092E9001092710110927001F21269
:100FD00032C010926F0110926E010E94C40699E017
:100FE000BE016F5F7F4FDB01E92F1D92EA95E9F7A4
:100FF0009983FA8291E09E8390EA98879AEF998785
:101000002091700130917101275F3F4F3C832B830A
:101010008D831092E900109271011092700110936B
:101020006F0100936E0149E050E080E00E949D0650
:101030000E94C406E0C010936F0100936E010E94ED
:101040009F0ADC0112960D911C9113970115110551
:1010500009F4BBC0D801ED91FC910480F581E02D2D
:10106000BE016B5E7F4FC8010995009709F0C7C0AC
:10107000F80100851185EACF973009F445C1983011
:1010800021F481E08093F100B6C0993009F0B3C03B
:10109000837009F039C1E3E1F1E081E031E096E3EA
:1010A0002081211109C08EE78093EA001092EA00A6
:1010B0008F89809392019FC08093E9003093EB0069
:1010C00021912093EC009093ED008F5F873041F7E2
:1010D000EACF8B8D9C8D1092E900109271011092D5
:1010E000700190936F0180936E01898D811153C0BF
:1010F0008E899D89913A49F4813209F005C147E012
:1011000050E064E071E080E0BBC0913209F0FCC0C7
:10111000833269F48F89988DA0E0B0E0809300015C
:1011200090930101A0930201B093030164C0803247
:1011300069F48091E80082FFFCCF67E084E091E0F1
:101140000E9458068BEF8093E80055C0823209F068
:1011500052C08F8980930B01EEEFFFE78591949148
:101160008B3F9C4D19F0E0E0F8E002C0EEEFFAE0B2
:101170008091040190910501A0910601B0910701B1
:10118000803B9440A105B10509F09EC080910B0100
:1011900080FF79C099C00E949F0AFC0102811381DF
:1011A0000115110509F4B0C0D801ED91FC91019031
:1011B000F081E02DBE016B5E7F4FC8010995811162
:1011C0001AC0F80100851185EBCFF1E0FF1609F494
:1011D0004EC0F3E0FF1298C08F89882309F44AC0FB
:1011E000823089F440E86DE080E191E00E94680679
:1011F000882309F489C08EEF8093E80088C0181610
:101200001906CCF381C0813029F440E86BE084E01A
:1012100091E0ECCF833009F077C00E949F0ADC0197
:101220001296ED90FC9013978E010F5F1F4F68018F
:10123000E114F10479F0D701ED91FC910680F7817A
:10124000E02DB801C7010995080F111DF701E084D1
:10125000F184EECFD8011C92F60101900020E9F74D
:101260003197BF016C197D0940E0C601BFCF62EF25
:1012700070E002C06EEE70E0FB01449150E080E847
:101280000E949D06B8CFEE3F2AE0F20751F0808120
:1012900091818737A7E79A0721F09093FF0A8093FF
:1012A000FE0A87E797E791838083809160008093AF
:1012B00074019BE088E10FB6F894A89580936000D4
:1012C0000FBE9093600097CF8081918187379747B9
:1012D00009F091CFA89580916000886180936000AB
:1012E0008091740180936000EE3FBAE0FB0739F013
:1012F0008091FE0A9091FF0A918380837CCF1092A7
:10130000FF0A1092FE0A77CF81E28093EB006C9681
:101310000FB6F894DEBF0FBECDBFDF91CF91FF9126
:10132000EF91BF91AF919F918F917F916F915F915D
:101330004F913F912F911F910F91FF90EF90DF9070
:10134000CF900F900FBE0F901F901895009769F0E7
:10135000FC0101900020E9F73197AF01481B590BC0
:10136000BC0189EC91E00C94190280E090E00895B2
:101370002F923F924F925F926F927F928F929F92A5
:10138000AF92BF92CF92DF92EF92FF920F931F9393
:10139000CF93DF93CDB7DEB7A3970FB6F894DEBF38
:1013A0000FBECDBF7BA36AA38C01000F111F080FD6
:1013B000191F0D561E4F812C912C54016C01990F51
:1013C000EE08FF083AE0432E512C612C712C8CEF73
:1013D00088168FEF9806A806B80609F458C0A7012A
:1013E0009601281939094A095B0957FF1FC06DE2A8
:1013F00089EC91E00E94E400A50194012C193D09BB
:101400004E095F0919A2FE01B1961F01CA01B90177
:10141000A30192010E94760E605DF10162931F01AB
:10142000211531054105510589F713C019A2CE01D7
:1014300081961C01CA01B901A30192010E94760E96
:10144000605DF10162931F012115310541055105D0
:1014500089F7C1010E94A60989E691E00E94A609C8
:10146000EAA1FBA18081F8018083EAA1FBA181812F
:10147000F8018183EAA1FBA18281F80182830D5FDB
:101480001F4FF1E08F1A9108A108B108A0CFA396D1
:101490000FB6F894DEBF0FBECDBFDF91CF911F9185
:1014A0000F91FF90EF90DF90CF90BF90AF909F9003
:1014B0008F907F906F905F904F903F902F90089506
:1014C00020919201211103C08FEF9FEF08955FB724
:1014D000F89422E02093E9002091F20030E0121607
:1014E000130614F421E030E0422FFC0184E6415061
:1014F00038F0289A809391019091F1009193F7CF61
:101500002115310521F08091F200882319F05FBF89
:10151000C90108958BE68093E800F9CF2FB7F894BE
:1015200083E08093E9009091E800892F807295FF15
:1015300004C09091F20080E4891B2FBF0895809130
:101540005F0281110DC082E080935B0284E0809392
:101550005C0210925E0210925D0281E080935F0255
:101560008BE592E008953FB7F894809157029091EF
:101570005802A0915902B0915A0226B5A89B05C005
:101580002F3F19F00196A11DB11D3FBFBA2FA92F02
:10159000982F8827820F911DA11DB11DBC01CD017F
:1015A00042E0660F771F881F991F4A95D1F708956B
:1015B0003F924F925F926F927F928F929F92AF92E3
:1015C000BF92CF92DF92EF92FF920F931F93CF9330
:1015D000DF9300D01F92CDB7DEB7F82E80914C027A
:1015E00090914D02A0914E02B0914F02892B8A2B0F
:1015F0008B2BE9F00E94B30A00916D0210916E02EC
:1016000020916F0230917002DC01CB01801B910BA5
:10161000A20BB30B00914C0210914D0220914E028F
:1016200030914F0280179107A207B307B8F20E94CA
:10163000B30A60936D0270936E0280936F02909371
:101640007002E0915402F0915502309759F04091A8
:1016500050025091510260915202709153028F2DAD
:101660000995F82E0091C7011091C8014F2C512CFB
:10167000612C712C0115110509F45FC0D8011C966D
:10168000EC901C9780914A0290914B028436910510
:1016900010F41C961C92D801ED91FC91A280B380AD
:1016A00019821A821B82F11014C0F80145855685F3
:1016B000628173819E012F5F3F4FC801F50109953B
:1016C000D8011C96EC921C9714960D911C911597BD
:1016D000D1CFF8013696CE0101966C01480199E010
:1016E000890E911C2191222309F132803320F1F0DF
:1016F000822F90E0A0E0B0E09C01AD012F5F3F4F52
:101700004F4F5F4FC301B2010E94520E9B01AC01CB
:10171000832D90E0A0E0B0E0BC01CD016F5F7F4F72
:101720008F4F9F4F0E94520ED6018C93BFEFCB1A62
:10173000DB0AE815F905B1F6B8CF80916B029091FC
:101740006C029C012F5F3F4F30936C0220936B0221
:1017500049970CF447C08FB7F8940091C3011091DA
:10176000C4012091C5013091C6018FBFE0916B0289
:10177000F0916C0288EE93E0E89FB001E99F700D54
:10178000F89F700D1124072E000C880B990BC09048
:101790006702D0906802E0906902F0906A02A901A5
:1017A00098012C193D094E095F090E94760E30936D
:1017B0004B0220934A0210926C0210926B022FB7D8
:1017C000F8948091C3019091C401A091C501B0919A
:1017D000C6012FBF8093670290936802A0936902AD
:1017E000B0936A020F900F900F90DF91CF911F91ED
:1017F0000F91FF90EF90DF90CF90BF90AF909F90B0
:101800008F907F906F905F904F903F9008958F9250
:101810009F92AF92BF92CF92DF92EF92FF926B01B5
:101820007C010E94B30A4B015C01C114D104E104A4
:10183000F104F1F00E94B30ADC01CB018819990987
:10184000AA09BB09883E9340A105B10570F321E0C8
:10185000C21AD108E108F10888EE880E83E0981ECC
:10186000A11CB11CC114D104E104F10419F7DDCFAE
:10187000FF90EF90DF90CF90BF90AF909F908F90B0
:1018800008951F920F920FB60F9211242F933F933A
:101890008F939F93AF93BF938091C3019091C401A5
:1018A000A091C501B091C6013091560223E0230FEB
:1018B0002D3720F40196A11DB11D05C026E8230F88
:1018C0000296A11DB11D209356028093C3019093EF
:1018D000C401A093C501B093C601809157029091B5
:1018E0005802A0915902B0915A020196A11DB11D52
:1018F0008093570290935802A0935902B0935A02D2
:10190000BF91AF919F918F913F912F910F900FBEFB
:101910000F901F901895CF93DF9300D01F92CDB7F3
:10192000DEB7789484B5826084BD84B5816084BD5F
:1019300085B5826085BD85B5816085BD80916E006D
:10194000816080936E00109281008091810082609E
:1019500080938100809181008160809381008091DB
:1019600080008160809380008091910082608093EC
:10197000910080919100816080939100809190000E
:101980008160809390008091C10084608093C10049
:101990008091C10082608093C1008091C10081600C
:1019A0008093C1008091C30081608093C3008091C7
:1019B000C00082608093C0008091C20081608093EB
:1019C000C20080917A00846080937A0080917A00CE
:1019D000826080937A0080917A00816080937A009F
:1019E00080917A00806880937A0010929201109220
:1019F0007501109273018091D70081608093D700A8
:101A000080EA8093D80089B5806189BD89B58260FC
:101A100089BD09B400FEFDCF61E070E080E090E098
:101A20000E94070C8091D8008F7C80618093D80041
:101A30008091E000807F8093E0008091E1008E7EC5
:101A40008093E1008DE08093E200559A209A5D98A2
:101A500028988FEF9FEF9093D6018093D50168EE81
:101A600073E080E090E00E94070C80918901811171
:101A700045C010927B0110927A018FEF80937E0116
:101A800080937F0180938001809381018093820104
:101A90008093830181E080938401109286011092EB
:101AA000850110927D0110927C018091C701909177
:101AB000C801892B31F488E791E09093C8018093A5
:101AC000C701E0917601F0917701309721F088E726
:101AD00091E09583848388E791E0909377018093E8
:101AE000760110928801109287018DE291E0909327
:101AF00079018093780181E080938901579A83E985
:101B000091E090937B0180937A0180E190E0909343
:101B100086018093850180914C0290914D02A091A5
:101B20004E02B0914F02843C29E09207A105B10515
:101B300020F484EC99E0A0E0B0E080934C02909314
:101B40004D02A0934E02B0934F028FEF8093490253
:101B500083E991E0909348028093470290933C027E
:101B600080933B029093300280932F0285E591E0B1
:101B70000E94A60989E691E00E94A60980E0E82E6D
:101B800080E0F82E1FEF04EE9DE2D92E19830A8320
:101B9000DB82BE016F5F7F4F80E090E00E94B8095A
:101BA00019831A821B82BE016F5F7F4F84E090E031
:101BB0000E94B80919821A821B83BE016F5F7F4F92
:101BC00085E090E00E94B809809149020E94D80AFD
:101BD00064EF71E080E090E00E94070C8091490280
:101BE0000E94D80A64EF71E080E090E00E94070C48
:101BF000E114F10459F20E940000C8CFE9ECF1E0D1
:101C00001382128288EE93E0A0E0B0E08483958393
:101C1000A683B7838FE391E0918380838FEF9FEF5B
:101C200095878487EDE3F2E081E591E091838083FD
:101C3000138212822BE031E037832683E1E3F2E066
:101C40009183808324E030E03383228320E032E0FC
:101C500037832683E5E2F2E09183808328E030E059
:101C60003383228320E033E037832683E9E1F2E007
:101C7000918380838CE090E09383828381E094E081
:101C800097838683E9E4F2E08FEF808312821182EA
:101C9000148613868FEF9FEFDC0187839087A187DF
:101CA000B2870895DB018F939F930E949F0EBF918F
:101CB000AF91A29F800D911DA39F900DB29F900D9B
:101CC0001124089597FB072E16F4009407D077FD92
:101CD00009D00E94AA0E07FC05D03EF4909581958C
:101CE0009F4F0895709561957F4F0895A1E21A2E38
:101CF000AA1BBB1BFD010DC0AA1FBB1FEE1FFF1FB0
:101D0000A217B307E407F50720F0A21BB30BE40BFF
:101D1000F50B661F771F881F991F1A9469F7609546
:101D20007095809590959B01AC01BD01CF01089500
:101D30000E94C40EB7FF0895821B930B08950E9462
:101D4000C40EA59F900DB49F900DA49F800D911D72
:101D500011240895AA1BBB1B51E107C0AA1FBB1F7A
:101D6000A617B70710F0A61BB70B881F991F5A9527
:101D7000A9F780959095BC01CD010895EE0FFF1F46
:101D80000590F491E02D0994A29FB001B39FC0018A
:101D9000A39F700D811D1124911DB29F700D811D97
:101DA0001124911D08950F931F93CF93DF938230D9
:101DB000910510F482E090E0E0917302F0917402DA
:101DC00020E030E0A0E0B0E0309719F1408151818F
:101DD0000281138148175907C8F08417950769F4E1
:101DE000109731F012960C93129713961C9327C0FC
:101DF000009373021093740222C02115310519F06B
:101E00004217530718F49A01BD01EF01DF01F801F1
:101E1000DBCF21153105F9F0281B390B24303105B2
:101E200080F48A819B816115710521F0FB01938308
:101E3000828304C09093740280937302FE013296F1
:101E400044C0FE01E20FF31F8193919322503109A8
:101E5000398328833AC02091710230917202232B7A
:101E600041F420910E0130910F01309372022093C2
:101E7000710220910C0130910D012115310541F4C1
:101E80002DB73EB74091100150911101241B350B25
:101E9000E0917102F0917202E217F307A0F42E1B99
:101EA0003F0B2817390778F0AC014E5F5F4F2417BE
:101EB000350748F04E0F5F1F509372024093710236
:101EC0008193919302C0E0E0F0E0CF01DF91CF91E8
:101ED0001F910F910895CF93DF93009709F481C06C
:101EE000FC01329713821282A0917302B0917402A6
:101EF000109781F420813181820F931F209171020C
:101F0000309172022817390751F5F0937202E0936D
:101F1000710267C0ED0120E030E0CE17DF0740F42A
:101F20004A815B819E0141155105F1F0EA01F5CF2F
:101F3000D383C28340815181840F951FC817D9076D
:101F400059F488819981840F951F0296918380832B
:101F50008A819B81938382832115310529F4F09333
:101F60007402E09373023DC0E901FB83EA83499167
:101F70005991C40FD51FEC17FD0761F48081918141
:101F8000840F951F0296E90199838883828193814A
:101F90009B838A83E0E0F0E012968D919C911397E9
:101FA000009719F0FD01DC01F7CF8D919C911197FD
:101FB0009D012E5F3F4F820F931F20917102309140
:101FC00072022817390769F4309729F410927402C5
:101FD0001092730202C013821282B0937202A09315
:101FE0007102DF91CF91089581E090E0F8940C9414
:061FF000F90FF894FFCF89
:101FF600FFFFFFFF00E10000000000000000750287
:10200600200000C180810000000000000066066616
:10201600066606EE011202160200000000AB01671A
:10202600016501EE0112026201E50200000000E412
:102036000019029F02FA000501C702A30200000070
:10204600006506280620537461727420757020613D
:0C2056006374697669746979000D0A00F2
:00000001FF
