:100000000C9465010C948D010C948D010C948D0160
:100010000C948D010C948D010C948D010C948D0128
:100020000C948D010C94B60A0C94D00F0C944210D1
:100030000C948D010C948D010C948D010C948D0108
:100040000C948D010C948D010C948D010C948D01F8
:100050000C948D010C948D010C948D010C94DE0890
:100060000C948D010C948D010C948D010C948D01D8
:100070000C948D010C948D010C948D010C948D01C8
:100080000C948D010C948D010C948D010C948D01B8
:100090000C948D010C948D010C948D010C948D01A8
:1000A0000C948D010C948D010C948D01091A0C1A7D
:1000B000FB19FF19031A2D1A2D1A2D1A101A141ACA
:1000C000181A1E1A221A2D1A281AE30CEB0CF50C1A
:1000D000D20CF50CD40CF30CFC0CF50CF50CF50C57
:1000E000F50CF50CF50CF50CF50CFC0CF50CF50C01
:1000F000F50CF50CF50C4446506C61796572204D99
:10010000696E69206F6E6C696E652E00322E506CC0
:100110006561736520696E7365727420746865200B
:10012000534420636172642100312E506C65617309
:1001300065207265636865636B2074686520636F12
:100140006E6E656374696F6E2100556E61626C65D9
:1001500020746F20626567696E3A00496E69746940
:10016000616C697A696E67204446506C617965728A
:10017000202E2E2E20284D61792074616B6520334E
:100180007E35207365636F6E647329004446526F39
:10019000626F74204446506C61796572204D696EBF
:1001A000692044656D6F00070605040100080A0B0D
:1001B0000C0D0900000000240027002A002D00304B
:1001C000000000000200090F0000030401000C0001
:1001D000000000000000000000000000000000001F
:1001E000200073656E64696E673A0020002000721B
:1001F000656365697665643A00080B0002020201D6
:10020000000904000001020200000524001001059D
:1002100024010101042402060524060001070581CA
:100220000310004009040100020A00000007050253
:100230000240000007058302400000040309041285
:10024000010002EF02014041233780000101020357
:100250000141726475696E6F204C4C4300417264B9
:1002600075696E6F204D6963726F00000000002396
:1002700000260029002C002F000000000025002887
:10028000002B002E003100040404040403040502C2
:100290000202020403020202020606060606060421
:1002A00004020202040404080201104080401020ED
:1002B000408040800802040180402010020110802C
:1002C000102040402000BB1A931A11241FBECFEF0C
:1002D000DAE0DEBFCDBF11E0A0E0B1E0E8E8F1E494
:1002E00002C005900D92AE3CB107D9F724E0AEEC08
:1002F000B1E001C01D92AE34B207E1F711E0C4E6EF
:10030000D1E004C02197FE010E94A51DC336D1078C
:10031000C9F70E9458140C94B7200C94000080E98F
:1003200091E008953E9A08950895CF93DF9300D009
:1003300000D000D0CDB7DEB7AB011C821D821E827B
:10034000DC01ED91FC910190F081E02D19821A827F
:100350001B829E012F5F3F4FBE016C5F7F4F09954F
:1003600026960FB6F894DEBF0FBECDBFDF91CF91BA
:100370000895FC0185859685089580E090E00895B4
:100380004F925F926F927F928F92AF92BF92CF9275
:10039000DF92EF920F931F93CF93DF933C01EB011A
:1003A0000E94AB0BF30127853089621B730B6A3007
:1003B0007105B0F3F894E881F98178B1706468B19F
:1003C0006F7B68B9CB8488852C2D281B822F2887CA
:1003D000BF844A805B801E850C85DD841F5F0F5FB4
:1003E000D3949E813F81A984EA844281D20120E096
:1003F000C32F522F322F3281442788943111380F66
:1004000008F43FEF8195889410FD430F4795889439
:1004100011FD430F4795889412FD430F479588942B
:1004200013FD430F4795889414FD430F4795889417
:1004300015FD430F4795889416FD430F4795889403
:1004400017FD430F47958894232F1111242F8C0DEE
:10045000422F002C78B900C000C000C047FF68B927
:1004600030812227889400C000C000C000C000C0B6
:1004700000C000C0002C00C000C068B93111390FA5
:1004800000C000C0002C78B900C000C000C046FF0A
:1004900068B908F43FEF9195889400C000C000C08F
:1004A00000C000C000C000C0002C00C000C068B97F
:1004B00000FD230F00C000C0002C78B900C000C0B0
:1004C00000C045FF68B92795889401FD230F00C03F
:1004D00000C000C000C000C000C000C0002C00C0B0
:1004E00000C068B92795889400C000C0002C78B976
:1004F00000C000C000C044FF68B902FD230F27956B
:10050000889400C000C000C000C000C000C000C08F
:10051000002C00C000C068B903FD230F00C000C05C
:10052000002C78B900C000C000C043FF68B927950F
:10053000889404FD230F00C000C000C000C000C0AC
:1005400000C000C0002C00C000C068B92795889486
:1005500000C000C0002C78B900C000C000C042FF3D
:1005600068B905FD230F2795889400C000C000C01E
:1005700000C000C000C000C0002C00C000C068B9AE
:1005800006FD230F00C000C0002C78B900C000C0D9
:1005900000C041FF68B92795889407FD230F00C06C
:1005A00000C000C000C000C000C000C0002C00C0DF
:1005B00000C068B92795889400C000C0002C78B9A5
:1005C00000C000C000C040FF68B9432F0111422F96
:1005D0009A0D00C000C000C000C000C000C000C034
:1005E000002C00C000C068B900C000C000C0002CD2
:1005F00078B900C000C000C047FF68B93181222728
:10060000889400C000C000C000C000C000C000C08E
:10061000002C00C000C068B931113C0F00C000C000
:10062000002C78B900C000C000C046FF68B908F4CB
:100630003FEFEB0DF11D00C000C000C000C000C0C6
:1006400000C000C0002C00C000C068B9D0FC230F5F
:1006500000C000C0002C78B900C000C000C045FF39
:1006600068B927958894D1FC230F00C000C000C052
:1006700000C000C000C000C0002C00C000C068B9AD
:100680002795889400C000C0002C78B900C000C035
:1006900000C044FF68B9D2FC230F2795889400C09E
:1006A00000C000C000C000C000C000C0002C00C0DE
:1006B00000C068B9D3FC230F00C000C0002C78B97B
:1006C00000C000C000C043FF68B927958894D4FCDF
:1006D000230F00C000C000C000C000C000C000C0A8
:1006E000002C00C000C068B92795889400C000C0E5
:1006F000002C78B900C000C000C042FF68B9D5FC2A
:10070000230F2795889400C000C000C000C000C01F
:1007100000C000C0002C00C000C068B9D6FC230F88
:1007200000C000C0002C78B900C000C000C041FF6C
:1007300068B927958894D7FC230F00C000C000C07B
:1007400000C000C000C000C0002C00C000C068B9DC
:100750002795889400C000C0002C78B900C000C064
:1007600000C040FF68B9432FD110422FC19500C08F
:1007700000C000C000C000C000C000C0002C00C00D
:1007800000C068B9CE0D00C000C000C078B900C07C
:1007900000C000C047FF68B932812227889400C09A
:1007A00000C000C000C000C000C000C0002C00C0DD
:1007B00000C068B93111380F00C000C0002C78B9F2
:1007C00000C000C000C046FF68B908F43FEF819543
:1007D000889400C000C000C000C000C000C000C0BD
:1007E000002C00C000C068B910FD230F00C000C07D
:1007F000002C78B900C000C000C045FF68B927953B
:10080000889411FD230F00C000C000C000C000C0CC
:1008100000C000C0002C00C000C068B927958894B3
:1008200000C000C0002C78B900C000C000C044FF68
:1008300068B912FD230F2795889400C000C000C03E
:1008400000C000C000C000C0002C00C000C068B9DB
:1008500013FD230F00C000C0002C78B900C000C0F9
:1008600000C043FF68B92795889414FD230F00C08A
:1008700000C000C000C000C000C000C0002C00C00C
:1008800000C068B92795889400C000C0002C78B9D2
:1008900000C000C000C042FF68B915FD230F2795B6
:1008A000889400C000C000C000C000C000C000C0EC
:1008B000002C00C000C068B916FD230F00C000C0A6
:1008C000002C78B900C000C000C041FF68B927956E
:1008D000889417FD230F00C000C000C000C000C0F6
:1008E00000C000C0002C00C000C068B927958894E3
:1008F00000C000C0002C78B900C000C000C040FF9C
:1009000068B9432F1111422F8C0D00C000C000C0E8
:1009100000C000C000C000C0002C00C000C068B90A
:1009200000C0119709F096CD20EC33E0D2010E946F
:10093000AB1DDC01CB01F4E0B695A79597958795A3
:10094000FA95D1F720E030E0B901EAE94E9E040CB7
:10095000611D5E9E600D711D1124650D711D860F58
:10096000971FA11DB11D893E43E09407A105B10564
:1009700008F434C0885E9340A109B10942E0B695FD
:10098000A795979587954A95D1F747E0849F080EDC
:10099000211D949F200D311D1124290F311D6091BF
:1009A000EF0170E0860F971F820F931F40911A028C
:1009B00050911B0260911C0270911D02292F332758
:1009C000420F531F611D711D40931A0250931B0269
:1009D00060931C0270931D028093EF0178940E9433
:1009E000AB0BF301708B6787DF91CF911F910F9154
:1009F000EF90DF90CF90BF90AF908F907F906F90EF
:100A00005F904F9008950F931F93CF93DF93CDB7CF
:100A1000DEB762970FB6F894DEBF0FBECDBF8C0174
:100A2000F901DC011C968C917A8369835C834B838A
:100A30005E834D8390819D8791819E8792819F8760
:100A4000813029F4CE0101960E94821206C01C86D4
:100A50001B861A86198618861F82188A1A8A198A8E
:100A6000D801ED91FC910484F585E02DBE016F5F06
:100A70007F4FC801099562960FB6F894DEBF0FBE8E
:100A8000CDBFDF91CF911F910F9108950F931F93C9
:100A9000CF93DF93CDB7DEB762970FB6F894DEBF82
:100AA0000FBECDBF8C01F901DC011C968C917A83BD
:100AB00069835C834B835E834D8390819D879181A5
:100AC0009E8792819F87813029F4CE0101960E94F2
:100AD000821206C01C861B861A86198618861F82FB
:100AE00083E0888B1A8A198AD801ED91FC910484DD
:100AF000F585E02DBE016F5F7F4FC80109956296B5
:100B00000FB6F894DEBF0FBECDBFDF91CF911F911E
:100B10000F910895AF92BF92CF92DF92EF92FF9222
:100B20000F931F93CF93DF93EC018B018BE10E9416
:100B3000800B5C01BC01990F880B990B0E94FE1D74
:100B40006093D6017093D7018093D8019093D90117
:100B50008AE10E94800B6C01BC01990F880B990BF4
:100B60000E94FE1D6093D2017093D3018093D40143
:100B70009093D50189E10E94800B7C01BC01990F03
:100B8000880B990B0E94FE1D6093CE017093CF01DC
:100B90008093D0019093D10188E10E94800B98014D
:100BA00024513109A216B30634F0A8014C5E5F4F00
:100BB0004A155B0594F4C216D306C4F0A8014C5E36
:100BC0005F4F4C155D0594F08091F403888380910C
:100BD000F50389838091F6032BC08091F703888306
:100BE0008091F80389838091F90322C0E216F3060D
:100BF0007CF0A8014C5E5F4F4E155F054CF0809174
:100C0000F10388838091F20389838091F30310C0FC
:100C1000821793077CF00C5E1F4F0817190754F0DA
:100C20008091EE0388838091EF0389838091F003A4
:100C30008A8303C0188219821A82CE01DF91CF9174
:100C40001F910F91FF90EF90DF90CF90BF90AF90EA
:100C50000895CF92DF92EF92FF920F931F93CF935D
:100C6000DF9300D01F92CDB7DEB782E10E94800BE8
:100C70008C01BC01990F880B990B0E94FE1D6B0122
:100C80007C016093EB017093EC018093ED019093F4
:100C9000EE0183E10E94800BBC01990F880B990B38
:100CA0000E94FE1D6093E7017093E8018093E901C3
:100CB0009093EA0184E10E94800BBC01990F880B9C
:100CC000990B0E94FE1D6093E3017093E4018093F1
:100CD000E5019093E60185E10E94800BBC01990F2C
:100CE000880B990B0E94FE1D6093DF017093E00159
:100CF0008093E1019093E20120E030E048E452E487
:100D0000C701B6010E94621E181674F5B801CE0123
:100D100001960E948A05998180911203981317C049
:100D20009A8180911303981312C0909114038B81C0
:100D300098130DC063E070E08CE993E00E94DE132D
:100D40008823D9F081E090E00E94BB0D16C062E0DC
:100D500070E08CE993E00E94DE13882389F082E042
:100D600090E00E94BB0D0CC01092DE0161E070E0CB
:100D70008CE993E00E94DE1303C001E010E002C0A2
:100D800000E010E0C090E701D090E801E090E901B8
:100D9000F090EA0120E030E048E452E4C701B601F7
:100DA0000E94621E18169CF5C701B6010E94C61D5E
:100DB000CE0101960E948A059091150389819813AE
:100DC00019C0909116038A81981314C0909117034B
:100DD0008B8198130FC063E070E08AE893E00E9473
:100DE000DE13882321F081E090E00E94BB0D0F5FAD
:100DF0001F4F15C062E070E08AE893E00E94DE13A6
:100E0000882369F082E090E00E94BB0D08C0109238
:100E1000DE0161E070E08AE893E00E94DE13C0909A
:100E2000E301D090E401E090E501F090E60120E0DC
:100E300030E048E452E4C701B6010E94621E181671
:100E40009CF5C701B6010E94C61DCE0101960E9405
:100E50008A05909118038981981319C090911903FC
:100E60008A81981314C090911A038B8198130FC034
:100E700063E070E088E793E00E94DE13882321F0AE
:100E800081E090E00E94BB0D0F5F1F4F15C062E034
:100E900070E088E793E00E94DE13882369F082E027
:100EA00090E00E94BB0D08C01092DE0161E070E08E
:100EB00088E793E00E94DE13C090DF01D090E0014C
:100EC000E090E101F090E20120E030E048E452E4FB
:100ED000C701B6010E94621E18169CF5C701B60133
:100EE0000E94C61DCE0101960E948A0590911B03A7
:100EF0008981981319C090911C038A81981314C09A
:100F000090911D038B8198130FC063E070E086E61B
:100F100093E00E94DE13882321F081E090E00E949C
:100F2000BB0D0F5F1F4F15C062E070E086E693E0D7
:100F30000E94DE13882369F082E090E00E94BB0DDE
:100F400008C01092DE0161E070E086E693E00E9446
:100F5000DE138091DE01811113C00430110581F48C
:100F600081E08093DE018FEF8093F9020E940A0CEA
:100F70006093DA017093DB018093DC019093DD01D3
:100F80008091DE018823E9F00E940A0C0091DA01C9
:100F90001091DB012091DC013091DD01DC01CB01FE
:100FA000801B910BA20BB30B89399A43A105B105A4
:100FB00040F08091ED03882321F082E090E00E94D0
:100FC000E5090F900F900F90DF91CF911F910F9136
:100FD000FF90EF90DF90CF9008958091ED038823EC
:100FE00021F081E090E00C94E5090895CF92DF9222
:100FF000EF92FF920F931F93CF93DF9300D01F9236
:10100000CDB7DEB788E891E00E941E0A02E113E046
:1010100094E0C92ED12CE12CF12C0E94C71CA70111
:1010200096010E941E1DFB01EE0FFF1F6E0F7F1F1A
:10103000FB01EE5EFC4F208191818281D8013C91C1
:10104000308311963C911197318312963C911297FF
:1010500032832C9311969C93119712968C930D5F6B
:101060001F4FB3E00E311B07C1F680911203898335
:10107000809113038A83809114038B83BE016F5F79
:101080007F4F84E593E00E94BD138091150389830F
:10109000809116038A83809117038B83BE016F5F53
:1010A0007F4F82E493E00E94BD13809118038983EF
:1010B000809119038A8380911A038B83BE016F5F2D
:1010C0007F4F80E393E00E94BD1380911B038983CF
:1010D00080911C038A8380911D038B83BE016F5F07
:1010E0007F4F8EE193E00E94BD13809112038983AC
:1010F000809113038A83809114038B83BE016F5FF9
:101100007F4F8CE993E00E94BD1380911503898382
:10111000809116038A83809117038B83BE016F5FD2
:101120007F4F8AE893E00E94BD1380911803898362
:10113000809119038A8380911A038B83BE016F5FAC
:101140007F4F88E793E00E94BD1380911B03898342
:1011500080911C038A8380911D038B83BE016F5F86
:101160007F4F86E693E00E94BD131092DE0188EC6B
:101170008093F9020F900F900F90DF91CF911F9104
:101180000F91FF90EF90DF90CF9008950C94231F64
:101190000895409100015091010125E038E0429FFF
:1011A000C001439F900D529F900D1124875E994C72
:1011B0009093010180930001890F08951F920F926F
:1011C0000FB60F9211242F933F938F939F93AF935A
:1011D000BF9380911A0290911B02A0911C02B091C2
:1011E0001D023091190223E0230F2D3720F40196C0
:1011F000A11DB11D05C026E8230F0296A11DB11D3A
:101200002093190280931A0290931B02A0931C0250
:10121000B0931D0280911E0290911F02A0912002A6
:10122000B09121020196A11DB11D80931E029093E1
:101230001F02A0932002B0932102BF91AF919F9112
:101240008F913F912F910F900FBE0F901F90189587
:101250002091FA033091FB032817390771F490911C
:10126000230280912202981741F0E0912302F0E0DE
:10127000EE5CFD4F808190E008958FEF9FEF089521
:1012800008951F93CF93DF93DC015C968D919C9121
:101290005D97009739F421E030E013963C932E934C
:1012A00012973BC05196ED91FC91529750962C911C
:1012B0005097322F30951FB75E964C915E97742FE2
:1012C000727041FD6095F8944081772311F0422BB4
:1012D00001C043234083EC012197F1F748E050819E
:1012E00060FF02C0522B01C053235083EC012197B1
:1012F000F1F76695415099F78081772319F08323A0
:10130000808302C0282B20831FBF5C968D919C9107
:101310005D970197F1F781E090E0DF91CF911F9108
:1013200008952091FA033091FB032817390771F4CF
:10133000809122022091230290E0805C9F4F821BCB
:10134000910960E470E00E94911D089580E090E0B2
:1013500008952091FA033091FB0328173907B9F457
:101360009091230280912202981789F0E091230244
:10137000F0E0EE5CFD4F80812091230230E02F5F92
:101380003F4F2F7333272093230290E008958FEF70
:101390009FEF08950F931F93CF93DF938C01C0E0CD
:1013A000D0E0F801EC0FFD1F6491662341F089EA5B
:1013B00092E00E948D0E892B11F02196F2CFCE0182
:1013C000DF91CF911F910F9108954091E7035091C4
:1013D000E8036091E3037091E403E091E503F09189
:1013E000E60320E030E0241735078CF4A081B181BA
:1013F000A617B70741F4A481B581A817B90719F456
:10140000CF010C9417142F5F3F4F3896ECCF0895FF
:10141000009769F0FC0101900020E9F73197AF01D6
:10142000481B590BBC0189EA92E00C94000F80E044
:1014300090E008958AEC91E00C94080ACF93DF9332
:101440000E94080AEC010E941A0A8C0F9D1FDF916E
:10145000CF9108958F929F92AF92BF920F931F9357
:10146000CF93DF93CDB7DEB7A1970FB6F894DEBF69
:101470000FBECDBF19A2423008F44AE08E010F5DC5
:101480001F4F842E912CA12CB12CA50194010E94F8
:10149000501DE62FB901CA0101501109EA3014F4B8
:1014A000E05D01C0E95CD801EC93232B242B252BB4
:1014B00061F7C8010E94080AA1960FB6F894DEBF32
:1014C0000FBECDBFDF91CF911F910F91BF90AF9015
:1014D0009F908F900895CF93DF930E94CA09EC01EB
:1014E0000E941A0A8C0F9D1FDF91CF9108952091C1
:1014F0002502211103C08FEF9FEF08955FB7F89485
:1015000022E02093E9002091F20030E01216130649
:1015100014F421E030E0422FFC0184E6415038F021
:10152000289A809324029091F1009193F7CF21158E
:10153000310521F08091F200882319F05FBFC901C5
:1015400008958BE68093E800F9CF2FB7F89483E0F5
:101550008093E9009091E800892F807295FF04C084
:101560009091F20080E4891B2FBF08951F920F9283
:101570000FB60F9211242F933F934F935F936F9366
:101580007F938F939F93AF93BF93EF93FF93E091DC
:10159000FA03F091FB03309709F451C0968DA685AC
:1015A000B785858591FF04C09C91892329F447C0A4
:1015B0009C91892309F043C0A389B4899C918589B2
:1015C000809589238C93868997890197F1F7608D9F
:1015D000718DA685B785558538E020E0CB01019750
:1015E000F1F7822F90E095958795282F4C91452310
:1015F00009F02068315091F7868D81FD209580910A
:10160000220290E001968F739927309123023817B8
:1016100049F0A0912202B0E0AE5CBD4F2C938093C4
:10162000220203C0868D8160868F828D938D019703
:10163000F1F7A389B4899C918589892B8C93FF91BB
:10164000EF91BF91AF919F918F917F916F915F913A
:101650004F913F912F910F900FBE0F901F901895B3
:1016600080912A0281110DC082E08093260284E0DD
:1016700080932702109229021092280281E0809321
:101680002A0286E292E00895CF93DF9390E0FC0176
:10169000EA55FD4F2491FC01E957FD4F84918823C1
:1016A00061F190E0880F991FFC01ED54FE4FC59148
:1016B000D491FC01E758FD4FA591B491611109C087
:1016C0009FB7F8948881209582238883EC912E23FC
:1016D0000BC0623061F49FB7F8948881322F309547
:1016E00083238883EC912E2B2C939FBF06C08FB74A
:1016F000F894E8812E2B28838FBFDF91CF91089536
:10170000823108F08251E82FF0E0E955FE4FE49174
:1017100080917B00E3FB222720F930E095E0220F47
:10172000331F9A95E1F78F7D282B20937B00E7707C
:10173000E064E0937C0080917A00806480937A007A
:1017400080917A0086FDFCCF80917800209179000D
:1017500090E0922B08953FB7F89480911E029091EB
:101760001F02A0912002B091210226B5A89B05C0BE
:101770002F3F19F00196A11DB11D3FBFBA2FA92F10
:10178000982F8827820F911DA11DB11DBC01CD018D
:1017900042E0660F771F881F991F4A95D1F7089579
:1017A0008F929F92AF92BF92CF92DF92EF92FF9271
:1017B0006B017C010E94AB0B4B015C01C114D10495
:1017C000E104F104F1F00E94AB0BDC01CB018819BC
:1017D0009909AA09BB09883E9340A105B10570F398
:1017E00021E0C21AD108E108F10888EE880E83E0F2
:1017F000981EA11CB11CC114D104E104F10419F715
:10180000DDCFFF90EF90DF90CF90BF90AF909F9093
:101810008F9008952FB7F89460911A0270911B026F
:1018200080911C0290911D022FBF08950F931F936A
:10183000CF938091B5039091B603DC01ED91FC91BB
:101840000084F185E02D0995892B09F4E5C060E05D
:1018500070E0CB010E94D00BC091D3038091B503FF
:101860009091B603DC01ED91FC910284F385E02DAB
:10187000C1111EC009958093BF038FEE91E00E94B5
:10188000CA09E091D303F0E0E255FC4F618970E0B2
:1018900080E090E040E10E942A0A8DEE91E00E94F3
:1018A000CA098091BF038E3721F68091D303B0C05F
:1018B0000995EC2FF0E0E255FC4F818BE091D303CA
:1018C000F0E0E255FC4F618970E080E090E040E19B
:1018D0000E942A0A8BEE91E00E94CA098091D303EC
:1018E0008230A1F08930C1F0813009F091C090912F
:1018F000C0039F3F09F48CC01092D30381E0809312
:10190000D5031092D8031092D703B0C09091C103B1
:10191000963009F47DC0F0CF0E941A0AE091D303FB
:10192000F0E0E255FC4F81898F3E31F7E0ECF3E0C7
:1019300086EC93E020E030E04191240F311D8E17BA
:101940009F07D1F78091C60390E0982F8827409198
:10195000C703840F911D3195219531098217930793
:1019600059F61092D303E091C203E13409F44DC05B
:10197000E093D6038091C40390E0982F88272091AC
:10198000C503820F911D9093D8038093D7034E2FE8
:1019900050E0FA01FA97E631F10570F5EB59FF4F87
:1019A0000C94A51D85E022C080FF02C089E01EC006
:1019B00081FF02C084E01AC083709927892B09F443
:1019C0005BC08AE013C080FF02C087E00FC081FFC8
:1019D00053C082E00BC080FF02C088E007C081FFD7
:1019E0004BC083E003C086E001C08BE08093D50349
:1019F00081E08093D90340C081E08093D5031092A9
:101A0000D8031092D7038093D9031092DA0334C01D
:101A10008F5F8093D3030DCF8091DA03882361F128
:101A20000E940A0C0091B7031091B8032091B903EA
:101A30003091BA03DC01CB01801B910BA20BB30BDD
:101A40000091BB031091BC032091BD033091BE03F4
:101A500080179107A207B30778F01092D303109272
:101A6000D5031092D8031092D70381E08093D90355
:101A70001092DA0380E002C08091D903CF911F91C8
:101A80000F9108950F931F93CF93DF938093CC030F
:101A90007093CE036093CF03EAECF3E020ED33E0E4
:101AA00080E090E04191840F911D2E173F07D1F700
:101AB0009195819591099093D0038093D103809162
:101AC000CD03882361F08091DA03882341F060E040
:101AD00070E0CB010E94D00B0E94160CF4CF0E9444
:101AE0001A0A82EE91E00E94CA09C9ECD3E003ED24
:101AF00013E0699170E080E090E040E10E942A0AE2
:101B000080EE91E00E94CA090C171D0791F70E9410
:101B10001A0A8091B5039091B603DC01ED91FC9116
:101B20000280F381E02D4AE050E069EC73E0099512
:101B30000E940A0C6093B7037093B8038093B903B3
:101B40009093BA038091CD0391E0811101C090E0A0
:101B50009093DA0381110AC06AE070E080E090E0BF
:101B6000DF91CF911F910F910C94D00BDF91CF910A
:101B70001F910F91089521E02093B403BC0183E0ED
:101B80000C94420D8F929F92AF92BF92CF92DF92B0
:101B9000EF92FF92CF936B017C010E940A0C4B01E4
:101BA0005C01C114D104E104F10441F4C090BB0311
:101BB000D090BC03E090BD03F090BE030E94160CD1
:101BC000C82F811113C00E940A0CDC01CB018819B7
:101BD0009909AA09BB09C816D906EA06FB0630F01E
:101BE00060E070E0CB010E94D00BE8CF8C2FCF914A
:101BF000FF90EF90DF90CF90BF90AF909F908F902D
:101C000008954091750250917602209173023091AF
:101C1000740242175307B4F49091E8009570E1F311
:101C20009091E80092FD19C08093F10080917502B7
:101C30009091760201968F739927892B19F48EEF74
:101C40008093E800809175029091760201969093BE
:101C500076028093750281E0089580E00895DF9216
:101C6000EF92FF920F931F93CF93DF93D82E8A01A9
:101C70007B01E40EF51EEB01CE15DF0571F0D7FEFA
:101C800003C0FE01849101C088810E94010E21964B
:101C90008111F2CF8FEF9FEF01C0C801DF91CF918B
:101CA0001F910F91FF90EF90DF900895615030F0F9
:101CB0002091F100FC0120830196F8CF289A84E658
:101CC000809324020895CF92DF92EF92FF920F93B8
:101CD0001F93CF93DF936C017A018B01C0E0D0E0BA
:101CE000CE15DF0581F0D8016D918D01D601ED9102
:101CF000FC910190F081E02DC6010995892B11F02E
:101D00002196EECF7E01C701DF91CF911F910F91F8
:101D1000FF90EF90DF90CF900895CF93DF931F92C5
:101D2000CDB7DEB76983DC01ED91FC910280F381D0
:101D3000E02D41E050E0BE016F5F7F4F09950F90AD
:101D4000DF91CF91089583E08093E9008091F200C4
:101D5000882319F08AE38093E8000895FC018485C4
:101D6000958597FD0BC09FB7F89482E08093E900BA
:101D70008091F2009FBF90E0019608959FB7F8947C
:101D800082E08093E9008091F2009FBF90E0089587
:101D9000089580E090E008950E9472200F931F93B1
:101DA000CF93DF931F92CDB7DEB782E0898342E401
:101DB00050E069EF71E080E80E942F0E0E94300B26
:101DC000DC0112960D911C9113970115110589F0F4
:101DD000D801ED91FC910280F381E02DBE016F5F8F
:101DE0007F4FC801099597FD04C0F8010085118552
:101DF000ECCF89810F90DF91CF911F910F910895C2
:101E00008F929F92AF92BF92CF92DF92EF92FF920A
:101E10000F931F93CF93DF936C017B018A01809115
:101E20000D01882309F45CC080912502882309F400
:101E300057C08091F00180FF05C08091E000826072
:101E40008093E000E801B12C8AEFA82E93E0892E60
:101E50002AE3922E209711F4BB20D9F10E94A50A03
:101E600081110AC0AA94AA20D9F161E070E080E053
:101E700090E00E94D00BEECF282F30E0C217D3079E
:101E80000CF48C2F9FB7F8948092E9002091E80021
:101E900025FF1DC0282F30E0C21BD30BF701815056
:101EA00020F041914093F100FACFE20EF31EBB20E7
:101EB00019F09092E8000AC08091E80085FD07C003
:101EC0009092E800BB24B394209709F0B12C9FBFF7
:101ED000C1CF5D9A84E6809378021016110644F013
:101EE00081E090E0F6019383828380E090E001C07E
:101EF000C801DF91CF911F910F91FF90EF90DF907C
:101F0000CF90BF90AF909F908F9008950E94A50AA8
:101F100090E008950F931F93CF93DF931F92CDB757
:101F2000DEB78C01FC018485958597FF0EC0CE013C
:101F300001960E94770A019719F4898190E002C006
:101F40008FEF9FEFF80195878487F8018485958549
:101F50000F90DF91CF911F910F910895CF93DF9351
:101F60001F92CDB7DEB7FC018485958597FD05C02E
:101F70002FEF3FEF358724870BC0CE0101960E94DB
:101F8000770A019719F4898190E002C08FEF9FEFE3
:101F90000F90DF91CF9108950C94231F0C94231F71
:101FA0001F920F920FB60F9211248F939F938091DF
:101FB000E1009091E100937F9093E10083FF0FC0D7
:101FC0001092E90091E09093EB001092EC0092E304
:101FD0009093ED001092250298E09093F00082FF1C
:101FE00020C093E09093E9009091F200992319F0BA
:101FF0009AE39093E80090917802992339F09091B8
:102000007802915090937802992389F1909124025B
:10201000992339F0909124029150909324029923AE
:1020200041F184FF10C08091E2008E7E8160809338
:10203000E2008091E1008F7E8093E1008091F001C9
:102040008E7E806111C080FF16C08091E2008E7E7E
:1020500080618093E2008091E1008E7E8093E100B8
:102060008091F0018E7E81608093F00104C05D98C4
:10207000CDCF2898D6CF9F918F910F900FBE0F9004
:102080001F9018951F920F920FB60F921124CF92A6
:10209000DF92EF92FF920F931F932F933F934F93F3
:1020A0005F936F937F938F939F93AF93BF93EF93C0
:1020B000FF93CF93DF93CDB7DEB76C97DEBFCDBF75
:1020C0001092E9008091E80083FFFBC168E0CE0137
:1020D00045960E94560E82EF8093E8008D8987FF17
:1020E00005C09091E80090FFFCCF03C09EEF909355
:1020F000E800982F907609F0C6C09E894F89588DC8
:102100002F89F88C91110CC0803829F48091F1014D
:102110008093F10002C01092F1001092F10045C1CD
:10212000913051F4811141C14130510509F03DC157
:102130008091F1018D7F0BC0933061F4811135C125
:102140004130510509F031C18091F10182608093E5
:10215000F1012BC1953049F48091E80080FFFCCF5C
:10216000822F80688093E30020C1963009F05EC022
:102170000B8D1C8D22E01092E900109276021092D5
:102180007502F21232C010927402109273020E9411
:10219000CE0E99E0BE016F5F7F4FDB01E92F1D92EC
:1021A000EA95E9F79983FA8291E09E8390EA98870D
:1021B0009AEF99872091750230917602275F3F4F01
:1021C0003C832B838D831092E9001092760210924B
:1021D0007502109374020093730249E050E080E0AE
:1021E0000E942F0E0E94CE0EE0C010937402009346
:1021F00073020E94300BDC0112960D911C91139713
:102200000115110509F4BBC0D801ED91FC910480C2
:10221000F581E02DBE016B5E7F4FC80109950097E7
:1022200009F0C7C0F80100851185EACF973009F49D
:1022300045C1983021F481E08093F100B6C0993017
:1022400009F0B3C0837009F039C1E6E4F1E081E040
:1022500031E096E32081211109C08EE78093EA00E6
:102260001092EA008F89809325029FC08093E90035
:102270003093EB0021912093EC009093ED008F5F61
:10228000873041F7EACF8B8D9C8D1092E900109238
:102290007602109275029093740280937302898D76
:1022A000811153C08E899D89913A49F4813209F098
:1022B00005C147E050E066E071E080E0BBC09132CC
:1022C00009F0FCC0833269F48F89988DA0E0B0E0FA
:1022D0008093020190930301A0930401B093050140
:1022E00064C0803269F48091E80082FFFCCF67E02F
:1022F00086E091E00E94560E8BEF8093E80055C077
:10230000823209F052C08F8980930D01EEEFFFE712
:10231000859194918B3F9C4D19F0E0E0F8E002C06C
:10232000EEEFFAE08091060190910701A09108017B
:10233000B0910901803B9440A105B10509F09EC010
:1023400080910D0180FF79C099C00E94300BFC0183
:10235000028113810115110509F4B0C0D801ED9176
:10236000FC910190F081E02DBE016B5E7F4FC801B2
:10237000099581111AC0F80100851185EBCFF1E0B4
:10238000FF1609F44EC0F3E0FF1298C08F8988232E
:1023900009F44AC0823089F440E86DE08DE592E0AE
:1023A0000E94421A882309F489C08EEF8093E800C6
:1023B00088C018161906CCF381C0813029F440E892
:1023C0006BE081E592E0ECCF833009F077C00E94AA
:1023D000300BDC011296ED90FC9013978E010F5F8D
:1023E0001F4F6801E114F10479F0D701ED91FC91E0
:1023F0000680F781E02DB801C7010995080F111D6E
:10240000F701E084F184EECFD8011C92F60101902F
:102410000020E9F73197BF016C197D0940E0C60142
:10242000BFCF6FE372E002C06BE372E0FB01449147
:1024300050E080E80E942F0EB8CFEE3F2AE0F2076E
:1024400051F0808191818737A7E79A0721F0909317
:10245000FF0A8093FE0A87E797E791838083809144
:102460006000809377029BE088E10FB6F894A8950E
:10247000809360000FBE9093600097CF8081918120
:102480008737974709F091CFA895809160008861C0
:10249000809360008091770280936000EE3FBAE005
:1024A000FB0739F08091FE0A9091FF0A91838083A7
:1024B0007CCF1092FF0A1092FE0A77CF81E28093C0
:1024C000EB006C960FB6F894DEBF0FBECDBFDF9168
:1024D000CF91FF91EF91BF91AF919F918F917F919C
:1024E0006F915F914F913F912F911F910F91FF90AD
:1024F000EF90DF90CF900F900FBE0F901F90189528
:10250000089508950F931F93CF93DF932091720244
:102510002F5F322F37703093720220FF02C020E805
:1025200001C020E031FD2064347009F02062205F9A
:10253000FC01EC01239600E011E06485662331F094
:1025400070E0C8010E94911D6F5F01C060E061876B
:10255000322F369F030E30E0311D1124311102C09D
:10256000168202C031503683662311F061506187B4
:102570003196CE17DF0709F7DF91CF911F910F91A9
:102580000895CF93DF93DC01EB0112964D915C919E
:1025900013979A01220F331F240F351F12966D9146
:1025A0007C91139714968D919C911597860F971F88
:1025B000481759078CF41D96ED91FC911E97E20F78
:1025C000F31F88818083898181838A8182834F5F21
:1025D0005F4F2D5F3F4FE2CFDF91CF910895CF92B4
:1025E000DF92EF92FF920F931F93CF93DF93EC0153
:1025F0006BE1C62E64E0D62E76E2E72E72E0F72E6F
:102600006C817D81C6018B5194408617970794F4A5
:10261000C7010E94911D12E0160F0E94C908819FF8
:10262000B0011124F6012081271B08F420E021933A
:102630006F01E6CF6330710569F420911B0480912E
:102640001C0490E0820F911D820F911D0E94911D2C
:1026500060931D040E94C9088C3DD0F40E94C908F3
:10266000F7E08F9FC0011124092F112707FD1A954C
:102670000E94C9082FE5829FC001112430EA390F5A
:10268000F801E55EFB4F2081230F08F42FEF208334
:10269000ABE1B4E07FEBF12C8D010B5114404C8188
:1026A0005D81041715070CF035C02D913F2D2223B5
:1026B00029F0279F312D112471113F5F232F220F05
:1026C000220F37FD06C036FD06C0622F20E030E045
:1026D00005C03FEF02C0322F20E06FEFEC858A810A
:1026E0009B81EE2339F0FA013197E80FF91FE01BC7
:1026F000F10B03C0F801E80FF91FCF01880F991FF4
:10270000E80FF91F8D859E85E80FF91F60833183DF
:102710002283C2CFDF91CF911F910F91FF90EF9055
:10272000DF90CF900895CF93DF9300D01F92CDB765
:10273000DEB7FB0129E732E0DC011E963C932E93C5
:102740001D9720811F962C931F97218150962C93C3
:102750005097228151962C932081298321812A83AD
:1027600022812B83BE016F5F7F4F0E94C1120F90A9
:102770000F900F90DF91CF910895CF93DF9300D00A
:102780001F92CDB7DEB7FB014081DC011F964C9351
:102790001F97318150963C935097228151962C93EC
:1027A00049833A832B83BE016F5F7F4F0E94C11222
:1027B0000F900F900F90DF91CF910895CF93DF93FB
:1027C00000D01F92CDB7DEB7FC01228533852617D6
:1027D0003707E9F0738762876130710559F063301C
:1027E000710589F4FC012785298320892A832189A1
:1027F0002B8303C019821A821B82BE016F5F7F4F39
:102800000E94C11202C00E94EF1281E001C080E06C
:102810000F900F900F90DF91CF910895FC012285CA
:1028200033852230310511F40C94EF120895CF93C3
:10283000DF93EC01E881F9810480F581E02D309788
:1028400009F00995EE81FF81309709F00995EA8139
:10285000FB810190F081E02D309709F009958A8184
:102860009B819093E4038093E3030E940A0C2091E0
:10287000EB033091EC03A091E303B091E403E0910A
:10288000E903F091EA0340E050E0421753076CF48B
:10289000C081D181CA17DB0721F4608771878287E5
:1028A00093874F5F5F4F7096F0CFDF91CF91089580
:1028B000CF93DF93CDB7DEB727970FB6F894DEBF7F
:1028C0000FBECDBF789484B5826084BD84B581602D
:1028D00084BD85B5826085BD85B5816085BD8091EB
:1028E0006E00816080936E00109281008091810063
:1028F000826080938100809181008160809381005B
:10290000809180008160809380008091910082603E
:1029100080939100809191008160809391008091DB
:1029200090008160809390008091C10084608093CA
:10293000C1008091C10082608093C1008091C1007C
:1029400081608093C1008091C30081608093C30047
:102950008091C00082608093C0008091C20081603D
:102960008093C20080917A00846080937A00809185
:102970007A00826080937A0080917A0081608093EF
:102980007A0080917A00806880937A001092250204
:102990001092F1011092F0018091D7008160809334
:1029A000D70080EA8093D80089B5806189BD89B558
:1029B000826089BD09B400FEFDCF61E070E080E077
:1029C00090E00E94D00B8091D8008F7C8061809332
:1029D000D8008091E000807F8093E0008091E1004A
:1029E0008E7E8093E1008DE08093E200559A209ADC
:1029F0005D9828988FEF9FEF9093B6028093B50271
:102A000068E873E180E090E00E94D00B6091E703FA
:102A10007091E8036F5F7F4F93E0660F771F9A9581
:102A2000E1F78091E5039091E6030E94AC1F90933B
:102A3000E6038093E5032091E7033091E803B901B1
:102A400043E0660F771F4A95E1F7FC01E60FF71F99
:102A50000CE013E01183008356E0E52E53E0F52EE1
:102A6000F382E28241E050E055834483178216826C
:102A70002F5F3F4F3093E8032093E703605F7F4F62
:102A80000E94AC1F9093E6038093E5034091E70317
:102A90005091E8039A0163E0220F331F6A95E1F732
:102AA000FC01E20FF31FF182E0821383028382E0D4
:102AB00090E095838483178216824F5F5F4F509317
:102AC000E8034093E70380910502811145C010920D
:102AD000F7011092F6018FEF8093FA018093FB01CA
:102AE0008093FC018093FD018093FE018093FF01A0
:102AF00081E0809300021092020210920102109273
:102B0000F9011092F8018091130290911402892B1F
:102B100031F484EF91E09093140280931302E091DA
:102B2000F201F091F301309721F084EF91E0958369
:102B3000848384EF91E09093F3018093F2011092EB
:102B40000402109203028CE291E09093F5018093CD
:102B5000F40181E0809305023E9A89E792E0909328
:102B6000F7018093F60180E190E090930202809358
:102B700001028091FC029091FD02A091FE02B091B1
:102B8000FF02843C29E09207A105B10520F484EC02
:102B900099E0A0E0B0E08093FC029093FD02A09346
:102BA000FE02B093FF0288EC8093F9028091F70354
:102BB00089838091F8038A838091F9038B83BE0116
:102BC0006F5F7F4F8CE993E00E9493138091F40331
:102BD00089838091F5038A838091F6038B83BE01FC
:102BE0006F5F7F4F8AE893E00E9493138091F10317
:102BF00089838091F2038A838091F3038B83BE01E2
:102C00006F5F7F4F88E793E00E9493138091EE03FC
:102C100089838091EF038A838091F0038B83BE01C7
:102C20006F5F7F4F86E693E00E9493138091F703D6
:102C300089838091F8038A838091F9038B83BE0195
:102C40006F5F7F4F84E593E00E9493138091F403BC
:102C500089838091F5038A838091F6038B83BE017B
:102C60006F5F7F4F82E493E00E9493138091F103A2
:102C700089838091F2038A838091F3038B83BE0161
:102C80006F5F7F4F80E393E00E9493138091EE0388
:102C900089838091EF038A838091F0038B83BE0147
:102CA0006F5F7F4F8EE193E00E94931363E070E0CB
:102CB00084E593E00E94DE1363E070E082E493E039
:102CC0000E94DE1363E070E080E393E00E94DE1375
:102CD00063E070E08EE193E00E94DE1362E070E05A
:102CE0008CE993E00E94DE1363E070E088E793E0F4
:102CF0000E94DE1389E991E00E941E0A86E10E948B
:102D0000800BBC01990F880B990B6115710581052A
:102D1000910511F00E94151D60E082E10E94440BB4
:102D200060E083E10E94440B60E084E10E94440B78
:102D300060E085E10E94440B60E08BE10E94440B5F
:102D400060E08AE10E94440B60E089E10E94440B4C
:102D500060E088E10E94440B109217041092160460
:102D6000109215041092140410921304109212047D
:102D70008DE991E0909319048093180480910804E0
:102D800098EF980F943048F022EF280F243028F065
:102D900026EE280F233008F04AC02DEB30E03093A8
:102DA0001304209312042BE931E03093150420938F
:102DB00014042CE231E0309317042093160494306D
:102DC00050F092EF980F943030F08A51833030F405
:102DD000A8E6B0E005C0A8E6B0E0EDC2A0E0B0E033
:102DE000833008F4E8C2E0E0F0E0808181608C93F9
:102DF0008091080498EF980F943008F0BDC22BE63C
:102E000030E03093100420930F04943008F0C1C2D6
:102E10009CEF980F81E001C0880F9A95EAF78093A4
:102E2000110480911804909119040197F1F7809191
:102E3000160490911704892B49F1E091FA03F0915F
:102E4000FB0343E0EC3FF40709F1309739F0A38925
:102E5000B4899C918589809589238C9380911A04EB
:102E60008E7F80931A0410922202109223028CEF1C
:102E700093E09093FB038093FA03E0910F04F091A9
:102E80001004908180911104892B80830E941A0A7A
:102E90008CE891E00E946B0A8BE591E00E946B0A3E
:102EA0008CEF93E09093B6038093B50381E0809319
:102EB000CD0360E070E08CE00E94420D60ED77E0B1
:102EC00080E090E00E94C20D68EC70E080E090E04D
:102ED0000E94D00B1092D9038091D503843079F0F1
:102EE000893069F08AE491E00E946B0A89E291E0FE
:102EF0000E946B0A8CE091E00E946B0AFFCF86EF84
:102F000090E00E946B0A6EE170E086E00E94420D44
:102F100060E070E088E40E94420D60E070E0CB0168
:102F20000E94C20D882331F01092D9038091D503FD
:102F30008B3019F08FEF9FEF04C08091D7039091F1
:102F4000D8039093B3038093B2038DEA91E00E947B
:102F5000080AC090B203D090B3030D2C000CEE0809
:102F6000FF08F7FE0EC06DE289EA92E00E948D0E26
:102F700066277727CB016C197D098E099F094AE0E6
:102F800003C04AE0C701B6010E942A0A0E941A0A39
:102F9000E091E303F091E4030480F581E02D3097A4
:102FA00009F009958CE093E09093E4038093E303A8
:102FB000E0910C03F0910D03309709F00995812CF5
:102FC00084E0982EA12CB12C332433948091DD031E
:102FD0000E94800B2091DF033091E003DC01A21BF3
:102FE000B30B9D01B7FF03C0319521953109409185
:102FF000E1035091E2034217530794F49093E003E6
:103000008093DF032FE130E0DC010E94AB1DA501BE
:1030100094010E941E1D622F70E086E00E94420D06
:103020008CE993E00E940E148AE893E00E940E144B
:1030300088E793E00E940E1486E693E00E940E1447
:1030400084E593E00E940E1482E493E00E940E1443
:1030500080E393E00E940E148EE193E00E940E1430
:103060008091ED0381110CC03092ED03E091E303F8
:10307000F091E4030190F081E02D309709F009957B
:10308000E091E303F091E4030280F381E02D3097B7
:1030900009F00995E12CF12CC12CD12C8091EB0386
:1030A0009091EC03C816D9060CF049C00091E903D1
:1030B0001091EA030E0D1F1DF801208131818091CE
:1030C000E3039091E4032817390791F580859185F2
:1030D000A285B385892B8A2B8B2B51F40E940A0C75
:1030E000D80118966D937D938D939C931B9720C068
:1030F0000E940A0CF8014084518462847384DC01CC
:10310000CB0184199509A609B709448455846684BE
:10311000778484159505A605B70550F0C8010E946F
:103120001714D80118961D921D921D921C921B9780
:10313000BFEFCB1ADB0AE0E1EE0EF11CAFCF0E942D
:10314000160C882381F08091B403882361F01092DB
:10315000D9038091D503853031F41092B4038BEB01
:1031600091E00E941E0AF090F9028091FC02909179
:10317000FD02A091FE02B091FF02892B8A2B8B2BBE
:10318000E9F00E94AB0B00911502109116022091FC
:10319000170230911802DC01CB01801B910BA20BAE
:1031A000B30B0091FC021091FD022091FE023091C0
:1031B000FF0280179107A207B307B8F20E94AB0B7A
:1031C0006093150270931602809317029093180271
:1031D000E0910403F0910503309759F0409100030A
:1031E0005091010360910203709103038F2D0995A3
:1031F000F82E00911302109114024F2C512C612CC7
:10320000712C0115110509F469C0D8011C96EC90C8
:103210001C978091FA029091FB028436910510F47C
:103220001C961C92D801ED91FC91428153815F83E1
:103230004E8319821A821B82F11019C0D8011D9683
:103240004D915C911E9712966D917C9113979E0102
:103250002F5F3F4FC801EE81FF810995D8011C9671
:10326000EC921C9714960D911C911597CACFF801FA
:103270003696AE014F5F5F4F6A01C80109969D8384
:103280008C832191222309F122802220F1F0822FC8
:1032900090E0A0E0B0E09C01AD012F5F3F4F4F4FA9
:1032A0005F4FC301B2010E94811D9B01AC01822DC1
:1032B00090E0A0E0B0E0BC01CD016F5F7F4F8F4F89
:1032C0009F4F0E94811DD6018C93BFEFCB1ADB0A62
:1032D0004C815D814E175F07A1F6B0CF809111023E
:1032E000909112028C010F5F1F4F109312020093F6
:1032F000110249979CF10E940A0C2B013C0188EEB7
:1033000093E0089FB001099F700D189F700D112464
:10331000072E000C880B990BC0900D02D0900E0266
:10332000E0900F02F0901002A30192012C193D09C8
:103330004E095F090E94501D3093FB022093FA0250
:1033400010921202109211020E940A0C60930D0258
:1033500070930E0280930F029093100260E170E070
:1033600080E090E00E94D00BA0E0B0E0AB2B09F42D
:103370002DCE0E9400002ACE22EF280F243008F420
:103380003ECD26EE280F233008F439CD20E030E082
:1033900038CD8E3041F08F3041F0803141F08131B5
:1033A00041F09AEE36CD88E03ACD82E038CD84E027
:1033B00036CD81E034CDE8E6F0E017CD362F90E051
:1033C000FC01EF53FE4F4491FC01EA55FD4F24915F
:1033D000FC01E957FD4F8491882309F452C044232E
:1033E000E1F150E0FA013197EF30F105B0F5EA5A1A
:1033F000FF4F0C94A51D909180009F7707C090917E
:1034000080009F7D03C090918000977F9093800003
:1034100024C094B59F7702C094B59F7D94BD1DC014
:10342000909190009F7707C0909190009F7D03C07E
:1034300090919000977F909390000FC09091C00062
:103440009F7703C09091C0009F7D9093C00005C0FE
:103450009091C200977F9093C200E82FF0E0EE0FAA
:10346000FF1FE758FD4FA591B4919FB7F894311114
:1034700004C08C912095282302C0EC912E2B2C9314
:103480009FBF0895DF92EF92FF920F931F93CF9308
:10349000DF93D82EF92EE42E062F10E0C8010196F6
:1034A000880F0E94010E83E00E94010ECD2DDF2DBA
:1034B0000C0F1D1FC017D10789F0E7FE03C0FE01E6
:1034C000849101C088810E94010EF82E80E00E9444
:1034D000010E8F2121968111EDCF01C081E0DF9196
:1034E000CF911F910F91FF90EF90DF900895CF93B0
:1034F000DF93EC0184EF91E0A0E0B0E08E839F8346
:10350000A887B9878AE0EBE3F1E0DE0154960190E9
:103510000D928A95E1F71E8E82E08F8F1CA21DA26C
:10352000DF91CF9108958091E5039091E6030E9489
:10353000231F8091E9039091EA030E94231F8AE7E9
:1035400091E09093FD038093FC038091FA039091A6
:10355000FB038C5F934071F4E0910F04F091100431
:103560009081809111048095892380831092FB03C0
:103570001092FA0308950F931F93CF931092AC0209
:103580001092AB0288EE93E0A0E0B0E08093AD0231
:103590009093AE02A093AF02B093B00220E531E069
:1035A0003093AA022093A9022FEF3FEF3093B60287
:1035B0002093B5021092FF031092FE038093000443
:1035C00090930104A0930204B09303048AE791E06E
:1035D0009093FD038093FC03109213041092120445
:1035E00010921504109214041092170410921604ED
:1035F000109219041092180460911A046E7F6D7F66
:1036000060931A046695617081E068278BE00E94E0
:10361000DE1961E08BE00E94440BE1EBF2E0E49103
:10362000E0930C04E2E9F2E0E491F0E0EE0FFF1F1A
:10363000E758FD4F8591949190930E0480930D046B
:1036400060E08AE00E94440B80911A0481FD04C06E
:1036500061E08AE00E94DE198AE080930804E0EBD2
:10366000F2E0E491E0930904E1E9F2E0E491F0E0B2
:10367000EE0FFF1FE559FD4F8591949190930B0438
:1036800080930A048EE194E00E94771ACFEFC093F2
:10369000F7031092F8031092F9031092F40380E8F4
:1036A0008093F5031092F603C093F103C093F203E5
:1036B0001092F3031092EE031092EF03C093F00305
:1036C000109245041092440410924704109246044C
:1036D000109249041092480484E494E09093E40327
:1036E0008093E3031092E6031092E5031092E8033F
:1036F0001092E7031092EC031092EB031092ED038B
:1037000082E791E09093DC038093DB0387E190E014
:103710009093DE038093DD030CE010E01093E2034E
:103720000093E1031092E0031092DF0360E00E9437
:10373000440B8AE691E09093AF038093AE0385EB50
:1037400093E00E94771A82E691E090939D03809324
:103750009C0321E030E030939F0320939E0343E0DD
:1037600050E05093A1034093A00390938B03809368
:103770008A0364E070E070938D0360938C03509330
:103780008F0340938E03909379038093780369E0CD
:1037900070E070937B0360937A0350937D034093B2
:1037A0007C039093670380936603109369030093EF
:1037B000680350936B0340936A039093550380937F
:1037C00054031092570310925603309359032093D9
:1037D0005803909343038093420347E050E0509393
:1037E000450340934403309347032093460390934B
:1037F00031038093300348E050E05093330340930B
:103800003203309335032093340390931F03809346
:103810001E038FE090E09093210380932003309368
:10382000230320932203A091F803F091F903E09180
:10383000F4037091F5036091F6035091F103409108
:10384000F2033091F3032091EE039091EF03809106
:10385000F003B091F703B0931203A0931303F09316
:103860001403E093150370931603609317035093AA
:1038700018034093190330931A0320931B0390936A
:103880001C0380931D0386EF97E090930D038093B4
:103890000C038DEE97E090930F0380930E0310922C
:1038A00011031092100384E991E090930703809331
:1038B000060389E296E0909309038093080310922F
:1038C0000B0310920A03C093F9021092FB021092AC
:1038D000FA0210920503109204038FEF9FEFDC01B0
:1038E0008093000390930103A0930203B09303031A
:1038F000CF911F910F9108958F929F92AF92BF9297
:10390000CF92DF92EF92FF92CF93DF93EC01688129
:1039100079818A819B81611571058105910521F469
:1039200064E279ED8BE597E02DE133EF41E050E083
:103930000E941E1D49015A019B01AC01A7EAB1E496
:103940000E943D1D6B017C01ACEEB4EFA50194011A
:103950000E944B1DDC01CB018C0D9D1DAE1DBF1DBA
:10396000B7FF03C00197A109B04888839983AA8350
:10397000BB83BC01CD019F77DF91CF91FF90EF908A
:10398000DF90CF90BF90AF909F908F9008958F92CF
:103990009F92AF92BF92CF92DF92EF92FF9260918F
:1039A0000E0170910F01809110019091110161152C
:1039B00071058105910521F464E279ED8BE597E0CD
:1039C0002DE133EF41E050E00E941E1D49015A01F4
:1039D0009B01AC01A7EAB1E40E943D1D6B017C0193
:1039E000ACEEB4EFA50194010E944B1DDC01CB01AC
:1039F0008C0D9D1DAE1DBF1DB7FF03C00197A10912
:103A0000B04880930E0190930F01A0931001B093E2
:103A10001101BC01CD019F77FF90EF90DF90CF9017
:103A2000BF90AF909F908F90089560930E01709318
:103A30000F0180931001909311010895052E97FBBB
:103A40001EF400940E94351D57FD07D00E94501DA2
:103A500007FC03D04EF40C94351D509540953095DD
:103A600021953F4F4F4F5F4F0895909580957095EA
:103A700061957F4F8F4F9F4F08950E94721DA59FA4
:103A8000900DB49F900DA49F800D911D1124089559
:103A9000B7FF0C943D1D0E943D1D821B930B0895A2
:103AA000A1E21A2EAA1BBB1BFD010DC0AA1FBB1F42
:103AB000EE1FFF1FA217B307E407F50720F0A21BB4
:103AC000B30BE40BF50B661F771F881F991F1A9421
:103AD00069F760957095809590959B01AC01BD014B
:103AE000CF010895A29FB001B39FC001A39F700DA5
:103AF000811D1124911DB29F700D811D1124911DF6
:103B00000895DB018F939F930E943D1DBF91AF915C
:103B1000A29F800D911DA39F900DB29F900D112427
:103B2000089597FB072E16F4009407D077FD09D06F
:103B30000E94B21D07FC05D03EF4909581959F4FE1
:103B40000895709561957F4F0895EE0FFF1F0590C2
:103B5000F491E02D09940E94721DB7FF0895821B15
:103B6000930B0895AA1BBB1B51E107C0AA1FBB1FE3
:103B7000A617B70710F0A61BB70B881F991F5A95F9
:103B8000A9F780959095BC01CD0108950E94CD1DA7
:103B90006894B1110C945C1E08950E94411E88F037
:103BA0009F5798F0B92F9927B751B0F0E1F0660F01
:103BB000771F881F991F1AF0BA95C9F714C0B13042
:103BC00091F00E945B1EB1E008950C945B1E672F7C
:103BD000782F8827B85F39F0B93FCCF38695779571
:103BE0006795B395D9F73EF490958095709561955A
:103BF0007F4F8F4F9F4F0895E89409C097FB3EF485
:103C000090958095709561957F4F8F4F9F4F992329
:103C1000A9F0F92F96E9BB279395F69587957795A7
:103C20006795B795F111F8CFFAF4BB0F11F460FF67
:103C30001BC06F5F7F4F8F4F9F4F16C0882311F0BF
:103C400096E911C0772321F09EE8872F762F05C0D3
:103C5000662371F096E8862F70E060E02AF09A956E
:103C6000660F771F881FDAF7880F9695879597F963
:103C7000089557FD9058440F551F59F05F3F71F05C
:103C80004795880F97FB991F61F09F3F79F08795C3
:103C90000895121613061406551FF2CF4695F1DF4C
:103CA00008C0161617061806991FF1CF86957105DC
:103CB000610508940895E894BB2766277727CB0110
:103CC00097F908950E94671E08F48FEF0895990FE1
:103CD0000008550FAA0BE0E8FEEF16161706E807D6
:103CE000F907C0F012161306E407F50798F0621BF7
:103CF000730B840B950B39F40A2661F0232B242BCC
:103D0000252B21F408950A2609F4A140A6958FEFEA
:103D1000811D811D08950F931F93CF93DF938230F0
:103D2000910510F482E090E0E0914C04F0914D0494
:103D300020E030E0A0E0B0E0309719F140815181FF
:103D40000281138148175907C8F08417950769F451
:103D5000109731F012960C93129713961C9327C06C
:103D600000934C0410934D0422C02115310519F025
:103D70004217530718F49A01BD01EF01DF01F80162
:103D8000DBCF21153105F9F0281B390B2430310523
:103D900080F48A819B816115710521F0FB01938379
:103DA000828304C090934D0480934C04FE013296AC
:103DB00044C0FE01E20FF31F819391932250310919
:103DC000398328833AC020914A0430914B04232B35
:103DD00041F4209114013091150130934B0420934C
:103DE0004A0420911201309113012115310541F44B
:103DF0002DB73EB74091160150911701241B350B8A
:103E0000E0914A04F0914B04E217F307A0F42E1B53
:103E10003F0B2817390778F0AC014E5F5F4F24172E
:103E2000350748F04E0F5F1F50934B0440934A04F0
:103E30008193919302C0E0E0F0E0CF01DF91CF9158
:103E40001F910F910895CF93DF93009709F481C0DC
:103E5000FC01329713821282A0914C04B0914D0460
:103E6000109781F420813181820F931F20914A04A1
:103E700030914B042817390751F5F0934B04E09328
:103E80004A0467C0ED0120E030E0CE17DF0740F4C0
:103E90004A815B819E0141155105F1F0EA01F5CFA0
:103EA000D383C28340815181840F951FC817D907DE
:103EB00059F488819981840F951F0296918380839C
:103EC0008A819B81938382832115310529F4F093A4
:103ED0004D04E0934C043DC0E901FB83EA83499122
:103EE0005991C40FD51FEC17FD0761F480819181B2
:103EF000840F951F0296E9019983888382819381BB
:103F00009B838A83E0E0F0E012968D919C91139759
:103F1000009719F0FD01DC01F7CF8D919C9111976D
:103F20009D012E5F3F4F820F931F20914A043091D5
:103F30004B042817390769F4309729F410924D047F
:103F400010924C0402C013821282B0934B04A093CF
:103F50004A04DF91CF910895A0E0B0E0E2EBFFE1E9
:103F60000C948420EC01009721F4CB010E948B1E5D
:103F7000B4C0FC01E60FF71F9C0122503109E21783
:103F8000F30708F4A8C0D9010D911C9111970617E9
:103F90001707B0F00530110508F49BC0C80104975D
:103FA0008617970708F495C002501109061B170BD6
:103FB000019311936D937C93CF010E94231F89C0BD
:103FC0005B01A01AB10A4C01800E911EA0914C0415
:103FD000B0914D04612C712CE12CF12C109709F457
:103FE00046C08D919C911197A815B905B1F56C014A
:103FF00042E0C40ED11CCA14DB0478F14C018A18CB
:104000009B08640142E0C40ED11C1296BC9012972A
:104010001396AC91B5E0CB16D10440F0B282A383E5
:1040200091828082D9016D937C9309C00E5F1F4FEE
:10403000800F911FF90191838083EB2DFA2FE114FA
:10404000F10431F0D7011396FC93EE93129741C01F
:10405000F0934D04E0934C043CC06816790608F4D4
:104060003C017D0112960D90BC91A02DB7CF80919F
:104070004A0490914B0488169906E1F46616770677
:10408000C8F48091120190911301009741F48DB70B
:104090009EB74091160150911701841B950BE817AC
:1040A000F907C8F4F0934B04E0934A04F9017183D3
:1040B00060830FC0CB010E948B1E7C01009759F0DA
:1040C000A801BE010E947720CE010E94231FC701D4
:1040D00004C0CE0102C080E090E0CDB7DEB7EEE0D4
:1040E0000C94A02081E090E0F8940C94B720FB01A0
:1040F000DC0102C001900D9241505040D8F7089564
:104100002F923F924F925F926F927F928F929F92E7
:10411000AF92BF92CF92DF92EF92FF920F931F93D5
:10412000CF93DF93CDB7DEB7CA1BDB0B0FB6F89486
:10413000DEBF0FBECDBF09942A88398848885F84C6
:104140006E847D848C849B84AA84B984C884DF8037
:10415000EE80FD800C811B81AA81B981CE0FD11D1B
:104160000FB6F894DEBF0FBECDBFED01089511E08C
:10417000C4E6D1E004C0FE010E94A51D2196C5360B
:08418000D107C9F7F894FFCF45
:104188003905FFFFFFFF00E100000000000001000B
:10419800000000004E04200000000000CC0ECC0EF1
:1041A800CC0E9501B901BD010000000003054605CC
:1041B80092019501B9018F01C001C87EFF06000177
:1041C80000000000EF00C180810000000000000036
:1041D8008D0E000F860FA30EAE0EAE0F8A0F0000D5
:1041E8000000C808C608000000008112CE0F0000B9
:1041F80000008012CC0F000000004109630EC90EB8
:1042080040099109A90928096368616E67652074E6
:10421800686520626F617264002053746172742053
:104228007570206163746976697469790066696C70
:104238006520636F756E74203D2000736F756E6422
:0E42480020636F6D706C657465000D0A0000D8
:00000001FF
