:100000000C9458010C9480010C9480010C94800194
:100010000C9480010C9480010C9480010C9480015C
:100020000C9480010C94B6100C94EA0A0C945C0BAE
:100030000C9480010C9480010C9480010C9480013C
:100040000C9480010C9480010C9480010C9480012C
:100050000C9480010C9480010C9480010C94D108C4
:100060000C9480010C9480010C9480010C9480010C
:100070000C9480010C9480010C9480010C948001FC
:100080000C9480010C9480010C9480010C948001EC
:100090000C9480010C9480010C9480010C948001DC
:1000A0000C9480010C9480010C948001D11BD41B12
:1000B000C31BC71BCB1BF51BF51BF51BD81BDC1B80
:1000C000E01BE61BEA1BF51BF01BB712BF12C9129F
:1000D000A612C912A812C712D012C912C912C91287
:1000E000C912C912C912C912C912D012C912C91231
:1000F000C912C912C9124446506C61796572204D0B
:10010000696E69206F6E6C696E652E00322E506CC0
:100110006561736520696E7365727420746865200B
:10012000534420636172642100312E506C65617309
:1001300065207265636865636B2074686520636F12
:100140006E6E656374696F6E2100556E61626C65D9
:1001500020746F20626567696E3A00496E69746940
:10016000616C697A696E67204446506C617965728A
:10017000202E2E2E20284D61792074616B6520334E
:100180007E35207365636F6E647329004446526F39
:10019000626F74204446506C61796572204D696EBF
:1001A000692044656D6F00080B000202020100091E
:1001B00004000001020200000524001001052401D2
:1001C000010104240206052406000107058103102D
:1001D000004009040100020A000000070502024075
:1001E0000000070583024000000403090412010017
:1001F00002EF020140412337800001010203014167
:10020000726475696E6F204C4C430041726475696D
:100210006E6F204D6963726F00000000002300269E
:100220000029002C002F0000000000250028002BD2
:10023000002E003100040404040403040502020239
:10024000020403020202020606060606060404026F
:100250000202040404080201104080401020408083
:10026000408008020401804020100201108010200C
:10027000404020070605040100080A0B0C0D090088
:10028000000000240027002A002D0030000000009C
:100290000200090F0000030401000C000000000030
:1002A000000000000000000000000000E519BD197A
:1002B00011241FBECFEFDAE0DEBFCDBF11E0A0E01A
:1002C000B1E0E4EAF0E402C005900D92AE3CB10763
:1002D000D9F724E0AEECB1E001C01D92AE34B20714
:1002E000E1F711E0C7E5D1E004C02197FE010E94CB
:1002F000331DC635D107C9F70E94AF130C944520B2
:100300000C94000080E991E008953E9A08950895C4
:10031000CF93DF9300D000D000D0CDB7DEB7AB01D4
:100320001C821D821E82DC01ED91FC910190F08106
:10033000E02D19821A821B829E012F5F3F4FBE0162
:100340006C5F7F4F099526960FB6F894DEBF0FBEFF
:10035000CDBFDF91CF910895FC01858596850895E5
:1003600080E090E008954F925F926F927F928F921B
:10037000AF92BF92CF92DF92EF920F931F93CF93E2
:10038000DF933C01EB010E94AB11F301278530891B
:10039000621B730B6A307105B0F3F894E881F98140
:1003A00078B1706468B16F7B68B9CB8488852C2D77
:1003B000281B822F2887BF844A805B801E850C857E
:1003C000DD841F5F0F5FD3949E813F81A984EA84FF
:1003D0004281D20120E0C32F522F322F3281442795
:1003E00088943111380F08F43FEF8195889410FDFF
:1003F000430F4795889411FD430F4795889412FD4C
:10040000430F4795889413FD430F4795889414FD37
:10041000430F4795889415FD430F4795889416FD23
:10042000430F4795889417FD430F47958894232FD2
:100430001111242F8C0D422F002C78B900C000C060
:1004400000C047FF68B930812227889400C000C0EF
:1004500000C000C000C000C000C0002C00C000C030
:1004600068B93111390F00C000C0002C78B900C044
:1004700000C000C046FF68B908F43FEF919588942A
:1004800000C000C000C000C000C000C000C0002C00
:1004900000C000C068B900FD230F00C000C0002CE0
:1004A00078B900C000C000C045FF68B9279588949E
:1004B00001FD230F00C000C000C000C000C000C08C
:1004C00000C0002C00C000C068B92795889400C007
:1004D00000C0002C78B900C000C000C044FF68B95B
:1004E00002FD230F2795889400C000C000C000C003
:1004F00000C000C000C0002C00C000C068B903FDEF
:10050000230F00C000C0002C78B900C000C000C09C
:1005100043FF68B92795889404FD230F00C000C0ED
:1005200000C000C000C000C000C0002C00C000C05F
:1005300068B92795889400C000C0002C78B900C025
:1005400000C000C042FF68B905FD230F27958894BD
:1005500000C000C000C000C000C000C000C0002C2F
:1005600000C000C068B906FD230F00C000C0002C09
:1005700078B900C000C000C041FF68B927958894D1
:1005800007FD230F00C000C000C000C000C000C0B5
:1005900000C0002C00C000C068B92795889400C036
:1005A00000C0002C78B900C000C000C040FF68B98E
:1005B000432F0111422F9A0D00C000C000C000C09F
:1005C00000C000C000C0002C00C000C068B900C05E
:1005D00000C000C0002C78B900C000C000C047FFB8
:1005E00068B931812227889400C000C000C000C0D3
:1005F00000C000C000C0002C00C000C068B93111AC
:100600003C0F00C000C0002C78B900C000C000C082
:1006100046FF68B908F43FEFEB0DF11D00C000C0C4
:1006200000C000C000C000C000C0002C00C000C05E
:1006300068B9D0FC230F00C000C0002C78B900C0FE
:1006400000C000C045FF68B927958894D1FC230FEE
:1006500000C000C000C000C000C000C000C0002C2E
:1006600000C000C068B92795889400C000C0002C65
:1006700078B900C000C000C044FF68B9D2FC230FA5
:100680002795889400C000C000C000C000C000C012
:1006900000C0002C00C000C068B9D3FC230F00C00C
:1006A00000C0002C78B900C000C000C043FF68B98A
:1006B00027958894D4FC230F00C000C000C000C060
:1006C00000C000C000C0002C00C000C068B9279561
:1006D000889400C000C0002C78B900C000C000C0E1
:1006E00042FF68B9D5FC230F2795889400C000C04D
:1006F00000C000C000C000C000C0002C00C000C08E
:1007000068B9D6FC230F00C000C0002C78B900C027
:1007100000C000C041FF68B927958894D7FC230F1B
:1007200000C000C000C000C000C000C000C0002C5D
:1007300000C000C068B92795889400C000C0002C94
:1007400078B900C000C000C040FF68B9432FD11085
:10075000422FC19500C000C000C000C000C000C052
:1007600000C0002C00C000C068B9CE0D00C000C0A1
:1007700000C078B900C000C000C047FF68B932812E
:100780002227889400C000C000C000C000C000C084
:1007900000C0002C00C000C068B93111380F00C083
:1007A00000C0002C78B900C000C000C046FF68B986
:1007B00008F43FEF8195889400C000C000C000C0DD
:1007C00000C000C000C0002C00C000C068B910FD0F
:1007D000230F00C000C0002C78B900C000C000C0CA
:1007E00045FF68B92795889411FD230F00C000C00C
:1007F00000C000C000C000C000C0002C00C000C08D
:1008000068B92795889400C000C0002C78B900C052
:1008100000C000C044FF68B912FD230F27958894DB
:1008200000C000C000C000C000C000C000C0002C5C
:1008300000C000C068B913FD230F00C000C0002C29
:1008400078B900C000C000C043FF68B927958894FC
:1008500014FD230F00C000C000C000C000C000C0D5
:1008600000C0002C00C000C068B92795889400C063
:1008700000C0002C78B900C000C000C042FF68B9B9
:1008800015FD230F2795889400C000C000C000C04C
:1008900000C000C000C0002C00C000C068B916FD38
:1008A000230F00C000C0002C78B900C000C000C0F9
:1008B00041FF68B92795889417FD230F00C000C039
:1008C00000C000C000C000C000C0002C00C000C0BC
:1008D00068B92795889400C000C0002C78B900C082
:1008E00000C000C040FF68B9432F1111422F8C0D8A
:1008F00000C000C000C000C000C000C000C0002C8C
:1009000000C000C068B900C0119709F096CD20EC76
:1009100033E0D2010E94391DDC01CB01F4E0B69531
:10092000A79597958795FA95D1F720E030E0B90122
:10093000EAE94E9E040C611D5E9E600D711D11243E
:10094000650D711D860F971FA11DB11D893E43E0E6
:100950009407A105B10508F434C0885E9340A1094D
:10096000B10942E0B695A795979587954A95D1F735
:1009700047E0849F080E211D949F200D311D1124F6
:10098000290F311D6091EF0170E0860F971F820FD4
:10099000931F4091F2035091F3036091F40370911F
:1009A000F503292F3327420F531F611D711D4093FB
:1009B000F2035093F3036093F4037093F503809371
:1009C000EF0178940E94AB11F301708B6787DF9180
:1009D000CF911F910F91EF90DF90CF90BF90AF908C
:1009E0008F907F906F905F904F9008950F931F931B
:1009F000CF93DF93CDB7DEB762970FB6F894DEBF23
:100A00000FBECDBF8C01F901DC011C968C917A835D
:100A100069835C834B835E834D8390819D87918145
:100A20009E8792819F87813029F4CE0101960E9492
:100A30009C0D06C01C861B861A86198618861F8286
:100A4000188A1A8A198AD801ED91FC910484F585D7
:100A5000E02DBE016F5F7F4FC801099562960FB60A
:100A6000F894DEBF0FBECDBFDF91CF911F910F91E4
:100A700008950F931F93CF93DF93CDB7DEB762979F
:100A80000FB6F894DEBF0FBECDBF8C01F901DC01BB
:100A90001C968C917A8369835C834B835E834D8340
:100AA00090819D8791819E8792819F87813029F4D3
:100AB000CE0101960E949C0D06C01C861B861A86DC
:100AC000198618861F8283E0888B1A8A198AD801B2
:100AD000ED91FC910484F585E02DBE016F5F7F4FA1
:100AE000C801099562960FB6F894DEBF0FBECDBF60
:100AF000DF91CF911F910F910895AF92BF92CF9246
:100B0000DF92EF92FF920F931F93CF93DF93EC014D
:100B10008B018BE10E9480115C01BC01990F880B55
:100B2000990B0E948C1D6093D6017093D70180931E
:100B3000D8019093D9018AE10E9480116C01BC0117
:100B4000990F880B990B0E948C1D6093D2017093B2
:100B5000D3018093D4019093D50189E10E94801143
:100B60007C01BC01990F880B990B0E948C1D60932E
:100B7000CE017093CF018093D0019093D10188E191
:100B80000E948011980124513109A216B30634F055
:100B9000A8014C5E5F4F4A155B0594F4C216D3065C
:100BA000C4F0A8014C5E5F4F4C155D0594F0809138
:100BB0009C03888380919D03898380919E032BC031
:100BC00080919F0388838091A00389838091A103F2
:100BD00022C0E216F3067CF0A8014C5E5F4F4E1572
:100BE0005F054CF080919903888380919A038983F3
:100BF00080919B0310C0821793077CF00C5E1F4FFF
:100C00000817190754F08091960388838091970301
:100C10008983809198038A8303C0188219821A827B
:100C2000CE01DF91CF911F910F91FF90EF90DF9058
:100C3000CF90BF90AF900895CF92DF92EF92FF9246
:100C40000F931F93CF93DF9300D01F92CDB7DEB7E2
:100C500082E10E9480118C01BC01990F880B990BD5
:100C60000E948C1D6B017C016093EB017093EC0181
:100C70008093ED019093EE0183E10E948011BC010D
:100C8000990F880B990B0E948C1D6093E70170935C
:100C9000E8018093E9019093EA0184E10E948011C8
:100CA000BC01990F880B990B0E948C1D6093E30186
:100CB0007093E4018093E5019093E60185E10E9441
:100CC0008011BC01990F880B990B0E948C1D6093B9
:100CD000DF017093E0018093E1019093E20120E055
:100CE00030E048E452E4C701B6010E94F01D181636
:100CF00074F5B801CE0101960E947D05998180911D
:100D0000BA02981317C09A818091BB02981312C03F
:100D10009091BC028B8198130DC063E070E084E475
:100D200093E00E94F80E8823D9F081E090E00E94C1
:100D3000691316C062E070E084E493E00E94F80E4C
:100D4000882389F082E090E00E9469130CC0109221
:100D5000DE0161E070E084E493E00E94F80E03C0DD
:100D600001E010E002C000E010E0C090E701D09088
:100D7000E801E090E901F090EA0120E030E048E489
:100D800052E4C701B6010E94F01D18169CF5C70178
:100D9000B6010E94541DCE0101960E947D059091DE
:100DA000BD028981981319C09091BE028A8198135F
:100DB00014C09091BF028B8198130FC063E070E064
:100DC00082E393E00E94F80E882321F081E090E016
:100DD0000E9469130F5F1F4F15C062E070E082E34D
:100DE00093E00E94F80E882369F082E090E00E9470
:100DF000691308C01092DE0161E070E082E393E0C5
:100E00000E94F80EC090E301D090E401E090E5016B
:100E1000F090E60120E030E048E452E4C701B6017A
:100E20000E94F01D18169CF5C701B6010E94541DC2
:100E3000CE0101960E947D059091C0028981981390
:100E400019C09091C1028A81981314C09091C20276
:100E50008B8198130FC063E070E080E293E00E9402
:100E6000F80E882321F081E090E00E9469130F5F63
:100E70001F4F15C062E070E080E293E00E94F80E20
:100E8000882369F082E090E00E94691308C0109204
:100E9000DE0161E070E080E293E00E94F80EC09015
:100EA000DF01D090E001E090E101F090E20120E06C
:100EB00030E048E452E4C701B6010E94F01D181664
:100EC0009CF5C701B6010E94541DCE0101960E94F7
:100ED0007D059091C3028981981319C09091C40235
:100EE0008A81981314C09091C5028B8198130FC00A
:100EF00063E070E08EE093E00E94F80E882321F01A
:100F000081E090E00E9469130F5F1F4F15C062E0FF
:100F100070E08EE093E00E94F80E882369F082E092
:100F200090E00E94691308C01092DE0161E070E059
:100F30008EE093E00E94F80E8091DE01811113C0D3
:100F40000430110581F481E08093DE018FEF8093FE
:100F5000A1020E940A126093DA017093DB01809370
:100F6000DC019093DD018091DE018823E9F00E948D
:100F70000A120091DA011091DB012091DC0130911D
:100F8000DD01DC01CB01801B910BA20BB30B893976
:100F90009A43A105B10540F080919503882321F083
:100FA00082E090E00E9414100F900F900F90DF915C
:100FB000CF911F910F91FF90EF90DF90CF90089508
:100FC00080919503882321F081E090E00C94141027
:100FD0000895CF92DF92EF92FF920F931F93CF93DA
:100FE000DF9300D01F92CDB7DEB788E891E00E9472
:100FF00049100AEB12E094E0C92ED12CE12CF12C1F
:101000000E94551CA70196010E94AC1CFB01EE0F2B
:10101000FF1F6E0F7F1FFB01E654FD4F2081918162
:101020008281D8013C91308311963C911197318394
:1010300012963C91129732832C9311969C931197A0
:1010400012968C930D5F1F4FB2E0063C1B07C1F652
:101050008091BA0289838091BB028A838091BC020D
:101060008B83BE016F5F7F4F8CEF92E00E94D70EA3
:101070008091BD0289838091BE028A838091BF02E4
:101080008B83BE016F5F7F4F8AEE92E00E94D70E86
:101090008091C00289838091C1028A838091C202BB
:1010A0008B83BE016F5F7F4F88ED92E00E94D70E69
:1010B0008091C30289838091C4028A838091C50292
:1010C0008B83BE016F5F7F4F86EC92E00E94D70E4C
:1010D0008091BA0289838091BB028A838091BC028D
:1010E0008B83BE016F5F7F4F84E493E00E94D70E35
:1010F0008091BD0289838091BE028A838091BF0264
:101100008B83BE016F5F7F4F82E393E00E94D70E17
:101110008091C00289838091C1028A838091C2023A
:101120008B83BE016F5F7F4F80E293E00E94D70EFA
:101130008091C30289838091C4028A838091C50211
:101140008B83BE016F5F7F4F8EE093E00E94D70ECE
:101150001092DE0188EC8093A1020F900F900F9007
:10116000DF91CF911F910F91FF90EF90DF90CF9083
:1011700008950C94B11E0895409100015091010111
:1011800025E038E0429FC001439F900D529F900D93
:101190001124875E994C9093010180930001890F7F
:1011A00008951F920F920FB60F9211242F933F9321
:1011B0008F939F93AF93BF938091F2039091F3032A
:1011C000A091F403B091F5033091190223E0230FAD
:1011D0002D3720F40196A11DB11D05C026E8230F6F
:1011E0000296A11DB11D209319028093F2039093E2
:1011F000F303A093F403B093F5038091F603909169
:10120000F703A091F803B091F9030196A11DB11D58
:101210008093F6039093F703A093F803B093F90338
:10122000BF91AF919F918F913F912F910F900FBEE2
:101230000F901F90189540911D0250911E02209111
:101240001B0230911C0242175307B4F49091E8003E
:101250009570E1F39091E80092FD19C08093F10040
:1012600080911D0290911E0201968F739927892B00
:1012700019F48EEF8093E80080911D0290911E0278
:10128000019690931E0280931D0281E0089580E0F4
:101290000895DF92EF92FF920F931F93CF93DF9306
:1012A000D82E8A017B01E40EF51EEB01CE15DF0579
:1012B00071F0D7FE03C0FE01849101C088810E94B5
:1012C0001B0921968111F2CF8FEF9FEF01C0C8015A
:1012D000DF91CF911F910F91FF90EF90DF900895D4
:1012E000615030F02091F100FC0120830196F8CF8D
:1012F000289A84E68093FC030895CF92DF92EF92C0
:10130000FF920F931F93CF93DF936C017A018B01B0
:10131000C0E0D0E0CE15DF0581F0D8016D918D01E0
:10132000D601ED91FC910190F081E02DC601099567
:10133000892B11F02196EECF7E01C701DF91CF916D
:101340001F910F91FF90EF90DF90CF900895CF9372
:10135000DF931F92CDB7DEB76983DC01ED91FC917D
:101360000280F381E02D41E050E0BE016F5F7F4FCE
:1013700009950F90DF91CF91089583E08093E90064
:101380008091F200882319F08AE38093E8000895A1
:10139000FC018485958597FD0BC09FB7F89482E08A
:1013A0008093E9008091F2009FBF90E0019608953C
:1013B0009FB7F89482E08093E9008091F2009FBF8C
:1013C00090E00895089580E090E008950E94002044
:1013D0000F931F93CF93DF931F92CDB7DEB782E0B9
:1013E000898342E450E067EA71E080E80E9449099D
:1013F0000E943011DC0112960D911C91139701157A
:10140000110589F0D801ED91FC910280F381E02D66
:10141000BE016F5F7F4FC801099597FD04C0F801B9
:1014200000851185ECCF89810F90DF91CF911F91BD
:101430000F9108958F929F92AF92BF92CF92DF92B9
:10144000EF92FF920F931F93CF93DF936C017B0179
:101450008A0180910D01882309F45CC08091FD030D
:10146000882309F457C08091F00180FF05C0809166
:10147000E00082608093E000E801B12C8AEFA82EA2
:1014800093E0892E2AE3922E209711F4BB20D9F104
:101490000E94A51081110AC0AA94AA20D9F161E086
:1014A00070E080E090E00E94D011EECF282F30E075
:1014B000C217D3070CF48C2F9FB7F8948092E900E1
:1014C0002091E80025FF1DC0282F30E0C21BD30B60
:1014D000F701815020F041914093F100FACFE20EE4
:1014E000F31EBB2019F09092E8000AC08091E8003A
:1014F00085FD07C09092E800BB24B394209709F0C3
:10150000B12C9FBFC1CF5D9A84E680932002101654
:10151000110644F081E090E0F6019383828380E03D
:1015200090E001C0C801DF91CF911F910F91FF9012
:10153000EF90DF90CF90BF90AF909F908F900895E5
:101540000E94A51090E008950F931F93CF93DF930F
:101550001F92CDB7DEB78C01FC018485958597FF7E
:101560000EC0CE0101960E947710019719F489816F
:1015700090E002C08FEF9FEFF80195878487F80114
:10158000848595850F90DF91CF911F910F910895DC
:10159000CF93DF931F92CDB7DEB7FC01848595858D
:1015A00097FD05C02FEF3FEF358724870BC0CE0195
:1015B00001960E947710019719F4898190E002C08A
:1015C0008FEF9FEF0F90DF91CF9108950C94B11E94
:1015D0000C94B11E1F920F920FB60F9211248F938D
:1015E0009F938091E1009091E100937F9093E100BF
:1015F00083FF0FC01092E90091E09093EB001092EE
:10160000EC0092E39093ED001092FD0398E090932C
:10161000F00082FF20C093E09093E9009091F200E7
:10162000992319F09AE39093E8009091200299236E
:1016300039F090912002915090932002992389F1E2
:101640009091FC03992339F09091FC039150909371
:10165000FC03992341F184FF10C08091E2008E7E4B
:1016600081608093E2008091E1008F7E8093E100B1
:101670008091F0018E7E806111C080FF16C0809144
:10168000E2008E7E80618093E2008091E1008E7E98
:101690008093E1008091F0018E7E81608093F00163
:1016A00004C05D98CDCF2898D6CF9F918F910F9091
:1016B0000FBE0F901F9018951F920F920FB60F92AA
:1016C0001124CF92DF92EF92FF920F931F932F93EB
:1016D0003F934F935F936F937F938F939F93AF93BA
:1016E000BF93EF93FF93CF93DF93CDB7DEB76C97A4
:1016F000DEBFCDBF1092E9008091E80083FFFBC1FF
:1017000068E0CE0145960E94700982EF8093E80060
:101710008D8987FF05C09091E80090FFFCCF03C042
:101720009EEF9093E800982F907609F0C6C09E89AE
:101730004F89588D2F89F88C91110CC0803829F46D
:101740008091F1018093F10002C01092F10010929B
:10175000F10045C1913051F4811141C14130510531
:1017600009F03DC18091F1018D7F0BC0933061F490
:10177000811135C14130510509F031C18091F1012C
:1017800082608093F1012BC1953049F48091E8008B
:1017900080FFFCCF822F80688093E30020C19630C9
:1017A00009F05EC00B8D1C8D22E01092E9001092B2
:1017B0001E0210921D02F21232C010921C021092F0
:1017C0001B020E94E80999E0BE016F5F7F4FDB01B9
:1017D000E92F1D92EA95E9F79983FA8291E09E83B9
:1017E00090EA98879AEF998720911D0230911E0206
:1017F000275F3F4F3C832B838D831092E90010922B
:101800001E0210921D0210931C0200931B0249E05D
:1018100050E080E00E9449090E94E809E0C010936E
:101820001C0200931B020E943011DC0112960D91E4
:101830001C9113970115110509F4BBC0D801ED9156
:10184000FC910480F581E02DBE016B5E7F4FC801E5
:101850000995009709F0C7C0F80100851185EACF06
:10186000973009F445C1983021F481E08093F1006C
:10187000B6C0993009F0B3C0837009F039C1E6E40D
:10188000F1E081E031E096E32081211109C08EE78B
:101890008093EA001092EA008F898093FD039FC035
:1018A0008093E9003093EB0021912093EC0090931A
:1018B000ED008F5F873041F7EACF8B8D9C8D1092C2
:1018C000E90010921E0210921D0290931C02809358
:1018D0001B02898D811153C08E899D89913A49F4EB
:1018E000813209F005C147E050E066E071E080E038
:1018F000BBC0913209F0FCC0833269F48F89988DA6
:10190000A0E0B0E08093020190930301A093040152
:10191000B093050164C0803269F48091E80082FFD1
:10192000FCCF67E086E091E00E9470098BEF809326
:10193000E80055C0823209F052C08F8980930D01B2
:10194000EEEFFFE7859194918B3F9C4D19F0E0E01D
:10195000F8E002C0EEEFFAE08091060190910701F5
:10196000A0910801B0910901803B9440A105B10507
:1019700009F09EC080910D0180FF79C099C00E943E
:101980003011FC01028113810115110509F4B0C069
:10199000D801ED91FC910190F081E02DBE016B5ECC
:1019A0007F4FC801099581111AC0F8010085118582
:1019B000EBCFF1E0FF1609F44EC0F3E0FF1298C040
:1019C0008F89882309F44AC0823089F440E86DE0A9
:1019D0008BE092E00E946C19882309F489C08EEF95
:1019E0008093E80088C018161906CCF381C08130B6
:1019F00029F440E86BE08FEF91E0ECCF833009F001
:101A000077C00E943011DC011296ED90FC90139784
:101A10008E010F5F1F4F6801E114F10479F0D701C7
:101A2000ED91FC910680F781E02DB801C701099581
:101A3000080F111DF701E084F184EECFD8011C924C
:101A4000F60101900020E9F73197BF016C197D097B
:101A500040E0C601BFCF6DEE71E002C069EE71E0FB
:101A6000FB01449150E080E80E944909B8CFEE3F65
:101A70002AE0F20751F0808191818737A7E79A0722
:101A800021F09093FF0A8093FE0A87E797E79183FE
:101A900080838091600080931F029BE088E10FB6F5
:101AA000F894A895809360000FBE9093600097CF44
:101AB000808191818737974709F091CFA8958091D0
:101AC000600088618093600080911F0280936000B5
:101AD000EE3FBAE0FB0739F08091FE0A9091FF0AD1
:101AE000918380837CCF1092FF0A1092FE0A77CFF9
:101AF00081E28093EB006C960FB6F894DEBF0FBEC8
:101B0000CDBFDF91CF91FF91EF91BF91AF919F91A9
:101B10008F917F916F915F914F913F912F911F9185
:101B20000F91FF90EF90DF90CF900F900FBE0F902E
:101B30001F901895089508950F931F93CF93DF93E7
:101B400020911A022F5F322F377030931A0220FF34
:101B500002C020E801C020E031FD2064347009F0AB
:101B60002062205FFC01EC01239600E011E0648517
:101B7000662331F070E0C8010E941F1D6F5F01C035
:101B800060E06187322F369F030E30E0311D112453
:101B9000311102C0168202C031503683662311F023
:101BA000615061873196CE17DF0709F7DF91CF913A
:101BB0001F910F910895CF93DF93DC01EB011296F3
:101BC0004D915C9113979A01220F331F240F351FFB
:101BD00012966D917C91139714968D919C91159707
:101BE000860F971F481759078CF41D96ED91FC91AD
:101BF0001E97E20FF31F88818083898181838A8108
:101C000082834F5F5F4F2D5F3F4FE2CFDF91CF91D8
:101C10000895CF92DF92EF92FF920F931F93CF938D
:101C2000DF93EC0163ECC62E63E0D62E76E2E72E5E
:101C300072E0F72E6C817D81C601835C934086172C
:101C4000970794F4C7010E941F1D12E0160F0E940F
:101C5000BC08819FB0011124F6012081271B08F4E4
:101C600020E021936F01E6CF6330710569F4209184
:101C7000C3038091C40390E0820F911D820F911DD8
:101C80000E941F1D6093C5030E94BC088C3DD0F4C8
:101C90000E94BC08F7E08F9FC0011124092F112773
:101CA00007FD1A950E94BC082FE5829FC0011124F0
:101CB00030EA390FF801ED53FC4F2081230F08F46F
:101CC0002FEF2083A3ECB3E07FEBF12C8D01035CBD
:101CD00013404C815D81041715070CF035C02D9120
:101CE0003F2D222329F0279F312D112471113F5FB1
:101CF000232F220F220F37FD06C036FD06C0622FAC
:101D000020E030E005C03FEF02C0322F20E06FEF4F
:101D1000EC858A819B81EE2339F0FA013197E80F37
:101D2000F91FE01BF10B03C0F801E80FF91FCF0109
:101D3000880F991FE80FF91F8D859E85E80FF91F01
:101D4000608331832283C2CFDF91CF911F910F91A6
:101D5000FF90EF90DF90CF900895CF93DF9300D066
:101D60001F92CDB7DEB7FB0121E232E0DC011E9607
:101D70003C932E931D9720811F962C931F972181B2
:101D800050962C935097228151962C932081298331
:101D900021812A8322812B83BE016F5F7F4F0E94A6
:101DA000DB0D0F900F900F90DF91CF910895CF939F
:101DB000DF9300D01F92CDB7DEB7FB014081DC017D
:101DC0001F964C931F97318150963C9350972281D8
:101DD00051962C9349833A832B83BE016F5F7F4FCB
:101DE0000E94DB0D0F900F900F90DF91CF9108951F
:101DF000CF93DF9300D01F92CDB7DEB7FC012285D1
:101E0000338526173707E9F07387628761307105DC
:101E100059F06330710589F4FC01278529832089F5
:101E20002A8321892B8303C019821A821B82BE0157
:101E30006F5F7F4F0E94DB0D02C00E94090E81E0A0
:101E400001C080E00F900F900F90DF91CF91089527
:101E5000FC01228533852230310511F40C94090EE2
:101E60000895CF93DF93EC01E881F9810480F58137
:101E7000E02D309709F00995EE81FF81309709F048
:101E80000995EA81FB810190F081E02D309709F0FE
:101E900009958A819B8190938C0380938B030E9488
:101EA0000A122091930330919403A0918B03B09177
:101EB0008C03E0919103F091920340E050E04217CF
:101EC00053076CF4C081D181CA17DB0721F4608706
:101ED0007187828793874F5F5F4F7096F0CFDF9156
:101EE000CF9108952091A2033091A30328173907B9
:101EF00071F49091FB038091FA03981741F0E091FF
:101F0000FB03F0E0E65FFB4F808190E008958FEFE8
:101F10009FEF089508951F93CF93DF93DC015C96A4
:101F20008D919C915D97009739F421E030E01396F4
:101F30003C932E9312973BC05196ED91FC91529792
:101F400050962C915097322F30951FB75E964C913A
:101F50005E97742F727041FD6095F89440817723ED
:101F600011F0422B01C043234083EC012197F1F78C
:101F700048E0508160FF02C0522B01C053235083C0
:101F8000EC012197F1F76695415099F7808177230D
:101F900019F08323808302C0282B20831FBF5C9607
:101FA0008D919C915D970197F1F781E090E0DF9131
:101FB000CF911F9108952091A2033091A303281778
:101FC000390771F48091FA032091FB0390E0805C63
:101FD0009F4F821B910960E470E00E941F1D0895CD
:101FE00080E090E008952091A2033091A303281788
:101FF0003907B9F49091FB038091FA03981789F09F
:10200000E091FB03F0E0E65FFB4F80812091FB0352
:1020100030E02F5F3F4F2F7333272093FB0390E077
:1020200008958FEF9FEF089540918F035091900393
:1020300060918B0370918C03E0918D03F0918E037E
:1020400020E030E0241735078CF4A081B181A61779
:10205000B70741F4A481B581A817B90719F4CF01D6
:102060000C94310F2F5F3F4F3896ECCF08950097B7
:1020700069F0FC0101900020E9F73197AF01481B9E
:10208000590BBC0181E592E00C941A0A80E090E0C3
:102090000895CF93DF930E943710EC018DEA91E011
:1020A0000E9437108C0F9D1FDF91CF9108950F93E1
:1020B0001F93CF93DF938C01C0E0D0E0F801EC0FC9
:1020C000FD1F6491662341F081E592E00E94A7091B
:1020D000892B11F02196F2CF8DEA91E00E94371002
:1020E0008C0F9D1FDF91CF911F910F91089520912B
:1020F000FD03211103C08FEF9FEF08955FB7F894A0
:1021000022E02093E9002091F20030E0121613063D
:1021100014F421E030E0422FFC0184E6415038F015
:10212000289A8093FC039091F1009193F7CF2115A9
:10213000310521F08091F200882319F05FBFC901B9
:1021400008958BE68093E800F9CF2FB7F89483E0E9
:102150008093E9009091E800892F807295FF04C078
:102160009091F20080E4891B2FBF08951F920F9277
:102170000FB60F9211242F933F934F935F936F935A
:102180007F938F939F93AF93BF93EF93FF93E091D0
:10219000A203F091A303309709F451C0968DA68550
:1021A000B785858591FF04C09C91892329F447C098
:1021B0009C91892309F043C0A389B4899C918589A6
:1021C000809589238C93868997890197F1F7608D93
:1021D000718DA685B785558538E020E0CB01019744
:1021E000F1F7822F90E095958795282F4C91452304
:1021F00009F02068315091F7868D81FD20958091FE
:10220000FA0390E001968F7399273091FB033817FA
:1022100049F0A091FA03B0E0A65FBB4F2C938093E6
:10222000FA0303C0868D8160868F828D938D01971E
:10223000F1F7A389B4899C918589892B8C93FF91AF
:10224000EF91BF91AF919F918F917F916F915F912E
:102250004F913F912F910F900FBE0F901F901895A7
:102260008091020481110DC082E08093FE0384E01E
:102270008093FF03109201041092000481E0809388
:1022800002048EEF93E00895CF93DF9390E0FC017A
:10229000EC5AFD4F2491FC01EB5CFD4F84918823A7
:1022A00061F190E0880F991FFC01E158FD4FC59145
:1022B000D491FC01E95DFD4FA591B491611109C074
:1022C0009FB7F8948881209582238883EC912E23F0
:1022D0000BC0623061F49FB7F8948881322F30953B
:1022E00083238883EC912E2B2C939FBF06C08FB73E
:1022F000F894E8812E2B28838FBFDF91CF9108952A
:10230000823108F08251E82FF0E0ED58FD4FE49162
:1023100080917B00E3FB222720F930E095E0220F3B
:10232000331F9A95E1F78F7D282B20937B00E77070
:10233000E064E0937C0080917A00806480937A006E
:1023400080917A0086FDFCCF809178002091790001
:1023500090E0922B08953FB7F8948091F603909106
:10236000F703A091F803B091F90326B5A89B05C027
:102370002F3F19F00196A11DB11D3FBFBA2FA92F04
:10238000982F8827820F911DA11DB11DBC01CD0181
:1023900042E0660F771F881F991F4A95D1F708956D
:1023A0008F929F92AF92BF92CF92DF92EF92FF9265
:1023B0006B017C010E94AB114B015C01C114D10483
:1023C000E104F104F1F00E94AB11DC01CB018819AA
:1023D0009909AA09BB09883E9340A105B10570F38C
:1023E00021E0C21AD108E108F10888EE880E83E0E6
:1023F000981EA11CB11CC114D104E104F10419F709
:10240000DDCFFF90EF90DF90CF90BF90AF909F9087
:102410008F9008952FB7F8946091F2037091F303B1
:102420008091F4039091F5032FBF08950F931F93AC
:10243000CF9380915D0390915E03DC01ED91FC915F
:102440000084F185E02D0995892B09F4B9C060E07D
:1024500070E0CB010E94D011C0917B0380915D039D
:1024600090915E03DC01ED91FC910284F385E02DF7
:10247000C11108C00995809367038E37D1F680910A
:102480007B039AC00995EC2FF0E0EA5AFC4F818B50
:1024900080917B038230A1F08930C1F0813009F056
:1024A0008BC0909168039F3F09F486C010927B0314
:1024B00081E080937D031092800310927F03AAC075
:1024C00090916903963009F477C0F0CF8091700342
:1024D0008F3E61F7E8E6F3E08EE693E020E030E03F
:1024E0004191240F311D8E179F07D1F780916E0304
:1024F00090E0982F882740916F03840F911D3195AC
:10250000219531098217930789F610927B03E09198
:102510006A03E13409F44DC0E0937E0380916C03BB
:1025200090E0982F882720916D03820F911D909342
:10253000800380937F034E2F50E0FA01FA97E63133
:10254000F10570F5EB59FF4F0C94331D85E022C067
:1025500080FF02C089E01EC081FF02C084E01AC073
:1025600083709927892B09F45BC08AE013C080FF30
:1025700002C087E00FC081FF53C082E00BC080FF24
:1025800002C088E007C081FF4BC083E003C086E043
:1025900001C08BE080937D0381E08093810340C084
:1025A00081E080937D031092800310927F038093DB
:1025B00081031092820334C08F5F80937B0339CFF5
:1025C00080918203882361F10E940A1200915F03C7
:1025D000109160032091610330916203DC01CB0113
:1025E000801B910BA20BB30B00916303109164034A
:1025F000209165033091660380179107A207B30706
:1026000078F010927B0310927D0310928003109259
:102610007F0381E0809381031092820380E002C0F7
:1026200080918103CF911F910F910895809374033E
:102630007093760360937703E2E7F3E028E733E0F3
:1026400080E090E04191840F911D2E173F07D1F754
:102650009195819591099093780380937903809166
:102660007503882361F080918203882341F060E044
:1026700070E0CB010E94D0110E941612F4CF80911D
:102680005D0390915E03DC01ED91FC910280F3818A
:10269000E02D4AE050E061E773E009950E940A12DC
:1026A00060935F0370936003809361039093620370
:1026B0008091750391E0811101C090E090938203B5
:1026C000811106C06AE070E080E090E00C94D011C7
:1026D000089521E020935C03BC0183E00C94161361
:1026E0008F929F92AF92BF92CF92DF92EF92FF9222
:1026F000CF936B017C010E940A124B015C01C11453
:10270000D104E104F10441F4C0906303D090640368
:10271000E0906503F09066030E941612C82F8111A5
:1027200013C00E940A12DC01CB0188199909AA0979
:10273000BB09C816D906EA06FB0630F060E070E077
:10274000CB010E94D011E8CF8C2FCF91FF90EF905A
:10275000DF90CF90BF90AF909F908F900895CF93D0
:10276000DF93CDB7DEB7A5970FB6F894DEBF0FBEE7
:10277000CDBF789484B5826084BD84B5816084BD0A
:1027800085B5826085BD85B5816085BD80916E000F
:10279000816080936E001092810080918100826040
:1027A000809381008091810081608093810080917D
:1027B000800081608093800080919100826080938E
:1027C00091008091910081608093910080919000B0
:1027D0008160809390008091C10084608093C100EB
:1027E0008091C10082608093C1008091C1008160AE
:1027F0008093C1008091C30081608093C300809169
:10280000C00082608093C0008091C200816080938C
:10281000C20080917A00846080937A0080917A006F
:10282000826080937A0080917A00816080937A0040
:1028300080917A00806880937A001092FD03109254
:10284000F1011092F0018091D70081608093D70050
:1028500080EA8093D80089B5806189BD89B582609E
:1028600089BD09B400FEFDCF61E070E080E090E03A
:102870000E94D0118091D8008F7C80618093D80015
:102880008091E000807F8093E0008091E1008E7E67
:102890008093E1008DE08093E200559A209A5D9844
:1028A00028988FEF9FEF90935E0280935D0268E817
:1028B00073E180E090E00E94D01160918F037091ED
:1028C00090036F5F7F4FE3E0660F771FEA95E1F7B4
:1028D00080918D0390918E030E943A1F90938E03F6
:1028E00080938D0320918F0330919003B901F3E021
:1028F000660F771FFA95E1F7FC01E60FF71F04EB6F
:1029000012E011830083AEEAEA2EA2E0FA2EF382EF
:10291000E28241E050E055834483178216822F5FA4
:102920003F4F3093900320938F03605F7F4F0E944F
:102930003A1F90938E0380938D0340918F035091A3
:1029400090039A01B3E0220F331FBA95E1F7FC011F
:10295000E20FF31FF182E0821383028382E090E0B2
:1029600095838483178216824F5F5F4F5093900345
:1029700040938F0380910502811145C01092F701A9
:102980001092F6018FEF8093FA018093FB01809300
:10299000FC018093FD018093FE018093FF0181E0A3
:1029A0008093000210920202109201021092F9012B
:1029B0001092F8018091130290911402892B31F446
:1029C00084EF91E09093140280931302E091F2015E
:1029D000F091F301309721F084EF91E095838483A7
:1029E00084EF91E09093F3018093F201109204023E
:1029F000109203028CE291E09093F5018093F40130
:102A000081E0809305023E9A81E292E09093F70183
:102A10008093F60180E190E090930202809301029E
:102A20008091A4029091A502A091A602B091A70264
:102A3000843C29E09207A105B10520F484EC99E0DB
:102A4000A0E0B0E08093A4029093A502A093A60218
:102A5000B093A70288EC8093A10280919F038983A1
:102A60008091A0038A838091A1038B83BE016F5F55
:102A70007F4F84E493E00E94AD0E80919C03898394
:102A800080919D038A8380919E038B83BE016F5F3B
:102A90007F4F82E393E00E94AD0E8091990389837A
:102AA00080919A038A8380919B038B83BE016F5F21
:102AB0007F4F80E293E00E94AD0E80919603898360
:102AC000809197038A83809198038B83BE016F5F07
:102AD0007F4F8EE093E00E94AD0E80919F0389832B
:102AE0008091A0038A838091A1038B83BE016F5FD5
:102AF0007F4F8CEF92E00E94AD0E80919C03898302
:102B000080919D038A8380919E038B83BE016F5FBA
:102B10007F4F8AEE92E00E94AD0E809199038983E7
:102B200080919A038A8380919B038B83BE016F5FA0
:102B30007F4F88ED92E00E94AD0E809196038983CD
:102B4000809197038A83809198038B83BE016F5F86
:102B50007F4F86EC92E00E94AD0E63E070E08CEF58
:102B600092E00E94F80E63E070E08AEE92E00E942C
:102B7000F80E63E070E088ED92E00E94F80E63E0EA
:102B800070E086EC92E00E94F80E62E070E084E46F
:102B900093E00E94F80E63E070E080E293E00E9410
:102BA000F80E89E991E00E94491086E10E948011A7
:102BB000BC01990F880B990B611571058105910571
:102BC00011F00E94A31C60E082E10E94441160E0C9
:102BD00083E10E94441160E084E10E94441160E0BE
:102BE00085E10E94441160E08BE10E94441160E0A5
:102BF0008AE10E94441160E089E10E94441160E092
:102C000088E10E9444111092BF031092BE031092FB
:102C1000BD031092BC031092BB031092BA038DE95E
:102C200091E09093C1038093C0038091B00398EF2B
:102C3000980F943048F022EF280F243028F026EE29
:102C4000280F233008F04AC02DEB30E03093BB034F
:102C50002093BA032BE931E03093BD032093BC03EA
:102C60002CE231E03093BF032093BE03943050F048
:102C700092EF980F943030F08A51833030F4A8E608
:102C8000B0E005C0A8E6B0E024C3A0E0B0E0833027
:102C900008F41FC3E0E0F0E0808181608C938091B4
:102CA000B00398EF980F943008F0F4C22BE630E0B0
:102CB0003093B8032093B703943008F0F8C29CEF28
:102CC000980F81E001C0880F9A95EAF78093B903C5
:102CD0008091C0039091C1030197F1F78091BE03E9
:102CE0009091BF03892B49F1E091A203F091A303D6
:102CF00043E0E43AF40709F1309739F0A389B48945
:102D00009C918589809589238C938091C2038E7FC5
:102D10008093C2031092FA031092FB0384EA93E0BB
:102D20009093A3038093A203E091B703F091B803BB
:102D300090818091B903892B80838DEA91E00E9474
:102D400037108CE891E00E9457108BE591E00E94CB
:102D5000571084EA93E090935E0380935D0381E0D3
:102D60008093750360E070E08CE00E94161360EDC4
:102D700077E080E090E00E94701368EC70E080E003
:102D800090E00E94D0111092810380917D038430E5
:102D900079F0893069F08AE491E00E94571089E265
:102DA00091E00E9457108CE091E00E945710FFCFF5
:102DB00086EF90E00E9457106EE170E086E00E947E
:102DC000161360E070E088E40E94161360E070E083
:102DD000CB010E947013882331F0109281038091FF
:102DE0007D038B3019F08FEF9FEF04C080917F033C
:102DF0009091800390935B0380935A0380EB91E062
:102E00000E943710C0905A03D0905B030D2C000C29
:102E1000EE08FF08F7FE25C06DE281E592E00E9412
:102E2000A70922273327A9012C193D094E095F095B
:102E300019A28E010F5D1F4F6AE0C62ED12CE12C26
:102E4000F12CCA01B901A70196010E94DE1C605D48
:102E5000D8016E938D01211531054105510589F782
:102E60001AC0A701960119A28E010F5D1F4F9AE0AB
:102E7000C92ED12CE12CF12CCA01B901A701960170
:102E80000E94DE1C605DF80162938F0121153105FF
:102E90004105510589F7C8010E9437108DEA91E07C
:102EA0000E943710E0918B03F0918C030480F58130
:102EB000E02D309709F0099584EB92E090938C0314
:102EC00080938B03E091B402F091B502309709F042
:102ED0000995812C84E0982EA12CB12C33243394B5
:102EE000809185030E94801120918703309188038F
:102EF000AC01421B530B9A0157FF03C0319521953A
:102F000031094091890350918A034217530794F481
:102F100090938803809387032FE130E0DC010E94C7
:102F2000391DA50194010E94AC1C622F70E086E05F
:102F30000E94161384E493E00E94280F82E393E03A
:102F40000E94280F80E293E00E94280F8EE093E019
:102F50000E94280F8CEF92E00E94280F8AEE92E0E8
:102F60000E94280F88ED92E00E94280F86EC92E0E4
:102F70000E94280F8091950381110CC03092950317
:102F8000E0918B03F0918C030190F081E02D30975C
:102F900009F00995E0918B03F0918C030280F38195
:102FA000E02D309709F00995E12CF12CC12CD12CA2
:102FB0008091930390919403C816D9060CF04DC0EC
:102FC00000919103109192030E0D1F1DD8012D91B8
:102FD0003C91119780918B0390918C0328173907AE
:102FE000A9F518968D919D910D90BC91A02D892BDE
:102FF0008A2B8B2B41F40E940A12F801608771879B
:103000008287938723C00E940A12D80118964D9098
:103010005D906D907C901B97DC01CB018419950924
:10302000A609B709F8014484558466847784841519
:103030009505A605B70550F0C8010E94310FD801CB
:1030400018961D921D921D921C921B97BFEFCB1AD2
:10305000DB0AE0E1EE0EF11CABCF0E9416128823D2
:1030600081F080915C03882361F01092810380914C
:103070007D03853031F410925C038EEB91E00E9469
:103080004910F090A1028091A4029091A502A09114
:10309000A602B091A702892B8A2B8B2BE9F00E9404
:1030A000AB11009115021091160220911702309178
:1030B0001802DC01CB01801B910BA20BB30B00911A
:1030C000A4021091A5022091A6023091A7028017B8
:1030D0009107A207B307B8F20E94AB1160931502E3
:1030E000709316028093170290931802E091AC023D
:1030F000F091AD02309759F04091A8025091A90289
:103100006091AA027091AB028F2D0995F82E009163
:103110001302109114024F2C512C612C712C0115AB
:10312000110509F469C0D8011C96EC901C97809198
:10313000A2029091A3028436910510F41C961C9271
:10314000D801ED91FC91428153815DA34CA319827A
:103150001A821B82F11019C0D8011D964D915C9105
:103160001E9712966D917C9113979E012F5F3F4F92
:10317000C801ECA1FDA10995D8011C96EC921C9701
:1031800014960D911C911597CACFF8013696AE0191
:103190004F5F5F4F6A01C80109969BA38AA32191E3
:1031A000222309F122802220F1F0822F90E0A0E07A
:1031B000B0E09C01AD012F5F3F4F4F4F5F4FC30108
:1031C000B2010E940F1D9B01AC01822D90E0A0E096
:1031D000B0E0BC01CD016F5F7F4F8F4F9F4F0E94CA
:1031E0000F1DD6018C93BFEFCB1ADB0A4AA15BA15E
:1031F0004E175F07A1F6B0CF809111029091120295
:103200008C010F5F1F4F1093120200931102499718
:103210009CF10E940A122B013C0188EE93E0089F6A
:10322000B001099F700D189F700D1124072E000C1E
:10323000880B990BC0900D02D0900E02E0900F0207
:10324000F0901002A30192012C193D094E095F096B
:103250000E94DE1C3093A3022093A202109212025D
:10326000109211020E940A1260930D0270930E02D6
:1032700080930F029093100260E170E080E090E094
:103280000E94D011A0E0B0E0AB2B09F429CE0E943F
:10329000000026CE22EF280F243008F407CD26EEBA
:1032A000280F233008F402CD20E030E001CD8E302D
:1032B00041F08F3041F0803141F0813141F09AEEA0
:1032C000FFCC88E003CD82E001CD84E0FFCC81E03B
:1032D000FDCCE8E6F0E0E0CCDF92EF92FF920F93B6
:1032E0001F93CF93DF93D82EF92EE42E062F10E0F4
:1032F000C8010196880F0E941B0983E00E941B09E8
:10330000CD2DDF2D0C0F1D1FC017D10789F0E7FE53
:1033100003C0FE01849101C088810E941B09F82E20
:1033200080E00E941B098F2121968111EDCF01C001
:1033300081E0DF91CF911F910F91FF90EF90DF908F
:103340000895CF93DF93EC0184EF91E0A0E0B0E02B
:103350008E839F83A887B9878AE0EBE3F1E0DE01E3
:10336000549601900D928A95E1F71E8E82E08F8F20
:103370001CA21DA2DF91CF91089580918D039091A1
:103380008E030E94B11E80919103909192030E943E
:10339000B11E8AE791E09093A5038093A4038091E6
:1033A000A2039091A303845A934071F4E091B70370
:1033B000F091B80390818091B9038095892380832F
:1033C0001092A3031092A20308950F931F93CF931B
:1033D000109254021092530288EE93E0A0E0B0E005
:1033E0008093550290935602A0935702B0935802CF
:1033F00020E531E030935202209351022FEF3FEF4E
:1034000030935E0220935D021092A7031092A603F0
:103410008093A8039093A903A093AA03B093AB034E
:103420008AE791E09093A5038093A4031092BB03D5
:103430001092BA031092BD031092BC031092BF0306
:103440001092BE031092C1031092C0036091C20398
:103450006E7F6D7F6093C2036695617081E068271F
:103460008BE00E94A61B61E08BE00E944411EFE517
:10347000F2E0E491E093B403E0E4F2E0E491F0E000
:10348000EE0FFF1FE95DFD4F859194919093B60378
:103490008093B50360E08AE00E9444118091C203EA
:1034A00081FD04C061E08AE00E94A61B8AE080934F
:1034B000B003EEE5F2E0E491E093B103EFE3F2E074
:1034C000E491F0E0EE0FFF1FE75EFD4F85919491D0
:1034D0009093B3038093B20386EC93E00E94A1190A
:1034E000CFEFC0939F031092A0031092A1031092FC
:1034F0009C0380E880939D0310929E03C0939903E0
:10350000C0939A0310929B03109296031092970314
:10351000C09398031092ED031092EC031092EF0306
:103520001092EE031092F1031092F0038CEE93E0F0
:1035300090938C0380938B0310928E0310928D03D3
:103540001092900310928F031092940310929303A1
:103550001092950382E791E0909384038093830314
:1035600087E190E090938603809385030CE010E060
:1035700010938A03009389031092880310928703A3
:1035800060E00E9444118AE691E090935703809393
:1035900056038DE593E00E94A11982E691E0909395
:1035A00045038093440321E030E0309347032093A8
:1035B000460343E050E050934903409348039093FF
:1035C00033038093320364E070E0709335036093BB
:1035D0003403509337034093360390932103809331
:1035E000200369E070E070932303609322035093FB
:1035F00025034093240390930F0380930E031093AD
:1036000011030093100350931303409312039093FC
:10361000FD028093FC021092FF021092FE02309392
:103620000103209300039093EB028093EA0247E0AA
:1036300050E05093ED024093EC023093EF02209360
:10364000EE029093D9028093D80248E050E0509364
:10365000DB024093DA023093DD022093DC02909388
:10366000C7028093C6028FE090E09093C9028093D6
:10367000C8023093CB022093CA02A091A003F0911C
:10368000A103E0919C0370919D0360919E03509172
:10369000990340919A0330919B0320919603909156
:1036A000970380919803B0919F03B093BA02A093BF
:1036B000BB02F093BC02E093BD027093BE02609324
:1036C000BF025093C0024093C1023093C2022093C4
:1036D000C3029093C4028093C50289EE97E0909351
:1036E000B5028093B40280EE97E09093B702809386
:1036F000B6021092B9021092B80287E891E0909356
:10370000AF028093AE028CE196E09093B102809379
:10371000B0021092B3021092B202C093A1021092B2
:10372000A3021092A2021092AD021092AC028FEF8F
:103730009FEFDC018093A8029093A902A093AA02B4
:10374000B093AB02CF911F910F910895362F90E067
:10375000FC01E357FD4F4491FC01EC5AFD4F2491CD
:10376000FC01EB5CFD4F8491882309F452C0442393
:10377000E1F150E0FA013197EF30F105B0F5EA5A86
:10378000FF4F0C94331D909180009F7707C090915C
:1037900080009F7D03C090918000977F9093800070
:1037A00024C094B59F7702C094B59F7D94BD1DC081
:1037B000909190009F7707C0909190009F7D03C0EB
:1037C00090919000977F909390000FC09091C000CF
:1037D0009F7703C09091C0009F7D9093C00005C06B
:1037E0009091C200977F9093C200E82FF0E0EE0F17
:1037F000FF1FE95DFD4FA591B4919FB7F89431117A
:1038000004C08C912095282302C0EC912E2B2C9380
:103810009FBF08958F929F92AF92BF92CF92DF92F7
:10382000EF92FF92CF93DF93EC01688179818A81D7
:103830009B81611571058105910521F464E279EDA3
:103840008BE597E02DE133EF41E050E00E94AC1CA6
:1038500049015A019B01AC01A7EAB1E40E94CB1CCB
:103860006B017C01ACEEB4EFA50194010E94D91C60
:10387000DC01CB018C0D9D1DAE1DBF1DB7FF03C02C
:103880000197A109B04888839983AA83BB83BC01AF
:10389000CD019F77DF91CF91FF90EF90DF90CF9098
:1038A000BF90AF909F908F9008958F929F92AF920C
:1038B000BF92CF92DF92EF92FF9260910E017091D2
:1038C0000F01809110019091110161157105810521
:1038D000910521F464E279ED8BE597E02DE133EF7A
:1038E00041E050E00E94AC1C49015A019B01AC012F
:1038F000A7EAB1E40E94CB1C6B017C01ACEEB4EFF3
:10390000A50194010E94D91CDC01CB018C0D9D1DE9
:10391000AE1DBF1DB7FF03C00197A109B04880933A
:103920000E0190930F01A0931001B0931101BC01FF
:10393000CD019F77FF90EF90DF90CF90BF90AF9039
:103940009F908F90089560930E0170930F01809364
:103950001001909311010895052E97FB1EF4009419
:103960000E94C31C57FD07D00E94DE1C07FC03D039
:103970004EF40C94C31C50954095309521953F4FC3
:103980004F4F5F4F089590958095709561957F4F4B
:103990008F4F9F4F08950E94001DA59F900DB49FCB
:1039A000900DA49F800D911D11240895B7FF0C94D4
:1039B000CB1C0E94CB1C821B930B0895A1E21A2EF4
:1039C000AA1BBB1BFD010DC0AA1FBB1FEE1FFF1FC3
:1039D000A217B307E407F50720F0A21BB30BE40B13
:1039E000F50B661F771F881F991F1A9469F760955A
:1039F0007095809590959B01AC01BD01CF01089514
:103A0000A29FB001B39FC001A39F700D811D11241F
:103A1000911DB29F700D811D1124911D0895DB0130
:103A20008F939F930E94CB1CBF91AF91A29F800D5B
:103A3000911DA39F900DB29F900D1124089597FBA7
:103A4000072E16F4009407D077FD09D00E94401D80
:103A500007FC05D03EF4909581959F4F0895709591
:103A600061957F4F0895EE0FFF1F0590F491E02DB3
:103A700009940E94001DB7FF0895821B930B0895BF
:103A8000AA1BBB1B51E107C0AA1FBB1FA617B70784
:103A900010F0A61BB70B881F991F5A95A9F78095A0
:103AA0009095BC01CD0108950E945B1D6894B111F1
:103AB0000C94EA1D08950E94CF1D88F09F5798F03E
:103AC000B92F9927B751B0F0E1F0660F771F881F23
:103AD000991F1AF0BA95C9F714C0B13091F00E943D
:103AE000E91DB1E008950C94E91D672F782F882710
:103AF000B85F39F0B93FCCF3869577956795B39564
:103B0000D9F73EF490958095709561957F4F8F4FD2
:103B10009F4F0895E89409C097FB3EF490958095D7
:103B2000709561957F4F8F4F9F4F9923A9F0F92F83
:103B300096E9BB279395F695879577956795B79501
:103B4000F111F8CFFAF4BB0F11F460FF1BC06F5FE7
:103B50007F4F8F4F9F4F16C0882311F096E911C0F9
:103B6000772321F09EE8872F762F05C0662371F01A
:103B700096E8862F70E060E02AF09A95660F771F2E
:103B8000881FDAF7880F9695879597F9089557FD5E
:103B90009058440F551F59F05F3F71F04795880FBB
:103BA00097FB991F61F09F3F79F087950895121652
:103BB00013061406551FF2CF4695F1DF08C01616FE
:103BC00017061806991FF1CF8695710561050894AF
:103BD0000895E894BB2766277727CB0197F90895C6
:103BE0000E94F51D08F48FEF0895990F0008550FF6
:103BF000AA0BE0E8FEEF16161706E807F907C0F073
:103C000012161306E407F50798F0621B730B840B7A
:103C1000950B39F40A2661F0232B242B252B21F454
:103C200008950A2609F4A140A6958FEF811D811DF4
:103C300008950F931F93CF93DF938230910510F473
:103C400082E090E0E0914C04F0914D0420E030E0FF
:103C5000A0E0B0E0309719F14081518102811381D9
:103C600048175907C8F08417950769F4109731F081
:103C700012960C93129713961C9327C000934C0432
:103C800010934D0422C02115310519F04217530736
:103C900018F49A01BD01EF01DF01F801DBCF211516
:103CA0003105F9F0281B390B2430310580F48A8165
:103CB0009B816115710521F0FB019383828304C010
:103CC00090934D0480934C04FE01329644C0FE0153
:103CD000E20FF31F81939193225031093983288396
:103CE0003AC020914A0430914B04232B41F4209197
:103CF00014013091150130934B0420934A04209114
:103D00001201309113012115310541F42DB73EB751
:103D10004091160150911701241B350BE0914A0484
:103D2000F0914B04E217F307A0F42E1B3F0B28176A
:103D3000390778F0AC014E5F5F4F2417350748F024
:103D40004E0F5F1F50934B0440934A04819391930D
:103D500002C0E0E0F0E0CF01DF91CF911F910F9121
:103D60000895CF93DF93009709F481C0FC01329747
:103D700013821282A0914C04B0914D04109781F4EB
:103D800020813181820F931F20914A0430914B048E
:103D90002817390751F5F0934B04E0934A0467C0A4
:103DA000ED0120E030E0CE17DF0740F44A815B816F
:103DB0009E0141155105F1F0EA01F5CFD383C2838D
:103DC00040815181840F951FC817D90759F4888104
:103DD0009981840F951F0296918380838A819B81AC
:103DE000938382832115310529F4F0934D04E093E8
:103DF0004C043DC0E901FB83EA8349915991C40F0A
:103E0000D51FEC17FD0761F480819181840F951F08
:103E10000296E90199838883828193819B838A83B7
:103E2000E0E0F0E012968D919C911397009719F0C5
:103E3000FD01DC01F7CF8D919C9111979D012E5FC3
:103E40003F4F820F931F20914A0430914B04281753
:103E5000390769F4309729F410924D0410924C04FC
:103E600002C013821282B0934B04A0934A04DF91E4
:103E7000CF910895A0E0B0E0E0E4FFE10C941220BF
:103E8000EC01009721F4CB010E94191EB4C0FC0183
:103E9000E60FF71F9C0122503109E217F30708F4DF
:103EA000A8C0D9010D911C91119706171707B0F002
:103EB0000530110508F49BC0C801049786179707C1
:103EC00008F495C002501109061B170B01931193BA
:103ED0006D937C93CF010E94B11E89C05B01A01A33
:103EE000B10A4C01800E911EA0914C04B0914D047A
:103EF000612C712CE12CF12C109709F446C08D91A6
:103F00009C911197A815B905B1F56C0142E0C40E5A
:103F1000D11CCA14DB0478F14C018A189B08640197
:103F200042E0C40ED11C1296BC9012971396AC912D
:103F3000B5E0CB16D10440F0B282A3839182808297
:103F4000D9016D937C9309C00E5F1F4F800F911FA5
:103F5000F90191838083EB2DFA2FE114F10431F004
:103F6000D7011396FC93EE93129741C0F0934D0442
:103F7000E0934C043CC06816790608F43C017D01CE
:103F800012960D90BC91A02DB7CF80914A049091CC
:103F90004B0488169906E1F466167706C8F48091FA
:103FA000120190911301009741F48DB79EB7409193
:103FB000160150911701841B950BE817F907C8F4F7
:103FC000F0934B04E0934A04F901718360830FC0BE
:103FD000CB010E94191E7C01009759F0A801BE0177
:103FE0000E940520CE010E94B11EC70104C0CE016F
:103FF00002C080E090E0CDB7DEB7EEE00C942E205A
:1040000081E090E0F8940C944520FB01DC0102C0B3
:1040100001900D9241505040D8F708952F923F9251
:104020004F925F926F927F928F929F92AF92BF92C8
:10403000CF92DF92EF92FF920F931F93CF93DF9374
:10404000CDB7DEB7CA1BDB0B0FB6F894DEBF0FBED1
:10405000CDBF09942A88398848885F846E847D841E
:104060008C849B84AA84B984C884DF80EE80FD8020
:104070000C811B81AA81B981CE0FD11D0FB6F89496
:10408000DEBF0FBECDBFED01089511E0C7E5D1E061
:1040900004C0FE010E94331D2196C835D107C9F71F
:0440A000F894FFCFC2
:1040A4003905FFFFFFFF00E10000000000000100F0
:1040B400000000004E04200000000000E609E609AC
:1040C400E6098801AC01B00100000000F6043905DE
:1040D40085018801AC018201B301C87EFF0600019D
:1040E40000000000EF00C18081000000000000001B
:1040F400A7091A0AA00ABD09C809C80AA40A000027
:104104000000BB08B908000000009A0DE60A000090
:1041140000009B0DE80A000000008B0F7D09E309F5
:104124008A0FDB0FF30F720F6368616E676520748B
:10413400686520626F617264002053746172742038
:10414400757020616374697669746979000D0A0079
:1041540066696C6520636F756E74203D2000736F13
:0E416400756E6420636F6D706C65746500008D
:00000001FF
