:100000000C9400010C9428010C9428010C942801F4
:100010000C9428010C9428010C9428010C942801BC
:100020000C9428010C945B0C0C942E030C94A003EC
:100030000C9428010C9428010C9428010C9428019C
:100040000C9428010C9428010C9428010C9428018C
:100050000C9428010C9428010C9428010C94B00AEB
:100060000C9428010C9428010C9428010C9428016C
:100070000C9428010C9428010C9428010C9428015C
:100080000C9428010C9428010C9428010C9428014C
:100090000C9428010C9428010C9428010C9428013C
:1000A0000C9428010C9428010C94280181108B10C9
:1000B0009A106C109A106F109710A0109A109A1046
:1000C0009A109A109A109A109A109A10A0109A10DA
:1000D0009A109A109A109A10B40BB70BA60BAA0B91
:1000E000B00BD80BD80BD80BBB0BBF0BC30BC90B7A
:1000F000CD0BD80BD30B080B000202020100090440
:100100000000010202000005240010010524010185
:1001100001042402060524060001070581031000DE
:100120004009040100020A00000007050202400025
:1001300000070583024000000403090412010002C5
:10014000EF020140412337800001010203014172A7
:100150006475696E6F204C4C430041726475696E22
:100160006F204D6963726F00070605040100080ADD
:100170000B0C0D0900000000240027002A002D00B0
:1001800030000000000200090F0000030401000C11
:10019000000000000000000000000000000000005F
:1001A00000000000002300260029002C002F000082
:1001B000000000250028002B002E0031000404045C
:1001C00004040304050202020204030202020206FE
:1001D00006060606060404020202040404080201DC
:1001E0001040804010204080408008020401804080
:1001F0002010020110801020404020005012951362
:1002000011241FBECFEFDAE0DEBFCDBF11E0A0E0CA
:10021000B1E0E8E0FBE202C005900D92A839B10719
:10022000D9F723E0A8E9B1E001C01D92A33BB207D2
:10023000E1F710E0CFEFD0E004C02197FE010E946B
:100240001614CE3FD107C9F70E94B90D0C9477154B
:100250000C94000040919B0150919C0120919901C8
:1002600030919A0142175307B4F49091E8009570C9
:10027000E1F39091E80092FD19C08093F100809124
:100280009B0190919C0101968F739927892B19F4FA
:100290008EEF8093E80080919B0190919C010196E4
:1002A00090939C0180939B0181E0089580E00895E4
:1002B000DF92EF92FF920F931F93CF93DF93D82E8D
:1002C000F92EE42E062F10E0C8010196880F0E9437
:1002D0002A0183E00E942A01CD2DDF2D0C0F1D1F66
:1002E000C017D10789F0E7FE03C0FE01849101C069
:1002F00088810E942A01F82E80E00E942A018F2125
:1003000021968111EDCF01C081E0DF91CF911F9146
:100310000F91FF90EF90DF900895DF92EF92FF92A0
:100320000F931F93CF93DF93D82E8A017B01E40EA6
:10033000F51EEB01CE15DF0571F0D7FE03C0FE01FF
:10034000849101C088810E942A0121968111F2CFF7
:100350008FEF9FEF01C0C801DF91CF911F910F91E7
:10036000FF90EF90DF900895615030F02091F10000
:10037000FC0120830196F8CF289A84E68093D2016D
:100380000895CF92DF92EF92FF920F931F93CF9336
:10039000DF936C017A018B01C0E0D0E0CE15DF0560
:1003A00081F0D8016D918D01D601ED91FC91019004
:1003B000F081E02DC6010995892B11F02196EECF31
:1003C0007E01C701DF91CF911F910F91FF90EF90B8
:1003D000DF90CF900895CF93DF931F92CDB7DEB714
:1003E0006983DC01ED91FC910280F381E02D41E015
:1003F00050E0BE016F5F7F4F09950F90DF91CF9165
:10040000089583E08093E9008091F200882319F039
:100410008AE38093E8000895FC018485958597FD23
:100420000BC09FB7F89482E08093E9008091F200BE
:100430009FBF90E0019608959FB7F89482E0809363
:10044000E9008091F2009FBF90E00895089580E058
:1004500090E008950E9472150F931F93CF93DF933E
:100460001F92CDB7DEB782E0898342E450E066EFA9
:1004700070E080E80E948D010E94D50CDC0112968C
:100480000D911C9113970115110589F0D801ED917B
:10049000FC910280F381E02DBE016F5F7F4FC801A8
:1004A000099597FD04C0F80100851185ECCF89817D
:1004B0000F90DF91CF911F910F9108958F929F928E
:1004C000AF92BF92CF92DF92EF92FF920F931F9362
:1004D000CF93DF936C017B018A0180910B0188230C
:1004E00009F45CC08091D301882309F457C080913E
:1004F000A00180FF05C08091E00082608093E00051
:10050000E801B12C8AEFA82E93E0892E2AE3922EDF
:10051000209711F4BB20D9F10E944A0C81110AC026
:10052000AA94AA20D9F161E070E080E090E00E94F6
:10053000730DEECF282F30E0C217D3070CF48C2FA9
:100540009FB7F8948092E9002091E80025FF1DC034
:10055000282F30E0C21BD30BF701815020F04191CE
:100560004093F100FACFE20EF31EBB2019F09092F7
:10057000E8000AC08091E80085FD07C09092E8007D
:10058000BB24B394209709F0B12C9FBFC1CF5D9AD3
:1005900084E680939E011016110644F081E090E0FD
:1005A000F6019383828380E090E001C0C801DF916F
:1005B000CF911F910F91FF90EF90DF90CF90BF9060
:1005C000AF909F908F9008950E944A0C90E00895FC
:1005D0000F931F93CF93DF931F92CDB7DEB78C019C
:1005E000FC018485958597FF0EC0CE0101960E947F
:1005F0001C0C019719F4898190E002C08FEF9FEFE6
:10060000F80195878487F801848595850F90DF919F
:10061000CF911F910F910895CF93DF931F92CDB784
:10062000DEB7FC018485958597FD05C02FEF3FEF70
:10063000358724870BC0CE0101960E941C0C0197C0
:1006400019F4898190E002C08FEF9FEF0F90DF9146
:10065000CF9108950C94E9140C94E9141F920F9211
:100660000FB60F9211248F939F938091E100909188
:10067000E100937F9093E10083FF0FC01092E900A7
:1006800091E09093EB001092EC0092E39093ED00D8
:100690001092D30198E09093F00082FF20C093E085
:1006A0009093E9009091F200992319F09AE39093C6
:1006B000E80090919E01992339F090919E0191500C
:1006C00090939E01992389F19091D201992339F059
:1006D0009091D20191509093D201992341F184FFDE
:1006E00010C08091E2008E7E81608093E200809154
:1006F000E1008F7E8093E1008091A0018E7E806179
:1007000011C080FF16C08091E2008E7E80618093D0
:10071000E2008091E1008E7E8093E1008091A00153
:100720008E7E81608093A00104C05D98CDCF289813
:10073000D6CF9F918F910F900FBE0F901F9018955D
:100740001F920F920FB60F921124CF92DF92EF9269
:10075000FF920F931F932F933F934F935F936F934A
:100760007F938F939F93AF93BF93EF93FF93CF9319
:10077000DF93CDB7DEB76C97DEBFCDBF1092E90037
:100780008091E80083FFFBC168E0CE0145960E949E
:10079000B40182EF8093E8008D8987FF05C09091B6
:1007A000E80090FFFCCF03C09EEF9093E800982FE5
:1007B000907609F0C6C09E894F89588D2F89F88C94
:1007C00091110CC0803829F48091A1018093F1002F
:1007D00002C01092F1001092F10045C1913051F425
:1007E000811141C14130510509F03DC18091A10104
:1007F0008D7F0BC0933061F4811135C141305105BB
:1008000009F031C18091A10182608093A1012BC1C7
:10081000953049F48091E80080FFFCCF822F8068FA
:100820008093E30020C1963009F05EC00B8D1C8DD3
:1008300022E01092E90010929C0110929B01F212AA
:1008400032C010929A01109299010E942C0299E0F4
:10085000BE016F5F7F4FDB01E92F1D92EA95E9F73B
:100860009983FA8291E09E8390EA98879AEF99871C
:1008700020919B0130919C01275F3F4F3C832B834C
:100880008D831092E90010929C0110929B011093AD
:100890009A010093990149E050E080E00E948D01A7
:1008A0000E942C02E0C010939A01009399010E94CB
:1008B000D50CDC0112960D911C91139701151105B1
:1008C00009F4BBC0D801ED91FC910480F581E02DC5
:1008D000BE016B5E7F4FC8010995009709F0C7C044
:1008E000F80100851185EACF973009F445C19830A9
:1008F00021F481E08093F100B6C0993009F0B3C0D3
:10090000837009F039C1EDE1F1E081E031E096E377
:100910002081211109C08EE78093EA001092EA003D
:100920008F898093D3019FC08093E9003093EB00BF
:1009300021912093EC009093ED008F5F873041F779
:10094000EACF8B8D9C8D1092E90010929C01109241
:100950009B0190939A0180939901898D811153C0D5
:100960008E899D89913A49F4813209F005C147E0A9
:1009700050E064E071E080E0BBC0913209F0FCC05F
:10098000833269F48F89988DA0E0B0E080930001F4
:1009900090930101A0930201B093030164C08032DF
:1009A00069F48091E80082FFFCCF67E084E091E089
:1009B0000E94B4018BEF8093E80055C0823209F0A9
:1009C00052C08F8980930B01EEEFFFE785919491E0
:1009D0008B3F9C4D19F0E0E0F8E002C0EEEFFAE04A
:1009E0008091040190910501A0910601B091070149
:1009F000803B9440A105B10509F09EC080910B0198
:100A000080FF79C099C00E94D50CFC01028113813E
:100A10000115110509F4B0C0D801ED91FC910190C8
:100A2000F081E02DBE016B5E7F4FC80109958111F9
:100A30001AC0F80100851185EBCFF1E0FF1609F42B
:100A40004EC0F3E0FF1298C08F89882309F44AC092
:100A5000823089F440E86DE08AE591E00E94580117
:100A6000882309F489C08EEF8093E80088C01816A7
:100A70001906CCF381C0813029F440E86BE08EE4A4
:100A800091E0ECCF833009F077C00E94D50CDC01F7
:100A90001296ED90FC9013978E010F5F1F4F680127
:100AA000E114F10479F0D701ED91FC910680F78112
:100AB000E02DB801C7010995080F111DF701E08469
:100AC000F184EECFD8011C92F60101900020E9F7E5
:100AD0003197BF016C197D0940E0C601BFCF6CE3BF
:100AE00071E002C068E371E0FB01449150E080E8EE
:100AF0000E948D01B8CFEE3F2AE0F20751F08081CD
:100B000091818737A7E79A0721F09093FF0A809396
:100B1000FE0A87E797E79183808380916000809346
:100B20009D019BE088E10FB6F894A8958093600042
:100B30000FBE9093600097CF808191818737974750
:100B400009F091CFA8958091600088618093600042
:100B500080919D0180936000EE3FBAE0FB0739F081
:100B60008091FE0A9091FF0A918380837CCF10923E
:100B7000FF0A1092FE0A77CF81E28093EB006C9619
:100B80000FB6F894DEBF0FBECDBFDF91CF91FF91BE
:100B9000EF91BF91AF919F918F917F916F915F91F5
:100BA0004F913F912F911F910F91FF90EF90DF9008
:100BB000CF900F900FBE0F901F9018950895CF9370
:100BC000DF93EC0184EF91E0A0E0B0E08E839F839F
:100BD000A887B9878AE0E2E1F1E0DE01549601904E
:100BE0000D928A95E1F71E8E82E08F8F1CA21DA2C6
:100BF000DF91CF9108950895CF92DF92EF92FF9207
:100C00000F931F93CF93DF93EC010E94AD0D6B0107
:100C10007C0188810E94E90C9C018E8191E0811108
:100C200003C0232B21F402C0232B09F090E04E8552
:100C30005F856889798997018601041B150B260B4E
:100C4000370B49815A816B817C8104171507260770
:100C5000370710F419860CC08F8188879F83292F4E
:100C600028272987981721F0CE86DF86E88AF98A17
:100C7000CA86DB86EC86FD868F81DF91CF911F913E
:100C80000F91FF90EF90DF90CF900895CF93DF9377
:100C9000EC018D81811102C060E001C062E08881B9
:100CA0000E94120D88810E94E90C9C0181E02115AF
:100CB000310509F480E08F838E81882329F091E04B
:100CC000232B09F090E09F830E94AD0D6A877B87FC
:100CD0008C879D872F81288719866E877F87888BD1
:100CE000998BDF91CF9108950F931F93CF93DF934B
:100CF000209198012F5F322F37703093980120FF99
:100D000002C020E801C020E031FD2064347009F009
:100D10002062205FFC01EC01239600E011E0648575
:100D2000662331F070E0C8010E94C1136F5F01C0FB
:100D300060E06187322F369F030E30E0311D1124B1
:100D4000311102C0168202C031503683662311F081
:100D5000615061873196CE17DF0709F7DF91CF9198
:100D60001F910F91089580E991E00895579A089591
:100D7000CF93DF9300D000D000D0CDB7DEB7AB016A
:100D80001C821D821E82DC01ED91FC910190F0819C
:100D9000E02D19821A821B829E012F5F3F4FBE01F8
:100DA0006C5F7F4F099526960FB6F894DEBF0FBE95
:100DB000CDBFDF91CF910895FC018585968508957B
:100DC00080E090E008954F925F926F927F928F92B1
:100DD000AF92BF92CF92DF92EF920F931F93CF9378
:100DE000DF933C01EB010E944E0DF3012785308912
:100DF000621B730B6A307105B0F3F894E881F981D6
:100E00007BB170686BB16F776BB9CB8488852C2D03
:100E1000281B822F2887BF844A805B801E850C8513
:100E2000DD841F5F0F5FD3949E813F81A984EA8494
:100E30004281D20120E0C32F522F322F328144272A
:100E400088943111380F08F43FEF8195889410FD94
:100E5000430F4795889411FD430F4795889412FDE1
:100E6000430F4795889413FD430F4795889414FDCD
:100E7000430F4795889415FD430F4795889416FDB9
:100E8000430F4795889417FD430F47958894232F68
:100E90001111242F8C0D422F002C7BB900C000C0F3
:100EA00000C047FF6BB930812227889400C000C082
:100EB00000C000C000C000C000C0002C00C000C0C6
:100EC0006BB93111390F00C000C0002C7BB900C0D4
:100ED00000C000C046FF6BB908F43FEF91958894BD
:100EE00000C000C000C000C000C000C000C0002C96
:100EF00000C000C06BB900FD230F00C000C0002C73
:100F00007BB900C000C000C045FF6BB9279588942D
:100F100001FD230F00C000C000C000C000C000C021
:100F200000C0002C00C000C06BB92795889400C099
:100F300000C0002C7BB900C000C000C044FF6BB9EA
:100F400002FD230F2795889400C000C000C000C098
:100F500000C000C000C0002C00C000C06BB903FD81
:100F6000230F00C000C0002C7BB900C000C000C02F
:100F700043FF6BB92795889404FD230F00C000C080
:100F800000C000C000C000C000C0002C00C000C0F5
:100F90006BB92795889400C000C0002C7BB900C0B5
:100FA00000C000C042FF6BB905FD230F2795889450
:100FB00000C000C000C000C000C000C000C0002CC5
:100FC00000C000C06BB906FD230F00C000C0002C9C
:100FD0007BB900C000C000C041FF6BB92795889461
:100FE00007FD230F00C000C000C000C000C000C04B
:100FF00000C0002C00C000C06BB92795889400C0C9
:1010000000C0002C7BB900C000C000C040FF6BB91D
:10101000432F0111422F9A0D00C000C000C000C034
:1010200000C000C000C0002C00C000C06BB900C0F0
:1010300000C000C0002C7BB900C000C000C047FF4A
:101040006BB931812227889400C000C000C000C065
:1010500000C000C000C0002C00C000C06BB931113E
:101060003C0F00C000C0002C7BB900C000C000C015
:1010700046FF6BB908F43FEFEB0DF11D00C000C057
:1010800000C000C000C000C000C0002C00C000C0F4
:101090006BB9D0FC230F00C000C0002C7BB900C08E
:1010A00000C000C045FF6BB927958894D1FC230F81
:1010B00000C000C000C000C000C000C000C0002CC4
:1010C00000C000C06BB92795889400C000C0002CF8
:1010D0007BB900C000C000C044FF6BB9D2FC230F35
:1010E0002795889400C000C000C000C000C000C0A8
:1010F00000C0002C00C000C06BB9D3FC230F00C09F
:1011000000C0002C7BB900C000C000C043FF6BB919
:1011100027958894D4FC230F00C000C000C000C0F5
:1011200000C000C000C0002C00C000C06BB92795F3
:10113000889400C000C0002C7BB900C000C000C073
:1011400042FF6BB9D5FC230F2795889400C000C0DF
:1011500000C000C000C000C000C0002C00C000C023
:101160006BB9D6FC230F00C000C0002C7BB900C0B7
:1011700000C000C041FF6BB927958894D7FC230FAE
:1011800000C000C000C000C000C000C000C0002CF3
:1011900000C000C06BB92795889400C000C0002C27
:1011A0007BB900C000C000C040FF6BB9432FD11015
:1011B000422FC19500C000C000C000C000C000C0E8
:1011C00000C0002C00C000C06BB9CE0D00C000C034
:1011D00000C07BB900C000C000C047FF6BB93281BE
:1011E0002227889400C000C000C000C000C000C01A
:1011F00000C0002C00C000C06BB93111380F00C016
:1012000000C0002C7BB900C000C000C046FF6BB915
:1012100008F43FEF8195889400C000C000C000C072
:1012200000C000C000C0002C00C000C06BB910FDA1
:10123000230F00C000C0002C7BB900C000C000C05C
:1012400045FF6BB92795889411FD230F00C000C09E
:1012500000C000C000C000C000C0002C00C000C022
:101260006BB92795889400C000C0002C7BB900C0E2
:1012700000C000C044FF6BB912FD230F279588946E
:1012800000C000C000C000C000C000C000C0002CF2
:1012900000C000C06BB913FD230F00C000C0002CBC
:1012A0007BB900C000C000C043FF6BB9279588948C
:1012B00014FD230F00C000C000C000C000C000C06B
:1012C00000C0002C00C000C06BB92795889400C0F6
:1012D00000C0002C7BB900C000C000C042FF6BB949
:1012E00015FD230F2795889400C000C000C000C0E2
:1012F00000C000C000C0002C00C000C06BB916FDCB
:10130000230F00C000C0002C7BB900C000C000C08B
:1013100041FF6BB92795889417FD230F00C000C0CB
:1013200000C000C000C000C000C0002C00C000C051
:101330006BB92795889400C000C0002C7BB900C011
:1013400000C000C040FF6BB9432F1111422F8C0D1C
:1013500000C000C000C000C000C000C000C0002C21
:1013600000C000C06BB900C0119709F096CD20EC09
:1013700033E0D2010E941C14DC01CB01F4E0B695ED
:10138000A79597958795FA95D1F720E030E0B901B8
:10139000EAE94E9E040C611D5E9E600D711D1124D4
:1013A000650D711D860F971FA11DB11D893E43E07C
:1013B0009407A105B10508F434C0885E9340A109E3
:1013C000B10942E0B695A795979587954A95D1F7CB
:1013D00047E0849F080E211D949F200D311D11248C
:1013E000290F311D60919F0170E0860F971F820FBA
:1013F000931F4091CA015091CB016091CC01709133
:10140000CD01292F3327420F531F611D711D4093BA
:10141000CA015093CB016093CC017093CD018093AE
:101420009F0178940E944E0DF301708B6787DF91C6
:10143000CF911F910F91EF90DF90CF90BF90AF9021
:101440008F907F906F905F904F9008950F931F93B0
:10145000CF93DF93CDB7DEB762970FB6F894DEBFB8
:101460000FBECDBF8C01F901DC011C968C917A83F3
:1014700069835C834B835E834D8390819D879181DB
:101480009E8792819F87813029F4CE0101960E9428
:10149000740606C01C861B861A86198618861F824B
:1014A000188A1A8A198AD801ED91FC910484F5856D
:1014B000E02DBE016F5F7F4FC801099562960FB6A0
:1014C000F894DEBF0FBECDBFDF91CF911F910F917A
:1014D00008950F931F93CF93DF93CDB7DEB7629735
:1014E0000FB6F894DEBF0FBECDBF8C01F901DC0151
:1014F0001C968C917A8369835C834B835E834D83D6
:1015000090819D8791819E8792819F87813029F468
:10151000CE0101960E94740606C01C861B861A86A0
:10152000198618861F8283E0888B1A8A198AD80147
:10153000ED91FC910484F585E02DBE016F5F7F4F36
:10154000C801099562960FB6F894DEBF0FBECDBFF5
:10155000DF91CF911F910F9108950C94E914089594
:101560001F920F920FB60F9211242F933F938F93D8
:101570009F93AF93BF938091CA019091CB01A091AB
:10158000CC01B091CD013091C90123E0230F2D375B
:1015900020F40196A11DB11D05C026E8230F029677
:1015A000A11DB11D2093C9018093CA019093CB0165
:1015B000A093CC01B093CD018091CE019091CF0149
:1015C000A091D001B091D1010196A11DB11D8093D0
:1015D000CE019093CF01A093D001B093D101BF91E0
:1015E000AF919F918F913F912F910F900FBE0F90D0
:1015F0001F90189520918E0330918F03281739077B
:1016000071F49091670380916603981741F0E0911F
:101610006703F0E0EA5DFC4F808190E008958FEF72
:101620009FEF089508951F93CF93DF93DC015C969D
:101630008D919C915D97009739F421E030E01396ED
:101640003C932E9312973BC05196ED91FC9152978B
:1016500050962C915097322F30951FB75E964C9133
:101660005E97742F727041FD6095F89440817723E6
:1016700011F0422B01C043234083EC012197F1F785
:1016800048E0508160FF02C0522B01C053235083B9
:10169000EC012197F1F76695415099F78081772306
:1016A00019F08323808302C0282B20831FBF5C9600
:1016B0008D919C915D970197F1F781E090E0DF912A
:1016C000CF911F91089520918E0330918F03281799
:1016D000390771F4809166032091670390E0805C84
:1016E0009F4F821B910960E470E00E94C11308952E
:1016F00080E090E0089520918E0330918F032817A9
:101700003907B9F49091670380916603981789F0BF
:10171000E0916703F0E0EA5DFC4F80812091670370
:1017200030E02F5F3F4F2F7333272093670390E004
:1017300008958FEF9FEF089590E0FC013197EF300F
:10174000F105B0F5E459FF4F0C9416148091800018
:101750008F7703C0809180008F7D809380000895F3
:1017600080918000877FF9CF84B58F7702C084B5E0
:101770008F7D84BD0895809190008F7707C0809100
:1017800090008F7D03C080919000877F80939000B0
:1017900008958091C0008F7703C08091C0008F7D35
:1017A0008093C00008958091C200877F8093C2001B
:1017B0000895FC01DB0184ED91E0938782878C9191
:1017C000848711968C911197858712968C918687C4
:1017D0000895DC01E0917202F0917302CF01880F4D
:1017E000991FE80FF91F80917A0290917B02E80F10
:1017F000F91F85E090E0019761F02C91208311960C
:101800002C911197218312962C9112972283339653
:10181000F2CF0895009769F0FC0101900020E9F7EC
:101820003197AF01481B590BBC0184E092E00C9446
:101830005E0280E090E008952091D301211103C061
:101840008FEF9FEF08955FB7F89422E02093E900AF
:101850002091F20030E01216130614F421E030E07B
:10186000422FFC0184E6415038F0289A8093D2013F
:101870009091F1009193F7CF2115310521F08091DE
:10188000F200882319F05FBFC90108958BE68093A9
:10189000E800F9CF2FB7F89483E08093E9009091A6
:1018A000E800892F807295FF04C09091F20080E4D7
:1018B000891B2FBF08951F920F920FB60F9211240C
:1018C0002F933F934F935F936F937F938F939F9348
:1018D000AF93BF93EF93FF93E0918E03F0918F034B
:1018E000309709F451C0968DA685B785858591FFFF
:1018F00004C09C91892329F447C09C91892309F055
:1019000043C0A389B4899C918589809589238C9350
:10191000868997890197F1F7608D718DA685B785C6
:10192000558538E020E0CB010197F1F7822F90E058
:1019300095958795282F4C91452309F020683150C3
:1019400091F7868D81FD20958091660390E0019648
:101950008F73992730916703381749F0A091660378
:10196000B0E0AA5DBC4F2C938093660303C0868DC4
:101970008160868F828D938D0197F1F7A389B48959
:101980009C918589892B8C93FF91EF91BF91AF91A9
:101990009F918F917F916F915F914F913F912F9187
:1019A0000F900FBE0F901F90189580911E0381110C
:1019B0000DC082E080931A0384E080931B03109291
:1019C0001D0310921C0381E080931E038AE193E0C3
:1019D0000895CF93DF93282F30E0F901EE57FE4FA3
:1019E0008491F901E452FE4FD491F901E354FE4F82
:1019F000C491CC2391F081110E949C0BEC2FF0E05C
:101A0000EE0FFF1FEF55FE4FA591B491EC91ED2322
:101A100081E090E021F480E002C080E090E0DF917E
:101A2000CF910895CF93DF9390E0FC01E452FE4FF5
:101A30002491FC01E354FE4F8491882361F190E0EE
:101A4000880F991FFC01EC58FE4FC591D491FC0101
:101A5000E155FE4FA591B491611109C09FB7F8946B
:101A60008881209582238883EC912E230BC06230DD
:101A700061F49FB7F8948881322F3095832388834F
:101A8000EC912E2B2C939FBF06C08FB7F894E88162
:101A90002E2B28838FBFDF91CF9108953FB7F89405
:101AA0008091CE019091CF01A091D001B091D10150
:101AB00026B5A89B05C02F3F19F00196A11DB11DA9
:101AC0003FBFBA2FA92F982F8827820F911DA11DE4
:101AD000B11DBC01CD0142E0660F771F881F991F21
:101AE0004A95D1F708958F929F92AF92BF92CF926D
:101AF000DF92EF92FF926B017C010E944E0D4B0131
:101B00005C01C114D104E104F104F1F00E944E0D16
:101B1000DC01CB0188199909AA09BB09883E9340C9
:101B2000A105B10570F321E0C21AD108E108F1085E
:101B300088EE880E83E0981EA11CB11CC114D1044C
:101B4000E104F10419F7DDCFFF90EF90DF90CF9023
:101B5000BF90AF909F908F9008952FB7F8946091A9
:101B6000CA017091CB018091CC019091CD012FBF22
:101B70000895CF93DF93CDB7DEB7A7970FB6F8944C
:101B8000DEBF0FBECDBF789484B5826084BD84B5BE
:101B9000816084BD85B5826085BD85B5816085BD68
:101BA00080916E00816080936E0010928100809120
:101BB00081008260809381008091810081608093A8
:101BC00081008091800081608093800080919100ED
:101BD0008260809391008091910081608093910058
:101BE000809190008160809390008091C10084601A
:101BF0008093C1008091C10082608093C100809178
:101C0000C10081608093C1008091C3008160809396
:101C1000C3008091C00082608093C0008091C200A8
:101C200081608093C20080917A00846080937A0002
:101C300080917A00826080937A0080917A0081603E
:101C400080937A0080917A00806880937A00109265
:101C5000D3011092A1011092A0018091D700816060
:101C60008093D70080EA8093D80089B5806189BDD0
:101C700089B5826089BD09B400FEFDCF61E070E0E6
:101C800080E090E00E94730D8091D8008F7C80618D
:101C90008093D8008091E000807F8093E000809165
:101CA000E1008E7E8093E1008DE08093E200559A02
:101CB000209A5D9828988FEF9FEF90931102809360
:101CC000100268EE73E080E090E00E94730D809156
:101CD000B501811145C01092A7011092A6018FEFA6
:101CE0008093AA018093AB018093AC018093AD01F6
:101CF0008093AE018093AF0181E08093B001109298
:101D0000B2011092B1011092A9011092A801809124
:101D1000C3019091C401892B31F484EA91E090933E
:101D2000C4018093C301E091A201F091A301309717
:101D300021F084EA91E09583848384EA91E0909392
:101D4000A3018093A2011092B4011092B30187E322
:101D500091E09093A5018093A40181E08093B50167
:101D6000579A84ED91E09093A7018093A60180E1BA
:101D700090E09093B2018093B101809157029091CD
:101D80005802A0915902B0915A02843C29E092076E
:101D9000A105B10520F484EC99E0A0E0B0E08093C7
:101DA000570290935802A0935902B0935A021FEF22
:101DB0001093540288E093E00E94460686EF92E07A
:101DC0000E94460684EE92E00E94460682ED92E072
:101DD0000E94460619831A821B82BE016F5F7F4FE5
:101DE0008EE892E00E94D90B19831A831B82BE01F0
:101DF0006F5F7F4F8FE792E00E94D90B19821A82A2
:101E00001B83BE016F5F7F4F80E792E00E94D90B7A
:101E1000198280E88A831B82BE016F5F7F4F81E653
:101E200092E00E94D90B81E891E00E940A0C85E9BA
:101E300091E00E940A0C8AE0882E912CA12CB12CF2
:101E400011E0E091CC02E23108F0E251F0E0E85913
:101E5000FE4FE49120917B00E3FB332730F93AA356
:101E60001BA28AA19BA105E0880F991F0A95E1F7A3
:101E7000922F9F7D892B80937B00E770E064E09335
:101E80007C0080917A00806480937A0080917A004F
:101E900086FDFCCFA091780080917900B0E0B82B4E
:101EA0008091CE029091CF02FD01E81BF90BCF018A
:101EB000F7FF03C09195819591092091D00230914F
:101EC000D102281739070CF093C1B093CF02A09329
:101ED000CE022FE130E00E941C1420E034E040E00C
:101EE00050E00E94F71329013A0157FF20C06DE22C
:101EF00084E092E00E94EB0122273327A9012419F4
:101F000035094609570919A2CE0181967C01CA01FB
:101F1000B901A50194010E94D513605DD7016E93AC
:101F20007D01211531054105510589F713C019A21D
:101F3000FE01B1967F01CA01B901A50194010E9479
:101F4000D513605DD7016E937D01211531054105E3
:101F5000510589F7C7010E940A0C85E991E00E94AA
:101F60000A0C86E08093BB021092BD024092BE0232
:101F7000E9EBF2E080E090E02191820F911DB2E068
:101F8000EF3BFB07C9F79195819591099093BF02AB
:101F90008093C0028091BC02882309F400C156E0FE
:101FA000F52E62E0E62E77E0D72EEAE0CE2EF4E0C2
:101FB0007F2EA9E06A2EB5E05B2E8091C9028823AE
:101FC00009F4EDC060E070E0CB010E94730D8091D8
:101FD000A4029091A502DC01ED91FC910084F185B1
:101FE000E02D0995892B09F4B2C060E070E0CB01C7
:101FF0000E94730D0091C2028091A4029091A502EB
:10200000DC01ED91FC910284F385E02D011108C003
:1020100009958093AE028E37D1F68091C20293C0AB
:102020000995E02FF0E0E356FD4F818B8091C202CD
:10203000823069F0893089F0813009F084C0909154
:10204000AF029F3F09F47FC01092C20279C0909105
:10205000B002963009F477C0F7CF8091B7028F3E77
:1020600099F7EFEAF2E020E030E08191280F311D8E
:10207000B2E0E53BFB07C9F78091B50290E0982FED
:1020800088274091B602840F911D31952195310921
:1020900082179307C9F61092C202E091B102E134AF
:1020A00009F4F0C0E093C5028091B30290E0982F4C
:1020B00088272091B402820F911D9093C7028093CC
:1020C000C6024E2F50E0FA01FA97E631F105C0F54D
:1020D000EA5AFF4F0C9416145092C4022EC080FF8F
:1020E00003C06092C40229C081FF03C07092C40281
:1020F00024C083709927892B09F45FCFC092C40252
:102100001CC080FF03C0D092C40217C081FF55CF0E
:10211000E092C40212C080FF04C0E8E0E093C40271
:102120000CC081FF4ACFF3E0F093C40206C0F092E6
:10213000C40203C02BE02093C4021093C8023DCF19
:102140001093C40299C08F5F8093C20240CF8091E8
:10215000C902882309F431CF0E94AD0D2091A60257
:102160003091A7024091A8025091A902DC01CB0155
:10217000821B930BA40BB50B2091AA023091AB02EA
:102180004091AC025091AD0282179307A407B507A6
:1021900008F413CF1092C2021092C4026DC0809155
:1021A000A4029091A502DC01ED91FC910280F381E3
:1021B000E02D4AE050E068EB72E009950E94AD0D19
:1021C0006093A6027093A7028093A8029093A9023D
:1021D0008091BC0291E0811101C090E09093C9020E
:1021E000811106C06AE070E080E090E00E94730D0B
:1021F00088E093E00E94FC0586EF92E00E94FC05D7
:1022000084EE92E00E94FC0582ED92E00E94FC05C3
:102210008FEF89831A821B82CE0101960E94E90BFF
:10222000009154028091570290915802A091590256
:10223000B0915A02892B8A2B8B2B39F10E944E0DBB
:10224000C090C501D090C601E090C701F090C801D0
:10225000DC01CB018C199D09AE09BF09C090570262
:10226000D0905802E0905902F0905A028C159D05CA
:10227000AE05BF05B8F209C01092C7021092C6029F
:102280001093C8021092C90298CE0E944E0D60931E
:10229000C5017093C6018093C7019093C801E09176
:1022A0005F02F0916002309759F040915B025091CB
:1022B0005C0260915D0270915E02802F0995082F8B
:1022C000E090C301F090C401402E512C612C712C80
:1022D000E114F10409F466C0F701348480915502D9
:1022E000909156028436910508F41486D701ED9139
:1022F000FC91228133813DA32CA319821A821B8277
:10230000011119C0D7011D964D915C911E9712962F
:102310006D917C9113979E012F5F3F4FC701ECA1F8
:10232000FDA10995D7011C963C921C971496ED903F
:10233000FC901597CDCFF70136969E012F5F3F4F4A
:102340006901C70109969FA38EA32191222309F158
:1023500022802220F1F0822F90E0A0E0B0E09C01EA
:10236000AD012F5F3F4F4F4F5F4FC301B2010E943E
:10237000B1139B01AC01822D90E0A0E0B0E0BC0164
:10238000CD016F5F7F4F8F4F9F4F0E94B113D601DA
:102390008C93BFEFCB1ADB0A2EA13FA12E173F076C
:1023A000A1F6B0CF8091C1019091C2017C013FEFB5
:1023B000E31AF30AF092C201E092C10149979CF13D
:1023C0000E94AD0D2B013C0188EE93E0E89EB00128
:1023D000E99E700DF89E700D1124072E000C880BDD
:1023E000990BC090BD01D090BE01E090BF01F0906C
:1023F000C001A30192012C193D094E095F090E94F9
:10240000D51330935602209355021092C2011092B8
:10241000C1010E94AD0D6093BD017093BE01809318
:10242000BF019093C00164EF71E080E090E00E94F2
:10243000730DA0E0B0E0AB2B09F403CD0E940000C7
:1024400000CD1F93CF93DF93282F30E0F901EE5793
:10245000FE4F8491F901E452FE4FD491F901E35407
:10246000FE4FC491CC23C1F0162F81110E949C0B0A
:10247000EC2FF0E0EE0FFF1FE155FE4FA591B49158
:102480009FB7F894111104C08C91D095D82302C045
:10249000EC91DE2BDC939FBFDF91CF911F910895CC
:1024A000CF93DF93109207021092060288EE93E01A
:1024B000A0E0B0E08093080290930902A0930A0282
:1024C000B0930B0229E431E030930502209304021B
:1024D0002FEF3FEF309311022093100210929303DD
:1024E000109292038093940390939503A093960384
:1024F000B093970383E791E09093910380939003C7
:102500001092A7031092A6031092A9031092A80399
:102510001092AB031092AA031092AD031092AC0379
:102520006091AE036E7F6D7F6093AE0366956170C0
:1025300081E068278BE00E94211261E08BE00E941D
:10254000120DE7EEF1E0E491E093A003E8ECF1E096
:10255000E491F0E0EE0FFF1FE155FE4F859194915D
:102560009093A2038093A10360E08AE00E94120D81
:102570008091AE0381FD04C061E08AE00E942112D7
:102580008AE080939C03E6EEF1E0E491E0939D0302
:10259000E7ECF1E0E491F0E0EE0FFF1FEF55FE4FA6
:1025A0008591949190939F0380939E0388E693E096
:1025B0000E94DF0582E18093080349E150E060E07A
:1025C00070E04093090350930A0360930B037093E8
:1025D0000C0381E080930D0380930E0393E19093AD
:1025E000F6024093F7025093F8026093F902709359
:1025F000FA028093FB028093FC0294E19093E40240
:102600004093E5025093E6026093E7027093E8027C
:102610008093E9028093EA0295E19093D20240937D
:10262000D3025093D4026093D5027093D602809364
:10263000D7028093D8028BE691E09093CB028093EF
:10264000CA0287E190E09093CD028093CC02CCE067
:10265000D0E0D093D102C093D0021092CF0210925A
:10266000CE0260E00E94120D83E691E090939E02FC
:1026700080939D0284EA92E00E94DF058BE591E061
:1026800090938F0280938E0210929102109290028A
:102690002BE031E0309393022093920290938002DA
:1026A00080937F0224E030E0309382022093810205
:1026B00020E032E0309384022093830290937102F1
:1026C0008093700228E030E030937302209372020E
:1026D00020E033E0309375022093740290936202FD
:1026E00080936102D0936402C093630281E094E01E
:1026F00090936602809365028FEF8093540210924C
:102700005602109255021092600210925F028FEFF3
:102710009FEFDC0180935B0290935C02A0935D02CB
:10272000B0935E02DF91CF91089583E791E090939B
:1027300091038093900380918E0390918F03805931
:10274000934071F4E091A303F091A40390818091F0
:10275000A50380958923808310928F0310928E03A6
:102760000895DB018F939F930E942314BF91AF9133
:10277000A29F800D911DA39F900DB29F900D1124DB
:10278000089597FB072E16F4009407D077FD09D023
:102790000E942E1407FC05D03EF4909581959F4F22
:1027A0000895709561957F4F0895A1E21A2EAA1B96
:1027B000BB1BFD010DC0AA1FBB1FEE1FFF1FA217F1
:1027C000B307E407F50720F0A21BB30BE40BF50BEE
:1027D000661F771F881F991F1A9469F76095709577
:1027E000809590959B01AC01BD01CF010895052E08
:1027F00097FB1EF400940E940E1457FD07D00E9410
:10280000D51307FC03D04EF40C940E14509540954C
:10281000309521953F4F4F4F5F4F0895909580958C
:10282000709561957F4F8F4F9F4F0895EE0FFF1F5B
:102830000590F491E02D09940E944214B7FF089589
:10284000821B930B08950E944214A59F900DB49F84
:10285000900DA49F800D911D11240895AA1BBB1BF0
:1028600051E107C0AA1FBB1FA617B70710F0A61B90
:10287000B70B881F991F5A95A9F780959095BC01B1
:10288000CD010895A29FB001B39FC001A39F700D19
:10289000811D1124911DB29F700D811D1124911D68
:1028A00008950F931F93CF93DF938230910510F417
:1028B00082E090E0E091B103F091B20320E030E0DB
:1028C000A0E0B0E0309719F140815181028113817D
:1028D00048175907C8F08417950769F4109731F025
:1028E00012960C93129713961C9327C00093B10372
:1028F0001093B20322C02115310519F04217530776
:1029000018F49A01BD01EF01DF01F801DBCF2115B9
:102910003105F9F0281B390B2430310580F48A8108
:102920009B816115710521F0FB019383828304C0B3
:102930009093B2038093B103FE01329644C0FE012E
:10294000E20FF31F81939193225031093983288339
:102950003AC02091AF033091B003232B41F4209172
:102960000E0130910F013093B0032093AF032091FB
:102970000C0130910D012115310541F42DB73EB701
:102980004091100150911101241B350BE091AF03D0
:10299000F091B003E217F307A0F42E1B3F0B2817AA
:1029A000390778F0AC014E5F5F4F2417350748F0C8
:1029B0004E0F5F1F5093B0034093AF0381939193E9
:1029C00002C0E0E0F0E0CF01DF91CF911F910F91C5
:1029D0000895CF93DF93009709F481C0FC013297EB
:1029E00013821282A091B103B091B203109781F4C7
:1029F00020813181820F931F2091AF033091B0036A
:102A00002817390751F5F093B003E093AF0367C07F
:102A1000ED0120E030E0CE17DF0740F44A815B8112
:102A20009E0141155105F1F0EA01F5CFD383C28330
:102A300040815181840F951FC817D90759F48881A7
:102A40009981840F951F0296918380838A819B814F
:102A5000938382832115310529F4F093B203E09327
:102A6000B1033DC0E901FB83EA8349915991C40F49
:102A7000D51FEC17FD0761F480819181840F951FAC
:102A80000296E90199838883828193819B838A835B
:102A9000E0E0F0E012968D919C911397009719F069
:102AA000FD01DC01F7CF8D919C9111979D012E5F67
:102AB0003F4F820F931F2091AF033091B00328172F
:102AC000390769F4309729F41092B2031092B103D8
:102AD00002C013821282B093B003A093AF03DF91C0
:102AE000CF91089581E090E0F8940C94771511E06F
:102AF000CFEFD0E004C0FE010E9416142196C03032
:082B0000D107C9F7F894FFCFDB
:102B0800FFFFFFFF00E10000000000000000B3032A
:102B180020007EFF06000100000000EF00C1808158
:102B2800000000000000002A022A022A02B806DC7F
:102B380006E00600000000260A690AB606B806DCA8
:102B480006B306E30600000000EB015E02E40201A2
:102B5800020C020C03E80200000000AF0AAD0A00F4
:102B6800000000DE052A0300000000FB052C03001E
:102B7800000000130BC1012702120B630B7B0BFA39
:102B88000A205374617274207570206163746976C9
:082B980069746979000D0A005F
:00000001FF
