:100000000C9465010C948D010C948D010C948D0160
:100010000C948D010C948D010C948D010C948D0128
:100020000C948D010C9419100C947F0B0C94F10B13
:100030000C948D010C948D010C948D010C948D0108
:100040000C948D010C948D010C948D010C948D01F8
:100050000C948D010C948D010C948D010C94660907
:100060000C948D010C948D010C948D010C948D01D8
:100070000C948D010C948D010C948D010C948D01C8
:100080000C948D010C948D010C948D010C948D01B8
:100090000C948D010C948D010C948D010C948D01A8
:1000A0000C948D010C948D010C948D01BF10C21025
:1000B000B110B510BB10E310E310E310C610CA1066
:1000C000CE10D410D810E310DE1083128B129512CC
:1000D00072129512741293129C1295129512951227
:1000E000951295129512951295129C1295129512D1
:1000F0009512951295124446506C61796572204DA7
:10010000696E69206F6E6C696E652E00322E506CC0
:100110006561736520696E7365727420746865200B
:10012000534420636172642100312E506C65617309
:1001300065207265636865636B2074686520636F12
:100140006E6E656374696F6E2100556E61626C65D9
:1001500020746F20626567696E3A00496E69746940
:10016000616C697A696E67204446506C617965728A
:10017000202E2E2E20284D61792074616B6520334E
:100180007E35207365636F6E647329004446526F39
:10019000626F74204446506C61796572204D696EBF
:1001A000692044656D6F00080B000202020100091E
:1001B00004000001020200000524001001052401D2
:1001C000010104240206052406000107058103102D
:1001D000004009040100020A000000070502024075
:1001E0000000070583024000000403090412010017
:1001F00002EF020140412337800001010203014167
:10020000726475696E6F204C4C430041726475696D
:100210006E6F204D6963726F0007060504010008C8
:100220000A0B0C0D0900000000240027002A002DF5
:100230000030000000000200090F0000030401006C
:100240000C000000000000000000000000000000A2
:100250000000200073656E64696E673A002000201C
:100260000072656365697665643A000000000023EA
:1002700000260029002C002F000000000025002887
:10028000002B002E003100040404040403040502C2
:100290000202020403020202020606060606060421
:1002A00004020202040404080201104080401020ED
:1002B000408040800802040180402010020110802C
:1002C000102040402000781BB11D11241FBECFEF2D
:1002D000DAE0DEBFCDBF11E0A0E0B1E0E2E4F4E49B
:1002E00002C005900D92A23FB107D9F724E0A2EF1A
:1002F000B1E001C01D92AF3CB207E1F711E0C4E6E6
:10030000D1E004C02197FE010E94021FC336D1072D
:10031000C9F70E9466150C9414220C94000080E921
:1003200091E008953E9A08950895CF93DF9300D009
:1003300000D000D0CDB7DEB7AB011C821D821E827B
:10034000DC01ED91FC910190F081E02D19821A827F
:100350001B829E012F5F3F4FBE016C5F7F4F09954F
:1003600026960FB6F894DEBF0FBECDBFDF91CF91BA
:100370000895FC0185859685089580E090E00895B4
:100380004F925F926F927F928F92AF92BF92CF9275
:10039000DF92EF920F931F93CF93DF933C01EB011A
:1003A0000E944B11F30127853089621B730B6A3061
:1003B0007105B0F3F894E881F98178B1706468B19F
:1003C0006F7B68B9CB8488852C2D281B822F2887CA
:1003D000BF844A805B801E850C85DD841F5F0F5FB4
:1003E000D3949E813F81A984EA844281D20120E096
:1003F000C32F522F322F3281442788943111380F66
:1004000008F43FEF8195889410FD430F4795889439
:1004100011FD430F4795889412FD430F479588942B
:1004200013FD430F4795889414FD430F4795889417
:1004300015FD430F4795889416FD430F4795889403
:1004400017FD430F47958894232F1111242F8C0DEE
:10045000422F002C78B900C000C000C047FF68B927
:1004600030812227889400C000C000C000C000C0B6
:1004700000C000C0002C00C000C068B93111390FA5
:1004800000C000C0002C78B900C000C000C046FF0A
:1004900068B908F43FEF9195889400C000C000C08F
:1004A00000C000C000C000C0002C00C000C068B97F
:1004B00000FD230F00C000C0002C78B900C000C0B0
:1004C00000C045FF68B92795889401FD230F00C03F
:1004D00000C000C000C000C000C000C0002C00C0B0
:1004E00000C068B92795889400C000C0002C78B976
:1004F00000C000C000C044FF68B902FD230F27956B
:10050000889400C000C000C000C000C000C000C08F
:10051000002C00C000C068B903FD230F00C000C05C
:10052000002C78B900C000C000C043FF68B927950F
:10053000889404FD230F00C000C000C000C000C0AC
:1005400000C000C0002C00C000C068B92795889486
:1005500000C000C0002C78B900C000C000C042FF3D
:1005600068B905FD230F2795889400C000C000C01E
:1005700000C000C000C000C0002C00C000C068B9AE
:1005800006FD230F00C000C0002C78B900C000C0D9
:1005900000C041FF68B92795889407FD230F00C06C
:1005A00000C000C000C000C000C000C0002C00C0DF
:1005B00000C068B92795889400C000C0002C78B9A5
:1005C00000C000C000C040FF68B9432F0111422F96
:1005D0009A0D00C000C000C000C000C000C000C034
:1005E000002C00C000C068B900C000C000C0002CD2
:1005F00078B900C000C000C047FF68B93181222728
:10060000889400C000C000C000C000C000C000C08E
:10061000002C00C000C068B931113C0F00C000C000
:10062000002C78B900C000C000C046FF68B908F4CB
:100630003FEFEB0DF11D00C000C000C000C000C0C6
:1006400000C000C0002C00C000C068B9D0FC230F5F
:1006500000C000C0002C78B900C000C000C045FF39
:1006600068B927958894D1FC230F00C000C000C052
:1006700000C000C000C000C0002C00C000C068B9AD
:100680002795889400C000C0002C78B900C000C035
:1006900000C044FF68B9D2FC230F2795889400C09E
:1006A00000C000C000C000C000C000C0002C00C0DE
:1006B00000C068B9D3FC230F00C000C0002C78B97B
:1006C00000C000C000C043FF68B927958894D4FCDF
:1006D000230F00C000C000C000C000C000C000C0A8
:1006E000002C00C000C068B92795889400C000C0E5
:1006F000002C78B900C000C000C042FF68B9D5FC2A
:10070000230F2795889400C000C000C000C000C01F
:1007100000C000C0002C00C000C068B9D6FC230F88
:1007200000C000C0002C78B900C000C000C041FF6C
:1007300068B927958894D7FC230F00C000C000C07B
:1007400000C000C000C000C0002C00C000C068B9DC
:100750002795889400C000C0002C78B900C000C064
:1007600000C040FF68B9432FD110422FC19500C08F
:1007700000C000C000C000C000C000C0002C00C00D
:1007800000C068B9CE0D00C000C000C078B900C07C
:1007900000C000C047FF68B932812227889400C09A
:1007A00000C000C000C000C000C000C0002C00C0DD
:1007B00000C068B93111380F00C000C0002C78B9F2
:1007C00000C000C000C046FF68B908F43FEF819543
:1007D000889400C000C000C000C000C000C000C0BD
:1007E000002C00C000C068B910FD230F00C000C07D
:1007F000002C78B900C000C000C045FF68B927953B
:10080000889411FD230F00C000C000C000C000C0CC
:1008100000C000C0002C00C000C068B927958894B3
:1008200000C000C0002C78B900C000C000C044FF68
:1008300068B912FD230F2795889400C000C000C03E
:1008400000C000C000C000C0002C00C000C068B9DB
:1008500013FD230F00C000C0002C78B900C000C0F9
:1008600000C043FF68B92795889414FD230F00C08A
:1008700000C000C000C000C000C000C0002C00C00C
:1008800000C068B92795889400C000C0002C78B9D2
:1008900000C000C000C042FF68B915FD230F2795B6
:1008A000889400C000C000C000C000C000C000C0EC
:1008B000002C00C000C068B916FD230F00C000C0A6
:1008C000002C78B900C000C000C041FF68B927956E
:1008D000889417FD230F00C000C000C000C000C0F6
:1008E00000C000C0002C00C000C068B927958894E3
:1008F00000C000C0002C78B900C000C000C040FF9C
:1009000068B9432F1111422F8C0D00C000C000C0E8
:1009100000C000C000C000C0002C00C000C068B90A
:1009200000C0119709F096CD20EC33E0D2010E946F
:10093000081FDC01CB01F4E0B695A7959795879544
:10094000FA95D1F720E030E0B901EAE94E9E040CB7
:10095000611D5E9E600D711D1124650D711D860F58
:10096000971FA11DB11D893E43E09407A105B10564
:1009700008F434C0885E9340A109B10942E0B695FD
:10098000A795979587954A95D1F747E0849F080EDC
:10099000211D949F200D311D1124290F311D6091BF
:1009A000040270E0860F971F820F931F409136025A
:1009B000509137026091380270913902292F332704
:1009C000420F531F611D711D409336025093370231
:1009D00060933802709339028093040278940E94E5
:1009E0004B11F301708B6787DF91CF911F910F91AE
:1009F000EF90DF90CF90BF90AF908F907F906F90EF
:100A00005F904F9008950F931F93CF93DF93CDB7CF
:100A1000DEB762970FB6F894DEBF0FBECDBF8C0174
:100A2000F901DC011C968C917A8369835C834B838A
:100A30005E834D8390819D8791819E8792819F8760
:100A4000813029F4CE0101960E94810E06C01C86D9
:100A50001B861A86198618861F82188A1A8A198A8E
:100A6000D801ED91FC910484F585E02DBE016F5F06
:100A70007F4FC801099562960FB6F894DEBF0FBE8E
:100A8000CDBFDF91CF911F910F9108950F931F93C9
:100A9000CF93DF93CDB7DEB762970FB6F894DEBF82
:100AA0000FBECDBF8C01F901DC011C968C917A83BD
:100AB00069835C834B835E834D8390819D879181A5
:100AC0009E8792819F87813029F4CE0101960E94F2
:100AD000810E06C01C861B861A86198618861F8200
:100AE00083E0888B1A8A198AD801ED91FC910484DD
:100AF000F585E02DBE016F5F7F4FC80109956296B5
:100B00000FB6F894DEBF0FBECDBFDF91CF911F911E
:100B10000F910895AF92BF92CF92DF92EF92FF9222
:100B20000F931F93CF93DF93EC018B018BE10E9416
:100B300020115C01BC01990F880B990B0E945B1F6F
:100B40006093FA017093FB018093FC019093FD0187
:100B50008AE10E9420116C01BC01990F880B990B4E
:100B60000E945B1F6093F6017093F7018093F80178
:100B70009093F90189E10E9420117C01BC01990F39
:100B8000880B990B0E945B1F6093F2017093F30135
:100B90008093F4019093F50188E10E94201198015F
:100BA00024513109A216B30634F0A8014C5E5F4F00
:100BB0004A155B0594F4C216D306C4F0A8014C5E36
:100BC0005F4F4C155D0594F08091A404888380915B
:100BD000A50489838091A6042BC08091A7048883F3
:100BE0008091A80489838091A90422C0E216F306AB
:100BF0007CF0A8014C5E5F4F4E155F054CF0809174
:100C0000A10488838091A20489838091A30410C0E9
:100C1000821793077CF00C5E1F4F0817190754F0DA
:100C200080919E04888380919F0489838091A00491
:100C30008A8303C0188219821A82CE01DF91CF9174
:100C40001F910F91FF90EF90DF90CF90BF90AF90EA
:100C5000089580919704882321F081E090E00C941E
:100C600031150895CF92DF92EF92FF920F931F9369
:100C7000CF93DF9300D01F92CDB7DEB788E891E025
:100C80000E94810F00E513E094E0C92ED12CE12CE5
:100C9000F12C0E94241EA70196010E947B1EFB01DD
:100CA000EE0FFF1F6E0F7F1FFB01E05BFC4F2081EB
:100CB00091818281D8013C91308311963C911197AA
:100CC000318312963C91129732832C9311969C9308
:100CD000119712968C930D5F1F4FB3E00C351B07D5
:100CE000C1F6809150038983809151038A8380915A
:100CF00052038B83BE016F5F7F4F8EEF93E00E94A4
:100D00009614809153038983809154038A83809140
:100D100055038B83BE016F5F7F4F8CEE93E00E9483
:100D20009614809156038983809157038A8380911A
:100D300058038B83BE016F5F7F4F8AED93E00E9463
:100D4000961480915903898380915A038A838091F4
:100D50005B038B83BE016F5F7F4F88EC93E00E9443
:100D60009614809150038983809151038A838091E6
:100D700052038B83BE016F5F7F4F86E494E00E9435
:100D80009614809153038983809154038A838091C0
:100D900055038B83BE016F5F7F4F84E394E00E9415
:100DA0009614809156038983809157038A8380919A
:100DB00058038B83BE016F5F7F4F82E294E00E94F5
:100DC000961480915903898380915A038A83809174
:100DD0005B038B83BE016F5F7F4F80E194E00E94D5
:100DE00096141092020281E08093030288EC8093B3
:100DF0000E030F900F900F90DF91CF911F910F91E5
:100E0000FF90EF90DF90CF90089520910302211181
:100E100007C021E020935E04BC0183E00C94E21241
:100E20000895CF92DF92EF92FF920F931F93CF938B
:100E3000DF9300D01F92CDB7DEB782E10E94201170
:100E4000BC01990F880B990B0E945B1F6093C40330
:100E50007093C5038093C6039093C70383E10E94F8
:100E60002011BC01990F880B990B0E945B1F6093A6
:100E7000AC037093AD038093AE039093AF0384E112
:100E80000E942011BC01990F880B990B0E945B1FD7
:100E900060939403709395038093960390939703C4
:100EA00085E10E942011BC01990F880B990B0E94CB
:100EB0005B1F60937C0370937D0380937E0390930C
:100EC0007F038091B903882309F4A2C182E10E94C3
:100ED0002011BC01990F880B990B0E945B1F609336
:100EE000C4037093C5038093C6039093C70389E935
:100EF00091E00E94810F8091A103811197C180919F
:100F000089038823A9F084E10E942011BC01990F74
:100F1000880B990B0E945B1F609394037093950359
:100F2000809396039093970386EA91E00E94810F45
:100F300080917103811190C1C090C403D090C5030A
:100F4000E090C603F090C70320E030E048E452E4AC
:100F5000C701B6010E94BF1F18168CF5C701B60164
:100F60000E94231FCE0101960E948A0599818091DB
:100F70005003981317C09A8180915103981312C09F
:100F8000909152038B8198130DC063E070E086E46A
:100F900094E00E94B7148823D9F081E090E00E9489
:100FA000050716C062E070E086E494E00E94B71482
:100FB000882389F082E090E00E9405070CC010921F
:100FC000020261E070E086E494E00E94B71403C07E
:100FD00001E010E002C000E010E0C090AC03D0904F
:100FE000AD03E090AE03F090AF0320E030E048E4C2
:100FF00052E4C701B6010E94BF1F18169CF5C70135
:10100000B6010E94231FCE0101960E948A0590918D
:1010100053038981981319C0909154038A819813BE
:1010200014C0909155038B8198130FC063E070E05A
:1010300084E394E00E94B714882321F081E090E0DB
:101040000E9405070F5F1F4F15C062E070E084E348
:1010500094E00E94B714882369F082E090E00E9437
:10106000050708C01092020261E070E084E394E09A
:101070000E94B714C0909403D0909503E09096031B
:10108000F090970320E030E048E452E4C701B60155
:101090000E94BF1F18169CF5C701B6010E94231FAE
:1010A000CE0101960E948A0590915603898198137A
:1010B00019C0909157038A81981314C090915803D6
:1010C0008B8198130FC063E070E082E294E00E948D
:1010D000B714882321F081E090E00E9405070F5F9C
:1010E0001F4F15C062E070E082E294E00E94B714E6
:1010F000882369F082E090E00E94050708C0109202
:10110000020261E070E082E294E00E94B714C090B5
:101110007C03D0907D03E0907E03F0907F0320E07D
:1011200030E048E452E4C701B6010E94BF1F181620
:101130009CF5C701B6010E94231FCE0101960E94B3
:101140008A05909159038981981319C090915A0387
:101150008A81981314C090915B038B8198130FC000
:1011600063E070E080E194E00E94B714882321F0EE
:1011700081E090E00E9405070F5F1F4F15C062E0FD
:1011800070E080E194E00E94B714882369F082E067
:1011900090E00E94050708C01092020261E070E032
:1011A00080E194E00E94B714109203028091020241
:1011B000811113C00430110581F481E08093020293
:1011C0008FEF80930E030E94AA116093FE0170932B
:1011D000FF01809300029093010280910202882314
:1011E00009F450C00E94AA110091FE011091FF0164
:1011F0002091000230910102DC01CB01801B910B98
:10120000A20BB30B89399A43A105B10530F43AC05A
:101210008091030281115ACE6ECE8091970488236B
:1012200089F182E090E00E9431152CC083E10E9498
:101230002011BC01990F880B990B0E945B1F6093D2
:10124000AC037093AD038093AE039093AF0383EB35
:1012500091E00E94810F53CE85E10E942011BC01D4
:10126000990F880B990B0E945B1F60937C0370930E
:101270007D0380937E0390937F0380EC91E00E9436
:10128000810F5ACE0F900F900F90DF91CF911F9149
:101290000F91FF90EF90DF90CF9008950C948020F5
:1012A0000895409100015091010125E038E0429FEE
:1012B000C001439F900D529F900D1124875E994C61
:1012C0009093010180930001890F08951F920F925E
:1012D0000FB60F9211242F933F938F939F93AF9349
:1012E000BF938091360290913702A0913802B0915D
:1012F000390230912E0223E0230F2D3720F401967E
:10130000A11DB11D05C026E8230F0296A11DB11D28
:1013100020932E028093360290933702A0933802D6
:10132000B093390280913A0290913B02A0913C0225
:10133000B0913D020196A11DB11D80933A02909398
:101340003B02A0933C02B0933D02BF91AF919F91AD
:101350008F913F912F910F900FBE0F901F90189576
:10136000409132025091330220913002309131028B
:1013700042175307B4F49091E8009570E1F390910F
:10138000E80092FD19C08093F100809132029091A3
:10139000330201968F739927892B19F48EEF80936E
:1013A000E8008091320290913302019690933302CB
:1013B0008093320281E0089580E00895DF92EF92F9
:1013C000FF920F931F93CF93DF93D82E8A017B0157
:1013D000E40EF51EEB01CE15DF0571F0D7FE03C05C
:1013E000FE01849101C088810E94B009219681117B
:1013F000F2CF8FEF9FEF01C0C801DF91CF911F9116
:101400000F91FF90EF90DF900895615030F02091A0
:10141000F100FC0120830196F8CF289A84E680939E
:1014200040020895CF92DF92EF92FF920F931F93A5
:10143000CF93DF936C017A018B01C0E0D0E0CE1531
:10144000DF0581F0D8016D918D01D601ED91FC9100
:101450000190F081E02DC6010995892B11F02196AC
:10146000EECF7E01C701DF91CF911F910F91FF90C9
:10147000EF90DF90CF900895CF93DF931F92CDB779
:10148000DEB76983DC01ED91FC910280F381E02DF0
:1014900041E050E0BE016F5F7F4F09950F90DF91F3
:1014A000CF91089583E08093E9008091F200882332
:1014B00019F08AE38093E8000895FC0184859585FE
:1014C00097FD0BC09FB7F89482E08093E90080916C
:1014D000F2009FBF90E0019608959FB7F89482E0D4
:1014E0008093E9008091F2009FBF90E008950895F5
:1014F00080E090E008950E94CF210F931F93CF9337
:10150000DF931F92CDB7DEB782E0898342E450E0DB
:1015100067EA71E080E80E94DE090E949310DC0116
:1015200012960D911C9113970115110589F0D801A0
:10153000ED91FC910280F381E02DBE016F5F7F4F42
:10154000C801099597FD04C0F80100851185ECCF0D
:1015500089810F90DF91CF911F910F9108958F9204
:101560009F92AF92BF92CF92DF92EF92FF920F9332
:101570001F93CF93DF936C017B018A0180910D0152
:10158000882309F45CC080914102882309F457C084
:101590008091050280FF05C08091E0008260809309
:1015A000E000E801B12C8AEFA82E93E0892E2AE30F
:1015B000922E209711F4BB20D9F10E9408108111BE
:1015C0000AC0AA94AA20D9F161E070E080E090E01E
:1015D0000E947011EECF282F30E0C217D3070CF411
:1015E0008C2F9FB7F8948092E9002091E80025FFA6
:1015F0001DC0282F30E0C21BD30BF701815020F013
:1016000041914093F100FACFE20EF31EBB2019F096
:101610009092E8000AC08091E80085FD07C0909292
:10162000E800BB24B394209709F0B12C9FBFC1CF31
:101630005D9A84E6809335021016110644F081E02D
:1016400090E0F6019383828380E090E001C0C801BE
:10165000DF91CF911F910F91FF90EF90DF90CF908E
:10166000BF90AF909F908F9008950E94081090E0D7
:1016700008950F931F93CF93DF931F92CDB7DEB7DB
:101680008C01FC018485958597FF0EC0CE010196E3
:101690000E94DA0F019719F4898190E002C08FEF60
:1016A0009FEFF80195878487F801848595850F90D1
:1016B000DF91CF911F910F910895CF93DF931F92E8
:1016C000CDB7DEB7FC018485958597FD05C02FEF6A
:1016D0003FEF358724870BC0CE0101960E94DA0FB9
:1016E000019719F4898190E002C08FEF9FEF0F906E
:1016F000DF91CF9108950C9480200C9480201F924C
:101700000F920FB60F9211248F939F938091E10057
:101710009091E100937F9093E10083FF0FC01092BE
:10172000E90091E09093EB001092EC0092E390932B
:10173000ED001092410298E09093F00082FF20C0EB
:1017400093E09093E9009091F200992319F09AE3C5
:101750009093E80090913502992339F090913502E9
:10176000915090933502992389F1909140029923E9
:1017700039F090914002915090934002992341F1A9
:1017800084FF10C08091E2008E7E81608093E20031
:101790008091E1008F7E8093E100809105028E7E32
:1017A000806111C080FF16C08091E2008E7E806152
:1017B0008093E2008091E1008E7E8093E100809131
:1017C00005028E7E81608093050204C05D98CDCFB6
:1017D0002898D6CF9F918F910F900FBE0F901F909A
:1017E00018951F920F920FB60F921124CF92DF928D
:1017F000EF92FF920F931F932F933F934F935F931B
:101800006F937F938F939F93AF93BF93EF93FF93C8
:10181000CF93DF93CDB7DEB76C97DEBFCDBF10920D
:10182000E9008091E80083FFFBC168E0CE014596A6
:101830000E94050A82EF8093E8008D8987FF05C02A
:101840009091E80090FFFCCF03C09EEF9093E800DA
:10185000982F907609F0C6C09E894F89588D2F89A0
:10186000F88C91110CC0803829F480910602809385
:10187000F10002C01092F1001092F10045C19130C8
:1018800051F4811141C14130510509F03DC18091B0
:1018900006028D7F0BC0933061F4811135C1413058
:1018A000510509F031C180910602826080930602E1
:1018B0002BC1953049F48091E80080FFFCCF822F46
:1018C00080688093E30020C1963009F05EC00B8DE4
:1018D0001C8D22E01092E900109233021092320225
:1018E000F21232C010923102109230020E947D0A30
:1018F00099E0BE016F5F7F4FDB01E92F1D92EA95F2
:10190000E9F79983FA8291E09E8390EA98879AEFAB
:1019100099872091320230913302275F3F4F3C83F9
:101920002B838D831092E9001092330210923202C1
:10193000109331020093300249E050E080E00E94B1
:10194000DE090E947D0AE0C010933102009330024C
:101950000E949310DC0112960D911C9113970115B2
:10196000110509F4BBC0D801ED91FC910480F5810B
:10197000E02DBE016B5E7F4FC8010995009709F00D
:10198000C7C0F80100851185EACF973009F445C139
:10199000983021F481E08093F100B6C0993009F0CD
:1019A000B3C0837009F039C1E6E4F1E081E031E0D1
:1019B00096E32081211109C08EE78093EA001092FE
:1019C000EA008F89809341029FC08093E9003093A1
:1019D000EB0021912093EC009093ED008F5F873016
:1019E00041F7EACF8B8D9C8D1092E9001092330263
:1019F000109232029093310280933002898D8111CE
:101A000053C08E899D89913A49F4813209F005C10C
:101A100047E050E066E071E080E0BBC0913209F041
:101A2000FCC0833269F48F89988DA0E0B0E0809388
:101A3000020190930301A0930401B093050164C0D7
:101A4000803269F48091E80082FFFCCF67E086E095
:101A500091E00E94050A8BEF8093E80055C0823226
:101A600009F052C08F8980930D01EEEFFFE7859159
:101A700094918B3F9C4D19F0E0E0F8E002C0EEEF4E
:101A8000FAE08091060190910701A0910801B091C0
:101A90000901803B9440A105B10509F09EC08091E9
:101AA0000D0180FF79C099C00E949310FC01028152
:101AB00013810115110509F4B0C0D801ED91FC9115
:101AC0000190F081E02DBE016B5E7F4FC80109954A
:101AD00081111AC0F80100851185EBCFF1E0FF16E6
:101AE00009F44EC0F3E0FF1298C08F89882309F4EF
:101AF0004AC0823089F440E86DE08BE092E00E94B9
:101B0000F81A882309F489C08EEF8093E80088C012
:101B100018161906CCF381C0813029F440E86BE037
:101B20008FEF91E0ECCF833009F077C00E949310E3
:101B3000DC011296ED90FC9013978E010F5F1F4F02
:101B40006801E114F10479F0D701ED91FC91068070
:101B5000F781E02DB801C7010995080F111DF701A4
:101B6000E084F184EECFD8011C92F60101900020B0
:101B7000E9F73197BF016C197D0940E0C601BFCF7D
:101B80006DEE71E002C069EE71E0FB01449150E03E
:101B900080E80E94DE09B8CFEE3F2AE0F20751F05C
:101BA000808191818737A7E79A0721F09093FF0AF8
:101BB0008093FE0A87E797E7918380838091600096
:101BC000809334029BE088E10FB6F894A895809347
:101BD00060000FBE9093600097CF8081918187371E
:101BE000974709F091CFA895809160008861809314
:101BF00060008091340280936000EE3FBAE0FB0702
:101C000039F08091FE0A9091FF0A918380837CCF06
:101C10001092FF0A1092FE0A77CF81E28093EB00C8
:101C20006C960FB6F894DEBF0FBECDBFDF91CF919B
:101C3000FF91EF91BF91AF919F918F917F916F91A4
:101C40005F914F913F912F911F910F91FF90EF90D6
:101C5000DF90CF900F900FBE0F901F9018950895B2
:101C60000F931F93CF93DF93EC018D81811102C0FD
:101C700060E001C062E088810E94E410288130E0C9
:101C8000F901ED5CFD4F8491F901EA55FD4F049196
:101C9000F901E957FD4F14911123A1F081110E9420
:101CA000A710E12FF0E0EE0FFF1FE559FD4FA591C2
:101CB000B491EC91E02331E020E009F430E0832F8F
:101CC000922F02C080E090E0282F21702F832E8178
:101CD000222321F021E0822781708F830E94AA11A4
:101CE0006A877B878C879D872F81288719866E87D7
:101CF0007F87888B998BDF91CF911F910F910895EA
:101D000008950F931F93CF93DF9320912F022F5F9E
:101D1000322F377030932F0220FF02C020E801C01D
:101D200020E031FD2064347009F02062205FFC0166
:101D3000EC01239600E011E06485662331F070E049
:101D4000C8010E94EE1E6F5F01C060E06187322F04
:101D5000369F030E30E0311D1124311102C016826E
:101D600002C031503683662311F06150618731968D
:101D7000CE17DF0709F7DF91CF911F910F910895DB
:101D80002091AA043091AB042817390771F490917F
:101D90003F0280913E02981741F0E0913F02F0E04F
:101DA000E25BFD4F808190E008958FEF9FEF0895F3
:101DB00008951F93CF93DF93DC015C968D919C91E6
:101DC0005D97009739F421E030E013963C932E9311
:101DD00012973BC05196ED91FC91529750962C91E1
:101DE0005097322F30951FB75E964C915E97742FA7
:101DF000727041FD6095F8944081772311F0422B79
:101E000001C043234083EC012197F1F748E0508162
:101E100060FF02C0522B01C053235083EC01219775
:101E2000F1F76695415099F78081772319F0832364
:101E3000808302C0282B20831FBF5C968D919C91CC
:101E40005D970197F1F781E090E0DF91CF911F91CD
:101E500008952091AA043091AB042817390771F432
:101E600080913E0220913F0290E0805C9F4F821B58
:101E7000910960E470E00E94EE1E089580E090E019
:101E800008952091AA043091AB0428173907B9F4BA
:101E900090913F0280913E02981789F0E0913F02B5
:101EA000F0E0E25BFD4F808120913F0230E02F5F48
:101EB0003F4F2F73332720933F0290E008958FEF19
:101EC0009FEF08950F931F93CF93DF938C01C0E092
:101ED000D0E0F801EC0FFD1F6491662341F08EEB1A
:101EE00092E00E943C0A892B11F02196F2CFCE019C
:101EF000DF91CF911F910F9108958FEE91E00C9497
:101F00005415CF93DF930E945415EC010E947D0F6E
:101F10008C0F9D1FDF91CF9108958F929F92AF926A
:101F2000BF920F931F93CF93DF93CDB7DEB7A197E7
:101F30000FB6F894DEBF0FBECDBF19A2423008F431
:101F40004AE08E010F5D1F4F842E912CA12CB12CE5
:101F5000A50194010E94AD1EE62FB901CA010150EE
:101F60001109EA3014F4E05D01C0E95CD801EC939A
:101F7000232B242B252B61F7C8010E945415A19611
:101F80000FB6F894DEBF0FBECDBFDF91CF911F918A
:101F90000F91BF90AF909F908F900895CF93DF9354
:101FA0000E94620FEC010E947D0F8C0F9D1FDF913C
:101FB000CF91089520914102211103C08FEF9FEF2F
:101FC00008955FB7F89422E02093E9002091F20091
:101FD00030E01216130614F421E030E0422FFC0129
:101FE00084E6415038F0289A809340029091F100A5
:101FF0009193F7CF2115310521F08091F2008823CC
:1020000019F05FBFC90108958BE68093E800F9CF0E
:102010002FB7F89483E08093E9009091E800892F2E
:10202000807295FF04C09091F20080E4891B2FBF5D
:1020300008951F920F920FB60F9211242F933F9382
:102040004F935F936F937F938F939F93AF93BF93C0
:10205000EF93FF93E091AA04F091AB04309709F459
:1020600051C0968DA685B785858591FF04C09C914A
:10207000892329F447C09C91892309F043C0A3898F
:10208000B4899C918589809589238C9386899789C9
:102090000197F1F7608D718DA685B785558538E07C
:1020A00020E0CB010197F1F7822F90E0959587957D
:1020B000282F4C91452309F02068315091F7868DE7
:1020C00081FD209580913E0290E001968F739927C3
:1020D00030913F02381749F0A0913E02B0E0A25B78
:1020E000BD4F2C9380933E0203C0868D8160868F06
:1020F000828D938D0197F1F7A389B4899C9185898D
:10210000892B8C93FF91EF91BF91AF919F918F910C
:102110007F916F915F914F913F912F910F900FBEE3
:102120000F901F9018958091460281110DC082E09A
:102130008093420284E08093430210924502109201
:10214000440281E08093460282E492E0089590E0A8
:10215000FC013197EF30F105B0F5EA5AFF4F0C94CE
:10216000021F809180008F7703C0809180008F7D57
:1021700080938000089580918000877FF9CF84B597
:102180008F7702C084B58F7D84BD089580919000C3
:102190008F7707C0809190008F7D03C08091900061
:1021A000877F8093900008958091C0008F7703C04F
:1021B0008091C0008F7D8093C00008958091C200FF
:1021C000877F8093C2000895CF93DF9390E0FC0156
:1021D000EA55FD4F2491FC01E957FD4F8491882376
:1021E00061F190E0880F991FFC01EB5DFD4FC591F7
:1021F000D491FC01E758FD4FA591B491611109C03C
:102200009FB7F8948881209582238883EC912E23B0
:102210000BC0623061F49FB7F8948881322F3095FB
:1022200083238883EC912E2B2C939FBF06C08FB7FE
:10223000F894E8812E2B28838FBFDF91CF910895EA
:10224000823108F08251E82FF0E0E75EFD4FE49123
:1022500080917B00E3FB222720F930E095E0220FFC
:10226000331F9A95E1F78F7D282B20937B00E77031
:10227000E064E0937C0080917A00806480937A002F
:1022800080917A0086FDFCCF8091780020917900C2
:1022900090E0922B08953FB7F89480913A02909184
:1022A0003B02A0913C02B0913D0226B5A89B05C01F
:1022B0002F3F19F00196A11DB11D3FBFBA2FA92FC5
:1022C000982F8827820F911DA11DB11DBC01CD0142
:1022D00042E0660F771F881F991F4A95D1F708952E
:1022E0008F929F92AF92BF92CF92DF92EF92FF9226
:1022F0006B017C010E944B114B015C01C114D104A4
:10230000E104F104F1F00E944B11DC01CB018819CA
:102310009909AA09BB09883E9340A105B10570F34C
:1023200021E0C21AD108E108F10888EE880E83E0A6
:10233000981EA11CB11CC114D104E104F10419F7C9
:10234000DDCFFF90EF90DF90CF90BF90AF909F9048
:102350008F9008952FB7F8946091360270913702EC
:1023600080913802909139022FBF08950F931F93E7
:10237000CF9380915F0490916004DC01ED91FC911A
:102380000084F185E02D0995892B09F4E5C060E012
:1023900070E0CB010E947011C0917D0480915F04B8
:1023A00090916004DC01ED91FC910284F385E02DB5
:1023B000C1111EC009958093690481E692E00E94D4
:1023C000620FE0917D04F0E0E85AFB4F618970E014
:1023D00080E090E040E10E948D0F8FE592E00E9446
:1023E000620F809169048E3721F680917D04B0C020
:1023F0000995EC2FF0E0E85AFB4F818BE0917D04CA
:10240000F0E0E85AFB4F618970E080E090E040E145
:102410000E948D0F8DE592E00E94620F80917D04F5
:102420008230A1F08930C1F0813009F091C09091E3
:102430006A049F3F09F48CC010927D0481E0809370
:102440007F041092820410928104B0C090916B04BA
:10245000963009F47DC0F0CF0E947D0FE0917D049D
:10246000F0E0E85AFB4F81898F3E31F7EAE6F4E06D
:1024700080E794E020E030E04191240F311D8E1779
:102480009F07D1F78091700490E0982F88274091A2
:102490007104840F911D319521953109821793079D
:1024A00059F610927D04E0916C04E13409F44DC0BA
:1024B000E093800480916E0490E0982F882720910B
:1024C0006F04820F911D90938204809381044E2F9C
:1024D00050E0FA01FA97E631F10570F5EB59FF4F3C
:1024E0000C94021F85E022C080FF02C089E01EC05C
:1024F00081FF02C084E01AC083709927892B09F4F8
:102500005BC08AE013C080FF02C087E00FC081FF7C
:1025100053C082E00BC080FF02C088E007C081FF8B
:102520004BC083E003C086E001C08BE080937F0452
:1025300081E08093830440C081E080937F04109207
:10254000820410928104809383041092840434C026
:102550008F5F80937D040DCF80918404882361F187
:102560000E94AA11009161041091620420916304F9
:1025700030916404DC01CB01801B910BA20BB30BE7
:1025800000916504109166042091670430916804FD
:1025900080179107A207B30778F010927D0410927C
:1025A0007F04109282041092810481E0809383045E
:1025B0001092840480E002C080918304CF911F9127
:1025C0000F9108950F931F93CF93DF938093760419
:1025D0007093780460937904E4E7F4E02AE734E048
:1025E00080E090E04191840F911D2E173F07D1F7B5
:1025F00091958195910990937A0480937B048091C1
:102600007704882361F080918404882341F060E09E
:1026100070E0CB010E9470110E94B611F4CF0E94AD
:102620007D0F84E592E00E94620FC3E7D4E00DE7DE
:1026300014E0699170E080E090E040E10E948D0F2D
:1026400082E592E00E94620F0C171D0791F70E942D
:102650007D0F80915F0490916004DC01ED91FC910D
:102660000280F381E02D4AE050E063E774E00995D1
:102670000E94AA11609361047093620480936304C2
:10268000909364048091770491E0811101C090E0FF
:102690009093840481110AC06AE070E080E090E0C9
:1026A000DF91CF911F910F910C947011DF91CF9119
:1026B0001F910F9108958F929F92AF92BF92CF92E8
:1026C000DF92EF92FF92CF936B017C010E94AA11DF
:1026D0004B015C01C114D104E104F10441F4C09048
:1026E0006504D0906604E0906704F09068040E944E
:1026F000B611C82F811113C00E94AA11DC01CB01B1
:1027000088199909AA09BB09C816D906EA06FB0661
:1027100030F060E070E0CB010E947011E8CF8C2FA8
:10272000CF91FF90EF90DF90CF90BF90AF909F90B0
:102730008F900895CF93DF93DC01EB0112964D91BA
:102740005C9113979A01220F331F240F351F1296A5
:102750006D917C91139714968D919C911597860F8E
:10276000971F481759078CF41D96ED91FC911E9701
:10277000E20FF31F88818083898181838A8182832C
:102780004F5F5F4F2D5F3F4FE2CFDF91CF910895B5
:10279000CF92DF92EF92FF920F931F93CF93DF932D
:1027A000EC016BE1C62E63E0D62E76E2E72E72E0F6
:1027B000F72E6C817D81C6018B5193408617970758
:1027C00094F4C7010E94EE1E12E0160F0E945109F8
:1027D000819FB0011124F6012081271B08F420E01D
:1027E00021936F01E6CF6330710569F420911B03DB
:1027F00080911C0390E0820F911D820F911D0E9419
:10280000EE1E60931D030E9451098C3DD0F40E947E
:102810005109F7E08F9FC0011124092F112707FDEF
:102820001A950E9451092FE5829FC001112430EAB8
:10283000390FF801E55EFC4F2081230F08F42FEFDC
:102840002083ABE1B3E07FEBF12C8D010B51134002
:102850004C815D81041715070CF035C02D913F2D7B
:10286000222329F0279F312D112471113F5F232F3F
:10287000220F220F37FD06C036FD06C0622F20E072
:1028800030E005C03FEF02C0322F20E06FEFEC8553
:102890008A819B81EE2339F0FA013197E80FF91F05
:1028A000E01BF10B03C0F801E80FF91FCF01880FFF
:1028B000991FE80FF91F8D859E85E80FF91F60832A
:1028C00031832283C2CFDF91CF911F910F91FF906F
:1028D000EF90DF90CF900895CF93DF9300D01F92B9
:1028E000CDB7DEB7FB012EE832E0DC011E963C934B
:1028F0002E931D9720811F962C931F972181509610
:102900002C935097228151962C93208129832181E9
:102910002A8322812B83BE016F5F7F4F0E949A130F
:102920000F900F900F90DF91CF910895CF93DF9389
:1029300000D01F92CDB7DEB7FB014081DC011F96AE
:102940004C931F97318150963C935097228151961A
:102950002C9349833A832B83BE016F5F7F4F0E9484
:102960009A130F900F900F90DF91CF910895CF930E
:10297000DF9300D01F92CDB7DEB7FC0122853385EF
:1029800026173707E9F0738762876130710559F0C0
:102990006330710589F4FC012785298320892A8306
:1029A00021892B8303C019821A821B82BE016F5FAB
:1029B0007F4F0E949A1302C00E94C81381E001C099
:1029C00080E00F900F900F90DF91CF910895FC0160
:1029D000228533852230310511F40C94C8130895F3
:1029E000CF93DF93EC01E881F9810480F581E02D3C
:1029F000309709F00995EE81FF81309709F009952C
:102A0000EA81FB810190F081E02D309709F0099572
:102A10008A819B8190938E0480938D040E94AA11D9
:102A20002091950430919604A0918D04B0918E046C
:102A3000E0919304F091940440E050E04217530772
:102A40006CF4C081D181CA17DB0721F460877187DC
:102A5000828793874F5F5F4F7096F0CFDF91CF9162
:102A60000895409191045091920460918D04709169
:102A70008E04E0918F04F091900420E030E0241760
:102A800035078CF4A081B181A617B70741F4A48162
:102A9000B581A817B90719F4CF010C94F0142F5F72
:102AA0003F4F3896ECCF0895009769F0FC010190F4
:102AB0000020E9F73197AF01481B590BBC018EEBA1
:102AC00092E00C94AF0A80E090E00895CF93DF93FA
:102AD000CDB7DEB727970FB6F894DEBF0FBECDBFD8
:102AE000789484B5826084BD84B5816084BD85B5E9
:102AF000826085BD85B5816085BD80916E008160F5
:102B000080936E001092810080918100826080939A
:102B1000810080918100816080938100809180009C
:102B20008160809380008091910082608093910009
:102B300080919100816080939100809190008160EC
:102B4000809390008091C10084608093C100809147
:102B5000C10082608093C1008091C1008160809338
:102B6000C1008091C30081608093C3008091C00048
:102B700082608093C0008091C20081608093C20017
:102B800080917A00846080937A0080917A008260DC
:102B900080937A0080917A00816080937A0080919E
:102BA0007A00806880937A001092410210920602A7
:102BB000109205028091D70081608093D70080EA4F
:102BC0008093D80089B5806189BD89B5826089BD4F
:102BD00009B400FEFDCF61E070E080E090E00E946B
:102BE00070118091D8008F7C80618093D800809193
:102BF000E000807F8093E0008091E1008E7E8093F2
:102C0000E1008DE08093E200559A209A5D98289823
:102C10008FEF9FEF9093CB028093CA0268E873E135
:102C200080E090E00E947011609191047091920494
:102C30006F5F7F4F93E0660F771F9A95E1F7809162
:102C40008F04909190040E940921909390048093A6
:102C50008F042091910430919204B90143E0660FF2
:102C6000771F4A95E1F7FC01E60FF71F0AE413E02E
:102C70001183008354E4E52E53E0F52EF382E282C3
:102C800041E050E055834483178216822F5F3F4F07
:102C90003093920420939104605F7F4F0E9409213A
:102CA0009093900480938F044091910450919204EA
:102CB0009A0163E0220F331F6A95E1F7FC01E20FEE
:102CC000F31FF182E0821383028382E090E0958318
:102CD0008483178216824F5F5F4F50939204409314
:102CE000910480911A02811145C010920C02109239
:102CF0000B028FEF80930F028093100280931102DA
:102D000080931202809313028093140281E08093D7
:102D10001502109217021092160210920E021092D3
:102D20000D028091280290912902892B31F489E0CB
:102D300092E09093290280932802E0910702F0919B
:102D40000802309721F089E092E09583848389E03E
:102D500092E0909308028093070210921902109259
:102D600018028CE291E090930A028093090281E0BC
:102D700080931A023E9A8EE892E090930C02809320
:102D80000B0280E190E090931702809316028091ED
:102D9000110390911203A0911303B0911403843C8A
:102DA00029E09207A105B10520F484EC99E0A0E0A8
:102DB000B0E08093110390931203A0931303B09398
:102DC000140388EC80930E038091A704898380917B
:102DD000A8048A838091A9048B83BE016F5F7F4F13
:102DE00086E494E00E946C148091A404898380910D
:102DF000A5048A838091A6048B83BE016F5F7F4FF9
:102E000084E394E00E946C148091A10489838091F2
:102E1000A2048A838091A3048B83BE016F5F7F4FDE
:102E200082E294E00E946C1480919E0489838091D8
:102E30009F048A838091A0048B83BE016F5F7F4FC4
:102E400080E194E00E946C148091A70489838091B2
:102E5000A8048A838091A9048B83BE016F5F7F4F92
:102E60008EEF93E00E946C148091A404898380917A
:102E7000A5048A838091A6048B83BE016F5F7F4F78
:102E80008CEE93E00E946C148091A1048983809160
:102E9000A2048A838091A3048B83BE016F5F7F4F5E
:102EA0008AED93E00E946C1480919E048983809146
:102EB0009F048A838091A0048B83BE016F5F7F4F44
:102EC00088EC93E00E946C1463E070E08EEF93E076
:102ED0000E94B71463E070E08CEE93E00E94B71498
:102EE00063E070E08AED93E00E94B71463E070E065
:102EF00088EC93E00E94B71462E070E086E494E00E
:102F00000E94B71463E070E082E294E00E94B7147C
:102F10008DEC91E00E94810F86E10E942011BC019E
:102F2000990F880B990B611571058105910511F0B9
:102F30000E94721E80EB93E00E94300E88E993E0BD
:102F40000E94300E80E893E00E94300E88E693E005
:102F50000E94300E60E082E10E94E41060E083E1B4
:102F60000E94E41060E084E10E94E41060E085E1EA
:102F70000E94E41060E08BE10E94E41060E08AE1CE
:102F80000E94E41060E089E10E94E41060E088E1C2
:102F90000E94E4101092C7041092C6041092C50457
:102FA0001092C4041092C3041092C2048DE991E0FF
:102FB0009093C9048093C8048091B80498EF980F47
:102FC000943048F022EF280F243028F026EE280F06
:102FD000233008F04AC02DEB30E03093C304209337
:102FE000C2042BE931E03093C5042093C4042CE2E1
:102FF00031E03093C7042093C604943050F092EF30
:10300000980F943030F08A51833030F4A8E6B0E065
:1030100005C0A8E6B0E0E9C2A0E0B0E0833008F463
:10302000E4C2E0E0F0E0808181608C938091B8049C
:1030300098EF980F943008F0B9C22BE630E0309347
:10304000C0042093BF04943008F0BDC29CEF980FD9
:1030500081E001C0880F9A95EAF78093C1048091BE
:10306000C8049091C9040197F1F78091C60490912A
:10307000C704892B49F1E091AA04F091AB0444E024
:10308000EC3AF40709F1309739F0A389B4899C919F
:103090008589809589238C938091CA048E7F809343
:1030A000CA0410923E0210923F028CEA94E0909380
:1030B000AB048093AA04E091BF04F091C004908116
:1030C0008091C104892B80830E947D0F8CE891E060
:1030D0000E94CE0F8BE591E00E94CE0F8CEA94E027
:1030E0009093600480935F0481E08093770460E0B4
:1030F00070E08CE00E94E21260ED77E080E090E00A
:103100000E945B1368EC70E080E090E00E94701118
:103110001092830480917F04843079F0893069F0C3
:103120008AE491E00E94CE0F89E291E00E94CE0FE6
:103130008CE091E00E94CE0FFFCF86EF90E00E94DE
:10314000CE0F6EE170E086E00E94E21260E070E077
:1031500088E40E94E21260E070E0CB010E945B1301
:10316000882331F01092830480917F048B3019F012
:103170008FEF9FEF04C0809181049091820490931F
:103180005D0480935C0481EE91E00E945415C09030
:103190005C04D0905D040D2C000CEE08FF08F7FED7
:1031A0000EC06DE28EEB92E00E943C0A6627772704
:1031B000CB016C197D098E099F094AE003C04AE0E2
:1031C000C701B6010E948D0F0E947D0FE0918D0412
:1031D000F0918E040480F581E02D309709F0099577
:1031E0008AE493E090938E0480938D04E0914A03E7
:1031F000F0914B03309709F00995812C84E0982ECB
:10320000A12CB12C33243394809187040E94201187
:103210002091890430918A04DC01A21BB30B9D012B
:10322000B7FF03C031952195310940918B0450912E
:103230008C044217530794F490938A048093890472
:103240002FE130E0DC010E94081FA50194010E94DB
:103250007B1E622F70E086E00E94E21286E494E01A
:103260000E94E71484E394E00E94E71482E294E071
:103270000E94E71480E194E00E94E7148EEF93E04F
:103280000E94E7148CEE93E00E94E7148AED93E02D
:103290000E94E71488EC93E00E94E7148091970461
:1032A00081110CC030929704E0918D04F0918E044E
:1032B0000190F081E02D309709F00995E0918D049F
:1032C000F0918E040280F381E02D309709F009958A
:1032D000E12CF12CC12CD12C809195049091960475
:1032E000C816D9060CF049C00091930410919404BB
:1032F0000E0D1F1DF8012081318180918D04909168
:103300008E042817390791F580859185A285B385AC
:10331000892B8A2B8B2B51F40E94AA11D801189665
:103320006D937D938D939C931B9720C00E94AA114F
:10333000F8014084518462847384DC01CB018419D8
:103340009509A609B7094484558466847784841551
:103350009505A605B70550F0C8010E94F014D801E4
:1033600018961D921D921D921C921B97BFEFCB1AAF
:10337000DB0AE0E1EE0EF11CAFCF0E94B61188230C
:1033800061F080915E04882341F010928304809163
:103390007F04853011F410925E04F0900E0380914A
:1033A000110390911203A0911303B0911403892B80
:1033B0008A2B8B2BE9F00E944B1100912A0210916D
:1033C0002B0220912C0230912D02DC01CB01801BBD
:1033D000910BA20BB30B00911103109112032091DA
:1033E00013033091140380179107A207B307B8F2B3
:1033F0000E944B1160932A0270932B0280932C023F
:1034000090932D02E0911903F0911A03309759F02F
:1034100040911503509116036091170370911803A2
:103420008F2D0995F82E00912802109129024F2C1A
:10343000512C612C712C0115110509F469C0D801BA
:103440001C96EC901C9780910F039091100384368A
:10345000910510F41C961C92D801ED91FC914281CB
:1034600053815F834E8319821A821B82F11019C027
:10347000D8011D964D915C911E9712966D917C918D
:1034800013979E012F5F3F4FC801EE81FF81099581
:10349000D8011C96EC921C9714960D911C911597CF
:1034A000CACFF8013696AE014F5F5F4F6A01C8017F
:1034B00009969D838C832191222309F12280222069
:1034C000F1F0822F90E0A0E0B0E09C01AD012F5F11
:1034D0003F4F4F4F5F4FC301B2010E94DE1E9B0161
:1034E000AC01822D90E0A0E0B0E0BC01CD016F5FA7
:1034F0007F4F8F4F9F4F0E94DE1ED6018C93BFEFF0
:10350000CB1ADB0A4C815D814E175F07A1F6B0CF65
:1035100080912602909127028C010F5F1F4F10931C
:1035200027020093260249979CF10E94AA112B01C1
:103530003C0188EE93E0089FB001099F700D189F31
:10354000700D1124072E000C880B990BC0902202DD
:10355000D0902302E0902402F0902502A301920172
:103560002C193D094E095F090E94AD1E30931003CE
:1035700020930F0310922702109226020E94AA1194
:103580006093220270932302809324029093250279
:1035900060E170E080E090E00E947011A0E0B0E097
:1035A000AB2B09F431CE0E9400002ECE22EF280F63
:1035B000243008F442CD26EE280F233008F43DCD08
:1035C00020E030E03CCD8E3041F08F3041F0803152
:1035D00041F0813141F09AEE3ACD88E03ECD82E073
:1035E0003CCD84E03ACD81E038CDE8E6F0E01BCD7B
:1035F000DF92EF92FF920F931F93CF93DF93D82E1A
:10360000F92EE42E062F10E0C8010196880F0E94C3
:10361000B00983E00E94B009CD2DDF2D0C0F1D1FD6
:10362000C017D10789F0E7FE03C0FE01849101C0F5
:1036300088810E94B009F82E80E00E94B0098F2195
:1036400021968111EDCF01C081E0DF91CF911F91D3
:103650000F91FF90EF90DF900895CF93DF93EC01EF
:1036600084EF91E0A0E0B0E08E839F83A887B987C4
:103670008AE0EBE3F1E0DE01549601900D928A9529
:10368000E1F71E8E82E08F8F1CA21DA2DF91CF91E9
:1036900008951F93CF93DF93282F30E0F901ED5C5D
:1036A000FD4F8491F901EA55FD4FD491F901E95795
:1036B000FD4FC491CC23C1F0162F81110E94A71099
:1036C000EC2FF0E0EE0FFF1FE758FD4FA591B491EE
:1036D0009FB7F894111104C08C91D095D82302C0E3
:1036E000EC91DE2BDC939FBFDF91CF911F9108956A
:1036F000CF92DF92EF92FF920F931F93CF93DF93BE
:103700001092C1021092C00288EE93E0A0E0B0E0F7
:103710008093C2029093C302A093C402B093C502E7
:1037200020E531E03093BF022093BE022FEF3FEF40
:103730003093CB022093CA021092AF041092AE04D1
:103740008093B0049093B104A093B204B093B304F7
:103750008AE791E09093AD048093AC041092C30487
:103760001092C2041092C5041092C4041092C704AF
:103770001092C6041092C9041092C8046091CA0441
:103780006E7F6D7F6093CA046695617081E06827E3
:103790008BE00E94491B61E08BE00E94E410E1EBAA
:1037A000F2E0E491E093BC04E2E9F2E0E491F0E0BD
:1037B000EE0FFF1FE758FD4F859194919093BE0443
:1037C0008093BD0460E08AE00E94E4108091CA0406
:1037D00081FD04C061E08AE00E94491B8AE0809379
:1037E000B804E0EBF2E0E491E093B904E1E9F2E03F
:1037F000E491F0E0EE0FFF1FE559FD4F85919491A4
:103800009093BB048093BA048EE193E00E942D1B39
:103810001092A70480E88093A8041092A904DFEF17
:10382000D093A4041092A5041092A604D093A104EE
:10383000D093A2041092A30410929E0410929F04AD
:10384000D093A004109299041092980410929B04B3
:1038500010929A0410929D0410929C0488E994E0BE
:1038600090938E0480938D041092900410928F0494
:103870001092920410929104109296041092950462
:103880001092970482E791E09093860480938504D8
:1038900087E190E090938804809387040CE010E027
:1038A00010938C0400938B0410928A041092890464
:1038B00060E00E94E4108AE691E0909359048093BE
:1038C00058048FE594E00E942D1B82E691E09093CE
:1038D00047048093460421E030E03093490420936C
:1038E000480443E050E050934B0440934A049093C3
:1038F00035048093340464E070E07093370460937F
:1039000036045093390440933804909323048093F1
:10391000220469E070E070932504609324045093BE
:10392000270440932604909311048093100410936D
:1039300013040093120450931504409314049093BD
:10394000FF038093FE031092010410920004309351
:103950000304209302049093ED038093EC0347E06B
:1039600050E05093EF034093EE033093F103209324
:10397000F0039093DB038093DA0348E050E0509328
:10398000DD034093DC033093DF032093DE03909349
:10399000C9038093C8038FE090E09093CB0380939A
:1039A000CA033093CD032093CC036091C40370917C
:1039B000C5038091C6039091C7030E942A1F60939C
:1039C000B00392E3C92ED12CE12CF12CC092B103AB
:1039D000D092B203E092B303F092B403C1E0C0937B
:1039E000B503C093B6031092C2036091AC0370910B
:1039F000AD038091AE039091AF030E942A1F6093A4
:103A00009803C0929903D0929A03E0929B03F0929C
:103A10009C03C0939D03C0939E031092AA036091E0
:103A200094037091950380919603909197030E945F
:103A30002A1F60938003C0928103D0928203E09298
:103A40008303F0928403C0938503C093860310928E
:103A5000920360917C0370917D0380917E0390912D
:103A60007F030E942A1F60936803C0926903D0926B
:103A70006A03E0926B03F0926C03C0936D03C093F2
:103A80006E0310927A03A091A804F091A904E0912A
:103A9000A4047091A5046091A6045091A1044091E2
:103AA000A2043091A30420919E0490919F048091E0
:103AB000A004B091A704B0935003A0935103F093D6
:103AC0005203E09353037093540360935503509350
:103AD0005603409357033093580320935903909310
:103AE0005A0380935B0382E396E090934B038093A9
:103AF0004A0389E296E090934D0380934C03109221
:103B00004F0310924E0384E991E090934503809314
:103B1000440381E197E0909347038093460310921A
:103B2000490310924803D0930E0310921003109291
:103B30000F0310921A03109219038FEF9FEFDC010D
:103B40008093150390931603A0931703B093180363
:103B5000DF91CF911F910F91FF90EF90DF90CF9069
:103B6000089580918F04909190040E94802080910C
:103B70009304909194040E9480208AE791E09093AE
:103B8000AD048093AC048091AA049091AB048C5A4C
:103B9000944071F4E091BF04F091C0049081809151
:103BA000C1048095892380831092AB041092AA04EB
:103BB00008958F929F92AF92BF92CF92DF92EF9231
:103BC000FF92CF93DF93EC01688179818A819B8199
:103BD000611571058105910521F464E279ED8BE5AC
:103BE00097E02DE133EF41E050E00E947B1E490158
:103BF0005A019B01AC01A7EAB1E40E949A1E6B0135
:103C00007C01ACEEB4EFA50194010E94A81EDC017A
:103C1000CB018C0D9D1DAE1DBF1DB7FF03C00197CD
:103C2000A109B04888839983AA83BB83BC01CD01D5
:103C30009F77DF91CF91FF90EF90DF90CF90BF9073
:103C4000AF909F908F9008958F929F92AF92BF9266
:103C5000CF92DF92EF92FF9260910E0170910F016F
:103C600080911001909111016115710581059105F7
:103C700021F464E279ED8BE597E02DE133EF41E04B
:103C800050E00E947B1E49015A019B01AC01A7EA4A
:103C9000B1E40E949A1E6B017C01ACEEB4EFA50169
:103CA00094010E94A81EDC01CB018C0D9D1DAE1D50
:103CB000BF1DB7FF03C00197A109B04880930E0153
:103CC00090930F01A0931001B0931101BC01CD019D
:103CD0009F77FF90EF90DF90CF90BF90AF909F9035
:103CE0008F90089560930E0170930F0180931001DF
:103CF000909311010895052E97FB1EF400940E94E5
:103D0000921E57FD07D00E94AD1E07FC03D04EF453
:103D10000C94921E50954095309521953F4F4F4FF2
:103D20005F4F089590958095709561957F4F8F4F67
:103D30009F4F08950E94CF1EA59F900DB49F900D98
:103D4000A49F800D911D11240895B7FF0C949A1E15
:103D50000E949A1E821B930B0895A1E21A2EAA1BA1
:103D6000BB1BFD010DC0AA1FBB1FEE1FFF1FA2172B
:103D7000B307E407F50720F0A21BB30BE40BF50B28
:103D8000661F771F881F991F1A9469F760957095B1
:103D9000809590959B01AC01BD01CF010895A29F34
:103DA000B001B39FC001A39F700D811D1124911D0F
:103DB000B29F700D811D1124911D0895DB018F9319
:103DC0009F930E949A1EBF91AF91A29F800D911D5B
:103DD000A39F900DB29F900D1124089597FB072E7D
:103DE00016F4009407D077FD09D00E940F1F07FC3E
:103DF00005D03EF4909581959F4F089570956195FB
:103E00007F4F0895EE0FFF1F0590F491E02D099468
:103E10000E94CF1EB7FF0895821B930B0895AA1B23
:103E2000BB1B51E107C0AA1FBB1FA617B70710F0A5
:103E3000A61BB70B881F991F5A95A9F780959095D7
:103E4000BC01CD0108950E942A1F6894B1110C9401
:103E5000B91F08950E949E1F88F09F5798F0B92FB0
:103E60009927B751B0F0E1F0660F771F881F991FAF
:103E70001AF0BA95C9F714C0B13091F00E94B81F7A
:103E8000B1E008950C94B81F672F782F8827B85F8A
:103E900039F0B93FCCF3869577956795B395D9F707
:103EA0003EF490958095709561957F4F8F4F9F4F11
:103EB0000895E89409C097FB3EF49095809570951D
:103EC00061957F4F8F4F9F4F9923A9F0F92F96E966
:103ED000BB279395F695879577956795B795F111DB
:103EE000F8CFFAF4BB0F11F460FF1BC06F5F7F4F78
:103EF0008F4F9F4F16C0882311F096E911C077238A
:103F000021F09EE8872F762F05C0662371F096E892
:103F1000862F70E060E02AF09A95660F771F881F61
:103F2000DAF7880F9695879597F9089557FD905879
:103F3000440F551F59F05F3F71F04795880F97FB6D
:103F4000991F61F09F3F79F0879508951216130627
:103F50001406551FF2CF4695F1DF08C01616170656
:103F60001806991FF1CF869571056105089408958B
:103F7000E894BB2766277727CB0197F908950E941D
:103F8000C41F08F48FEF0895990F0008550FAA0B6E
:103F9000E0E8FEEF16161706E807F907C0F012165C
:103FA0001306E407F50798F0621B730B840B950B5F
:103FB00039F40A2661F0232B242B252B21F40895B4
:103FC0000A2609F4A140A6958FEF811D811D089551
:103FD0000F931F93CF93DF938230910510F482E00B
:103FE00090E0E091CD04F091CE0420E030E0A0E03C
:103FF000B0E0309719F14081518102811381481757
:104000005907C8F08417950769F4109731F0129694
:104010000C93129713961C9327C00093CD04109312
:10402000CE0422C02115310519F04217530718F4A8
:104030009A01BD01EF01DF01F801DBCF2115310548
:10404000F9F0281B390B2430310580F48A819B81DB
:104050006115710521F0FB019383828304C0909365
:10406000CE048093CD04FE01329644C0FE01E20FDF
:10407000F31F8193919322503109398328833AC0E9
:104080002091CB043091CC04232B41F420911401D6
:10409000309115013093CC042093CB042091120170
:1040A000309113012115310541F42DB73EB74091F0
:1040B000160150911701241B350BE091CB04F091B0
:1040C000CC04E217F307A0F42E1B3F0B2817390787
:1040D00078F0AC014E5F5F4F2417350748F04E0F64
:1040E0005F1F5093CC044093CB048193919302C003
:1040F000E0E0F0E0CF01DF91CF911F910F910895A3
:10410000CF93DF93009709F481C0FC0132971382AB
:104110001282A091CD04B091CE04109781F4208139
:104120003181820F931F2091CB043091CC0428174A
:10413000390751F5F093CC04E093CB0467C0ED014F
:1041400020E030E0CE17DF0740F44A815B819E011A
:1041500041155105F1F0EA01F5CFD383C2834081C7
:104160005181840F951FC817D90759F48881998107
:10417000840F951F0296918380838A819B8193830C
:1041800082832115310529F4F093CE04E093CD0408
:104190003DC0E901FB83EA8349915991C40FD51FC2
:1041A000EC17FD0761F480819181840F951F0296C1
:1041B000E90199838883828193819B838A83E0E0EC
:1041C000F0E012968D919C911397009719F0FD01E4
:1041D000DC01F7CF8D919C9111979D012E5F3F4F90
:1041E000820F931F2091CB043091CC0428173907FC
:1041F00069F4309729F41092CE041092CD0402C0D5
:1042000013821282B093CC04A093CB04DF91CF91A0
:104210000895A0E0B0E0EFE0F1E20C94E121EC01C0
:10422000009721F4CB010E94E81FB4C0FC01E60F07
:10423000F71F9C0122503109E217F30708F4A8C0C8
:10424000D9010D911C91119706171707B0F0053091
:10425000110508F49BC0C80104978617970708F456
:1042600095C002501109061B170B019311936D9312
:104270007C93CF010E94802089C05B01A01AB10A03
:104280004C01800E911EA091CD04B091CE04612C02
:10429000712CE12CF12C109709F446C08D919C9162
:1042A0001197A815B905B1F56C0142E0C40ED11CF7
:1042B000CA14DB0478F14C018A189B08640142E0BF
:1042C000C40ED11C1296BC9012971396AC91B5E017
:1042D000CB16D10440F0B282A38391828082D901AF
:1042E0006D937C9309C00E5F1F4F800F911FF901E2
:1042F00091838083EB2DFA2FE114F10431F0D70183
:104300001396FC93EE93129741C0F093CE04E09382
:10431000CD043CC06816790608F43C017D01129674
:104320000D90BC91A02DB7CF8091CB049091CC047F
:1043300088169906E1F466167706C8F48091120192
:1043400090911301009741F48DB79EB740911601EB
:1043500050911701841B950BE817F907C8F4F093E7
:10436000CC04E093CB04F901718360830FC0CB01CF
:104370000E94E81F7C01009759F0A801BE010E942D
:10438000D421CE010E948020C70104C0CE0102C00A
:1043900080E090E0CDB7DEB7EEE00C94FD2181E047
:1043A00090E0F8940C941422FB01DC0102C001900F
:1043B0000D9241505040D8F708952F923F924F925E
:1043C0005F926F927F928F929F92AF92BF92CF92A5
:1043D000DF92EF92FF920F931F93CF93DF93CDB7AE
:1043E000DEB7CA1BDB0B0FB6F894DEBF0FBECDBF26
:1043F00009942A88398848885F846E847D848C84F7
:104400009B84AA84B984C884DF80EE80FD800C81FF
:104410001B81AA81B981CE0FD11D0FB6F894DEBFE2
:104420000FBECDBFED01089511E0C4E6D1E004C098
:10443000FE010E94021F2196C536D107C9F7F894E4
:02444000FFCFAC
:104442003905FFFFFFFF00E100000000000001004E
:1044520000000000CF042000000000007B0A7B0A5D
:104462007B0A9501B901BD01000000000305460564
:1044720092019501B9018F01C001C87EFF060001BA
:1044820000000000EF00C180810000000000000079
:104492003C0AAF0A350B520A5D0A5D0B390B00006C
:1044A200000050094E0900000000800E7D0B000044
:1044B20000002F0E7B0B00000000D90E120A780AB2
:1044C200D80E290F410FC00E6368616E67652074B4
:1044D200686520626F617264007769726542757403
:1044E200746F6E20300077697265427574746F6EF6
:1044F20020320077697265427574746F6E203100E4
:1045020077697265427574746F6E2033002053743C
:104512006172742075702061637469766974697957
:104522000066696C6520636F756E74203D20000D16
:024532000A007D
:00000001FF
