:100000000C94F1000C9419010C9419010C94190131
:100010000C9419010C9419010C9419010C941901F8
:100020000C9419010C9419010C9405040C94770498
:100030000C9419010C9419010C9419010C941901D8
:100040000C9419010C9419010C9419010C941901C8
:100050000C9419010C9419010C9419010C94BB0314
:100060000C9419010C9419010C9419010C941901A8
:100070000C9419010C9419010C9419010C94190198
:100080000C9419010C9419010C9419010C94190188
:100090000C9419010C9419010C9419010C94190178
:1000A0000C9419010C9419010C9419019E07A407D2
:1000B000AA07B607C207240824082408CE07DA07CF
:1000C000E607F20700082408090847084A08390823
:1000D0003D0841086B086B086B084E08520856082B
:1000E0005C0860086B086608080B00020202010049
:1000F000090400000102020000052400100105248B
:1001000001010104240206052406000107058103FC
:1001100010004009040100020A0000000705020265
:100120004000000705830240000004030904120197
:100130000002EF0201404123378000010102030168
:1001400041726475696E6F204C4C43004172647556
:10015000696E6F204D6963726F000000000025001A
:1001600028002B002E003100000000002400270092
:100170002A002D00300004040404040304050202D4
:100180000202040302020202060606060606040430
:1001900002020204040408020110408040102040C2
:1001A000804080080204018040201002011080106D
:1001B000204040200000000200090F00000304015D
:1001C000000C000000000000000000000000000023
:1001D000000000070605040100080A0B0C0D0900C9
:1001E000ED0811241FBECFEFDAE0DEBFCDBF11E076
:1001F000A0E0B1E0E2E6F2E102C005900D92A83283
:10020000B107D9F721E0A8E2B1E001C01D92A739FA
:10021000B207E1F710E0C1EFD0E004C02197FE0182
:100220000E942409C03FD107C9F70E94B5060C946B
:100230002F090C94000020914601211103C08FEF7B
:100240009FEF08955FB7F89422E02093E900209192
:10025000F20030E01216130614F421E030E0422FD1
:10026000FC0184E6415038F0289A80934501909132
:10027000F1009193F7CF2115310521F08091F20023
:10028000882319F05FBFC90108958BE68093E800C9
:10029000F9CF2FB7F89483E08093E9009091E800BC
:1002A000892F807295FF04C09091F20080E4891B31
:1002B0002FBF089580913D0181110DC082E0809390
:1002C000390184E080933A0110923C0110923B0185
:1002D00081E080933D0189E391E008953FB7F89470
:1002E0008091350190913601A0913701B09138018C
:1002F00026B5A89B05C02F3F19F00196A11DB11D81
:100300003FBFBA2FA92F982F8827820F911DA11DBB
:10031000B11DBC01CD0142E0660F771F881F991FF8
:100320004A95D1F70895CF92DF92EF92FF920E9403
:100330006E016B017C010E946E01DC01CB018C1906
:100340009D09AE09BF09883E9340A105B10598F308
:10035000FF90EF90DF90CF90089540912A01509147
:100360002B01209128013091290142175307B4F441
:100370009091E8009570E1F39091E80092FD19C02A
:100380008093F10080912A0190912B0101968F7347
:100390009927892B19F48EEF8093E80080912A0128
:1003A00090912B01019690932B0180932A0181E07B
:1003B000089580E00895DF92EF92FF920F931F93CC
:1003C000CF93DF93D82EF92EE42E062F10E0C8012C
:1003D0000196880F0E94AD0183E00E94AD01CD2DF2
:1003E000DF2D0C0F1D1FC017D10789F0E7FE03C0DA
:1003F000FE01849101C088810E94AD01F82E80E049
:100400000E94AD018F2121968111EDCF01C081E0C5
:10041000DF91CF911F910F91FF90EF90DF900895A2
:10042000DF92EF92FF920F931F93CF93DF93D82E1B
:100430008A017B01E40EF51EEB01CE15DF0571F09C
:10044000D7FE03C0FE01849101C088810E94AD01E6
:1004500021968111F2CF8FEF9FEF01C0C801DF918C
:10046000CF911F910F91FF90EF90DF9008950F9320
:100470001F93CF93DF931F92CDB7DEB782E08983BE
:1004800042E450E068EE70E080E80E9410020E94B2
:100490005A01DC0112960D911C911397011511055B
:1004A00089F0D801ED91FC910280F381E02DBE012D
:1004B0006F5F7F4FC801099597FD04C0F801008563
:1004C0001185ECCF89810F90DF91CF911F910F9112
:1004D0000895615030F02091F100FC0120830196D5
:1004E000F8CF289A84E6809345010895CF92DF9251
:1004F000EF92FF920F931F93CF93DF936C017A01DA
:100500008B01C0E0D0E0CE15DF0581F0D8016D9100
:100510008D01D601ED91FC910190F081E02DC60195
:100520000995892B11F02196EECF7E01C701DF914D
:10053000CF911F910F91FF90EF90DF90CF90089592
:100540008F929F92AF92BF92CF92DF92EF92FF92E3
:100550000F931F93CF93DF936C017B018A018091EE
:100560000B01882309F458C080914601882309F4BF
:1005700053C080912E0180FF05C08091E000826011
:100580008093E000E801B12C8AEFA82E93E0892E39
:100590002AE3922E209711F4BB20B9F10E94490161
:1005A000811106C0AA94AA20B9F10E949301F2CF4A
:1005B000282F30E0C217D3070CF48C2F9FB7F89484
:1005C0008092E9002091E80025FF1DC0282F30E02F
:1005D000C21BD30BF701815020F041914093F100F1
:1005E000FACFE20EF31EBB2019F09092E8000AC089
:1005F0008091E80085FD07C09092E800BB24B39489
:10060000209709F0B12C9FBFC5CF5D9A84E68093F7
:100610002D011016110644F081E090E0F60193835D
:10062000828380E090E001C0C801DF91CF911F91EB
:100630000F91FF90EF90DF90CF90BF90AF909F9081
:100640008F900895CF93DF931F92CDB7DEB7698364
:10065000DC01ED91FC910280F381E02D41E050E05E
:10066000BE016F5F7F4F09950F90DF91CF91089585
:1006700083E08093E9008091F200882319F08AE3F7
:100680008093E80008950E94490190E00895CF9377
:10069000DF931F92CDB7DEB7FC018485958597FD6A
:1006A00005C02FEF3FEF358724870BC0CE010196A1
:1006B0000E941B01019719F4898190E002C08FEF1D
:1006C0009FEF0F90DF91CF9108950F931F93CF93DA
:1006D000DF931F92CDB7DEB78C01FC018485958531
:1006E00097FF0EC0CE0101960E941B01019719F4DD
:1006F000898190E002C08FEF9FEFF8019587848792
:10070000F801848595850F90DF91CF911F910F910E
:100710000895FC018485958597FD0BC09FB7F894DB
:1007200082E08093E9008091F2009FBF90E0019603
:1007300008959FB7F89482E08093E9008091F200D9
:100740009FBF90E00895089580E090E0089500979D
:1007500069F0FC0101900020E9F73197AF01481BD7
:10076000590BBC0187E491E00C94A00280E090E07A
:1007700008950E942A091F920F920FB60F9211241A
:100780002F933F938F939F93AF93BF9380913101AA
:1007900090913201A0913301B09134013091300138
:1007A00023E0230F2D3720F40196A11DB11D05C0B4
:1007B00026E8230F0296A11DB11D209330018093DE
:1007C000310190933201A0933301B09334018091B1
:1007D000350190913601A0913701B0913801019611
:1007E000A11DB11D8093350190933601A09337016F
:1007F000B0933801BF91AF919F918F913F912F910D
:100800000F900FBE0F901F9018951F920F920FB66A
:100810000F9211248F939F938091E1009091E100BA
:10082000937F9093E10083FF0FC01092E90091E065
:100830009093EB001092EC0092E39093ED001092F5
:10084000460198E09093F00082FF20C093E09093DF
:10085000E9009091F200992319F09AE39093E8004F
:1008600090912D01992339F090912D019150909301
:100870002D01992389F190914501992339F09091A7
:100880004501915090934501992341F184FF10C097
:100890008091E2008E7E81608093E2008091E10091
:1008A0008F7E8093E10080912E018E7E806111C049
:1008B00080FF16C08091E2008E7E80618093E2000E
:1008C0008091E1008E7E8093E10080912E018E7EEA
:1008D000816080932E0104C05D98CDCF2898D6CF3B
:1008E0009F918F910F900FBE0F901F9018951F92A0
:1008F0000F920FB60F921124CF92DF92EF92FF92D8
:100900000F931F932F933F934F935F936F937F9317
:100910008F939F93AF93BF93EF93FF93CF93DF9307
:10092000CDB7DEB76C97DEBFCDBF1092E9008091E6
:10093000E80083FFFBC168E0CE0145960E94690292
:1009400082EF8093E8008D8987FF05C09091E800D1
:1009500090FFFCCF03C09EEF9093E800982F907615
:1009600009F0C6C09E894F89588D2F89F88C911146
:100970000CC0803829F480912F018093F10002C0CF
:100980001092F1001092F10045C1913051F48111A3
:1009900041C14130510509F03DC180912F018D7F4A
:1009A0000BC0933061F4811135C14130510509F01C
:1009B00031C180912F01826080932F012BC195302E
:1009C00049F48091E80080FFFCCF822F80688093FB
:1009D000E30020C1963009F05EC00B8D1C8D22E033
:1009E0001092E90010922B0110922A01F21232C0EB
:1009F00010922901109228010E94370299E0BE014D
:100A00006F5F7F4FDB01E92F1D92EA95E9F799832C
:100A1000FA8291E09E8390EA98879AEF99872091D5
:100A20002A0130912B01275F3F4F3C832B838D831D
:100A30001092E90010922B0110922A0110932901C3
:100A40000093280149E050E080E00E9410020E94DB
:100A50003702E0C010932901009328010E945A0137
:100A6000DC0112960D911C9113970115110509F4E3
:100A7000BBC0D801ED91FC910480F581E02DBE0151
:100A80006B5E7F4FC8010995009709F0C7C0F80158
:100A900000851185EACF973009F445C1983021F4DB
:100AA00081E08093F100B6C0993009F0B3C0837043
:100AB00009F039C1EFE1F1E081E031E096E3208116
:100AC000211109C08EE78093EA001092EA008F8915
:100AD000809346019FC08093E9003093EB00219101
:100AE0002093EC009093ED008F5F873041F7EACFC1
:100AF0008B8D9C8D1092E90010922B0110922A018F
:100B00009093290180932801898D811153C08E898A
:100B10009D89913A49F4813209F005C147E050E0DE
:100B200064E071E080E0BBC0913209F0FCC0833228
:100B300069F48F89988DA0E0B0E0809300019093D4
:100B40000101A0930201B093030164C0803269F4F3
:100B50008091E80082FFFCCF67E084E091E00E9492
:100B600069028BEF8093E80055C0823209F052C0D1
:100B70008F8980930B01EEEFFFE7859194918B3F76
:100B80009C4D19F0E0E0F8E002C0EEEFFAE0809151
:100B9000040190910501A0910601B0910701803BED
:100BA0009440A105B10509F09EC080910B0180FF22
:100BB00079C099C00E945A01FC010281138101157C
:100BC000110509F4B0C0D801ED91FC910190F081BC
:100BD000E02DBE016B5E7F4FC801099581111AC0DF
:100BE000F80100851185EBCFF1E0FF1609F44EC046
:100BF000F3E0FF1298C08F89882309F44AC082303D
:100C000089F440E86DE08CE491E00E94DB018823E8
:100C100009F489C08EEF8093E80088C01816190681
:100C2000CCF381C0813029F440E86BE080E491E0AE
:100C3000ECCF833009F077C00E945A01DC01129694
:100C4000ED90FC9013978E010F5F1F4F6801E11428
:100C5000F10479F0D701ED91FC910680F781E02D48
:100C6000B801C7010995080F111DF701E084F1844F
:100C7000EECFD8011C92F60101900020E9F73197E0
:100C8000BF016C197D0940E0C601BFCF6EE271E083
:100C900002C06AE271E0FB01449150E080E80E94EA
:100CA0001002B8CFEE3F2AE0F20751F08081918127
:100CB0008737A7E79A0721F09093FF0A8093FE0AEF
:100CC00087E797E7918380838091600080932C0170
:100CD0009BE088E10FB6F894A895809360000FBE62
:100CE0009093600097CF808191818737974709F073
:100CF00091CFA89580916000886180936000809179
:100D00002C0180936000EE3FBAE0FB0739F0809140
:100D1000FE0A9091FF0A918380837CCF1092FF0A94
:100D20001092FE0A77CF81E28093EB006C960FB6AB
:100D3000F894DEBF0FBECDBFDF91CF91FF91EF9151
:100D4000BF91AF919F918F917F916F915F914F91E3
:100D50003F912F911F910F91FF90EF90DF90CF90D7
:100D60000F900FBE0F901F901895CF93DF93CDB7C4
:100D7000DEB7A1970FB6F894DEBF0FBECDBF789453
:100D800084B5826084BD84B5816084BD85B5826090
:100D900085BD85B5816085BD80916E008160809341
:100DA0006E001092810080918100826080938100AA
:100DB00080918100816080938100809180008160BA
:100DC0008093800080919100826080939100809157
:100DD0009100816080939100809190008160809368
:100DE00090008091C10084608093C1008091C10017
:100DF00082608093C1008091C10081608093C100B6
:100E00008091C30081608093C3008091C0008260A4
:100E10008093C0008091C20081608093C200809165
:100E20007A00846080937A0080917A008260809357
:100E30007A0080917A00816080937A0080917A00B4
:100E4000806880937A001092460110922F011092D0
:100E50002E018091D70081608093D70080EA809333
:100E6000D80089B5806189BD89B5826089BD09B422
:100E700000FEFDCF0E9493018091D8008F7C80619D
:100E80008093D8008091E000807F8093E000809183
:100E9000E1008E7E8093E1008DE08093E200559A20
:100EA000209A5D9828984EE951E0FA01F4908FE776
:100EB00091E0FC0124912223C9F030E0220F331F7E
:100EC000F901E859FE4FA591B491F901E65AFE4F98
:100ED00065917491EFB7F8942C913F2D30953223A2
:100EE0003C93DB012C912F292C93EFBFFA016491E5
:100EF000FC012491222399F030E0220F331FF901E5
:100F0000E859FE4FA591B491F901E65AFE4F25919B
:100F100034913FB7F8942C91262B2C933FBFEDEBE7
:100F2000F1E0E491CE2ED12CF6013197EF30F105AE
:100F300008F08AC0EA5AFF4F0C94240984B58068EF
:100F400084BD84E687BD72C084B5806284BD84E6BA
:100F500088BD6CC08091800080688093800084E6AA
:100F600090E0909389008093880060C08091800019
:100F700080628093800084E690E090938B00809361
:100F80008A0054C08091800088608093800084E64D
:100F900090E090938D0080938C0048C080919000E9
:100FA00080688093900084E690E09093990080930D
:100FB00098003CC08091900080628093900084E60D
:100FC00090E090939B0080939A0030C080919000B5
:100FD00088608093900084E690E090939D008093D9
:100FE0009C0024C08091C00080688093C0008091E4
:100FF000C0008F7B8093C00084E68093CF0016C032
:101000008091C00080628093C00084E68093D0000D
:101010000DC08091C20088608093C2008091C200A0
:101020008B7F8093C20084E68093D2006CED862E85
:1010300061E0962E7AE0472E512C612C712CE0E075
:10104000AE2EE0E0BE2E97C0EDEBF1E0C490FA01C9
:101050004491FC018491882349F3CC20E1F1D12C07
:10106000F6013197EF30F105B0F5EB59FF4F0C94D5
:101070002409909180009F7707C0909180009F7D08
:1010800003C090918000977F9093800024C094B516
:101090009F7702C094B59F7D94BD1DC09091900034
:1010A0009F7707C0909190009F7D03C09091900022
:1010B000977F909390000FC09091C0009F7703C0DE
:1010C0009091C0009F7D9093C00005C09091C20098
:1010D000977F9093C200E82FF0E0EE0FFF1FE65AD3
:1010E000FE4FA591B4919FB7F8948C9140954823F9
:1010F0004C939FBF9BCF80917A0086FDFCCF80915F
:1011000078002091790090E0922B6C01092E000C60
:10111000EE08FF0897FF4BC06DE287E491E00E9464
:10112000220322273327A9012C193D094E095F0903
:1011300019A2CE0181967C01CA01B901A3019201D5
:101140000E940209605DD7016E937D012115310572
:101150004105510589F7C7010E94A70342E050E00D
:1011600065E271E087E491E00E94A002A114B1045D
:1011700011F00E940000F401849190917B0083FBA8
:10118000002700F910E0980145E0220F331F4A952F
:10119000E1F79F7D292B20937B00877080648093EB
:1011A0007C0080917A00806480937A00A4CFA701AC
:1011B000960119A2FE01B1967F01CA01B901A301EE
:1011C00092010E940209605DD7016E937D01211595
:1011D00031054105510589F7BECFE7E4F1E01382FF
:1011E000128288EE93E0A0E0B0E084839583A6832A
:1011F000B78380E191E0918380838FEF9FEF9587A4
:1012000084870895A1E21A2EAA1BBB1BFD010DC005
:10121000AA1FBB1FEE1FFF1FA217B307E407F507A6
:1012200020F0A21BB30BE40BF50B661F771F881F82
:10123000991F1A9469F760957095809590959B0118
:10124000AC01BD01CF010895EE0FFF1F0590F49191
:10125000E02D099481E090E0F8940C942F09F89423
:02126000FFCFBE
:10126200FFFFFFFF00E1000000000000000000009F
:101272002203A0024303380389034703650300C125
:0812820080810000000D0A004C
:00000001FF
