:100000000C9478010C94A0010C94A0010C94A00114
:100010000C94A0010C94A0010C94A0010C94A001DC
:100020000C94A0010C94AE120C94BC0E0C942E0FE8
:100030000C94A0010C94A0010C94A0010C94A001BC
:100040000C94A0010C94A0010C94A0010C94A001AC
:100050000C94A0010C94A0010C94A0010C94A01489
:100060000C94A0010C94A0010C94A0010C94A0018C
:100070000C94A0010C94A0010C94A0010C94A0017C
:100080000C94A0010C94A0010C94A0010C94A0016C
:100090000C94A0010C94A0010C94A0010C94A0015C
:1000A0000C94A0010C94A0010C94A0018E0C960C51
:1000B000A00C7D0CA00C7F0C9E0CA70CA00CA00C1F
:1000C000A00CA00CA00CA00CA00CA00CA70CA00CC9
:1000D000A00CA00CA00CA00C201D231D121D161D91
:1000E0001A1D441D441D441D271D2B1D2F1D351D8C
:1000F000391D441D3F1D4446506C61796572204D89
:10010000696E69206F6E6C696E652E00322E506CC0
:100110006561736520696E7365727420746865200B
:10012000534420636172642100312E506C65617309
:1001300065207265636865636B2074686520636F12
:100140006E6E656374696F6E2100556E61626C65D9
:1001500020746F20626567696E3A00496E69746940
:10016000616C697A696E67204446506C617965728A
:10017000202E2E2E20284D61792074616B6520334E
:100180007E35207365636F6E647329004446526F39
:10019000626F74204446506C61796572204D696EBF
:1001A000692044656D6F00701919008B00000070A4
:1001B000191900800000008B000000CD00000057DE
:1001C0008B2E0080800000A09E5F00FF0000008B4F
:1001D0008B0000ED956400D4FF7F00578B2E00FF4D
:1001E000FF0000FACE87000000000023002600294F
:1001F000002C002F0000000000250028002B002EFE
:100200000031000404040404030405020202020491
:1002100003020202020606060606060404020202A1
:1002200004040408020110408040102040804080F7
:10023000080204018040201002011080102040407C
:1002400020080B0002020201000904000001020262
:100250000000052400100105240101010424020608
:100260000524060001070581031000400904010070
:10027000020A000000070502024000000705830291
:100280004000000403090412010002EF0201404192
:1002900023378000010102030141726475696E6FAA
:1002A000204C4C430041726475696E6F204D696348
:1002B000726F00070605040100080A0B0C0D090007
:1002C000000000240027002A002D0030000000005C
:1002D0000200090F0000030401000C0000000000F0
:1002E000000000000000000000000000B31A591DCB
:1002F00011241FBECFEFDAE0DEBFCDBF12E0A0E0D9
:10030000B1E0E8E0F2E402C005900D92A832B10736
:10031000D9F724E0A8E2B2E001C01D92AA3FB207DB
:10032000E1F711E0C7E7D1E004C02197FE010E9488
:10033000AA1EC637D107C9F70E94EA140C94F72009
:100340000C94000080E991E008953E9A0895089584
:10035000CF93DF9300D000D000D0CDB7DEB7AB0194
:100360001C821D821E82DC01ED91FC910190F081C6
:10037000E02D19821A821B829E012F5F3F4FBE0122
:100380006C5F7F4F099526960FB6F894DEBF0FBEBF
:10039000CDBFDF91CF910895FC01858596850895A5
:1003A00080E090E008954F925F926F927F928F92DB
:1003B000AF92BF92CF92DF92EF920F931F93CF93A2
:1003C000DF933C01EB010E94A313F30127853089E1
:1003D000621B730B6A307105B0F3F894E881F98100
:1003E00078B1706468B16F7B68B9CB8488852C2D37
:1003F000281B822F2887BF844A805B801E850C853E
:10040000DD841F5F0F5FD3949E813F81A984EA84BE
:100410004281D20120E0C32F522F322F3281442754
:1004200088943111380F08F43FEF8195889410FDBE
:10043000430F4795889411FD430F4795889412FD0B
:10044000430F4795889413FD430F4795889414FDF7
:10045000430F4795889415FD430F4795889416FDE3
:10046000430F4795889417FD430F47958894232F92
:100470001111242F8C0D422F002C78B900C000C020
:1004800000C047FF68B930812227889400C000C0AF
:1004900000C000C000C000C000C0002C00C000C0F0
:1004A00068B93111390F00C000C0002C78B900C004
:1004B00000C000C046FF68B908F43FEF91958894EA
:1004C00000C000C000C000C000C000C000C0002CC0
:1004D00000C000C068B900FD230F00C000C0002CA0
:1004E00078B900C000C000C045FF68B9279588945E
:1004F00001FD230F00C000C000C000C000C000C04C
:1005000000C0002C00C000C068B92795889400C0C6
:1005100000C0002C78B900C000C000C044FF68B91A
:1005200002FD230F2795889400C000C000C000C0C2
:1005300000C000C000C0002C00C000C068B903FDAE
:10054000230F00C000C0002C78B900C000C000C05C
:1005500043FF68B92795889404FD230F00C000C0AD
:1005600000C000C000C000C000C0002C00C000C01F
:1005700068B92795889400C000C0002C78B900C0E5
:1005800000C000C042FF68B905FD230F279588947D
:1005900000C000C000C000C000C000C000C0002CEF
:1005A00000C000C068B906FD230F00C000C0002CC9
:1005B00078B900C000C000C041FF68B92795889491
:1005C00007FD230F00C000C000C000C000C000C075
:1005D00000C0002C00C000C068B92795889400C0F6
:1005E00000C0002C78B900C000C000C040FF68B94E
:1005F000432F0111422F9A0D00C000C000C000C05F
:1006000000C000C000C0002C00C000C068B900C01D
:1006100000C000C0002C78B900C000C000C047FF77
:1006200068B931812227889400C000C000C000C092
:1006300000C000C000C0002C00C000C068B931116B
:100640003C0F00C000C0002C78B900C000C000C042
:1006500046FF68B908F43FEFEB0DF11D00C000C084
:1006600000C000C000C000C000C0002C00C000C01E
:1006700068B9D0FC230F00C000C0002C78B900C0BE
:1006800000C000C045FF68B927958894D1FC230FAE
:1006900000C000C000C000C000C000C000C0002CEE
:1006A00000C000C068B92795889400C000C0002C25
:1006B00078B900C000C000C044FF68B9D2FC230F65
:1006C0002795889400C000C000C000C000C000C0D2
:1006D00000C0002C00C000C068B9D3FC230F00C0CC
:1006E00000C0002C78B900C000C000C043FF68B94A
:1006F00027958894D4FC230F00C000C000C000C020
:1007000000C000C000C0002C00C000C068B9279520
:10071000889400C000C0002C78B900C000C000C0A0
:1007200042FF68B9D5FC230F2795889400C000C00C
:1007300000C000C000C000C000C0002C00C000C04D
:1007400068B9D6FC230F00C000C0002C78B900C0E7
:1007500000C000C041FF68B927958894D7FC230FDB
:1007600000C000C000C000C000C000C000C0002C1D
:1007700000C000C068B92795889400C000C0002C54
:1007800078B900C000C000C040FF68B9432FD11045
:10079000422FC19500C000C000C000C000C000C012
:1007A00000C0002C00C000C068B9CE0D00C000C061
:1007B00000C078B900C000C000C047FF68B93281EE
:1007C0002227889400C000C000C000C000C000C044
:1007D00000C0002C00C000C068B93111380F00C043
:1007E00000C0002C78B900C000C000C046FF68B946
:1007F00008F43FEF8195889400C000C000C000C09D
:1008000000C000C000C0002C00C000C068B910FDCE
:10081000230F00C000C0002C78B900C000C000C089
:1008200045FF68B92795889411FD230F00C000C0CB
:1008300000C000C000C000C000C0002C00C000C04C
:1008400068B92795889400C000C0002C78B900C012
:1008500000C000C044FF68B912FD230F279588949B
:1008600000C000C000C000C000C000C000C0002C1C
:1008700000C000C068B913FD230F00C000C0002CE9
:1008800078B900C000C000C043FF68B927958894BC
:1008900014FD230F00C000C000C000C000C000C095
:1008A00000C0002C00C000C068B92795889400C023
:1008B00000C0002C78B900C000C000C042FF68B979
:1008C00015FD230F2795889400C000C000C000C00C
:1008D00000C000C000C0002C00C000C068B916FDF8
:1008E000230F00C000C0002C78B900C000C000C0B9
:1008F00041FF68B92795889417FD230F00C000C0F9
:1009000000C000C000C000C000C0002C00C000C07B
:1009100068B92795889400C000C0002C78B900C041
:1009200000C000C040FF68B9432F1111422F8C0D49
:1009300000C000C000C000C000C000C000C0002C4B
:1009400000C000C068B900C0119709F096CD20EC36
:1009500033E0D2010E94B01EDC01CB01F4E0B69579
:10096000A79597958795FA95D1F720E030E0B901E2
:10097000EAE94E9E040C611D5E9E600D711D1124FE
:10098000650D711D860F971FA11DB11D893E43E0A6
:100990009407A105B10508F434C0885E9340A1090D
:1009A000B10942E0B695A795979587954A95D1F7F5
:1009B00047E0849F080E211D949F200D311D1124B6
:1009C000290F311D6091320270E0860F971F820F50
:1009D000931F409116035091170360911803709173
:1009E0001903292F3327420F531F611D711D409397
:1009F00016035093170360931803709319038093A1
:100A0000320278940E94A313F301708B6787DF9101
:100A1000CF911F910F91EF90DF90CF90BF90AF904B
:100A20008F907F906F905F904F9008950F931F93DA
:100A3000CF93DF93CDB7DEB762970FB6F894DEBFE2
:100A40000FBECDBF8C01F901DC011C968C917A831D
:100A500069835C834B835E834D8390819D87918105
:100A60009E8792819F87813029F4CE0101960E9452
:100A70006E1106C01C861B861A86198618861F8270
:100A8000188A1A8A198AD801ED91FC910484F58597
:100A9000E02DBE016F5F7F4FC801099562960FB6CA
:100AA000F894DEBF0FBECDBFDF91CF911F910F91A4
:100AB00008950F931F93CF93DF93CDB7DEB762975F
:100AC0000FB6F894DEBF0FBECDBF8C01F901DC017B
:100AD0001C968C917A8369835C834B835E834D8300
:100AE00090819D8791819E8792819F87813029F493
:100AF000CE0101960E946E1106C01C861B861A86C6
:100B0000198618861F8283E0888B1A8A198AD80171
:100B1000ED91FC910484F585E02DBE016F5F7F4F60
:100B2000C801099562960FB6F894DEBF0FBECDBF1F
:100B3000DF91CF911F910F910895EF92FF920F9344
:100B40001F93CF93DF93EC018B018BE10E9478130D
:100B5000780124E1E21AF1088E159F0534F098011E
:100B60002C5E3F4F28173907CCF48AE10E94781396
:100B70008E159F0504F198012C5E3F4F2817390709
:100B8000D4F084E991E00E94DF0B8091CF04888348
:100B90008091D00489838091D1043DC08EE891E09A
:100BA0000E94DF0B8091D20488838091D3048983D3
:100BB0008091D40430C089E10E9478138E159F057E
:100BC0009CF098012C5E3F4F281739076CF088E99C
:100BD00091E00E94DF0B8091CC0488838091CD044A
:100BE00089838091CE0417C088E10E9478138E1506
:100BF0009F059CF00C5E1F4F0817190774F088E9D9
:100C000091E00E94DF0B8091C90488838091CA041F
:100C100089838091CB048A8303C0188219821A8247
:100C2000CE01DF91CF911F910F91FF90EF9008952A
:100C3000CF92DF92EF92FF92CF93DF93EC010E946D
:100C400002146B017C0188810E9478139C018C85C1
:100C50009D85AE85BF85B701A601481B590B6A0B60
:100C60007B0B89819A81AB81BC81481759076A0740
:100C70007B0710F41F8211C091E0233331050CF47F
:100C800090E08D818E839D83282F29272F838917BC
:100C900021F0CC86DD86EE86FF86C886D986EA8678
:100CA000FB868D81DF91CF91FF90EF90DF90CF9009
:100CB00008958091C204882321F081E090E00C9493
:100CC000AA0B0895CF92DF92EF92FF920F931F939A
:100CD000CF93DF9300D01F92CDB7DEB78FE991E0BD
:100CE0000E94DF0B0BE713E094E0C92ED12CE12C1E
:100CF000F12C0E94CC1DA70196010E94231EFB012E
:100D0000EE0FFF1F6E0F7F1FFB01E558FC4F208188
:100D100091818281D8013C91308311963C91119749
:100D2000318312963C91129732832C9311969C93A7
:100D3000119712968C930D5F1F4FB3E007381B0776
:100D4000C1F680917B03898380917C038A838091A3
:100D50007D038B83BE016F5F7F4F85E194E00E942E
:100D6000010B80917E03898380917F038A83809128
:100D700080038B83BE016F5F7F4F8FEF93E00E94F4
:100D8000010B809181038983809182038A83809102
:100D900083038B83BE016F5F7F4F89EE93E00E94D8
:100DA000010B809184038983809185038A838091DC
:100DB00086038B83BE016F5F7F4F83ED93E00E94BC
:100DC000010B80917B03898380917C038A838091CE
:100DD0007D038B83BE016F5F7F4F8DE694E00E94A1
:100DE000010B80917E03898380917F038A838091A8
:100DF00080038B83BE016F5F7F4F87E594E00E9485
:100E0000010B809181038983809182038A83809181
:100E100083038B83BE016F5F7F4F81E494E00E9468
:100E2000010B809184038983809185038A8380915B
:100E300086038B83BE016F5F7F4F8BE294E00E943D
:100E4000010B10922F0281E08093310288EC809395
:100E5000DC020F900F900F90DF91CF911F910F91B7
:100E6000FF90EF90DF90CF900895209131022111F3
:100E700007C021E020938904BC0183E00C940E1488
:100E800008950F931F93CF93DF9300D01F92CDB798
:100E9000DEB783EC93E00E94180683EB93E00E9498
:100EA000180683EA93E00E94180683E993E00E9403
:100EB00018068091CA03882309F46BC182E10E945D
:100EC00078138C0180EB91E00E94DF0B10923002CE
:100ED000033311058CF1B801CE0101960E949D05E6
:100EE000998180917B0398131AC09A8180917C0329
:100EF000981315C090917D038B81981310C063E007
:100F000070E08DE694E00E94220B882321F081E0BE
:100F100090E00E94350781E08093300215C062E0C6
:100F200070E08DE694E00E94220B882369F082E055
:100F300090E00E94350708C010922F0261E070E037
:100F40008DE694E00E94220B8091BA03882309F475
:100F500025C183E10E9478138C018DEB91E00E9402
:100F6000DF0B10922E02033311058CF1B801CE0174
:100F700001960E949D0590917E03898198131AC065
:100F800090917F038A81981315C0909180038B8183
:100F9000981310C063E070E087E594E00E94220B94
:100FA000882321F081E090E00E94350781E0809362
:100FB0002E0215C062E070E087E594E00E94220BEB
:100FC000882369F082E090E00E94350708C0109203
:100FD0002F0261E070E087E594E00E94220B80918F
:100FE000AA03882309F4DFC084E10E9478138C01EE
:100FF0008AEC91E00E94DF0B10922D020333110561
:101000008CF1B801CE0101960E949D05909181035B
:10101000898198131AC0909182038A81981315C010
:10102000909183038B81981310C063E070E081E49A
:1010300094E00E94220B882321F081E090E00E943E
:10104000350781E080932D0215C062E070E081E4F5
:1010500094E00E94220B882369F082E090E00E94D5
:10106000350708C010922F0261E070E081E494E03F
:101070000E94220B80919A03882309F499C085E18C
:101080000E9478138C0187ED91E00E94DF0B109293
:101090002C02033311058CF1B801CE0101960E9498
:1010A0009D0590918403898198131AC090918503BE
:1010B0008A81981315C0909186038B81981310C074
:1010C00063E070E08BE294E00E94220B882321F021
:1010D00081E090E00E94350781E080932C0215C0EA
:1010E00062E070E08BE294E00E94220B882369F0BA
:1010F00082E090E00E94350708C010922F0261E064
:1011000070E08BE294E00E94220B109231028091F9
:101110002F02811124C080913002882301F1809137
:101120002E028823E1F080912D028823C1F0809166
:101130002C028823A1F081E080932F028FEF80930F
:10114000DC020E94021460932802709329028093AB
:101150002A0290932B0284EE91E00E94DF0B809193
:101160002F028823B1F10E940214009128021091ED
:10117000290220912A0230912B02DC01CB01801B35
:10118000910BA20BB30B81349F41A105B105A8F4CB
:1011900020C080913102811191CED6CE8091310252
:1011A0008111D7CE1CCF8091310281111DCF62CF2A
:1011B00080913102811163CFA8CF82EF91E00E942C
:1011C000DF0B8091C204882321F082E090E00E942E
:1011D000AA0B0F900F900F90DF91CF911F910F915D
:1011E00008950C94631F0895482F982F46FD9095FD
:1011F000E92FEF739F7046FD9F5FE695E695E695B4
:10120000E670F0E0EA5EFE4F2181299F802D212DBE
:10121000112482958F702295207F822B3081982F08
:10122000930F892F47FD819580580895CF93DF93C1
:10123000EC0160E088810E943C1388810E94781351
:1012400021E0C3970CF420E02D830E9402146887EC
:1012500079878A879B872D812E831F826C877D8764
:101260008E879F87DF91CF910895CF93DF93DC0125
:10127000EB0112964D915C9113979A01220F331F47
:10128000240F351F12966D917C91139714968D91B2
:101290009C911597860F971F481759078CF41D9638
:1012A000ED91FC911E97E20FF31F88818083898165
:1012B00081838A8182834F5F5F4F2D5F3F4FE2CFF3
:1012C000DF91CF9108958F929F92AF92BF92EF924C
:1012D000FF920F931F93CF93DF93EC01E62EF42E32
:1012E000480159018F3F910509F010F4DC2FCC27FC
:1012F0000E9402149B01AC01281939094A095B09B3
:10130000DE010E94421E9B01AC01A8E1B1E00E94F7
:10131000421E892F0E94F4082F2D2E19382F329F3C
:10132000030E30E0311D1124832F8E0DDF91CF91FC
:101330001F910F91FF90EF90BF90AF909F908F9073
:1013400008952F923F924F925F926F927F928F9269
:101350009F92AF92BF92CF92DF92EF92FF920F9344
:101360001F93CF93DF9300D01F92CDB7DEB79B833F
:101370008A8300E010E0980140E460EC86E090E0B1
:101380000E946309782E00E010E0980140E460ECD0
:1013900087E090E00E94630940E4642E680EC12C4F
:1013A000D12CE12CF12C57EAA52E51E0B52EAA81C3
:1013B000BB8114968D919C911597E816F9060CF057
:1013C000E0C0372D77FC3095330F232F239F020E7B
:1013D00020E0211D422F439F040E40E0411DB3E059
:1013E0002B9FC0011124E2E04E9F80199109112426
:1013F00090FD8FEF582E5694862D0E94F408482EAB
:101400004694842C912C850C911CAA81BB811F963B
:101410000D911D912D913C91529740E660E087E03F
:1014200090E00E94630990E0881599057CF4EA81B8
:10143000FB81078510892189328940E660E087E0D9
:1014400090E00E946309881A910802C0812C912CB7
:10145000852D840DA82FA295AF708F70982EF4E083
:10146000AF9FC0011124FC01E955FE4F45915591F4
:10147000659174918B01222733270983252E362EFF
:10148000472E5524F22DE42F992009F436C0AF30B1
:1014900009F073C0F50185919591A591B491EA2F5A
:1014A000F92F929490EF9922992D9095192F019FE1
:1014B000000E00E0011D2E2F392D239F020E20E08B
:1014C000211D020F0983322D319F030E30E0311DA3
:1014D0002F2F192D219F020E20E0211DF32FF20F37
:1014E000292F429F040E40E0411D282F219F020E0C
:1014F00020E0211DE42FE20F11243FEF831611F1AC
:101500008820E9F021E0280D8981882331F0082F17
:10151000029F000E00E0011D0983FF2331F03F2FE1
:10152000329F030E30E0311DF32FEE2331F04E2FAA
:10153000429F040E40E0411DE42F112403C0E0E06F
:10154000F0E01982AA81BB811D968D919C911E9716
:101550008C0D9D1D1981DC011C931196FC93119734
:101560001296EC932FEFE21AF20A33E0C30ED11C6D
:101570008FE0680EA7E17A0E1ACFFC01E555FE4F09
:101580008ACF0F900F900F90DF91CF911F910F9105
:10159000FF90EF90DF90CF90BF90AF909F908F9093
:1015A0007F906F905F904F903F902F900895CF93D2
:1015B000DF9300D01F92CDB7DEB7FB012CE532E000
:1015C000DC011E963C932E931D97208153962C93FD
:1015D0005397218154962C935497228155962C939E
:1015E0002081298321812A8322812B83BE016F5F81
:1015F0007F4F0E9435090F900F900F90DF91CF9190
:101600000895CF93DF9300D01F92CDB7DEB7FB01D3
:101610004081DC0153964C935397318154963C930F
:101620005497228155962C9349833A832B83BE018C
:101630006F5F7F4F0E9435090F900F900F90DF91E1
:10164000CF9108950F931F93CF93DF9300D01F92F4
:10165000CDB7DEB7FC01228533852617370739F170
:101660008C01738762876130710559F063307105B1
:1016700091F4FC018389898384898A8385898B839A
:1016800003C019821A821B82BE016F5F7F4FC8019F
:101690000E9435090AC00E940214F8016787708B06
:1016A000818B928BC8010E94A10981E001C080E07A
:1016B0000F900F900F90DF91CF911F910F91089590
:1016C000FC01228533852230310511F40C94A109E7
:1016D0000895CF93DF93EC01E881F9810480F581CF
:1016E000E02D309709F00995EE81FF81309709F0E0
:1016F0000995EA81FB810190F081E02D309709F096
:1017000009958A819B819093B9048093B8040E94C3
:1017100002142091C0043091C104A091B804B0918A
:10172000B904E091BE04F091BF0440E050E04217DC
:1017300053076CF4C081D181CA17DB0721F460879D
:101740007187828793874F5F5F4F7096F0CFDF91ED
:10175000CF9108954091BC045091BD046091B804AC
:101760007091B904E091BA04F091BB0420E030E03C
:10177000241735078CF4A081B181A617B70741F46F
:10178000A481B581A817B90719F4CF010C94690B8E
:101790002F5F3F4F3896ECCF0895009769F0FC011A
:1017A00001900020E9F73197AF01481B590BBC01AC
:1017B0008CE892E00C94EC0D80E090E00895CF93DB
:1017C000DF930E94CD0BEC0187E192E00E94CD0BEC
:1017D0008C0F9D1FDF91CF9108950F931F93CF938F
:1017E00080918A0490918B04DC01ED91FC9100843E
:1017F000F185E02D0995892B09F4B9C060E070E00E
:10180000CB010E94C813C091A80480918A049091D2
:101810008B04DC01ED91FC910284F385E02DC11174
:1018200008C00995809394048E37D1F68091A8045E
:101830009AC00995EC2FF0E0ED57FB4F818B80911A
:10184000A8048230A1F08930C1F0813009F08BC04A
:10185000909195049F3F09F486C01092A80481E0FE
:101860008093AA041092AD041092AC04AAC0909187
:101870009604963009F477C0F0CF80919D048F3E96
:1018800061F7E5E9F4E08BE994E020E030E0419194
:10189000240F311D8E179F07D1F780919B0490E094
:1018A000982F882740919C04840F911D3195219594
:1018B00031098217930789F61092A804E0919704E2
:1018C000E13409F44DC0E093AB048091990490E0B9
:1018D000982F882720919A04820F911D9093AD0430
:1018E0008093AC044E2F50E0FA01FA97E631F105EF
:1018F00070F5EA5AFF4F0C94AA1E85E022C080FFC3
:1019000002C089E01EC081FF02C084E01AC083705B
:101910009927892B09F45BC08AE013C080FF02C0BD
:1019200087E00FC081FF53C082E00BC080FF02C080
:1019300088E007C081FF4BC083E003C086E001C0A0
:101940008BE08093AA0481E08093AE0440C081E0E4
:101950008093AA041092AD041092AC048093AE045C
:101960001092AF0434C08F5F8093A80439CF809168
:10197000AF04882361F10E94021400918C0410913D
:101980008D0420918E0430918F04DC01CB01801BEB
:10199000910BA20BB30B0091900410919104209134
:1019A00092043091930480179107A207B30778F04F
:1019B0001092A8041092AA041092AD041092AC04E4
:1019C00081E08093AE041092AF0480E002C0809169
:1019D000AE04CF911F910F91089540911203509141
:1019E0001303209110033091110342175307B4F4ED
:1019F0009091E8009570E1F39091E80092FD19C094
:101A00008093F100809112039091130301968F73DC
:101A10009927892B19F48EEF8093E80080911203A7
:101A2000909113030196909313038093120381E026
:101A3000089580E00895DF92EF92FF920F931F9335
:101A4000CF93DF93D82E8A017B01E40EF51EEB01C4
:101A5000CE15DF0571F0D7FE03C0FE01849101C0F1
:101A600088810E94ED0C21968111F2CF8FEF9FEFBC
:101A700001C0C801DF91CF911F910F91FF90EF90AE
:101A8000DF900895615030F02091F100FC01208337
:101A90000196F8CF289A84E680931C030895CF928C
:101AA000DF92EF92FF920F931F93CF93DF936C011E
:101AB0007A018B01C0E0D0E0CE15DF0581F0D801BE
:101AC0006D918D01D601ED91FC910190F081E02D99
:101AD000C6010995892B11F02196EECF7E01C70131
:101AE000DF91CF911F910F91FF90EF90DF90CF90FA
:101AF0000895CF93DF931F92CDB7DEB76983DC01E2
:101B0000ED91FC910280F381E02D41E050E0BE01B7
:101B10006F5F7F4F09950F90DF91CF91089583E01C
:101B20008093E9008091F200882319F08AE3809382
:101B3000E8000895FC018485958597FD0BC09FB74B
:101B4000F89482E08093E9008091F2009FBF90E0DA
:101B5000019608959FB7F89482E08093E900809100
:101B6000F2009FBF90E00895089580E090E008950E
:101B70000E94B2200F931F93CF93DF931F92CDB794
:101B8000DEB782E0898342E450E061E472E080E8FD
:101B90000E941B0D0E942813DC0112960D911C91CE
:101BA00013970115110589F0D801ED91FC91028080
:101BB000F381E02DBE016F5F7F4FC801099597FD4E
:101BC00004C0F80100851185ECCF89810F90DF9169
:101BD000CF911F910F9108958F929F92AF92BF92D4
:101BE000CF92DF92EF92FF920F931F93CF93DF93E9
:101BF0006C017B018A0180910B01882309F45CC090
:101C000080911D03882309F457C08091330280FF1F
:101C100005C08091E00082608093E000E801B12C73
:101C20008AEFA82E93E0892E2AE3922E209711F4B2
:101C3000BB20D9F10E949D1281110AC0AA94AA204A
:101C4000D9F161E070E080E090E00E94C813EECF2F
:101C5000282F30E0C217D3070CF48C2F9FB7F894CD
:101C60008092E9002091E80025FF1DC0282F30E078
:101C7000C21BD30BF701815020F041914093F1003A
:101C8000FACFE20EF31EBB2019F09092E8000AC0D2
:101C90008091E80085FD07C09092E800BB24B394D2
:101CA000209709F0B12C9FBFC1CF5D9A84E6809345
:101CB00015031016110644F081E090E0F6019383BD
:101CC000828380E090E001C0C801DF91CF911F9135
:101CD0000F91FF90EF90DF90CF90BF90AF909F90CB
:101CE0008F9008950E949D1290E008950F931F9386
:101CF000CF93DF931F92CDB7DEB78C01FC018485B3
:101D0000958597FF0EC0CE0101960E946F12019734
:101D100019F4898190E002C08FEF9FEFF801958759
:101D20008487F801848595850F90DF91CF911F916D
:101D30000F910895CF93DF931F92CDB7DEB7FC01CB
:101D40008485958597FD05C02FEF3FEF3587248764
:101D50000BC0CE0101960E946F12019719F4898180
:101D600090E002C08FEF9FEF0F90DF91CF91089529
:101D70000C94631F0C94631F1F920F920FB60F9267
:101D800011248F939F938091E1009091E100937FC4
:101D90009093E10083FF0FC01092E90091E09093CF
:101DA000EB001092EC0092E39093ED0010921D0373
:101DB00098E09093F00082FF20C093E09093E900B8
:101DC0009091F200992319F09AE39093E800909192
:101DD0001503992339F090911503915090931503B1
:101DE000992389F190911C03992339F090911C0358
:101DF000915090931C03992341F184FF10C080916E
:101E0000E2008E7E81608093E2008091E1008F7E0F
:101E10008093E100809133028E7E806111C080FF4B
:101E200016C08091E2008E7E80618093E2008091F6
:101E3000E1008E7E8093E100809133028E7E81608E
:101E40008093330204C05D98CDCF2898D6CF9F9160
:101E50008F910F900FBE0F901F9018951F920F92A9
:101E60000FB60F921124CF92DF92EF92FF920F9351
:101E70001F932F933F934F935F936F937F938F9312
:101E80009F93AF93BF93EF93FF93CF93DF93CDB720
:101E9000DEB76C97DEBFCDBF1092E9008091E800FD
:101EA00083FFFBC168E0CE0145960E94420D82EFA0
:101EB0008093E8008D8987FF05C09091E80090FF2E
:101EC000FCCF03C09EEF9093E800982F907609F026
:101ED000C6C09E894F89588D2F89F88C91110CC0EE
:101EE000803829F4809134028093F10002C010926E
:101EF000F1001092F10045C1913051F4811141C1BE
:101F00004130510509F03DC1809134028D7F0BC0F5
:101F1000933061F4811135C14130510509F031C16F
:101F2000809134028260809334022BC1953049F451
:101F30008091E80080FFFCCF822F80688093E300CF
:101F400020C1963009F05EC00B8D1C8D22E01092EE
:101F5000E9001092130310921203F21232C0109291
:101F60001103109210030E94BA0D99E0BE016F5F39
:101F70007F4FDB01E92F1D92EA95E9F79983FA82F9
:101F800091E09E8390EA98879AEF998720911203B7
:101F900030911303275F3F4F3C832B838D83109237
:101FA000E90010921303109212031093110300938F
:101FB000100349E050E080E00E941B0D0E94BA0D22
:101FC000E0C010931103009310030E942813DC015A
:101FD00012960D911C9113970115110509F4BBC0C0
:101FE000D801ED91FC910480F581E02DBE016B5E7E
:101FF0007F4FC8010995009709F0C7C0F801008517
:102000001185EACF973009F445C1983021F481E079
:102010008093F100B6C0993009F0B3C0837009F025
:1020200039C1EEE5F1E081E031E096E32081211154
:1020300009C08EE78093EA001092EA008F898093AE
:102040001D039FC08093E9003093EB002191209302
:10205000EC009093ED008F5F873041F7EACF8B8DD6
:102060009C8D1092E900109213031092120390932A
:10207000110380931003898D811153C08E899D892E
:10208000913A49F4813209F005C147E050E064E03B
:1020900071E080E0BBC0913209F0FCC0833269F48A
:1020A0008F89988DA0E0B0E08093000190930101AA
:1020B000A0930201B093030164C0803269F480915F
:1020C000E80082FFFCCF67E084E091E00E94420DCF
:1020D0008BEF8093E80055C0823209F052C08F899F
:1020E00080930B01EEEFFFE7859194918B3F9C4D20
:1020F00019F0E0E0F8E002C0EEEFFAE080910401B0
:1021000090910501A0910601B0910701803B944098
:10211000A105B10509F09EC080910B0180FF79C037
:1021200099C00E942813FC01028113810115110539
:1021300009F4B0C0D801ED91FC910190F081E02D3F
:10214000BE016B5E7F4FC801099581111AC0F8016D
:1021500000851185EBCFF1E0FF1609F44EC0F3E0E6
:10216000FF1298C08F89882309F44AC0823089F40D
:1021700040E86DE085EA92E00E94A41C882309F4FF
:1021800089C08EEF8093E80088C018161906CCF33A
:1021900081C0813029F440E86BE089E992E0ECCF1E
:1021A000833009F077C00E942813DC011296ED906D
:1021B000FC9013978E010F5F1F4F6801E114F1042B
:1021C00079F0D701ED91FC910680F781E02DB801FF
:1021D000C7010995080F111DF701E084F184EECFC6
:1021E000D8011C92F60101900020E9F73197BF0158
:1021F0006C197D0940E0C601BFCF67E872E002C0FC
:1022000063E872E0FB01449150E080E80E941B0DFE
:10221000B8CFEE3F2AE0F20751F0808191818737F5
:10222000A7E79A0721F09093FF0A8093FE0A87E7B9
:1022300097E79183808380916000809314039BE0F3
:1022400088E10FB6F894A895809360000FBE909334
:10225000600097CF808191818737974709F091CFB0
:10226000A89580916000886180936000809114033C
:1022700080936000EE3FBAE0FB0739F08091FE0AE0
:102280009091FF0A918380837CCF1092FF0A109275
:10229000FE0A77CF81E28093EB006C960FB6F8943C
:1022A000DEBF0FBECDBFDF91CF91FF91EF91BF9108
:1022B000AF919F918F917F916F915F914F913F91DE
:1022C0002F911F910F91FF90EF90DF90CF900F9083
:1022D0000FBE0F901F901895089508950F931F93A8
:1022E000CF93DF9320910F032F5F322F37703093FE
:1022F0000F0320FF02C020E801C020E031FD206470
:10230000347009F02062205FFC01EC01239600E0AC
:1023100011E06485662331F070E0C8010E94961ECA
:102320006F5F01C060E06187322F369F030E30E09F
:10233000311D1124311102C0168202C03150368382
:10234000662311F0615061873196CE17DF0709F7D8
:10235000DF91CF911F910F9108952091D504309175
:10236000D6042817390771F490911B0380911A0342
:10237000981741F0E0911B03F0E0E15DFC4F808194
:1023800090E008958FEF9FEF089508951F93CF93E6
:10239000DF93DC015C968D919C915D97009739F4F9
:1023A00021E030E013963C932E9312973BC0519658
:1023B000ED91FC91529750962C915097322F309579
:1023C0001FB75E964C915E97742F727041FD6095B9
:1023D000F8944081772311F0422B01C043234083BE
:1023E000EC012197F1F748E0508160FF02C0522BC9
:1023F00001C053235083EC012197F1F766954150BA
:1024000099F78081772319F08323808302C0282BDA
:1024100020831FBF5C968D919C915D970197F1F78A
:1024200081E090E0DF91CF911F9108952091D50434
:102430003091D6042817390771F480911A0320913E
:102440001B0390E0805C9F4F821B910960E470E069
:102450000E94961E089580E090E008952091D50492
:102460003091D60428173907B9F490911B03809155
:102470001A03981789F0E0911B03F0E0E15DFC4F2F
:10248000808120911B0330E02F5F3F4F2F73332754
:1024900020931B0390E008958FEF9FEF08950F9313
:1024A0001F93CF93DF938C01C0E0D0E0F801EC0FD5
:1024B000FD1F6491662341F08CE892E00E94790D43
:1024C000892B11F02196F2CF87E192E00E94CD0B8B
:1024D0008C0F9D1FDF91CF911F910F910895209137
:1024E0001D03211103C08FEF9FEF08955FB7F8948C
:1024F00022E02093E9002091F20030E0121613064A
:1025000014F421E030E0422FFC0184E6415038F021
:10251000289A80931C039091F1009193F7CF211595
:10252000310521F08091F200882319F05FBFC901C5
:1025300008958BE68093E800F9CF2FB7F89483E0F5
:102540008093E9009091E800892F807295FF04C084
:102550009091F20080E4891B2FBF08951F920F9283
:102560000FB60F9211242F933F934F935F936F9366
:102570007F938F939F93AF93BF93EF93FF93E091DC
:10258000D504F091D604309709F451C0968DA685F4
:10259000B785858591FF04C09C91892329F447C0A4
:1025A0009C91892309F043C0A389B4899C918589B2
:1025B000809589238C93868997890197F1F7608D9F
:1025C000718DA685B785558538E020E0CB01019750
:1025D000F1F7822F90E095958795282F4C91452310
:1025E00009F02068315091F7868D81FD209580910A
:1025F0001A0390E001968F73992730911B033817C7
:1026000049F0A0911A03B0E0A15DBC4F2C938093D8
:102610001A0303C0868D8160868F828D938D01970A
:10262000F1F7A389B4899C918589892B8C93FF91BB
:10263000EF91BF91AF919F918F917F916F915F913A
:102640004F913F912F910F900FBE0F901F901895B3
:102650008091270381110DC082E08093230384E0E1
:1026600080932403109226031092250381E0809327
:10267000270383E293E00895CF93DF9390E0FC017A
:10268000EE5DFD4F2491FC01ED5FFD4F84918823A9
:1026900061F190E0880F991FFC01E154FD4FC59155
:1026A000D491FC01EB50FE4FA591B491611109C08A
:1026B0009FB7F8948881209582238883EC912E23FC
:1026C0000BC0623061F49FB7F8948881322F309547
:1026D00083238883EC912E2B2C939FBF06C08FB74A
:1026E000F894E8812E2B28838FBFDF91CF91089536
:1026F000823108F08251E82FF0E0ED54FD4FE49173
:1027000080917B00E3FB222720F930E095E0220F47
:10271000331F9A95E1F78F7D282B20937B00E7707C
:10272000E064E0937C0080917A00806480937A007A
:1027300080917A0086FDFCCF80917800209179000D
:1027400090E0922B08953FB7F89480911F039091E9
:102750002003A0912103B091220326B5A89B05C0B8
:102760002F3F19F00196A11DB11D3FBFBA2FA92F10
:10277000982F8827820F911DA11DB11DBC01CD018D
:1027800042E0660F771F881F991F4A95D1F7089579
:102790008F929F92AF92BF92CF92DF92EF92FF9271
:1027A0006B017C010E94A3134B015C01C114D10495
:1027B000E104F104F1F00E94A313DC01CB018819BC
:1027C0009909AA09BB09883E9340A105B10570F398
:1027D00021E0C21AD108E108F10888EE880E83E0F2
:1027E000981EA11CB11CC114D104E104F10419F715
:1027F000DDCFFF90EF90DF90CF90BF90AF909F9094
:102800008F9008952FB7F894609116037091170375
:1028100080911803909119032FBF08958093A1040C
:102820007093A3046093A404EFE9F4E025EA34E094
:1028300080E090E04191840F911D2E173F07D1F762
:102840009195819591099093A5048093A604809118
:10285000A204882361F08091AF04882341F060E0F6
:1028600070E0CB010E94C8130E94ED0BF4CF809161
:102870008A0490918B04DC01ED91FC910280F3813C
:10288000E02D4AE050E06EE974E009950E940214E0
:1028900060938C0470938D0480938E0490938F04C6
:1028A0008091A20491E0811101C090E09093AF0467
:1028B000811106C06AE070E080E090E00C94C813DB
:1028C00008958F929F92AF92BF92CF92DF92EF9234
:1028D000FF92CF936B017C010E9402144B015C01BB
:1028E000C114D104E104F10441F4C0909004D090EB
:1028F0009104E0909204F09093040E94ED0BC82F95
:10290000811113C00E940214DC01CB0188199909BE
:10291000AA09BB09C816D906EA06FB0630F060E032
:1029200070E0CB010E94C813E8CF8C2FCF91FF90AD
:10293000EF90DF90CF90BF90AF909F908F900895D1
:102940001F920F920FB60F9211242F933F938F93E4
:102950009F93AF93BF938091160390911703A0911B
:102960001803B091190330911E0323E0230F2D3774
:1029700020F40196A11DB11D05C026E8230F029683
:10298000A11DB11D20931E0380931603909317037E
:10299000A0931803B093190380911F039091200313
:1029A000A0912103B09122030196A11DB11D809336
:1029B0001F0390932003A0932103B0932203BF91A0
:1029C000AF919F918F913F912F910F900FBE0F90DC
:1029D0001F901895CF93DF93CDB7DEB7A5970FB6AD
:1029E000F894DEBF0FBECDBF789484B5826084BDFD
:1029F00084B5816084BD85B5826085BD85B5816003
:102A000085BD80916E00816080936E001092810080
:102A1000809181008260809381008091810081603B
:102A200080938100809180008160809380008091FC
:102A300091008260809391008091910081608093E9
:102A40009100809190008160809390008091C100FE
:102A500084608093C1008091C10082608093C10036
:102A60008091C10081608093C1008091C30081602A
:102A70008093C3008091C00082608093C0008091E9
:102A8000C20081608093C20080917A00846080934C
:102A90007A0080917A00826080937A0080917A0037
:102AA000816080937A0080917A00806880937A00B8
:102AB00010921D0310923402109233028091D700BD
:102AC00081608093D70080EA8093D80089B58061C7
:102AD00089BD89B5826089BD09B400FEFDCF61E082
:102AE00070E080E090E00E94C8138091D8008F7C55
:102AF00080618093D8008091E000807F8093E00027
:102B00008091E1008E7E8093E1008DE08093E20071
:102B1000559A209A5D9828988FEF9FEF909399028D
:102B20008093980268E873E180E090E00E94C81307
:102B30006091BC047091BD046F5F7F4FE3E0660F4E
:102B4000771FEA95E1F78091BA049091BB040E9447
:102B5000EC1F9093BB048093BA042091BC04309185
:102B6000BD04B901F3E0660F771FFA95E1F7FC01A8
:102B7000E60FF71F05E713E011830083AFE6EA2EA7
:102B8000A3E0FA2EF382E28241E050E055834483D1
:102B9000178216822F5F3F4F3093BD042093BC04F1
:102BA000605F7F4F0E94EC1F9093BB048093BA0438
:102BB0004091BC045091BD049A01B3E0220F331F31
:102BC000BA95E1F7FC01E20FF31FF182E082138373
:102BD000028382E090E095838483178216824F5FA0
:102BE0005F4F5093BD044093BC0480914802811113
:102BF00045C010923A02109239028FEF80933D0245
:102C000080933E0280933F02809340028093410272
:102C10008093420281E08093430210924502109219
:102C2000440210923C0210923B0280915602909115
:102C30005702892B31F487E392E0909357028093F7
:102C40005602E0913502F0913602309721F087E389
:102C500092E09583848387E392E090933602809399
:102C60003502109247021092460282E391E090935F
:102C700038028093370281E0809348023E9A8CE5C7
:102C800092E090933A028093390280E190E0909331
:102C90004502809344028091DF029091E002A0916E
:102CA000E102B091E202843C29E09207A105B1055E
:102CB00020F484EC99E0A0E0B0E08093DF029093F0
:102CC000E002A093E102B093E20288EC8093DC0280
:102CD0008091D20489838091D3048A838091D40423
:102CE0008B83BE016F5F7F4F8DE694E00E94D70A11
:102CF0008091CF0489838091D0048A838091D1040C
:102D00008B83BE016F5F7F4F87E594E00E94D70AF7
:102D10008091CC0489838091CD048A838091CE04F4
:102D20008B83BE016F5F7F4F81E494E00E94D70ADE
:102D30008091C90489838091CA048A838091CB04DD
:102D40008B83BE016F5F7F4F8BE294E00E94D70AB6
:102D50008091D20489838091D3048A838091D404A2
:102D60008B83BE016F5F7F4F85E194E00E94D70A9D
:102D70008091CF0489838091D0048A838091D1048B
:102D80008B83BE016F5F7F4F8FEF93E00E94D70A66
:102D90008091CC0489838091CD048A838091CE0474
:102DA0008B83BE016F5F7F4F89EE93E00E94D70A4D
:102DB0008091C90489838091CA048A838091CB045D
:102DC0008B83BE016F5F7F4F83ED93E00E94D70A34
:102DD00063E070E085E194E00E94220B63E070E024
:102DE0008FEF93E00E94220B63E070E089EE93E0A6
:102DF0000E94220B63E070E083ED93E00E94220BBF
:102E000062E070E08DE694E00E94220B63E070E0E7
:102E100081E494E00E94220B83E092E00E94DF0BA9
:102E200086E10E947813BC01990F880B990B6115FC
:102E300071058105910511F00E941A1E83EC93E043
:102E40000E94160983EB93E00E94160983EA93E03F
:102E50000E94160983E993E00E94160960E082E16E
:102E60000E943C1360E083E10E943C1360E084E137
:102E70000E943C1360E085E10E943C1360E08BE11E
:102E80000E943C1360E08AE10E943C1360E089E10B
:102E90000E943C1360E088E10E943C131092F2040F
:102EA0001092F1041092F0041092EF041092EE04CC
:102EB0001092ED048DE991E09093F4048093F30473
:102EC0008091E30498EF980F943048F022EF280F98
:102ED000243028F026EE280F233008F04AC02DEBCE
:102EE00030E03093EE042093ED042BE931E0309391
:102EF000F0042093EF042CE231E03093F2042093AD
:102F0000F104943050F092EF980F943030F08A51E1
:102F1000833030F4A8E6B0E005C0A8E6B0E020C3F6
:102F2000A0E0B0E0833008F41BC3E0E0F0E0808173
:102F300081608C938091E30498EF980F943008F0AF
:102F4000F0C22BE630E03093EB042093EA04943097
:102F500008F0F4C29CEF980F81E001C0880F9A95A9
:102F6000EAF78093EC048091F3049091F4040197C4
:102F7000F1F78091F1049091F204892B49F1E091ED
:102F8000D504F091D60444E0E73DF40709F1309709
:102F900039F0A389B4899C918589809589238C9384
:102FA0008091F5048E7F8093F50410921A0310929D
:102FB0001B0387ED94E09093D6048093D504E091B1
:102FC000EA04F091EB0490818091EC04892B8083DA
:102FD00087E192E00E94CD0B8CE891E00E944F12B5
:102FE0008BE591E00E944F1287ED94E090938B0463
:102FF00080938A0481E08093A20460E070E08CE01A
:103000000E940E1460ED77E080E090E00E94611471
:1030100068EC70E080E090E00E94C8131092AE046B
:103020008091AA04843079F0893069F08AE491E0D3
:103030000E944F1289E291E00E944F128CE091E0D1
:103040000E944F12FFCF86EF90E00E944F126EE178
:1030500070E086E00E940E1460E070E088E40E9458
:103060000E1460E070E0CB010E946114882331F0FF
:103070001092AE048091AA048B3019F08FEF9FEF6D
:1030800004C08091AC049091AD0490938804809327
:1030900087048AE192E00E94CD0BC0908704D09013
:1030A00088040D2C000CEE08FF08F7FE25C06DE229
:1030B0008CE892E00E94790D22273327A9012C1970
:1030C0003D094E095F0919A28E010F5D1F4F6AE08D
:1030D000C62ED12CE12CF12CCA01B901A701960111
:1030E0000E94551E605DD8016E938D01211531053A
:1030F0004105510589F71AC0A701960119A28E0151
:103100000F5D1F4F9AE0C92ED12CE12CF12CCA0182
:10311000B901A70196010E94551E605DF8016293F6
:103120008F01211531054105510589F7C8010E941C
:10313000CD0B87E192E00E94CD0BE091B804F091B5
:10314000B9040480F581E02D309709F0099585E7F1
:1031500093E09093B9048093B804E0917503F091E3
:103160007603309709F00995812C84E0982EA12CE4
:10317000B12C332433948091B2040E9478132091AF
:10318000B4043091B504AC01421B530B9A0157FFB4
:1031900003C03195219531094091B6045091B7048F
:1031A0004217530794F49093B5048093B4042FE12D
:1031B00030E0DC010E94B01EA50194010E94231E94
:1031C000622F70E086E00E940E148DE694E00E946B
:1031D000600B87E594E00E94600B81E494E00E941C
:1031E000600B8BE294E00E94600B85E194E00E940A
:1031F000600B8FEF93E00E94600B89EE93E00E94DA
:10320000600B83ED93E00E94600B8091C2048111FA
:103210000CC03092C204E091B804F091B90401905E
:10322000F081E02D309709F00995E091B804F09114
:10323000B9040280F381E02D309709F00995E12C63
:10324000F12CC12CD12C8091C0049091C104C816DE
:10325000D9060CF04DC00091BE041091BF040E0DB4
:103260001F1DD8012D913C9111978091B804909128
:10327000B90428173907A9F518968D919D910D90DD
:10328000BC91A02D892B8A2B8B2B41F40E94021418
:10329000F801608771878287938723C00E94021498
:1032A000D80118964D905D906D907C901B97DC0135
:1032B000CB0184199509A609B709F80144845584FE
:1032C0006684778484159505A605B70550F0C80176
:1032D0000E94690BD80118961D921D921D921C9296
:1032E0001B97BFEFCB1ADB0AE0E1EE0EF11CABCF70
:1032F0000E94ED0B882361F080918904882341F0BE
:103300001092AE048091AA04853011F410928904C1
:10331000F090DC028091DF029091E002A091E10246
:10332000B091E202892B8A2B8B2BE9F00E94A31328
:10333000009158021091590220915A0230915B027B
:10334000DC01CB01801B910BA20BB30B0091DF02C0
:103350001091E0022091E1023091E2028017910782
:10336000A207B307B8F20E94A313609358027093A8
:10337000590280935A0290935B02E091E702F09128
:10338000E802309759F04091E3025091E4026091D5
:10339000E5027091E6028F2D0995F82E00915602F4
:1033A000109157024F2C512C612C712C01151105D5
:1033B00009F469C0D8011C96EC901C978091DD023D
:1033C0009091DE028436910510F41C961C92D8016F
:1033D000ED91FC91428153815DA34CA319821A8225
:1033E0001B82F11019C0D8011D964D915C911E975A
:1033F00012966D917C9113979E012F5F3F4FC801EC
:10340000ECA1FDA10995D8011C96EC921C9714968D
:103410000D911C911597CACFF8013696AE014F5FFA
:103420005F4F6A01C80109969BA38AA321912223B9
:1034300009F122802220F1F0822F90E0A0E0B0E09C
:103440009C01AD012F5F3F4F4F4F5F4FC301B20152
:103450000E94861E9B01AC01822D90E0A0E0B0E0AE
:10346000BC01CD016F5F7F4F8F4F9F4F0E94861E23
:10347000D6018C93BFEFCB1ADB0A4AA15BA14E1792
:103480005F07A1F6B0CF80915402909155028C0154
:103490000F5F1F4F109355020093540249979CF100
:1034A0000E9402142B013C0188EE93E0089FB001BA
:1034B000099F700D189F700D1124072E000C880BAA
:1034C000990BC0905002D0905102E0905202F090BF
:1034D0005302A30192012C193D094E095F090E9474
:1034E000551E3093DE022093DD0210925502109299
:1034F00054020E9402146093500270935102809310
:1035000052029093530260E170E080E090E00E94EC
:10351000C813A0E0B0E0AB2B09F42DCE0E94000050
:103520002ACE22EF280F243008F40BCD26EE280FE8
:10353000233008F406CD20E030E005CD8E3041F098
:103540008F3041F0803141F0813141F09AEE03CD6E
:1035500088E007CD82E005CD84E003CD81E001CD98
:10356000E8E6F0E0E4CC0F931F93CF9310928F0224
:1035700010928E0288EE93E0A0E0B0E0809390027B
:1035800090939102A0939202B093930225E431E0CC
:1035900030938D0220938C022FEF3FEF30939902EE
:1035A000209398021092DA041092D9048093DB04DD
:1035B0009093DC04A093DD04B093DE0480E891E0F6
:1035C0009093D8048093D7041092EE041092ED04E7
:1035D0001092F0041092EF041092F2041092F10491
:1035E0001092F4041092F3046091F5046E7F6D7FE5
:1035F0006093F5046695617081E068278BE00E9416
:10360000F51C61E08BE00E943C13EDE2F2E0E491F6
:10361000E093E704EEE0F2E0E491F0E0EE0FFF1F4C
:10362000EB50FE4F859194919093E9048093E804C8
:1036300060E08AE00E943C138091F50481FD04C0A3
:1036400061E08AE00E94F51C8AE08093E304ECE2EA
:10365000F2E0E491E093E404EDE0F2E0E491F0E0E4
:10366000EE0FFF1FE951FE4F859194919093E60470
:103670008093E50489EE92E00E94D91C1092D20456
:1036800080E88093D3041092D404CFEFC093CF048A
:103690001092D0041092D104C093CC04C093CD04F6
:1036A0001092CE041092C9041092CA04C093CB04A5
:1036B0001092C4041092C3041092C6041092C50460
:1036C0001092C8041092C70483EC94E09093B9045C
:1036D0008093B8041092BB041092BA041092BD04F7
:1036E0001092BC041092C1041092C0041092C20443
:1036F00088E791E09093B1048093B00487E190E073
:103700009093B3048093B2040CE010E01093B704DC
:103710000093B6041092B5041092B40460E00E94C5
:103720003C1380E791E090938404809383048AE8BB
:1037300094E00E94D91C88E691E090936E048093F7
:103740006D0421E030E03093700420936F0443E077
:1037500050E0509372044093710490935804809306
:10376000570464E070E070935A04609359045093D6
:103770005C0440935B04909342048093410469E0AD
:1037800070E0709344046093430450934604409364
:10379000450490932C0480932B0410932E040093E3
:1037A0002D045093300440932F049093160480937B
:1037B0001504109218041092170430931A042093E1
:1037C0001904909300048093FF0347E050E0509366
:1037D0000204409301043093040420930304909363
:1037E000EA038093E90348E050E05093EC034093F0
:1037F000EB033093EE032093ED039093D403809377
:10380000D3038FE090E09093D6038093D503309359
:10381000D8032093D70382E18093C30389E190E02A
:10382000A0E0B0E08093C4039093C503A093C603C7
:10383000B093C70323E12093B3038093B403909321
:10384000B503A093B603B093B70324E12093A30379
:103850008093A4039093A503A093A603B093A7031A
:1038600025E1209393038093940390939503A09371
:103870009603B0939703A091D304F091D404E09100
:10388000CF047091D0046091D1045091CC04409148
:10389000CD043091CE042091C9049091CA04809146
:1038A000CB04B091D204B0937B03A0937C03F0933C
:1038B0007D03E0937E0370937F03609380035093B6
:1038C0008103409382033093830320938403909376
:1038D00085038093860382E696E090937603809337
:1038E000750389E596E090937803809377031092AF
:1038F0007A031092790387EA91E0909370038093A2
:103900006F0381E497E090937203809371031092A8
:10391000740310927303C093DC021092DE021092C3
:10392000DD021092E8021092E7028FEF9FEFDC01B8
:103930008093E3029093E402A093E502B093E60241
:10394000CF911F910F910895DF92EF92FF920F9305
:103950001F93CF93DF93D82EF92EE42E062F10E07D
:10396000C8010196880F0E94ED0C83E00E94ED0CC7
:10397000CD2DDF2D0C0F1D1FC017D10789F0E7FEDD
:1039800003C0FE01849101C088810E94ED0CF82ED5
:1039900080E00E94ED0C8F2121968111EDCF01C0B6
:1039A00081E0DF91CF911F910F91FF90EF90DF9019
:1039B0000895CF93DF93EC0184EF91E0A0E0B0E0B5
:1039C0008E839F83A887B9878AE0E3E5F1E0DE0173
:1039D000549601900D928A95E1F71E8E82E08F8FAA
:1039E0001CA21DA2DF91CF910895362F90E0FC011B
:1039F000E353FD4F4491FC01EE5DFD4F2491FC012A
:103A0000ED5FFD4F8491882309F452C04423E1F116
:103A100050E0FA013197EF30F105B0F5E459FF4F6E
:103A20000C94AA1E909180009F7707C0909180000F
:103A30009F7D03C090918000977F9093800024C069
:103A400094B59F7702C094B59F7D94BD1DC09091A1
:103A500090009F7707C0909190009F7D03C0909148
:103A60009000977F909390000FC09091C0009F7737
:103A700003C09091C0009F7D9093C00005C09091BD
:103A8000C200977F9093C200E82FF0E0EE0FFF1F77
:103A9000EB50FE4FA591B4919FB7F894311104C03B
:103AA0008C912095282302C0EC912E2B2C939FBF44
:103AB00008958091BA049091BB040E94631F809185
:103AC000BE049091BF040E94631F80E891E0909330
:103AD000D8048093D7048091D5049091D604875D53
:103AE000944071F4E091EA04F091EB0490818091AC
:103AF000EC048095892380831092D6041092D5041B
:103B000008958F929F92AF92BF92CF92DF92EF92E1
:103B1000FF92CF93DF93EC01688179818A819B8149
:103B2000611571058105910521F464E279ED8BE55C
:103B300097E02DE133EF41E050E00E94231E490160
:103B40005A019B01AC01A7EAB1E40E94421E6B013D
:103B50007C01ACEEB4EFA50194010E94501EDC0183
:103B6000CB018C0D9D1DAE1DBF1DB7FF03C001977E
:103B7000A109B04888839983AA83BB83BC01CD0186
:103B80009F77DF91CF91FF90EF90DF90CF90BF9024
:103B9000AF909F908F9008958F929F92AF92BF9217
:103BA000CF92DF92EF92FF9260910C0170910D0124
:103BB00080910E0190910F016115710581059105AC
:103BC00021F464E279ED8BE597E02DE133EF41E0FC
:103BD00050E00E94231E49015A019B01AC01A7EA53
:103BE000B1E40E94421E6B017C01ACEEB4EFA50172
:103BF00094010E94501EDC01CB018C0D9D1DAE1D59
:103C0000BF1DB7FF03C00197A109B04880930C0105
:103C100090930D01A0930E01B0930F01BC01CD0153
:103C20009F77FF90EF90DF90CF90BF90AF909F90E5
:103C30008F90089560930C0170930D0180930E0195
:103C400090930F010895052E97FB1EF400940E9497
:103C50003A1E57FD07D00E94551E07FC03D04EF4B4
:103C60000C943A1E50954095309521953F4F4F4FFB
:103C70005F4F089590958095709561957F4F8F4F18
:103C80009F4F08950E94771EA59F900DB49F900DA1
:103C9000A49F800D911D11240895B7FF0C94421E1E
:103CA0000E94421E821B930B0895A1E21A2EAA1BAA
:103CB000BB1BFD010DC0AA1FBB1FEE1FFF1FA217DC
:103CC000B307E407F50720F0A21BB30BE40BF50BD9
:103CD000661F771F881F991F1A9469F76095709562
:103CE000809590959B01AC01BD01CF010895A29FE5
:103CF000B001B39FC001A39F700D811D1124911DC0
:103D0000B29F700D811D1124911D0895DB018F93C9
:103D10009F930E94421EBF91AF91A29F800D911D63
:103D2000A39F900DB29F900D1124089597FB072E2D
:103D300016F4009407D077FD09D00E94B71E07FC47
:103D400005D03EF4909581959F4F089570956195AB
:103D50007F4F0895EE0FFF1F0590F491E02D099419
:103D60000E94771EB7FF0895821B930B0895AA1B2C
:103D7000BB1B51E107C0AA1FBB1FA617B70710F056
:103D8000A61BB70B881F991F5A95A9F78095909588
:103D9000BC01CD0108950F931F93CF93DF93823021
:103DA000910510F482E090E0E091F804F091F904BC
:103DB00020E030E0A0E0B0E0309719F1408151817F
:103DC0000281138148175907C8F08417950769F4D1
:103DD000109731F012960C93129713961C9327C0EC
:103DE0000093F8041093F90422C02115310519F04D
:103DF0004217530718F49A01BD01EF01DF01F801E2
:103E0000DBCF21153105F9F0281B390B24303105A2
:103E100080F48A819B816115710521F0FB019383F8
:103E2000828304C09093F9048093F804FE013296D3
:103E300044C0FE01E20FF31F819391932250310998
:103E4000398328833AC02091F6043091F704232B5C
:103E500041F420911201309113013093F704209323
:103E6000F60420911001309111012115310541F422
:103E70002DB73EB74091140150911501241B350B0D
:103E8000E091F604F091F704E217F307A0F42E1B7B
:103E90003F0B2817390778F0AC014E5F5F4F2417AE
:103EA000350748F04E0F5F1F5093F7044093F60418
:103EB0008193919302C0E0E0F0E0CF01DF91CF91D8
:103EC0001F910F910895CF93DF93009709F481C05C
:103ED000FC01329713821282A091F804B091F90488
:103EE000109781F420813181820F931F2091F60475
:103EF0003091F7042817390751F5F093F704E09350
:103F0000F60467C0ED0120E030E0CE17DF0740F493
:103F10004A815B819E0141155105F1F0EA01F5CF1F
:103F2000D383C28340815181840F951FC817D9075D
:103F300059F488819981840F951F0296918380831B
:103F40008A819B81938382832115310529F4F09323
:103F5000F904E093F8043DC0E901FB83EA83499149
:103F60005991C40FD51FEC17FD0761F48081918131
:103F7000840F951F0296E90199838883828193813A
:103F80009B838A83E0E0F0E012968D919C911397D9
:103F9000009719F0FD01DC01F7CF8D919C911197ED
:103FA0009D012E5F3F4F820F931F2091F6043091A9
:103FB000F7042817390769F4309729F41092F904A7
:103FC0001092F80402C013821282B093F704A093F7
:103FD000F604DF91CF910895A0E0B0E0E2EFFFE1B9
:103FE0000C94C420EC01009721F4CB010E94CB1E5D
:103FF000B4C0FC01E60FF71F9C0122503109E21703
:10400000F30708F4A8C0D9010D911C911197061768
:104010001707B0F00530110508F49BC0C8010497DC
:104020008617970708F495C002501109061B170B55
:10403000019311936D937C93CF010E94631F89C0FC
:104040005B01A01AB10A4C01800E911EA091F804E8
:10405000B091F904612C712CE12CF12C109709F42A
:1040600046C08D919C911197A815B905B1F56C01C9
:1040700042E0C40ED11CCA14DB0478F14C018A184A
:104080009B08640142E0C40ED11C1296BC901297AA
:104090001396AC91B5E0CB16D10440F0B282A38365
:1040A00091828082D9016D937C9309C00E5F1F4F6E
:1040B000800F911FF90191838083EB2DFA2FE1147A
:1040C000F10431F0D7011396FC93EE93129741C09F
:1040D000F093F904E093F8043CC06816790608F4FC
:1040E0003C017D0112960D90BC91A02DB7CF80911F
:1040F000F6049091F70488169906E1F4661677069F
:10410000C8F48091100190911101009741F48DB78E
:104110009EB74091140150911501841B950BE8172F
:10412000F907C8F4F093F704E093F604F9017183FA
:1041300060830FC0CB010E94CB1E7C01009759F019
:10414000A801BE010E94B720CE010E94631FC701D3
:1041500004C0CE0102C080E090E0CDB7DEB7EEE053
:104160000C94E02081E090E0F8940C94F720FB019F
:10417000DC0102C001900D9241505040D8F70895E3
:104180002F923F924F925F926F927F928F929F9267
:10419000AF92BF92CF92DF92EF92FF920F931F9355
:1041A000CF93DF93CDB7DEB7CA1BDB0B0FB6F89406
:1041B000DEBF0FBECDBF09942A88398848885F8446
:1041C0006E847D848C849B84AA84B984C884DF80B7
:1041D000EE80FD800C811B81AA81B981CE0FD11D9B
:1041E0000FB6F894DEBF0FBECDBFED01089511E00C
:1041F000C7E7D1E004C0FE010E94AA1E2196C8377D
:08420000D107C9F7F894FFCFC4
:10420800FFFFFFFF00E100000000000001000000C8
:104218000000FA042000003131295A1B750A0000F9
:104228000000B80DB80DB80DA801CC01D0010000F0
:10423800000016055905A501A801CC01A201D3016A
:10424800C800000000790DEC0D720E8F0D9A0D9AC2
:104258000E760E7EFF06000100000000EF00C18010
:104268008100000000000000F308F10800000000D1
:104278006C11BA0E000000006D11B80E00000000AD
:10428800C6114F0DB50DC51116122E12AD1147727C
:1042980065656E005265640059656C6C6F770063E4
:1042A80068616E67652074686520626F617264007A
:1042B80077697265427574746F6E20300077697221
:1042C80065427574746F6E20310077697265427546
:1042D80074746F6E20320077697265427574746FFA
:1042E8006E203300636F6D706C65746564206D615A
:1042F8007000676F20746F20737461727420676137
:104308006D65002053746172742075702061637448
:10431800697669746979000D0A0066696C652063BD
:084328006F756E74203D20004A
:00000001FF
