:100000000C94C4000C94EC000C94EC000C94EC00E8
:100010000C94EC000C94EC000C94EC000C94EC00B0
:100020000C94EC000C94EC000C9445080C94B7086C
:100030000C94EC000C94EC000C94EC000C94EC0090
:100040000C94EC000C94EC000C94EC000C94EC0080
:100050000C94EC000C94EC000C94EC000C94FB075A
:100060000C94EC000C94EC000C94EC000C94EC0060
:100070000C94EC000C94EC000C94EC000C94EC0050
:100080000C94EC000C94EC000C94EC000C94EC0040
:100090000C94EC000C94EC000C94EC000C94EC0030
:1000A0000C94EC000C94EC000C94EC000403090498
:1000B00012010002EF0201404123378000010102DA
:1000C000030141726475696E6F204C4C43004172AC
:1000D0006475696E6F204D6963726F0007060504D1
:1000E0000100080A0B0C0D09000000002500280083
:1000F0002B002E00310000000000240027002A0001
:100100002D0030000404040404030405020202026A
:1001100004030202020206060606060604040202A0
:100120000204040408020110408040102040804076
:10013000800802040180402010020110801020403D
:100140004020080B00020202010009040000010225
:10015000020000052400100105240101010424020D
:10016000060524060001070581031000400904016B
:1001700000020A0000000705020240000007058394
:1001800002400000DA13D71411241FBECFEFDAE0CB
:10019000DEBFCDBF11E0A0E0B1E0EAE5F2E302C0CE
:1001A00005900D92A438B107D9F723E0A4E8B1E097
:1001B00001C01D92A235B207E1F710E0C3ECD0E018
:1001C00004C02197FE010E942916C23CD107C9F73D
:1001D0000E94E70F0C9420190C94000080E991E034
:1001E00008953E9A08950895CF93DF9300D000D0EC
:1001F00000D0CDB7DEB7AB011C821D821E82DC01B0
:10020000ED91FC910190F081E02D19821A821B8200
:100210009E012F5F3F4FBE016C5F7F4F0995269671
:100220000FB6F894DEBF0FBECDBFDF91CF9108951A
:10023000FC0185859685089580E090E008954F92B1
:100240005F926F927F928F92AF92BF92CF92DF9226
:10025000EF920F931F93CF93DF933C01EB010E942A
:10026000100DF30127853089621B730B6A3071050D
:10027000B0F3F894E881F98178B1706468B16F7B6C
:1002800068B9CB8488852C2D281B822F2887BF84B2
:100290004A805B801E850C85DD841F5F0F5FD394D1
:1002A0009E813F81A984EA844281D20120E0C32F4C
:1002B000522F322F3281442788943111380F08F49D
:1002C0003FEF8195889410FD430F4795889411FD69
:1002D000430F4795889412FD430F4795889413FD6B
:1002E000430F4795889414FD430F4795889415FD57
:1002F000430F4795889416FD430F4795889417FD43
:10030000430F47958894232F1111242F8C0D422FD2
:10031000002C78B900C000C000C047FF68B9308128
:100320002227889400C000C000C000C000C000C0E8
:1003300000C0002C00C000C068B93111390F00C0E6
:1003400000C0002C78B900C000C000C046FF68B9EA
:1003500008F43FEF9195889400C000C000C000C031
:1003600000C000C000C0002C00C000C068B900FD83
:10037000230F00C000C0002C78B900C000C000C02E
:1003800045FF68B92795889401FD230F00C000C080
:1003900000C000C000C000C000C0002C00C000C0F1
:1003A00068B92795889400C000C0002C78B900C0B7
:1003B00000C000C044FF68B902FD230F2795889450
:1003C00000C000C000C000C000C000C000C0002CC1
:1003D00000C000C068B903FD230F00C000C0002C9E
:1003E00078B900C000C000C043FF68B92795889461
:1003F00004FD230F00C000C000C000C000C000C04A
:1004000000C0002C00C000C068B92795889400C0C7
:1004100000C0002C78B900C000C000C042FF68B91D
:1004200005FD230F2795889400C000C000C000C0C0
:1004300000C000C000C0002C00C000C068B906FDAC
:10044000230F00C000C0002C78B900C000C000C05D
:1004500041FF68B92795889407FD230F00C000C0AD
:1004600000C000C000C000C000C0002C00C000C020
:1004700068B92795889400C000C0002C78B900C0E6
:1004800000C000C040FF68B9432F0111422F9A0DF0
:1004900000C000C000C000C000C000C000C0002CF0
:1004A00000C000C068B900C000C000C0002C78B90E
:1004B00000C000C000C047FF68B93181222788947E
:1004C00000C000C000C000C000C000C000C0002CC0
:1004D00000C000C068B931113C0F00C000C0002C42
:1004E00078B900C000C000C046FF68B908F43FEF0B
:1004F000EB0DF11D00C000C000C000C000C000C076
:1005000000C0002C00C000C068B9D0FC230F00C0A0
:1005100000C0002C78B900C000C000C045FF68B919
:1005200027958894D1FC230F00C000C000C000C0F4
:1005300000C000C000C0002C00C000C068B92795F2
:10054000889400C000C0002C78B900C000C000C072
:1005500044FF68B9D2FC230F2795889400C000C0DF
:1005600000C000C000C000C000C0002C00C000C01F
:1005700068B9D3FC230F00C000C0002C78B900C0BC
:1005800000C000C043FF68B927958894D4FC230FAE
:1005900000C000C000C000C000C000C000C0002CEF
:1005A00000C000C068B92795889400C000C0002C26
:1005B00078B900C000C000C042FF68B9D5FC230F65
:1005C0002795889400C000C000C000C000C000C0D3
:1005D00000C0002C00C000C068B9D6FC230F00C0CA
:1005E00000C0002C78B900C000C000C041FF68B94D
:1005F00027958894D7FC230F00C000C000C000C01E
:1006000000C000C000C0002C00C000C068B9279521
:10061000889400C000C0002C78B900C000C000C0A1
:1006200040FF68B9432FD110422FC19500C000C0D0
:1006300000C000C000C000C000C0002C00C000C04E
:1006400068B9CE0D00C000C000C078B900C000C0BD
:1006500000C047FF68B932812227889400C000C0DB
:1006600000C000C000C000C000C0002C00C000C01E
:1006700068B93111380F00C000C0002C78B900C033
:1006800000C000C046FF68B908F43FEF8195889428
:1006900000C000C000C000C000C000C000C0002CEE
:1006A00000C000C068B910FD230F00C000C0002CBE
:1006B00078B900C000C000C045FF68B9279588948C
:1006C00011FD230F00C000C000C000C000C000C06A
:1006D00000C0002C00C000C068B92795889400C0F5
:1006E00000C0002C78B900C000C000C044FF68B949
:1006F00012FD230F2795889400C000C000C000C0E1
:1007000000C000C000C0002C00C000C068B913FDCC
:10071000230F00C000C0002C78B900C000C000C08A
:1007200043FF68B92795889414FD230F00C000C0CB
:1007300000C000C000C000C000C0002C00C000C04D
:1007400068B92795889400C000C0002C78B900C013
:1007500000C000C042FF68B915FD230F279588949B
:1007600000C000C000C000C000C000C000C0002C1D
:1007700000C000C068B916FD230F00C000C0002CE7
:1007800078B900C000C000C041FF68B927958894BF
:1007900017FD230F00C000C000C000C000C000C093
:1007A00000C0002C00C000C068B92795889400C024
:1007B00000C0002C78B900C000C000C040FF68B97C
:1007C000432F1111422F8C0D00C000C000C000C08B
:1007D00000C000C000C0002C00C000C068B900C04C
:1007E000119709F096CD20EC33E0D2010E940E164D
:1007F000DC01CB01F4E0B695A79597958795FA951E
:10080000D1F720E030E0B901EAE94E9E040C611D09
:100810005E9E600D711D1124650D711D860F971F61
:10082000A11DB11D893E43E09407A105B10508F45F
:1008300034C0885E9340A109B10942E0B695A795FE
:10084000979587954A95D1F747E0849F080E211D1B
:10085000949F200D311D1124290F311D6091A50198
:1008600070E0860F971F820F931F4091D601509121
:10087000D7016091D8017091D901292F3327420FF8
:10088000531F611D711D4093D6015093D701609392
:10089000D8017093D9018093A50178940E94100D1E
:1008A000F301708B6787DF91CF911F910F91EF90CC
:1008B000DF90CF90BF90AF908F907F906F905F90C0
:1008C0004F9008950F931F93CF93DF93CDB7DEB76B
:1008D00062970FB6F894DEBF0FBECDBF8C01F90151
:1008E000DC011C968C917A8369835C834B835E83E5
:1008F0004D8390819D8791819E8792819F878130D2
:1009000029F4CE0101960E94A80F06C01C861B8602
:100910001A86198618861F82188A1A8A198AD80197
:10092000ED91FC910484F585E02DBE016F5F7F4F52
:10093000C801099562960FB6F894DEBF0FBECDBF11
:10094000DF91CF911F910F9108950F931F93CF9334
:10095000DF93CDB7DEB762970FB6F894DEBF0FBE58
:10096000CDBF8C01F901DC011C968C917A836983DF
:100970005C834B835E834D8390819D8791819E87AD
:1009800092819F87813029F4CE0101960E94A80FA1
:1009900006C01C861B861A86198618861F8283E06D
:1009A000888B1A8A198AD801ED91FC910484F58507
:1009B000E02DBE016F5F7F4FC801099562960FB6AB
:1009C000F894DEBF0FBECDBFDF91CF911F910F9185
:1009D0000895AF92BF92CF92DF92EF92FF920F9362
:1009E0001F93CF93DF93EC018B018BE10E94E50C09
:1009F0005C01BC01990F880B990B0E9467166093EC
:100A00008C0170938D0180938E0190938F018AE108
:100A10000E94E50C6C01BC01990F880B990B0E9498
:100A20006716609388017093890180938A0190937F
:100A30008B0189E10E94E50C7C01BC01990F880BB8
:100A4000990B0E94671660938401709385018093CF
:100A500086019093870188E10E94E50C980124515A
:100A60003109A216B30634F0A8014C5E5F4F4A1557
:100A70005B0594F4C216D306C4F0A8014C5E5F4F28
:100A80004C155D0594F080912B03888380912C0395
:100A9000898380912D032BC080912E0388838091C0
:100AA0002F0389838091300322C0E216F3067CF085
:100AB000A8014C5E5F4F4E155F054CF080912803F6
:100AC000888380912903898380912A0310C082172B
:100AD00093077CF00C5E1F4F0817190754F08091A4
:100AE00025038883809126038983809127038A8345
:100AF00003C0188219821A82CE01DF91CF911F9113
:100B00000F91FF90EF90DF90CF90BF90AF9008953E
:100B10004F925F926F927F928F929F92AF92BF920D
:100B2000EF92FF920F931F93CF93DF9300D01F920A
:100B3000CDB7DEB782E10E94E50C8C01BC01990FB4
:100B4000880B990B0E9467162B013C016093A10151
:100B50007093A2018093A3019093A40183E10E946A
:100B6000E50C7C01BC01990F880B990B0E9467165C
:100B70004B015C0160939D0170939E0180939F01E6
:100B80009093A00184E10E94E50CBC01990F880BB1
:100B9000990B0E9467166093990170939A01809354
:100BA0009B0190939C0185E10E94E50CBC01990F8B
:100BB000880B990B0E9467166093950170939601BC
:100BC000809397019093980120E030E048E452E44C
:100BD000C301B2010E94CB16181604F5B801CE016C
:100BE00001960E94E904998180916C02981313C0C8
:100BF0009A8180916D0298130EC090916E028B8144
:100C0000981309C063E070E082E093E00E94120C48
:100C100001E010E00DC062E070E004C010929401A9
:100C200061E070E082E093E00E94120C00E010E0CE
:100C300020E030E048E452E4C501B4010E94CB1644
:100C4000181604F5B701CE0101960E94E9049091AF
:100C50006F028981981313C0909170028A81981352
:100C60000EC0909171028B81981309C063E070E00F
:100C700080EF92E00E94120C0F5F1F4F0BC062E0EA
:100C800070E004C01092940161E070E080EF92E0A7
:100C90000E94120C8090990190909A01A0909B0163
:100CA000B0909C0120E030E048E452E4C501B4017A
:100CB0000E94CB1618161CF5C501B4010E942F1610
:100CC000CE0101960E94E9049091720289819813E5
:100CD00013C0909173028A8198130EC09091740290
:100CE0008B81981309C063E070E08EED92E00E9462
:100CF000120C0F5F1F4F0BC062E070E004C0109237
:100D0000940161E070E08EED92E00E94120C809000
:100D1000950190909601A0909701B090980120E0E5
:100D200030E048E452E4C501B4010E94CB16181625
:100D30001CF5C501B4010E942F16CE0101960E9438
:100D4000E904909175028981981313C090917602FD
:100D50008A8198130EC0909177028B81981309C0F5
:100D600063E070E08CEC92E00E94120C0F5F1F4F6A
:100D70000BC062E070E004C01092940161E070E08A
:100D80008CEC92E00E94120C80919401811110C0B1
:100D90000430110569F481E0809394010E946F0D85
:100DA00060939001709391018093920190939301CD
:100DB000809194018823E9F00E946F0D00919001C9
:100DC000109191012091920130919301DC01CB01AE
:100DD000801B910BA20BB30B89399A43A105B10576
:100DE00040F080911E03882321F082E090E00E9471
:100DF000BC0D0F900F900F90DF91CF911F910F912D
:100E0000FF90EF90BF90AF909F908F907F906F90EA
:100E10005F904F90089580911E03882321F081E018
:100E200090E00C94BC0D0895CF92DF92EF92FF9268
:100E30000F931F93CF93DF9300D01F92CDB7DEB7F0
:100E40008BE591E00E94480C0CE612E094E0C92E7C
:100E5000D12CE12CF12C0E943015A70196010E94A3
:100E60008715FB01EE0FFF1F6E0F7F1FFB01E4597B
:100E7000FD4F208191818281D8013C913083119670
:100E80003C911197318312963C91129732832C93A7
:100E900011969C93119712968C930D5F1F4FB2E0A1
:100EA00008371B07C1F680916C02898380916D021F
:100EB0008A8380916E028B83BE016F5F7F4F8AEBC6
:100EC00092E00E94F10B80916F0289838091700201
:100ED0008A83809171028B83BE016F5F7F4F88EAA6
:100EE00092E00E94F10B80917202898380917302DB
:100EF0008A83809174028B83BE016F5F7F4F86E986
:100F000092E00E94F10B80917502898380917602B4
:100F10008A83809177028B83BE016F5F7F4F84E865
:100F200092E00E94F10B80916C02898380916D02A6
:100F30008A8380916E028B83BE016F5F7F4F82E058
:100F400093E00E94F10B80916F028983809170027F
:100F50008A83809171028B83BE016F5F7F4F80EF28
:100F600092E00E94F10B809172028983809173025A
:100F70008A83809174028B83BE016F5F7F4F8EEDF9
:100F800092E00E94F10B8091750289838091760234
:100F90008A83809177028B83BE016F5F7F4F8CECD9
:100FA00092E00E94F10B109294010F900F900F901D
:100FB000DF91CF911F910F91FF90EF90DF90CF9035
:100FC00008950C948C1708954091000150910101EF
:100FD00025E038E0429FC001439F900D529F900D45
:100FE0001124875E994C9093010180930001890F31
:100FF00008950E94DB181F920F920FB60F921124D2
:101000002F933F938F939F93AF93BF938091D6017C
:101010009091D701A091D801B091D9013091D5011B
:1010200023E0230F2D3720F40196A11DB11D05C02B
:1010300026E8230F0296A11DB11D2093D5018093B0
:10104000D6019093D701A093D801B093D901809194
:10105000DA019091DB01A091DC01B091DD010196F4
:10106000A11DB11D8093DA019093DB01A093DC01F7
:10107000B093DD01BF91AF919F918F913F912F91DF
:101080000F900FBE0F901F9018951F920F920FB6E2
:101090000F9211248F939F938091E1009091E10032
:1010A000937F9093E10083FF0FC01092E90091E0DD
:1010B0009093EB001092EC0092E39093ED0010926D
:1010C000DF0198E09093F00082FF20C093E09093BE
:1010D000E9009091F200992319F09AE39093E800C7
:1010E0009091AA01992339F09091AA01915090937F
:1010F000AA01992389F19091DE01992339F0909109
:10110000DE0191509093DE01992341F184FF10C0DC
:101110008091E2008E7E81608093E2008091E10008
:101120008F7E8093E1008091AB018E7E806111C043
:1011300080FF16C08091E2008E7E80618093E20085
:101140008091E1008E7E8093E1008091AB018E7EE4
:1011500081608093AB0104C05D98CDCF2898D6CF35
:101160009F918F910F900FBE0F901F9018951F9217
:101170000F920FB60F921124CF92DF92EF92FF924F
:101180000F931F932F933F934F935F936F937F938F
:101190008F939F93AF93BF93EF93FF93CF93DF937F
:1011A000CDB7DEB76C97DEBFCDBF1092E90080915E
:1011B000E80083FFFBC168E0CE0145960E949B0FCB
:1011C00082EF8093E8008D8987FF05C09091E80049
:1011D00090FFFCCF03C09EEF9093E800982F90768D
:1011E00009F0C6C09E894F89588D2F89F88C9111BE
:1011F0000CC0803829F48091AD018093F10002C0C9
:101200001092F1001092F10045C1913051F481111A
:1012100041C14130510509F03DC18091AD018D7F43
:101220000BC0933061F4811135C14130510509F093
:1012300031C18091AD0182608093AD012BC19530A9
:1012400049F48091E80080FFFCCF822F8068809372
:10125000E30020C1963009F05EC00B8D1C8D22E0AA
:101260001092E9001092A9011092A801F21232C066
:101270001092A7011092A6010E94690F99E0BE0189
:101280006F5F7F4FDB01E92F1D92EA95E9F79983A4
:10129000FA8291E09E8390EA98879AEF998720914D
:1012A000A8013091A901275F3F4F3C832B838D8399
:1012B0001092E9001092A9011092A8011093A701C1
:1012C0000093A60149E050E080E00E94420F0E9496
:1012D000690FE0C01093A7010093A6010E94D10CF2
:1012E000DC0112960D911C9113970115110509F45B
:1012F000BBC0D801ED91FC910480F581E02DBE01C9
:101300006B5E7F4FC8010995009709F0C7C0F801CF
:1013100000851185EACF973009F445C1983021F452
:1013200081E08093F100B6C0993009F0B3C08370BA
:1013300009F039C1E9E1F1E081E031E096E3208193
:10134000211109C08EE78093EA001092EA008F898C
:101350008093DF019FC08093E9003093EB002191DF
:101360002093EC009093ED008F5F873041F7EACF38
:101370008B8D9C8D1092E9001092A9011092A8010A
:101380009093A7018093A601898D811153C08E8906
:101390009D89913A49F4813209F005C147E050E056
:1013A00066E071E080E0BBC0913209F0FCC083329E
:1013B00069F48F89988DA0E0B0E08093020190934A
:1013C0000301A0930401B093050164C0803269F465
:1013D0008091E80082FFFCCF67E086E091E00E9408
:1013E0009B0F8BEF8093E80055C0823209F052C00A
:1013F0008F8980930D01EEEFFFE7859194918B3FEC
:101400009C4D19F0E0E0F8E002C0EEEFFAE08091C8
:10141000060190910701A0910801B0910901803B5C
:101420009440A105B10509F09EC080910D0180FF97
:1014300079C099C00E94D10CFC0102811381011571
:10144000110509F4B0C0D801ED91FC910190F08133
:10145000E02DBE016B5E7F4FC801099581111AC056
:10146000F80100851185EBCFF1E0FF1609F44EC0BD
:10147000F3E0FF1298C08F89882309F44AC08230B4
:1014800089F440E86DE08EEC90E00E94A21488237D
:1014900009F489C08EEF8093E80088C018161906F9
:1014A000CCF381C0813029F440E86BE082EC90E01D
:1014B000ECCF833009F077C00E94D10CDC0112968A
:1014C000ED90FC9013978E010F5F1F4F6801E114A0
:1014D000F10479F0D701ED91FC910680F781E02DC0
:1014E000B801C7010995080F111DF701E084F184C7
:1014F000EECFD8011C92F60101900020E9F7319758
:10150000BF016C197D0940E0C601BFCF60EB70E000
:1015100002C06CEA70E0FB01449150E080E80E9458
:10152000420FB8CFEE3F2AE0F20751F0808191815F
:101530008737A7E79A0721F09093FF0A8093FE0A66
:1015400087E797E791838083809160008093AC0167
:101550009BE088E10FB6F894A895809360000FBED9
:101560009093600097CF808191818737974709F0EA
:1015700091CFA895809160008861809360008091F0
:10158000AC0180936000EE3FBAE0FB0739F0809138
:10159000FE0A9091FF0A918380837CCF1092FF0A0C
:1015A0001092FE0A77CF81E28093EB006C960FB623
:1015B000F894DEBF0FBECDBFDF91CF91FF91EF91C9
:1015C000BF91AF919F918F917F916F915F914F915B
:1015D0003F912F911F910F91FF90EF90DF90CF904F
:1015E0000F900FBE0F901F901895CF93DF93DC01E3
:1015F000EB0112964D915C9113979A01220F331FC4
:10160000240F351F12966D917C91139714968D912E
:101610009C911597860F971F481759078CF41D96B4
:10162000ED91FC911E97E20FF31F888180838981E1
:1016300081838A8182834F5F5F4F2D5F3F4FE2CF6F
:10164000DF91CF910895CF92DF92EF92FF920F93A7
:101650001F93CF93DF93EC016AE4C62E63E0D62E8E
:1016600076E2E72E72E0F72E6C817D81C6018A5406
:1016700093408617970794F4C7010E94FA1512E069
:10168000160F0E94E407819FB0011124F60120810A
:10169000271B08F420E021936F01E6CF633071052A
:1016A00069F420914A0380914B0390E0820F911DD1
:1016B000820F911D0E94FA1560934C030E94E4076B
:1016C0008C3DD0F40E94E407F7E08F9FC001112405
:1016D000092F112707FD1A950E94E4072FE5829F25
:1016E000C001112430EA390FF801E65BFC4F20817C
:1016F000230F08F42FEF2083AAE4B3E07FEBF12C53
:101700008D010A5413404C815D81041715070CF0BC
:1017100035C02D913F2D222329F0279F312D1124F3
:1017200071113F5F232F220F220F37FD06C036FDB8
:1017300006C0622F20E030E005C03FEF02C0322F2C
:1017400020E06FEFEC858A819B81EE2339F0FA016E
:101750003197E80FF91FE01BF10B03C0F801E80F08
:10176000F91FCF01880F991FE80FF91F8D859E85FE
:10177000E80FF91F608331832283C2CFDF91CF91BD
:101780001F910F91FF90EF90DF90CF900895CF932E
:10179000DF9300D01F92CDB7DEB7FB0120EE31E022
:1017A000DC011E963C932E931D9720811F962C934F
:1017B0001F97218150962C935097228151962C93FC
:1017C0002081298321812A8322812B83BE016F5F9F
:1017D0007F4F0E94F50A0F900F900F90DF91CF91ED
:1017E0000895CF93DF9300D01F92CDB7DEB7FB01F2
:1017F0004081DC011F964C931F97318150963C939A
:101800005097228151962C9349833A832B83BE01B2
:101810006F5F7F4F0E94F50A0F900F900F90DF913E
:10182000CF910895CF93DF9300D01F92CDB7DEB74D
:10183000FC012285338526173707D9F07387628725
:101840006130710559F06330710589F4FC01278519
:10185000298320892A8321892B8303C019821A8234
:101860001B82BE016F5F7F4F0E94F50A02C00E947B
:10187000230B0F900F900F90DF91CF910895FC01F3
:10188000228533852230310511F40C94230B089501
:10189000CF93DF93009779F0FC0101900020E9F7E6
:1018A0003197AF01481B590BBC0180E192E00E94C7
:1018B000760EEC0102C0C0E0D0E042E050E060E80B
:1018C00071E080E192E00E94760E8C0F9D1FDF9107
:1018D000CF910895CF93DF9390E0FC01ED5DFE4F33
:1018E0002491FC01EC5FFE4F84918823C1F090E0CD
:1018F000880F991FFC01EA50FF4FC591D491FC015C
:10190000E851FF4FA591B4919FB7F8948881E22FD9
:10191000E0958E2388838C91E823EC939FBFDF9121
:10192000CF9108952091DF01211103C08FEF9FEF28
:1019300008955FB7F89422E02093E9002091F20027
:1019400030E01216130614F421E030E0422FFC01BF
:1019500084E6415038F0289A8093DE019091F1009E
:101960009193F7CF2115310521F08091F200882362
:1019700019F05FBFC90108958BE68093E800F9CFA5
:101980002FB7F89483E08093E9009091E800892FC5
:10199000807295FF04C09091F20080E4891B2FBFF4
:1019A00008958091420381110DC082E080933E032F
:1019B00084E080933F03109241031092400381E042
:1019C000809342038EE393E00895823108F08251C0
:1019D000E82FF0E0E452FF4FE49180917B00E3FBBD
:1019E000222720F930E095E0220F331F9A95E1F786
:1019F0008F7D282B20937B00E770E064E0937C00D0
:101A000080917A00806480937A0080917A0086FDCC
:101A1000FCCF809178002091790090E0922B08957E
:101A20003FB7F8948091DA019091DB01A091DC013D
:101A3000B091DD0126B5A89B05C02F3F19F0019696
:101A4000A11DB11D3FBFBA2FA92F982F8827820F44
:101A5000911DA11DB11DBC01CD0142E0660F771F94
:101A6000881F991F4A95D1F708958F929F92AF9240
:101A7000BF92CF92DF92EF92FF926B017C010E94A6
:101A8000100D4B015C01C114D104E104F104F1F02B
:101A90000E94100DDC01CB0188199909AA09BB0924
:101AA000883E9340A105B10570F321E0C21AD10828
:101AB000E108F10888EE880E83E0981EA11CB11C95
:101AC000C114D104E104F10419F7DDCFFF90EF90C8
:101AD000DF90CF90BF90AF909F908F9008952FB7D9
:101AE000F8946091D6017091D7018091D8019091BE
:101AF000D9012FBF0895CF93DF93EC01E881F981DD
:101B00000480F581E02D309709F00995EE81FF8181
:101B1000309709F00995EA81FB810190F081E02D71
:101B2000309709F009958A819B81909315038093E2
:101B300014030E946F0D20911C0330911D03A0918E
:101B40001403B0911503E0911A03F0911B0340E0D8
:101B500050E0421753076CF4C081D181CA17DB07EC
:101B600021F460877187828793874F5F5F4F7096FC
:101B7000F0CFDF91CF910895409118035091190350
:101B80006091140370911503E0911603F09117030F
:101B900020E030E0241735078CF4A081B181A6172E
:101BA000B70741F4A481B581A817B90719F4CF018B
:101BB0000C947B0D2F5F3F4F3896ECCF08954091EA
:101BC000A8015091A9012091A6013091A7014217C7
:101BD0005307B4F49091E8009570E1F39091E80018
:101BE00092FD19C08093F1008091A8019091A90104
:101BF00001968F739927892B19F48EEF8093E80053
:101C00008091A8019091A90101969093A9018093D8
:101C1000A80181E0089580E00895CF92DF92EF92CD
:101C2000FF920F931F93CF93DF936C017A018B0187
:101C3000C0E0D0E0CE15DF0581F0D8016D918D01B7
:101C4000D601ED91FC910190F081E02DC60109953E
:101C5000892B11F02196EECF7E01C701DF91CF9144
:101C60001F910F91FF90EF90DF90CF900895CF9349
:101C7000DF931F92CDB7DEB76983DC01ED91FC9154
:101C80000280F381E02D41E050E0BE016F5F7F4FA5
:101C900009950F90DF91CF91089583E08093E9003B
:101CA0008091F200882319F08AE38093E800089578
:101CB000FC018485958597FD0BC09FB7F89482E061
:101CC0008093E9008091F2009FBF90E00196089513
:101CD0009FB7F89482E08093E9008091F2009FBF63
:101CE00090E00895089580E090E008958F929F928B
:101CF000AF92BF92CF92DF92EF92FF920F931F931A
:101D0000CF93DF936C017B018A0180910D018823C1
:101D100009F45CC08091DF01882309F457C08091E9
:101D2000AB0180FF05C08091E00082608093E000FD
:101D3000E801B12C8AEFA82E93E0892E2AE3922E97
:101D4000209711F4BB20D9F10E94C00C81110AC068
:101D5000AA94AA20D9F161E070E080E090E00E94AE
:101D6000350DEECF282F30E0C217D3070CF48C2F9F
:101D70009FB7F8948092E9002091E80025FF1DC0EC
:101D8000282F30E0C21BD30BF701815020F0419186
:101D90004093F100FACFE20EF31EBB2019F09092AF
:101DA000E8000AC08091E80085FD07C09092E80035
:101DB000BB24B394209709F0B12C9FBFC1CF5D9A8B
:101DC00084E68093AA011016110644F081E090E0A9
:101DD000F6019383828380E090E001C0C801DF9127
:101DE000CF911F910F91FF90EF90DF90CF90BF9018
:101DF000AF909F908F9008950E94C00C90E008953E
:101E00000F931F93CF93DF931F92CDB7DEB78C0153
:101E1000FC018485958597FF0EC0CE0101960E9436
:101E2000920C019719F4898190E002C08FEF9FEF27
:101E3000F80195878487F801848595850F90DF9157
:101E4000CF911F910F910895CF93DF931F92CDB73C
:101E5000DEB7FC018485958597FD05C02FEF3FEF28
:101E6000358724870BC0CE0101960E94920C019702
:101E700019F4898190E002C08FEF9FEF0F90DF91FE
:101E8000CF910895DF92EF92FF920F931F93CF931C
:101E9000DF93D82E8A017B01E40EF51EEB01CE15EF
:101EA000DF0571F0D7FE03C0FE01849101C0888177
:101EB0000E94DF0D21968111F2CF8FEF9FEF01C0BD
:101EC000C801DF91CF911F910F91FF90EF90DF90AC
:101ED00008950F931F93CF93DF931F92CDB7DEB773
:101EE00082E0898342E450E062E471E080E80E948D
:101EF000420F0E94D10CDC0112960D911C91139798
:101F00000115110589F0D801ED91FC910280F38152
:101F1000E02DBE016F5F7F4FC801099597FD04C09A
:101F2000F80100851185ECCF89810F90DF91CF9169
:101F30001F910F910895615030F02091F100FC0144
:101F400020830196F8CF289A84E68093DE010895D5
:101F50000F931F93CF93DF9320914D032F5F322F69
:101F6000377030934D0320FF02C020E801C020E00D
:101F700031FD2064347009F02062205FFC01EC0127
:101F8000239600E011E06485662331F070E0C8011B
:101F90000E94FA156F5F01C060E06187322F369FA3
:101FA000030E30E0311D1124311102C0168202C02F
:101FB00031503683662311F0615061873196CE1718
:101FC000DF0709F7DF91CF911F910F910895CF930C
:101FD000DF9300D01F92CDB7DEB7789484B58260CE
:101FE00084BD84B5816084BD85B5826085BD85B5BD
:101FF000816085BD80916E00816080936E0010923B
:1020000081008091810082608093810080918100B5
:102010008160809381008091800081608093800046
:102020008091910082608093910080919100816005
:1020300080939100809190008160809390008091C6
:10204000C10084608093C1008091C1008260809350
:10205000C1008091C10081608093C1008091C30064
:1020600081608093C3008091C00082608093C00033
:102070008091C20081608093C20080917A00846068
:1020800080937A0080917A00826080937A008091B8
:102090007A00816080937A0080917A0080688093D2
:1020A0007A001092DF011092AD011092AB01809185
:1020B000D70081608093D70080EA8093D80089B5EB
:1020C000806189BD89B5826089BD09B400FEFDCFFC
:1020D00061E070E080E090E00E94350D8091D800D2
:1020E0008F7C80618093D8008091E000807F809316
:1020F000E0008091E1008E7E8093E1008DE080938E
:10210000E200559A209A5D9828988FEF9FEF909360
:102110001D0280931C0268E873E180E090E00E9459
:10212000350D60911803709119036F5F7F4F83E045
:10213000660F771F8A95E1F7809116039091170338
:102140000E9415189093170380931603209118038B
:1021500030911903B90143E0660F771F4A95E1F703
:10216000FC01E60FF71F06E612E01183008350E63C
:10217000E52E52E0F52EF382E28241E050E05583F5
:102180004483178216822F5F3F4F309319032093A9
:102190001803605F7F4F0E94151890931703809378
:1021A000160340911803509119039A0163E0220F1E
:1021B000331F6A95E1F7FC01E20FF31FF182E08221
:1021C0001383028382E090E09583848317821682D2
:1021D0004F5F5F4F50931903409318038091C101E3
:1021E000811145C01092B3011092B2018FEF80931C
:1021F000B6018093B7018093B8018093B9018093B1
:10220000BA018093BB0181E08093BC011092BE01B2
:102210001092BD011092B5011092B4018091CF01CE
:102220009091D001892B31F480EB91E09093D00113
:102230008093CF01E091AE01F091AF01309721F092
:1022400080EB91E09583848380EB91E09093AF01E4
:102250008093AE011092C0011092BF0183E391E020
:102260009093B1018093B00181E08093C1013E9AC7
:1022700080EE91E09093B3018093B20180E190E011
:102280009093BE018093BD018091340390913503FA
:10229000A0913603B0913703843C29E09207A10551
:1022A000B10520F484EC99E0A0E0B0E08093340321
:1022B00090933503A0933603B09337038FEF809349
:1022C000310380912E03898380912F038A8380912B
:1022D00030038B83BE016F5F7F4F82E093E00E94EB
:1022E000C70B80912B03898380912C038A83809173
:1022F0002D038B83BE016F5F7F4F80EF92E00E94C2
:10230000C70B809128038983809129038A83809158
:102310002A038B83BE016F5F7F4F8EED92E00E9498
:10232000C70B809125038983809126038A8380913E
:1023300027038B83BE016F5F7F4F8CEC92E00E947E
:10234000C70B80912E03898380912F038A8380910C
:1023500030038B83BE016F5F7F4F8AEB92E00E9458
:10236000C70B80912B03898380912C038A838091F2
:102370002D038B83BE016F5F7F4F88EA92E00E943E
:10238000C70B809128038983809129038A838091D8
:102390002A038B83BE016F5F7F4F86E992E00E9424
:1023A000C70B809125038983809126038A838091BE
:1023B00027038B83BE016F5F7F4F84E892E00E940A
:1023C000C70B63E070E08AEB92E00E94120C63E0BE
:1023D00070E088EA92E00E94120C63E070E086E907
:1023E00092E00E94120C63E070E084E892E00E94A8
:1023F000120C62E070E082E093E00E94120C63E055
:1024000070E08EED92E00E94120C8CE691E00E944A
:10241000480C86E10E94E50CBC01990F880B990BD2
:10242000611571058105910511F00E947E1582E10B
:102430000E946A0C83E10E946A0C84E10E946A0C8B
:1024400085E10E946A0C8BE10E946A0C8AE10E947D
:102450006A0C89E10E946A0C88E10E946A0CE09192
:102460001403F09115030480F581E02D309709F0F5
:10247000099586E692E09093150380931403E0910A
:102480006602F0916702309709F00995EE24E39413
:1024900082E093E00E943F0C80EF92E00E943F0CAC
:1024A0008EED92E00E943F0C8CEC92E00E943F0C7B
:1024B0008AEB92E00E943F0C88EA92E00E943F0C77
:1024C00086E992E00E943F0C84E892E00E943F0C73
:1024D00080911E0381110CC0E0921E03E091140351
:1024E000F09115030190F081E02D309709F00995E6
:1024F000E0911403F09115030280F381E02D3097F1
:1025000009F00995C12CD12CA12CB12C80911C0370
:1025100090911D03A816B9060CF04DC000911A0346
:1025200010911B030C0D1D1DD8012D913C9111978D
:10253000809114039091150328173907A9F518966F
:102540008D919D910D90BC91A02D892B8A2B8B2B69
:1025500041F40E946F0DF80160877187828793872D
:1025600023C00E946F0DD80118964D905D906D901C
:102570007C901B97DC01CB0184199509A609B7094A
:10258000F801448455846684778484159505A605EE
:10259000B70550F0C8010E947B0DD80118961D9216
:1025A0001D921D921C921B97BFEFAB1ABB0AE0E174
:1025B000CE0ED11CABCFF0903103809134039091BB
:1025C0003503A0913603B0913703892B8A2B8B2BCF
:1025D000E9F00E94100D0091D1011091D2012091DB
:1025E000D3013091D401DC01CB01801B910BA20BF4
:1025F000B30B0091340310913503209136033091D1
:10260000370380179107A207B307B8F20E94100D95
:102610006093D1017093D2018093D3019093D40140
:10262000E0913C03F0913D03309759F0409138031D
:102630005091390360913A0370913B038F2D0995B6
:10264000F82E0091CF011091D0014F2C512C612C0C
:10265000712C0115110509F45FC0D8011C96BC90BE
:102660001C9780913203909133038436910510F4C6
:102670001C961C92D801ED91FC9122803380198226
:102680001A821B82F11014C0F801458556856281BB
:1026900073819E012F5F3F4FC801F1010995D80159
:1026A0001C96BC921C9714960D911C911597D1CF36
:1026B000F8013696CE0101966C01480199E0890E29
:1026C000911C2191222309F1A280AA20F1F0822FEE
:1026D00090E0A0E0B0E09C01AD012F5F3F4F4F4F75
:1026E0005F4FC301B2010E94EA159B01AC018A2D24
:1026F00090E0A0E0B0E0BC01CD016F5F7F4F8F4F55
:102700009F4F0E94EA15D6018C93BFEFCB1ADB0ACC
:10271000E815F905B1F6B8CF8091CD019091CE01C1
:102720008C010F5F1F4F1093CE010093CD0149978D
:102730009CF10E946F0D2B013C01E8EEF3E00E9F2F
:10274000B0010F9F700D1E9F700D1124072E000CFD
:10275000880B990B8090C9019090CA01A090CB0181
:10276000B090CC01A3019201281939094A095B09EB
:102770000E94B91530933303209332031092CE0197
:102780001092CD010E946F0D6093C9017093CA0130
:102790008093CB019093CC0160E170E080E090E009
:1027A0000E94350D80E090E0892B09F471CE0E94E3
:1027B00000006ECEE0E1F2E01382128288EE93E038
:1027C000A0E0B0E084839583A683B78385E491E09D
:1027D000918380838FEF9FEF95878487EEE2F3E00C
:1027E000808311821282EBE2F3E0108290E8918301
:1027F0001282E8E2F3E0808381831282E5E2F3E073
:10280000108211828283AFE1B3E011961C921E9276
:1028100013961C921E92129715961C921E92149754
:10282000E4E1F3E0B183A083138212821582148263
:10283000118610861286E2E0F3E027E531E031836D
:10284000208341E050E05383428363E070E075836E
:102850006483E0EFF2E031832083A4E0B0E0B3834F
:10286000A28375836483EEEDF2E031832083A9E0D7
:10287000B0E0B383A28375836483ECECF2E0318330
:102880002083ACE0B0E0B383A28375836483EAEB7A
:10289000F2E0318320831382128255834483E8EA75
:1028A000F2E03183208367E070E0738362835583B5
:1028B0004483E6E9F2E03183208368E070E07383CB
:1028C000628355834483E4E8F2E0318320832FE080
:1028D00030E03383228355834483ECE6F2E0808347
:1028E00011821282138294831582868387831086D5
:1028F000118612868387E6E6F2E024E137E0318331
:1029000020832BE037E03383228315821482E0E6B4
:10291000F2E023EF30E03183208328E835E0338391
:10292000228315821482E1E3F3E080831282118214
:10293000148613868FEF9FEFDC0187839087A18732
:10294000B2870895DF92EF92FF920F931F93CF9378
:10295000DF93D82EF92EE42E062F10E0C801019641
:10296000880F0E94DF0D83E00E94DF0DCD2DDF2D4B
:102970000C0F1D1FC017D10789F0E7FE03C0FE0131
:10298000849101C088810E94DF0DF82E80E00E94B2
:10299000DF0D8F2121968111EDCF01C081E0DF9104
:1029A000CF911F910F91FF90EF90DF900895CF93FB
:1029B000DF93C4E1D3E08A819B810E948C178E81D2
:1029C0009F81DF91CF910C948C178F929F92AF9241
:1029D000BF92CF92DF92EF92FF92CF93DF93EC0101
:1029E000688179818A819B816115710581059105D5
:1029F00021F464E279ED8BE597E02DE133EF41E0DE
:102A000050E00E94871549015A019B01AC01A7EAD9
:102A1000B1E40E94A6156B017C01ACEEB4EFA501F8
:102A200094010E94B415DC01CB018C0D9D1DAE1DDF
:102A3000BF1DB7FF03C00197A109B04888839983E0
:102A4000AA83BB83BC01CD019F77DF91CF91FF901B
:102A5000EF90DF90CF90BF90AF909F908F900895B0
:102A60008F929F92AF92BF92CF92DF92EF92FF929E
:102A700060910E0170910F018091100190911101F0
:102A8000611571058105910521F464E279ED8BE50D
:102A900097E02DE133EF41E050E00E9487154901B6
:102AA0005A019B01AC01A7EAB1E40E94A6156B0193
:102AB0007C01ACEEB4EFA50194010E94B415DC01D9
:102AC000CB018C0D9D1DAE1DBF1DB7FF03C001972F
:102AD000A109B04880930E0190930F01A0931001BB
:102AE000B0931101BC01CD019F77FF90EF90DF9073
:102AF000CF90BF90AF909F908F90089560930E01FC
:102B000070930F0180931001909311010895052E89
:102B100097FB1EF400940E949E1557FD07D00E945B
:102B2000B91507FC03D04EF40C949E1550954095B2
:102B3000309521953F4F4F4F5F4F08959095809569
:102B4000709561957F4F8F4F9F4F08950E94DB15C1
:102B5000A59F900DB49F900DA49F800D911D1124F1
:102B60000895B7FF0C94A6150E94A615821B930B1F
:102B70000895A1E21A2EAA1BBB1BFD010DC0AA1FBE
:102B8000BB1FEE1FFF1FA217B307E407F50720F0D6
:102B9000A21BB30BE40BF50B661F771F881F991F51
:102BA0001A9469F760957095809590959B01AC019A
:102BB000BD01CF010895A29FB001B39FC001A39FA3
:102BC000700D811D1124911DB29F700D811D112466
:102BD000911D0895DB018F939F930E94A615BF91CD
:102BE000AF91A29F800D911DA39F900DB29F900D5C
:102BF0001124089597FB072E16F4009407D077FD53
:102C000009D00E94151607FC05D03EF490958195D9
:102C10009F4F0895709561957F4F08950E94DB1531
:102C2000B7FF0895821B930B0895AA1BBB1B51E1AC
:102C300007C0AA1FBB1FA617B70710F0A61BB70B2C
:102C4000881F991F5A95A9F780959095BC01CD01D1
:102C50000895EE0FFF1F0590F491E02D09940E9456
:102C600036166894B1110C94C51608950E94AA16E0
:102C700088F09F5798F0B92F9927B751B0F0E1F03D
:102C8000660F771F881F991F1AF0BA95C9F714C0ED
:102C9000B13091F00E94C416B1E008950C94C416AE
:102CA000672F782F8827B85F39F0B93FCCF3869526
:102CB00077956795B395D9F73EF490958095709583
:102CC00061957F4F8F4F9F4F0895E89409C097FB00
:102CD0003EF490958095709561957F4F8F4F9F4FF3
:102CE0009923A9F0F92F96E9BB279395F695879537
:102CF00077956795B795F111F8CFFAF4BB0F11F4FA
:102D000060FF1BC06F5F7F4F8F4F9F4F16C08823A0
:102D100011F096E911C0772321F09EE8872F762FD6
:102D200005C0662371F096E8862F70E060E02AF017
:102D30009A95660F771F881FDAF7880F9695879503
:102D400097F9089557FD9058440F551F59F05F3F6C
:102D500071F04795880F97FB991F61F09F3F79F0BD
:102D600087950895121613061406551FF2CF46953F
:102D7000F1DF08C0161617061806991FF1CF8695C1
:102D80007105610508940895E894BB2766277727A5
:102D9000CB0197F908950E94D01608F48FEF08959B
:102DA000990F0008550FAA0BE0E8FEEF161617065C
:102DB000E807F907C0F012161306E407F50798F0C4
:102DC000621B730B840B950B39F40A2661F0232BDD
:102DD000242B252B21F408950A2609F4A140A69559
:102DE0008FEF811D811D08950F931F93CF93DF9364
:102DF0008230910510F482E090E0E0915003F09170
:102E0000510320E030E0A0E0B0E0309719F14081BC
:102E100051810281138148175907C8F0841795071B
:102E200069F4109731F012960C93129713961C9335
:102E300027C0009350031093510322C02115310580
:102E400019F04217530718F49A01BD01EF01DF0191
:102E5000F801DBCF21153105F9F0281B390B24309F
:102E6000310580F48A819B816115710521F0FB0198
:102E70009383828304C09093510380935003FE0197
:102E8000329644C0FE01E20FF31F819391932250CA
:102E90003109398328833AC020914E0330914F0382
:102EA000232B41F4209114013091150130934F03ED
:102EB00020934E0320911201309113012115310509
:102EC00041F42DB73EB74091160150911701241BD4
:102ED000350BE0914E03F0914F03E217F307A0F496
:102EE0002E1B3F0B2817390778F0AC014E5F5F4F60
:102EF0002417350748F04E0F5F1F50934F03409340
:102F00004E038193919302C0E0E0F0E0CF01DF91A6
:102F1000CF911F910F910895CF93DF93009709F4FC
:102F200081C0FC01329713821282A0915003B091AC
:102F30005103109781F420813181820F931F2091DA
:102F40004E0330914F032817390751F5F0934F0383
:102F5000E0934E0367C0ED0120E030E0CE17DF07BD
:102F600040F44A815B819E0141155105F1F0EA016F
:102F7000F5CFD383C28340815181840F951FC81739
:102F8000D90759F488819981840F951F02969183FE
:102F900080838A819B81938382832115310529F463
:102FA000F0935103E09350033DC0E901FB83EA83B2
:102FB00049915991C40FD51FEC17FD0761F4808129
:102FC0009181840F951F0296E901998388838281FC
:102FD00093819B838A83E0E0F0E012968D919C912F
:102FE0001397009719F0FD01DC01F7CF8D919C91AB
:102FF00011979D012E5F3F4F820F931F20914E032B
:1030000030914F032817390769F4309729F410924B
:1030100051031092500302C013821282B0934F03E7
:10302000A0934E03DF91CF910895A0E0B0E0EBE1D3
:10303000F8E10C94ED18EC01009721F4CB010E940B
:10304000F416B4C0FC01E60FF71F9C0122503109B1
:10305000E217F30708F4A8C0D9010D911C9111974C
:1030600006171707B0F00530110508F49BC0C8011A
:1030700004978617970708F495C002501109061B9C
:10308000170B019311936D937C93CF010E948C17C2
:1030900089C05B01A01AB10A4C01800E911EA0915B
:1030A0005003B0915103612C712CE12CF12C10973D
:1030B00009F446C08D919C911197A815B905B1F5F9
:1030C0006C0142E0C40ED11CCA14DB0478F14C013F
:1030D0008A189B08640142E0C40ED11C1296BC9071
:1030E00012971396AC91B5E0CB16D10440F0B282A2
:1030F000A38391828082D9016D937C9309C00E5F76
:103100001F4F800F911FF90191838083EB2DFA2FC0
:10311000E114F10431F0D7011396FC93EE9312976A
:1031200041C0F0935103E09350033CC06816790608
:1031300008F43C017D0112960D90BC91A02DB7CFF3
:1031400080914E0390914F0388169906E1F466161C
:103150007706C8F48091120190911301009741F411
:103160008DB79EB74091160150911701841B950BA6
:10317000E817F907C8F4F0934F03E0934E03F90101
:10318000718360830FC0CB010E94F4167C0100970D
:1031900059F0A801BE010E94E018CE010E948C17D0
:1031A000C70104C0CE0102C080E090E0CDB7DEB719
:1031B000EEE00C94091981E090E0F8940C94201949
:1031C000FB01DC0102C001900D9241505040D8F744
:1031D00008952F923F924F925F926F927F928F92BB
:1031E0009F92AF92BF92CF92DF92EF92FF920F9396
:1031F0001F93CF93DF93CDB7DEB7CA1BDB0B0FB6A0
:10320000F894DEBF0FBECDBF09942A88398848885C
:103210005F846E847D848C849B84AA84B984C884F2
:10322000DF80EE80FD800C811B81AA81B981CE0FE9
:10323000D11D0FB6F894DEBF0FBECDBFED010895CE
:1032400010E0C3ECD0E004C0FE010E9429162196D4
:0A325000C43CD107C9F7F894FFCF82
:10325A003905FFFFFFFF00E1000000000000010048
:10326A00000000005203200000C18081000000001D
:10327A00000000F907F907F907F40018011C01001A
:10328A000000006204A504F100F4001801EE001F1A
:10329A000100000000370E760EFC0E4D0E580E246B
:1032AA000F000F00000000E307E1076368616E6723
:1032BA00652074686520626F6172640020537461CE
:1032CA007274207570206163746976697469790013
:0432DA000D0A0000D9
:00000001FF
