:100000000C9413010C943B010C943B010C943B01A8
:100010000C943B010C943B010C943B010C943B0170
:100020000C943B010C943B010C9473070C94E50772
:100030000C943B010C943B010C943B010C943B0150
:100040000C943B010C943B010C943B010C943B0140
:100050000C943B010C943B010C943B010C94780CE8
:100060000C943B010C943B010C943B010C943B0120
:100070000C943B010C943B010C943B010C943B0110
:100080000C943B010C943B010C943B010C943B0100
:100090000C943B010C943B010C943B010C943B01F0
:1000A0000C943B010C943B010C943B0100407A10F2
:1000B000F35A00A0724E18090010A5D4E80000E819
:1000C0007648170000E40B54020000CA9A3B000077
:1000D00000E1F505000080969800000040420F0006
:1000E0000000A08601000000102700000000E803C7
:1000F000000000006400000000000A000000000092
:100100000100000000002C76D888DC674F0823DF50
:10011000C1DFAE59E1B1B796E5E3E453C63AE65123
:10012000997696E8E6C28426EB898C9B62ED407C4A
:100130006FFCEFBC9C9F40F2BAA56FA5F490055AE6
:100140002AF75C936B6CF9676DC11BFCE0E40D470B
:10015000FEF520E6B500D0ED902E0300943577052E
:100160000080841E080000204E0A000000C80C33E6
:100170003333330F986E12831141EF8D2114893B75
:10018000E65516CFFEE6DB18D1844B381BF77C1DF5
:10019000901DA4BBE424203284725E228100C9F148
:1001A00024ECA1E53D27080B00020202010009042E
:1001B00000000102020000052400100105240101D5
:1001C000010424020605240600010705810310002E
:1001D0004009040100020A00000007050202400075
:1001E0000007058302400000040309041201000215
:1001F000EF020140412337800001010203014172F7
:100200006475696E6F204C4C430041726475696E71
:100210006F204D6963726F00070605040100080A2C
:100220000B0C0D09C51011241FBECFEFDAE0DEBFA5
:10023000CDBF22E0A0E9B1E001C01D92A93BB20709
:10024000E1F711E0A0E0B1E0ECECFDE202C00590C6
:100250000D92A039B107D9F711E0C3E1D1E004C094
:100260002197FE010E94A714C231D107C9F70E944D
:10027000C20C0C94E4160C94000080E991E00895FF
:10028000579A0895CF93DF9300D000D000D0CDB718
:10029000DEB7AB011C821D821E82DC01ED91FC9158
:1002A0000190F081E02D19821A821B829E012F5F3E
:1002B0003F4FBE016C5F7F4F099526960FB6F894AD
:1002C000DEBF0FBECDBFDF91CF910895FC018585C4
:1002D0009685089580E090E008954F925F926F9226
:1002E0007F928F92AF92BF92CF92DF92EF920F9355
:1002F0001F93CF93DF933C01EB010E94190CF30194
:1003000027853089621B730B6A307105B0F3F8944E
:10031000E881F9817BB170686BB16F776BB9CB8481
:1003200088852C2D281B822F2887BF844A805B80DC
:100330001E850C85DD841F5F0F5FD3949E813F81F6
:10034000A984EA844281D20120E0C32F522F322FA8
:100350003281442788943111380F08F43FEF81959A
:10036000889410FD430F4795889411FD430F4795DE
:10037000889412FD430F4795889413FD430F4795CA
:10038000889414FD430F4795889415FD430F4795B6
:10039000889416FD430F4795889417FD430F4795A2
:1003A0008894232F1111242F8C0D422F002C7BB900
:1003B00000C000C000C047FF6BB93081222788947D
:1003C00000C000C000C000C000C000C000C0002CC1
:1003D00000C000C06BB93111390F00C000C0002C43
:1003E0007BB900C000C000C046FF6BB908F43FEF06
:1003F0009195889400C000C000C000C000C000C03B
:1004000000C0002C00C000C06BB900FD230F00C06D
:1004100000C0002C7BB900C000C000C045FF6BB914
:100420002795889401FD230F00C000C000C000C0C4
:1004300000C000C000C0002C00C000C06BB92795F0
:10044000889400C000C0002C7BB900C000C000C070
:1004500044FF6BB902FD230F2795889400C000C0AC
:1004600000C000C000C000C000C0002C00C000C020
:100470006BB903FD230F00C000C0002C7BB900C086
:1004800000C000C043FF6BB92795889404FD230F7B
:1004900000C000C000C000C000C000C000C0002CF0
:1004A00000C000C06BB92795889400C000C0002C24
:1004B0007BB900C000C000C042FF6BB905FD230F2F
:1004C0002795889400C000C000C000C000C000C0D4
:1004D00000C0002C00C000C06BB906FD230F00C097
:1004E00000C0002C7BB900C000C000C041FF6BB948
:1004F0002795889407FD230F00C000C000C000C0EE
:1005000000C000C000C0002C00C000C06BB927951F
:10051000889400C000C0002C7BB900C000C000C09F
:1005200040FF6BB9432F0111422F9A0D00C000C04C
:1005300000C000C000C000C000C0002C00C000C04F
:100540006BB900C000C000C0002C7BB900C000C067
:1005500000C047FF6BB931812227889400C000C0DA
:1005600000C000C000C000C000C0002C00C000C01F
:100570006BB931113C0F00C000C0002C7BB900C02A
:1005800000C000C046FF6BB908F43FEFEB0DF11D52
:1005900000C000C000C000C000C000C000C0002CEF
:1005A00000C000C06BB9D0FC230F00C000C0002CFD
:1005B0007BB900C000C000C045FF6BB92795889487
:1005C000D1FC230F00C000C000C000C000C000C0AC
:1005D00000C0002C00C000C06BB92795889400C0F3
:1005E00000C0002C7BB900C000C000C044FF6BB944
:1005F000D2FC230F2795889400C000C000C000C023
:1006000000C000C000C0002C00C000C06BB9D3FC0B
:10061000230F00C000C0002C7BB900C000C000C088
:1006200043FF6BB927958894D4FC230F00C000C00A
:1006300000C000C000C000C000C0002C00C000C04E
:100640006BB92795889400C000C0002C7BB900C00E
:1006500000C000C042FF6BB9D5FC230F27958894DA
:1006600000C000C000C000C000C000C000C0002C1E
:1006700000C000C06BB9D6FC230F00C000C0002C26
:100680007BB900C000C000C041FF6BB927958894BA
:10069000D7FC230F00C000C000C000C000C000C0D5
:1006A00000C0002C00C000C06BB92795889400C022
:1006B00000C0002C7BB900C000C000C040FF6BB977
:1006C000432FD110422FC19500C000C000C000C010
:1006D00000C000C000C0002C00C000C06BB9CE0D2F
:1006E00000C000C000C07BB900C000C000C047FF10
:1006F0006BB932812227889400C000C000C000C0BE
:1007000000C000C000C0002C00C000C06BB9311197
:10071000380F00C000C0002C7BB900C000C000C072
:1007200046FF6BB908F43FEF8195889400C000C084
:1007300000C000C000C000C000C0002C00C000C04D
:100740006BB910FD230F00C000C0002C7BB900C0A6
:1007500000C000C045FF6BB92795889411FD230F99
:1007600000C000C000C000C000C000C000C0002C1D
:1007700000C000C06BB92795889400C000C0002C51
:100780007BB900C000C000C044FF6BB912FD230F4D
:100790002795889400C000C000C000C000C000C001
:1007A00000C0002C00C000C06BB913FD230F00C0B7
:1007B00000C0002C7BB900C000C000C043FF6BB973
:1007C0002795889414FD230F00C000C000C000C00E
:1007D00000C000C000C0002C00C000C06BB927954D
:1007E000889400C000C0002C7BB900C000C000C0CD
:1007F00042FF6BB915FD230F2795889400C000C0F8
:1008000000C000C000C000C000C0002C00C000C07C
:100810006BB916FD230F00C000C0002C7BB900C0CF
:1008200000C000C041FF6BB92795889417FD230FC6
:1008300000C000C000C000C000C000C000C0002C4C
:1008400000C000C06BB92795889400C000C0002C80
:100850007BB900C000C000C040FF6BB9432F11112D
:10086000422F8C0D00C000C000C000C000C000C0FE
:1008700000C0002C00C000C06BB900C0119709F087
:1008800096CD20EC33E0D2010E948C14DC01CB0128
:10089000F4E0B695A79597958795FA95D1F720E05E
:1008A00030E0B901EAE94E9E040C611D5E9E600DC8
:1008B000711D1124650D711D860F971FA11DB11D9E
:1008C000893E43E09407A105B10508F434C0885E71
:1008D0009340A109B10942E0B695A79597958795F0
:1008E0004A95D1F747E0849F080E211D949F200D63
:1008F000311D1124290F311D6091900170E0860F88
:10090000971F820F931F4091D1015091D2016091A6
:10091000D3017091D401292F3327420F531F611D3A
:10092000711D4093D1015093D2016093D301709314
:10093000D4018093900178940E94190CF301708B7C
:100940006787DF91CF911F910F91EF90DF90CF904C
:10095000BF90AF908F907F906F905F904F90089571
:100960000F931F93CF93DF93CDB7DEB762970FB688
:10097000F894DEBF0FBECDBF8C01F901DC011C96DF
:100980008C917A8369835C834B835E834D839081F2
:100990009D8791819E8792819F87813029F4CE0126
:1009A00001960E94230A06C01C861B861A86198699
:1009B00018861F82188A1A8A198AD801ED91FC912B
:1009C0000484F585E02DBE016F5F7F4FC801099556
:1009D00062960FB6F894DEBF0FBECDBFDF91CF9108
:1009E0001F910F9108950F931F93CF93DF93CDB76E
:1009F000DEB762970FB6F894DEBF0FBECDBF8C0195
:100A0000F901DC011C968C917A8369835C834B83AA
:100A10005E834D8390819D8791819E8792819F8780
:100A2000813029F4CE0101960E94230A06C01C865B
:100A30001B861A86198618861F8283E0888B1A8A7D
:100A4000198AD801ED91FC910484F585E02DBE0151
:100A50006F5F7F4FC801099562960FB6F894DEBFAD
:100A60000FBECDBFDF91CF911F910F9108950C94D0
:100A70008015089540919401509195012091920123
:100A80003091930142175307B4F49091E8009570A8
:100A9000E1F39091E80092FD19C08093F1008091FC
:100AA00094019091950101968F739927892B19F4E0
:100AB0008EEF8093E80080919401909195010196CA
:100AC000909395018093940181E0089580E00895CA
:100AD000DF92EF92FF920F931F93CF93DF93D82E65
:100AE000F92EE42E062F10E0C8010196880F0E940F
:100AF0003A0583E00E943A05CD2DDF2D0C0F1D1F16
:100B0000C017D10789F0E7FE03C0FE01849101C040
:100B100088810E943A05F82E80E00E943A058F21D4
:100B200021968111EDCF01C081E0DF91CF911F911E
:100B30000F91FF90EF90DF900895DF92EF92FF9278
:100B40000F931F93CF93DF93D82E8A017B01E40E7E
:100B5000F51EEB01CE15DF0571F0D7FE03C0FE01D7
:100B6000849101C088810E943A0521968111F2CFBB
:100B70008FEF9FEF01C0C801DF91CF911F910F91BF
:100B8000FF90EF90DF900895615030F02091F100D8
:100B9000FC0120830196F8CF289A84E68093D50142
:100BA0000895CF92DF92EF92FF920F931F93CF930E
:100BB000DF936C017A018B01C0E0D0E0CE15DF0538
:100BC00081F0D8016D918D01D601ED91FC910190DC
:100BD000F081E02DC6010995892B11F02196EECF09
:100BE0007E01C701DF91CF911F910F91FF90EF9090
:100BF000DF90CF900895CF93DF931F92CDB7DEB7EC
:100C00006983DC01ED91FC910280F381E02D41E0EC
:100C100050E0BE016F5F7F4F09950F90DF91CF913C
:100C2000089583E08093E9008091F200882319F011
:100C30008AE38093E8000895FC018485958597FDFB
:100C40000BC09FB7F89482E08093E9008091F20096
:100C50009FBF90E0019608959FB7F89482E080933B
:100C6000E9008091F2009FBF90E00895089580E030
:100C700090E008950F931F93CF93DF931F92CDB70A
:100C8000DEB782E0898342E450E066EA71E080E802
:100C90000E949D050E94DA0BDC0112960D911C91B9
:100CA00013970115110589F0D801ED91FC9102808F
:100CB000F381E02DBE016F5F7F4FC801099597FD5D
:100CC00004C0F80100851185ECCF89810F90DF9178
:100CD000CF911F910F9108958F929F92AF92BF92E3
:100CE000CF92DF92EF92FF920F931F93CF93DF93F8
:100CF0006C017B018A0180910B01882309F45CC09F
:100D00008091D601882309F457C08091980180FF13
:100D100005C08091E00082608093E000E801B12C82
:100D20008AEFA82E93E0892E2AE3922E209711F4C1
:100D3000BB20D9F10E94C90B81110AC0AA94AA2034
:100D4000D9F161E070E080E090E00E943E0CEECFCF
:100D5000282F30E0C217D3070CF48C2F9FB7F894DC
:100D60008092E9002091E80025FF1DC0282F30E087
:100D7000C21BD30BF701815020F041914093F10049
:100D8000FACFE20EF31EBB2019F09092E8000AC0E1
:100D90008091E80085FD07C09092E800BB24B394E1
:100DA000209709F0B12C9FBFC1CF5D9A84E6809354
:100DB00097011016110644F081E090E0F60193834C
:100DC000828380E090E001C0C801DF91CF911F9144
:100DD0000F91FF90EF90DF90CF90BF90AF909F90DA
:100DE0008F9008950E94C90B90E008950F931F9370
:100DF000CF93DF931F92CDB7DEB78C01FC018485C2
:100E0000958597FF0EC0CE0101960E949B0B01971E
:100E100019F4898190E002C08FEF9FEFF801958768
:100E20008487F801848595850F90DF91CF911F917C
:100E30000F910895CF93DF931F92CDB7DEB7FC01DA
:100E40008485958597FD05C02FEF3FEF3587248773
:100E50000BC0CE0101960E949B0B019719F489816A
:100E600090E002C08FEF9FEF0F90DF91CF91089538
:100E7000EF92FF920F931F93CF93DF93EC011982B0
:100E800018821B821A821D821C826115710521F154
:100E90008B01FB0101900020E9F731977F01E61AF1
:100EA000F70AB7010E94640A811109C0CE01DF91DF
:100EB000CF911F910F91FF90EF900C948B0AFD82C0
:100EC000EC82B80188819981DF91CF911F910F91B8
:100ED000FF90EF900C94DD16DF91CF911F910F9151
:100EE000FF90EF9008951F920F920FB60F9211246A
:100EF0008F939F938091E1009091E100937F909375
:100F0000E10083FF0FC01092E90091E09093EB00A5
:100F10001092EC0092E39093ED001092D60198E0CD
:100F20009093F00082FF20C093E09093E9009091AD
:100F3000F200992319F09AE39093E80090919701B9
:100F4000992339F0909197019150909397019923AB
:100F500089F19091D501992339F09091D501915063
:100F60009093D501992341F184FF10C08091E20054
:100F70008E7E81608093E2008091E1008F7E80937D
:100F8000E100809198018E7E806111C080FF16C0C3
:100F90008091E2008E7E80618093E2008091E1008A
:100FA0008E7E8093E100809198018E7E8160809397
:100FB000980104C05D98CDCF2898D6CF9F918F918E
:100FC0000F900FBE0F901F9018951F920F920FB6A3
:100FD0000F921124CF92DF92EF92FF920F931F9303
:100FE0002F933F934F935F936F937F938F939F9331
:100FF000AF93BF93EF93FF93CF93DF93CDB7DEB75C
:101000006C97DEBFCDBF1092E9008091E80083FFAE
:10101000FBC168E0CE0145960E94C40582EF809333
:10102000E8008D8987FF05C09091E80090FFFCCF14
:1010300003C09EEF9093E800982F907609F0C6C009
:101040009E894F89588D2F89F88C91110CC080385A
:1010500029F4809199018093F10002C01092F1006F
:101060001092F10045C1913051F4811141C14130DC
:10107000510509F03DC1809199018D7F0BC09330DE
:1010800061F4811135C14130510509F031C18091C0
:1010900099018260809399012BC1953049F4809128
:1010A000E80080FFFCCF822F80688093E30020C19E
:1010B000963009F05EC00B8D1C8D22E01092E90085
:1010C0001092950110929401F21232C01092930185
:1010D000109292010E943A0699E0BE016F5F7F4F25
:1010E000DB01E92F1D92EA95E9F79983FA8291E0F5
:1010F0009E8390EA98879AEF998720919401309186
:101100009501275F3F4F3C832B838D831092E9002D
:101110001092950110929401109393010093920103
:1011200049E050E080E00E949D050E943A06E0C040
:1011300010939301009392010E94DA0BDC01129646
:101140000D911C9113970115110509F4BBC0D8012D
:10115000ED91FC910480F581E02DBE016B5E7F4F27
:10116000C8010995009709F0C7C0F80100851185ED
:10117000EACF973009F445C1983021F481E080939B
:10118000F100B6C0993009F0B3C0837009F039C1DD
:10119000E3E1F1E081E031E096E32081211109C033
:1011A0008EE78093EA001092EA008F898093D6013F
:1011B0009FC08093E9003093EB0021912093EC00D5
:1011C0009093ED008F5F873041F7EACF8B8D9C8D38
:1011D0001092E9001092950110929401909393015E
:1011E00080939201898D811153C08E899D89913A96
:1011F00049F4813209F005C147E050E064E071E054
:1012000080E0BBC0913209F0FCC0833269F48F8961
:10121000988DA0E0B0E08093000190930101A0932D
:101220000201B093030164C0803269F48091E80048
:1012300082FFFCCF67E084E091E00E94C4058BEF61
:101240008093E80055C0823209F052C08F898093A4
:101250000B01EEEFFFE7859194918B3F9C4D19F0C8
:10126000E0E0F8E002C0EEEFFAE080910401909136
:101270000501A0910601B0910701803B9440A105B2
:10128000B10509F09EC080910B0180FF79C099C023
:101290000E94DA0BFC01028113810115110509F48A
:1012A000B0C0D801ED91FC910190F081E02DBE011C
:1012B0006B5E7F4FC801099581111AC0F801008546
:1012C0001185EBCFF1E0FF1609F44EC0F3E0FF12F9
:1012D00098C08F89882309F44AC0823089F440E895
:1012E0006DE08AE092E00E946805882309F489C0D5
:1012F0008EEF8093E80088C018161906CCF381C0E1
:10130000813029F440E86BE08EEF91E0ECCF833040
:1013100009F077C00E94DA0BDC011296ED90FC9088
:1013200013978E010F5F1F4F6801E114F10479F0EC
:10133000D701ED91FC910680F781E02DB801C7013E
:101340000995080F111DF701E084F184EECFD80153
:101350001C92F60101900020E9F73197BF016C194A
:101360007D0940E0C601BFCF6CEE71E002C068EEBF
:1013700071E0FB01449150E080E80E949D05B8CFE8
:10138000EE3F2AE0F20751F0808191818737A7E78D
:101390009A0721F09093FF0A8093FE0A87E797E768
:1013A0009183808380916000809396019BE088E127
:1013B0000FB6F894A895809360000FBE90936000DC
:1013C00097CF808191818737974709F091CFA89572
:1013D0008091600088618093600080919601809385
:1013E0006000EE3FBAE0FB0739F08091FE0A909171
:1013F000FF0A918380837CCF1092FF0A1092FE0A2D
:1014000077CF81E28093EB006C960FB6F894DEBF45
:101410000FBECDBFDF91CF91FF91EF91BF91AF9103
:101420009F918F917F916F915F914F913F912F91FC
:101430001F910F91FF90EF90DF90CF900F900FBE14
:101440000F901F9018950F931F93CF93DF932091C8
:1014500091012F5F322F37703093910120FF02C02E
:1014600020E801C020E031FD2064347009F02062E2
:10147000205FFC01EC01239600E011E06485662307
:1014800031F070E0C8010E9456146F5F01C060E047
:101490006187322F369F030E30E0311D1124311148
:1014A00002C0168202C031503683662311F06150AB
:1014B00061873196CE17DF0709F7DF91CF911F9132
:1014C0000F9108950E94CF160F931F93CF93DF9330
:1014D000EC0188819981009729F02A813B812617A8
:1014E000370788F48B016F5F7F4F0E9409160097C2
:1014F00061F0998388831B830A832C813D81232B90
:1015000011F4FC01108281E001C080E0DF91CF91F5
:101510001F910F910895CF93DF93EC0188819981FA
:10152000009711F00E948015198218821D821C827A
:101530001B821A82DF91CF910895FC01DB0187EDB8
:1015400091E0948783878C91858711968C91119770
:10155000868712968C9187870895CF93FC018085AA
:1015600091858617970709F444C0718760876115D4
:10157000710571F062307105E1F5C5857685678585
:1015800022813381C901880F991F820F931F1CC0CC
:1015900022813381C901880F991F820F931F4281D5
:1015A00053814D5F5F4F421753071CF1A385B485EC
:1015B000A80FB91F1C9211961C92119712961C929B
:1015C0002F5F3F4F0396EBCF428153814D5F5F4FBB
:1015D0004217530774F0A385B485A80FB91FCC93A5
:1015E00011967C93119712966C932F5F3F4F039641
:1015F000EBCFCF910895FC01808191810C948015EF
:1016000042E050E06DE871E087E092E00C946C06F7
:10161000CF93DF93FC01448155816081718187E024
:1016200092E00E946C06EC010E94000B8C0F9D1F43
:10163000DF91CF910895EF92FF920F931F93CF9375
:10164000DF93EC01FB0104811581E080F180E1145E
:10165000F104C9F001151105C9F08C819D81080FB5
:10166000191FB801CE010E94640A882361F0288105
:1016700039818C819D81B701820F931F0E94DD16F5
:101680001D830C8303C0CE010E948B0ACE01DF9123
:10169000CF911F910F91FF90EF900895CF92DF921D
:1016A000EF92FF920F931F93CF93DF93CDB7DEB7E7
:1016B000A1970FB6F894DEBF0FBECDBF7C01CB0162
:1016C000BA01F701118210821382128215821482EC
:1016D0008E010F5F1F4F22E044E00E9419116C0140
:1016E000009771F0FC0101900020E9F731978F011C
:1016F000081B190BB801C7010E94640A811104C0BC
:10170000C7010E948B0A08C0F70115830483B60144
:10171000808191810E94DD16A1960FB6F894DEBFFC
:101720000FBECDBFDF91CF911F910F91FF90EF9032
:10173000DF90CF9008952091D601211103C08FEF43
:101740009FEF08955FB7F89422E02093E90020917D
:10175000F20030E01216130614F421E030E0422FBC
:10176000FC0184E6415038F0289A8093D50190918D
:10177000F1009193F7CF2115310521F08091F2000E
:10178000882319F05FBFC90108958BE68093E800B4
:10179000F9CF2FB7F89483E08093E9009091E800A7
:1017A000892F807295FF04C09091F20080E4891B1C
:1017B0002FBF08958091AD0281110DC082E080930A
:1017C000A90284E08093AA021092AC021092AB02AC
:1017D00081E08093AD0289EA92E00895823108F0B9
:1017E0008251E82FF0E0E85EFD4FE49180917B00AC
:1017F000E3FB222720F930E095E0220F331F9A9572
:10180000E1F78F7D282B20937B00E770E064E09365
:101810007C0080917A00806480937A0080917A00C5
:1018200086FDFCCF809178002091790090E0922B8A
:1018300008953FB7F8948091A5029091A602A091D7
:10184000A702B091A80226B5A89B05C02F3F19F0AA
:101850000196A11DB11D3FBFBA2FA92F982F882730
:10186000820F911DA11DB11DBC01CD0142E0660F8B
:10187000771F881F991F4A95D1F708958F929F92DD
:10188000AF92BF92CF92DF92EF92FF926B017C01F9
:101890000E94190C4B015C01C114D104E104F10454
:1018A000F1F00E94190CDC01CB0188199909AA09F1
:1018B000BB09883E9340A105B10570F321E0C21A2F
:1018C000D108E108F10888EE880E83E0981EA11C7B
:1018D000B11CC114D104E104F10419F7DDCFFF906C
:1018E000EF90DF90CF90BF90AF909F908F90089532
:1018F0001F920F920FB60F9211242F933F938F9345
:101900009F93AF93BF938091D1019091D201A09109
:10191000D301B091D4013091A40223E0230F2D37DD
:1019200020F40196A11DB11D05C026E8230F0296E3
:10193000A11DB11D2093A4028093D1019093D201E7
:10194000A093D301B093D4018091A5029091A602F7
:10195000A091A702B091A8020196A11DB11D80938C
:10196000A5029093A602A093A702B093A802BF91EC
:10197000AF919F918F913F912F910F900FBE0F903C
:101980001F901895CF93DF93CDB7DEB72E970FB684
:10199000F894DEBF0FBECDBF789484B5826084BD5D
:1019A00084B5816084BD85B5826085BD85B5816063
:1019B00085BD80916E00816080936E0010928100E1
:1019C000809181008260809381008091810081609C
:1019D000809381008091800081608093800080915D
:1019E000910082608093910080919100816080934A
:1019F0009100809190008160809390008091C1005F
:101A000084608093C1008091C10082608093C10096
:101A10008091C10081608093C1008091C30081608A
:101A20008093C3008091C00082608093C000809149
:101A3000C20081608093C20080917A0084608093AC
:101A40007A0080917A00826080937A0080917A0097
:101A5000816080937A0080917A00806880937A0018
:101A60001092D60110929901109298018091D7009E
:101A700081608093D70080EA8093D80089B5806127
:101A800089BD89B5826089BD09B400FEFDCF61E0E2
:101A900070E080E090E00E943E0C8091D8008F7C46
:101AA00080618093D8008091E000807F8093E00087
:101AB0008091E1008E7E8093E1008DE08093E200D2
:101AC000559A209A5D9828988FEF9FEF9093140273
:101AD0008093130268EB7BE080E090E00E943E0C74
:101AE0008091AD01811145C010929F0110929E011D
:101AF0008FEF8093A2018093A3018093A401809330
:101B0000A5018093A6018093A70181E08093A8019D
:101B10001092AA011092A9011092A1011092A001A5
:101B20008091BB019091BC01892B31F48CE991E04B
:101B30009093BC018093BB01E0919A01F0919B01CD
:101B4000309721F08CE991E0958384838CE991E0D2
:101B500090939B0180939A011092AC011092AB017B
:101B60008DE291E090939D0180939C0181E08093B0
:101B7000AD01579A87ED91E090939F0180939E016C
:101B800080E190E09093AA018093A90180919A024C
:101B900090919B02A0919C02B0919D02843C29E00F
:101BA0009207A105B10520F484EC99E0A0E0B0E033
:101BB00080939A0290939B02A0939C02B0939D0203
:101BC0001FEF1093970219831A821B82BE016F5F69
:101BD0007F4F87E892E00E949D0A19831A831B8237
:101BE000BE016F5F7F4F87E792E00E949D0A1982D6
:101BF0001A821B83BE016F5F7F4F87E692E00E94CF
:101C00009D0A198280E88A831B82BE016F5F7F4F25
:101C100087E592E00E949D0A43E150E065E571E0AE
:101C200087E092E00E946C060E94000BCC24C394D3
:101C3000D12C80E00E94EE0BBC01990F880B990B10
:101C40000E946D134B015C016093CD017093CE0136
:101C50008093CF019093D00181E00E94EE0BBC01F4
:101C6000990F880B990B0E946D136093C9017093B3
:101C7000CA018093CB019093CC0182E00E94EE0BCD
:101C8000BC01990F880B990B0E946D136093C501DD
:101C90007093C6018093C7019093C80183E00E94AE
:101CA000EE0BBC01990F880B990B0E946D1360938A
:101CB000C1017093C2018093C3019093C40120E0DD
:101CC00030E048EC52E4C501B4010E94E314181658
:101CD00084F5B501A401CE0101960E944E0B69E680
:101CE00071E0CE0107960E943807BE016F5F7F4FFB
:101CF000CE0107960E941B0B0E94080BCE0107968F
:101D00000E94FB0ACE0101960E94FB0A6091CD0160
:101D10007091CE018091CF019091D0010E94AD14BD
:101D2000655871096D38710508F00EC162E070E008
:101D300002C060E070E087E892E00E94AD0A809007
:101D4000C9019090CA01A090CB01B090CC0120E0D5
:101D500030E048EC52E4C501B4010E94E3141816C7
:101D600084F5B501A401CE0101960E944E0B62E7F5
:101D700071E0CE0107960E943807BE016F5F7F4F6A
:101D8000CE0107960E941B0B0E94080BCE010796FE
:101D90000E94FB0ACE0101960E94FB0A6091C901D4
:101DA0007091CA018091CB019091CC010E94AD1439
:101DB000695371406D38710508F0D2C062E070E07F
:101DC00002C060E070E087E792E00E94AD0A809078
:101DD000C5019090C601A090C701B090C80120E055
:101DE00030E048EC52E4C501B4010E94E314181637
:101DF00084F5B501A401CE0101960E944E0B6BE75C
:101E000071E0CE0107960E943807BE016F5F7F4FD9
:101E1000CE0107960E941B0B0E94080BCE0107966D
:101E20000E94FB0ACE0101960E94FB0A6091C50147
:101E30007091C6018091C7019091C8010E94AD14B4
:101E4000615272406D38710508F096C062E070E032
:101E500002C060E070E087E692E00E94AD0A8090E8
:101E6000C1019090C201A090C301B090C40120E0D4
:101E700030E048EC52E4C501B4010E94E3141816A6
:101E800084F5B501A401CE0101960E944E0B64E8D1
:101E900071E0CE0107960E943807BE016F5F7F4F49
:101EA000CE0107960E941B0B0E94080BCE010796DD
:101EB0000E94FB0ACE0101960E94FB0A6091C101BB
:101EC0007091C2018091C3019091C4010E94AD1430
:101ED000695B73406D38710508F05AC062E070E0CC
:101EE00002C060E070E087E592E00E94AD0AF090E9
:101EF000970280919A0290919B02A0919C02B091CE
:101F00009D02892B8A2B8B2B09F44EC00E94190C41
:101F10000091BD011091BE012091BF013091C0011F
:101F2000DC01CB01801B910BA20BB30B00919A0239
:101F300010919B0220919C0230919D028017910785
:101F4000A207B307B0F230C080918F029091900247
:101F5000019709F4F4CED0929002C0928F02EFCE96
:101F600080917F0290918002019709F430CFD09246
:101F70008002C0927F022BCF80916F0290917002FD
:101F8000019709F46CCFD0927002C0926F0267CFB4
:101F900080915F0290916002019709F4A8CFD092DE
:101FA0006002C0925F02A3CF0E94190C6093BD0132
:101FB0007093BE018093BF019093C001E091A20293
:101FC000F091A302309759F040919E0250919F02E8
:101FD0006091A0027091A1028F2D0995F82E0091B9
:101FE000BB011091BC014F2C512C612C712C01159F
:101FF000110509F467C0D8011C96EC901C978091DC
:102000009802909199028436910510F41C961C92C6
:10201000D801ED91FC91428153815E874D871982F1
:102020001A821B82F11019C0D8011D964D915C9146
:102030001E9712966D917C9113979E012F5F3F4FD3
:10204000C801ED85FE850995D8011C96EC921C9778
:1020500014960D911C911597CACFF8013696AE01D2
:102060004F5F5F4F5A01480159E0850E911C219145
:10207000222309F132803320F1F0822F90E0A0E09A
:10208000B0E09C01AD012F5F3F4F4F4F5F4FC30149
:10209000B2010E9446149B01AC01832D90E0A0E0A8
:1020A000B0E0BC01CD016F5F7F4F8F4F9F4F0E940B
:1020B0004614D5018C93BFEFAB1ABB0AE815F9059E
:1020C000B1F6B2CF8091B9019091BA019C012F5F16
:1020D0003F4F3093BA012093B90149970CF447C0A0
:1020E0008FB7F8940091D1011091D2012091D301C2
:1020F0003091D4018FBF8091B9019091BA01E8EE7F
:10210000F3E08E9FB0018F9F700D9E9F700D112484
:10211000072E000C880B990B8090B5019090B601AA
:10212000A090B701B090B801A90198012819390908
:102130004A095B090E946A1430939902209398021D
:102140001092BA011092B9012FB7F8948091D10181
:102150009091D201A091D301B091D4012FBF80936F
:10216000B5019093B601A093B701B093B80160E1B7
:1021700070E080E090E00E943E0C40E050E0452B93
:1021800009F457CD0E94000054CDE7E0F2E013823D
:10219000128288EE93E0A0E0B0E084839583A6836A
:1021A000B7838FE391E0918380838FEF9FEF9587D3
:1021B0008487E7E8F2E081E591E0918380831382F0
:1021C00012822BE031E035832483E7E7F2E091834C
:1021D000808324E030E03383228320E032E03583C3
:1021E0002483E7E6F2E09183808328E030E03383C4
:1021F000228320E033E035832483E7E5F2E0918316
:1022000080838CE090E09383828381E094E09583E7
:102210008483E7E9F2E08FEF8083128211821486D3
:1022200013868FEF9FEFDC0187839087A187B287AA
:102230000895EF920F931F93CF93DF93E80147FD2B
:1022400002C034E001C034E1042E000C550B57FFEE
:1022500003C0519541955109E32E022F242FAE0161
:102260000E943911CE01DF91CF911F910F91EF9014
:102270000895A9E0B0E0EFE3F1E10C9406146A01DF
:10228000122FB02E2BE3201720F0FF24F394F00E32
:1022900002C02CE3F22E0F2D27E0AE014F5F5F4FFF
:1022A0000E949312BC014981842F8970813031F0E2
:1022B000E1FC06C0E0FE06C090E205C09DE203C05E
:1022C0009BE201C090E05E2D507143FF3CC0911134
:1022D00002C083E001C084E0811718F4212F281B7D
:1022E00001C020E051110BC0F601822F30E288239B
:1022F00019F031938150FBCFC20ED11C20E09923FD
:1023000029F0D6019C93F60131966F01C601039620
:10231000E2FE0AC03EE4D6013C9341E411964C93A0
:10232000119712963C9306C03EE6F601308341E6D3
:1023300041833283FC01322F40E2332309F442C04F
:1023400041933150FACF42FF44C0911102C083E063
:1023500001C084E0811718F4212F281B01C020E060
:1023600051110BC0F601822F30E2882319F031930E
:102370008150FBCFC20ED11C20E0992329F0D60159
:102380009C93F60131966F01C6010396E2FE0BC0E5
:1023900039E4D6013C933EE411963C93119736E420
:1023A00012963C9307C039E6F60130833EE631834E
:1023B00036E63283FC01322F40E2332319F0419399
:1023C0003150FBCFFC01E20FF11D10828EEF9FEF29
:1023D000A6C021E030E0911102C020E030E01616E6
:1023E00017061CF4FB01319602C0E1E0F0E02E0F6D
:1023F0003F1FBB2021F0EB2DF0E0319602C0E0E062
:10240000F0E02E0F3F1FE12FF0E02E173F071CF4E6
:10241000121B212F01C020E08E2D887159F4F60186
:10242000822F30E2882319F031938150FBCFC20E06
:10243000D11C20E0992329F0D6019C93F601319616
:102440006F0151110BC0F601822F90E3882319F020
:1024500091938150FBCFC20ED11C20E00F2D060FAF
:102460009A81342F307144FF03C0913309F4015035
:10247000101624F4093018F008E001C001E0AB01A7
:1024800077FF02C040E050E0FB01E41BF50BA1E048
:10249000B0E0AC0FBD1FEA0FFB1F8EE2A82E4B0170
:1024A000801A91080B2D10E01195019511094F3FED
:1024B000BFEF5B0721F4D601AC9211966D01641752
:1024C00075072CF08416950614F4818101C080E311
:1024D000415051093196D60111967D01401751079F
:1024E00024F0D6018C936701E2CF6417750739F4A5
:1024F000963320F4953319F4311101C081E3F601CC
:102500008083F701822F90E2882319F09193815004
:10251000FBCFF701E20FF11D108280E090E02996D9
:10252000ECE00C942214283008F027E03327DA017D
:10253000990F311D87FD916000966105710539F491
:1025400032602E5F3D9330E32A95E1F708959F3F77
:1025500030F080387105610509F03C5F3C5F3D93C8
:10256000913008F08068911DDF93CF931F930F93F4
:10257000FF92EF92192F987F9695E92F9695969551
:10258000E90FFF27EA5FFE4F99273327EE24FF2448
:10259000A701E70105900894079428F4360FE71E79
:1025A000F81E491F511D660F771F881F991F06943B
:1025B000A1F70590079428F4E70EF81E491F561F4F
:1025C000C11D770F881F991F661F0694A1F70590FC
:1025D000079428F4F80E491F561FC71FD11D880FF6
:1025E000991F661F771F0694A1F70590079420F4A2
:1025F000490F561FC71FD81F990F661F771F881FC7
:102600000694A9F784911095177041F0D695C79557
:1026100057954795F794E7941A95C1F7ECEAF0E0DF
:1026200068941590159135916591959105907FE28B
:102630007395E118F10A430B560BC90BD009C0F78B
:10264000E10CF11E431F561FC91FD01D7EF47033CD
:1026500011F48A95E6CFE894015030F0080F0AF49F
:102660000027021708F4202F2395022F7A3328F031
:1026700079E37D932A95E9F710C07D932A9589F631
:10268000069497956795379517951794E118F10A71
:10269000430B560BC90BD00998F023957E91739587
:1026A0007A3308F070E37C932013B8F77E91706161
:1026B0007D9330F0839571E37D9370E32A95E1F784
:1026C0001124EF90FF900F911F91CF91DF919927E7
:1026D00087FD90950895E89409C097FB3EF4909586
:1026E0008095709561957F4F8F4F9F4F9923A9F0EB
:1026F000F92F96E9BB279395F6958795779567957A
:10270000B795F111F8CFFAF4BB0F11F460FF1BC0BD
:102710006F5F7F4F8F4F9F4F16C0882311F096E950
:1027200011C0772321F09EE8872F762F05C06623FE
:1027300071F096E8862F70E060E02AF09A95660FB7
:10274000771F881FDAF7880F9695879597F9089570
:10275000990F0008550FAA0BE0E8FEEF16161706B2
:10276000E807F907C0F012161306E407F50798F01A
:10277000621B730B840B950B39F40A2661F0232B33
:10278000242B252B21F408950A2609F4A140A695AF
:102790008FEF811D811D089557FD9058440F551FDF
:1027A00059F05F3F71F04795880F97FB991F61F0D3
:1027B0009F3F79F087950895121613061406551F4A
:1027C000F2CF4695F1DF08C0161617061806991FB6
:1027D000F1CF86957105610508940895E894BB27AB
:1027E00066277727CB0197F908950E943714A59F94
:1027F000900DB49F900DA49F800D911D11240895FC
:102800002F923F924F925F926F927F928F929F9200
:10281000AF92BF92CF92DF92EF92FF920F931F93EE
:10282000CF93DF93CDB7DEB7CA1BDB0B0FB6F8949F
:10283000DEBF0FBECDBF09942A88398848885F84DF
:102840006E847D848C849B84AA84B984C884DF8050
:10285000EE80FD800C811B81AA81B981CE0FD11D34
:102860000FB6F894DEBF0FBECDBFED010895A29F55
:10287000B001B39FC001A39F700D811D1124911D54
:10288000B29F700D811D1124911D0895DB018F935E
:102890009F930E94F513BF91AF91A29F800D911D50
:1028A000A39F900DB29F900D1124089597FB072EC2
:1028B00016F4009407D077FD09D00E94931407FC0A
:1028C00005D03EF4909581959F4F08957095619540
:1028D0007F4F0895A1E21A2EAA1BBB1BFD010DC05C
:1028E000AA1FBB1FEE1FFF1FA217B307E407F507C0
:1028F00020F0A21BB30BE40BF50B661F771F881F9C
:10290000991F1A9469F760957095809590959B0131
:10291000AC01BD01CF0108950E943714B7FF08959F
:10292000821B930B0895AA1BBB1B51E107C0AA1F72
:10293000BB1FA617B70710F0A61BB70B881F991F60
:102940005A95A9F780959095BC01CD010895EE0F99
:10295000FF1F0590F491E02D09940E94B41468942F
:10296000B1110C94EF1308950E94D41388F09F576F
:1029700098F0B92F9927B751B0F0E1F0660F771FA3
:10298000881F991F1AF0BA95C9F714C0B13091F099
:102990000E94EE13B1E008950C94EE13672F782F88
:1029A0008827B85F39F0B93FCCF38695779567955E
:1029B000B395D9F73EF490958095709561957F4FCA
:1029C0008F4F9F4F08950E94A81308F48FEF08952A
:1029D0000F931F93CF93DF938230910510F482E021
:1029E00090E0E091B702F091B80220E030E0A0E082
:1029F000B0E0309719F1408151810281138148176D
:102A00005907C8F08417950769F4109731F01296AA
:102A10000C93129713961C9327C00093B702109340
:102A2000B80222C02115310519F04217530718F4D6
:102A30009A01BD01EF01DF01F801DBCF211531055E
:102A4000F9F0281B390B2430310580F48A819B81F1
:102A50006115710521F0FB019383828304C090937B
:102A6000B8028093B702FE01329644C0FE01E20F25
:102A7000F31F8193919322503109398328833AC0FF
:102A80002091B5023091B602232B41F420910E0122
:102A900030910F013093B6022093B50220910C01C2
:102AA00030910D012115310541F42DB73EB740910C
:102AB000100150911101241B350BE091B502F091EA
:102AC000B602E217F307A0F42E1B3F0B28173907B5
:102AD00078F0AC014E5F5F4F2417350748F04E0F7A
:102AE0005F1F5093B6024093B5028193919302C049
:102AF000E0E0F0E0CF01DF91CF911F910F910895B9
:102B0000CF93DF93009709F481C0FC0132971382C1
:102B10001282A091B702B091B802109781F420817F
:102B20003181820F931F2091B5023091B602281790
:102B3000390751F5F093B602E093B50267C0ED0195
:102B400020E030E0CE17DF0740F44A815B819E0130
:102B500041155105F1F0EA01F5CFD383C2834081DD
:102B60005181840F951FC817D90759F4888199811D
:102B7000840F951F0296918380838A819B81938322
:102B800082832115310529F4F093B802E093B7024E
:102B90003DC0E901FB83EA8349915991C40FD51FD8
:102BA000EC17FD0761F480819181840F951F0296D7
:102BB000E90199838883828193819B838A83E0E002
:102BC000F0E012968D919C911397009719F0FD01FA
:102BD000DC01F7CF8D919C9111979D012E5F3F4FA6
:102BE000820F931F2091B5023091B6022817390742
:102BF00069F4309729F41092B8021092B70202C01B
:102C000013821282B093B602A093B502DF91CF91E6
:102C10000895A0E0B0E0EFE0F6E10C940414EC01BC
:102C2000009721F4CB010E94E814B4C0FC01E60F28
:102C3000F71F9C0122503109E217F30708F4A8C0DE
:102C4000D9010D911C91119706171707B0F00530A7
:102C5000110508F49BC0C80104978617970708F46C
:102C600095C002501109061B170B019311936D9328
:102C70007C93CF010E94801589C05B01A01AB10A24
:102C80004C01800E911EA091B702B091B802612C48
:102C9000712CE12CF12C109709F446C08D919C9178
:102CA0001197A815B905B1F56C0142E0C40ED11C0D
:102CB000CA14DB0478F14C018A189B08640142E0D5
:102CC000C40ED11C1296BC9012971396AC91B5E02D
:102CD000CB16D10440F0B282A38391828082D901C5
:102CE0006D937C9309C00E5F1F4F800F911FF901F8
:102CF00091838083EB2DFA2FE114F10431F0D70199
:102D00001396FC93EE93129741C0F093B802E093B0
:102D1000B7023CC06816790608F43C017D011296A2
:102D20000D90BC91A02DB7CF8091B5029091B602C5
:102D300088169906E1F466167706C8F480910C01AE
:102D400090910D01009741F48DB79EB7409110010D
:102D500050911101841B950BE817F907C8F4F09303
:102D6000B602E093B502F901718360830FC0CB0115
:102D70000E94E8147C01009759F0A801BE010E944E
:102D8000D416CE010E948015C70104C0CE0102C036
:102D900080E090E0CDB7DEB7EEE00C94201481E047
:102DA00090E0F8940C94E416FB01DC0102C0019061
:102DB0000D9241505040D8F70895FB01DC0101907D
:0C2DC0000D920020E1F70895F894FFCF79
:102DCC00FFFFFFFF00E10000000000000000B9025F
:102DDC00200000C1808100000000000000620A6237
:102DEC000A620A420166016A0100000000B004F3A5
:102DFC00044001420166013D016D0100000000FB31
:102E0C00056C06F20611061C061A07F606000000F1
:102E1C000039053705205374617274207570206178
:102E2C0063746976697469790068696768206130D0
:102E3C002000686967682061312000686967682034
:102E4C00613220006869676820613320000D0A0038
:00000001FF
