:100000000C9490000C94B8000C94B8000C94B800B8
:100010000C94B8000C94B8000C94B8000C94B80080
:100020000C94B8000C94B8000C94F3060C9465077B
:100030000C94B8000C94B8000C94B8000C94B80060
:100040000C94B8000C94B8000C94B8000C94B80050
:100050000C94B8000C94B8000C94B8000C943E0CAE
:100060000C94B8000C94B8000C94B8000C94B80030
:100070000C94B8000C94B8000C94B8000C94B80020
:100080000C94B8000C94B8000C94B8000C94B80010
:100090000C94B8000C94B8000C94B8000C94B80000
:1000A0000C94B8000C94B8000C94B800080B000233
:1000B0000202010009040000010202000005240000
:1000C0001001052401010104240206052406000193
:1000D0000705810310004009040100020A00000026
:1000E00007050202400000070583024000000403E8
:1000F000090412010002EF02014041233700000110
:100100000102030141726475696E6F204C4C43001B
:1001100041726475696E6F204D6963726F000C0ED9
:1001200011241FBECFEFDAE0DEBFCDBF11E0A0E0AB
:10013000B1E0EEE6FDE102C005900D92AE35B107EB
:10014000D9F722E0AEE5B1E001C01D92A333B207BA
:10015000E1F710E0C0E9D0E004C02197FE010E9461
:100160009B0ECF38D107C9F70E94880C0C94B50EAE
:100170000C940000CF92DF92EF92FF920F931F93A7
:10018000CF93DF936C017A018B01C0E0D0E0CE15F4
:10019000DF0581F0D8016D918D01D601ED91FC91C3
:1001A0000190F081E02DC6010995892B11F021966F
:1001B000EECF7E01C701DF91CF911F910F91FF908C
:1001C000EF90DF90CF900895CF93DF931F92CDB73C
:1001D000DEB76983DC01ED91FC910280F381E02DB3
:1001E00041E050E0BE016F5F7F4F09950F90DF91B6
:1001F000CF91089583E08093E9008091F2008823F5
:1002000019F08AE38093E8000895FC0184859585C0
:1002100097FD0BC09FB7F89482E08093E90080912E
:10022000F2009FBF90E0019608959FB7F89482E096
:100230008093E9008091F2009FBF90E008950895B7
:1002400080E090E008950F931F93CF93DF93209168
:100250005F012F5F322F377030935F0120FF02C0A4
:1002600020E801C020E031FD2064347009F02062F4
:10027000205FFC01EC01239600E011E06485662319
:1002800031F070E0C8010E943F0E6F5F01C060E076
:100290006187322F369F030E30E0311D112431115A
:1002A00002C0168202C031503683662311F06150BD
:1002B00061873196CE17DF0709F7DF91CF911F9144
:1002C0000F91089580E991E00895579A08950F934A
:1002D0001F93CF93DF93CDB7DEB762970FB6F89435
:1002E000DEBF0FBECDBF8C01F901DC011C968C91E5
:1002F0007A8369835C834B835E834D8390819D8782
:1003000091819E8792819F87813029F4CE01019649
:100310000E94230106C01C861B861A861986188631
:100320001F8283E0888B1A8A198AD801ED91FC918B
:100330000484F585E02DBE016F5F7F4FC8010995EC
:1003400062960FB6F894DEBF0FBECDBFDF91CF919E
:100350001F910F9108950F931F93CF93DF93CDB704
:10036000DEB762970FB6F894DEBF0FBECDBF8C012B
:10037000F901DC011C968C917A8369835C834B8341
:100380005E834D8390819D8791819E8792819F8717
:10039000813029F4CE0101960E94230106C01C86FB
:1003A0001B861A86198618861F82188A1A8A198A45
:1003B000D801ED91FC910484F585E02DBE016F5FBD
:1003C0007F4FC801099562960FB6F894DEBF0FBE45
:1003D000CDBFDF91CF911F910F910895CF93DF9300
:1003E00000D000D000D0CDB7DEB7AB011C821D829B
:1003F0001E82DC01ED91FC910190F081E02D1982CB
:100400001A821B829E012F5F3F4FBE016C5F7F4FA0
:10041000099526960FB6F894DEBF0FBECDBFDF91CB
:10042000CF910895FC0185859685089580E090E040
:1004300008958F929F92AF92BF92CF92DF92EF92E8
:10044000FF920F931F93CF93DF936C017B018A017F
:1004500080910B01882309F45CC08091840188237A
:1004600009F457C08091650180FF05C08091E000CC
:1004700082608093E000E801B12C8AEFA82E93E01F
:10048000892E2AE3922E209711F4BB20D9F10E94E5
:100490008B0A81110AC0AA94AA20D9F161E070E008
:1004A00080E090E00E94040CEECF282F30E0C217CD
:1004B000D3070CF48C2F9FB7F8948092E900209119
:1004C000E80025FF1DC0282F30E0C21BD30BF70129
:1004D000815020F041914093F100FACFE20EF31EDB
:1004E000BB2019F09092E8000AC08091E80085FDD9
:1004F00007C09092E800BB24B394209709F0B12C78
:100500009FBFC1CF5D9A84E68093640110161106E7
:1005100044F081E090E0F6019383828380E090E0F4
:1005200001C0C801DF91CF911F910F91FF90EF9013
:10053000DF90CF90BF90AF909F908F9008950E94D2
:100540008B0A90E008950F931F93CF93DF931F9230
:10055000CDB7DEB78C01FC018485958597FF0EC071
:10056000CE0101960E945D0A019719F4898190E0FD
:1005700002C08FEF9FEFF80195878487F80184858B
:1005800095850F90DF91CF911F910F910895CF9393
:10059000DF931F92CDB7DEB7FC018485958597FD6B
:1005A00005C02FEF3FEF358724870BC0CE010196A2
:1005B0000E945D0A019719F4898190E002C08FEFD3
:1005C0009FEF0F90DF91CF9108954F925F926F92BE
:1005D0007F928F92AF92BF92CF92DF92EF920F9362
:1005E0001F93CF93DF933C01EB010E94B00AF3010C
:1005F00027853089621B730B6A307105B0F3F8945C
:10060000E881F9817BB170686BB16F776BB9CB848E
:1006100088852C2D281B822F2887BF844A805B80E9
:100620001E850C85DD841F5F0F5FD3949E813F8103
:10063000A984EA844281D20120E0C32F522F322FB5
:100640003281442788943111380F08F43FEF8195A7
:10065000889410FD430F4795889411FD430F4795EB
:10066000889412FD430F4795889413FD430F4795D7
:10067000889414FD430F4795889415FD430F4795C3
:10068000889416FD430F4795889417FD430F4795AF
:100690008894232F1111242F8C0D422F002C7BB90D
:1006A00000C000C000C047FF6BB93081222788948A
:1006B00000C000C000C000C000C000C000C0002CCE
:1006C00000C000C06BB93111390F00C000C0002C50
:1006D0007BB900C000C000C046FF6BB908F43FEF13
:1006E0009195889400C000C000C000C000C000C048
:1006F00000C0002C00C000C06BB900FD230F00C07B
:1007000000C0002C7BB900C000C000C045FF6BB921
:100710002795889401FD230F00C000C000C000C0D1
:1007200000C000C000C0002C00C000C06BB92795FD
:10073000889400C000C0002C7BB900C000C000C07D
:1007400044FF6BB902FD230F2795889400C000C0B9
:1007500000C000C000C000C000C0002C00C000C02D
:100760006BB903FD230F00C000C0002C7BB900C093
:1007700000C000C043FF6BB92795889404FD230F88
:1007800000C000C000C000C000C000C000C0002CFD
:1007900000C000C06BB92795889400C000C0002C31
:1007A0007BB900C000C000C042FF6BB905FD230F3C
:1007B0002795889400C000C000C000C000C000C0E1
:1007C00000C0002C00C000C06BB906FD230F00C0A4
:1007D00000C0002C7BB900C000C000C041FF6BB955
:1007E0002795889407FD230F00C000C000C000C0FB
:1007F00000C000C000C0002C00C000C06BB927952D
:10080000889400C000C0002C7BB900C000C000C0AC
:1008100040FF6BB9432F0111422F9A0D00C000C059
:1008200000C000C000C000C000C0002C00C000C05C
:100830006BB900C000C000C0002C7BB900C000C074
:1008400000C047FF6BB931812227889400C000C0E7
:1008500000C000C000C000C000C0002C00C000C02C
:100860006BB931113C0F00C000C0002C7BB900C037
:1008700000C000C046FF6BB908F43FEFEB0DF11D5F
:1008800000C000C000C000C000C000C000C0002CFC
:1008900000C000C06BB9D0FC230F00C000C0002C0A
:1008A0007BB900C000C000C045FF6BB92795889494
:1008B000D1FC230F00C000C000C000C000C000C0B9
:1008C00000C0002C00C000C06BB92795889400C000
:1008D00000C0002C7BB900C000C000C044FF6BB951
:1008E000D2FC230F2795889400C000C000C000C030
:1008F00000C000C000C0002C00C000C06BB9D3FC19
:10090000230F00C000C0002C7BB900C000C000C095
:1009100043FF6BB927958894D4FC230F00C000C017
:1009200000C000C000C000C000C0002C00C000C05B
:100930006BB92795889400C000C0002C7BB900C01B
:1009400000C000C042FF6BB9D5FC230F27958894E7
:1009500000C000C000C000C000C000C000C0002C2B
:1009600000C000C06BB9D6FC230F00C000C0002C33
:100970007BB900C000C000C041FF6BB927958894C7
:10098000D7FC230F00C000C000C000C000C000C0E2
:1009900000C0002C00C000C06BB92795889400C02F
:1009A00000C0002C7BB900C000C000C040FF6BB984
:1009B000432FD110422FC19500C000C000C000C01D
:1009C00000C000C000C0002C00C000C06BB9CE0D3C
:1009D00000C000C000C07BB900C000C000C047FF1D
:1009E0006BB932812227889400C000C000C000C0CB
:1009F00000C000C000C0002C00C000C06BB93111A5
:100A0000380F00C000C0002C7BB900C000C000C07F
:100A100046FF6BB908F43FEF8195889400C000C091
:100A200000C000C000C000C000C0002C00C000C05A
:100A30006BB910FD230F00C000C0002C7BB900C0B3
:100A400000C000C045FF6BB92795889411FD230FA6
:100A500000C000C000C000C000C000C000C0002C2A
:100A600000C000C06BB92795889400C000C0002C5E
:100A70007BB900C000C000C044FF6BB912FD230F5A
:100A80002795889400C000C000C000C000C000C00E
:100A900000C0002C00C000C06BB913FD230F00C0C4
:100AA00000C0002C7BB900C000C000C043FF6BB980
:100AB0002795889414FD230F00C000C000C000C01B
:100AC00000C000C000C0002C00C000C06BB927955A
:100AD000889400C000C0002C7BB900C000C000C0DA
:100AE00042FF6BB915FD230F2795889400C000C005
:100AF00000C000C000C000C000C0002C00C000C08A
:100B00006BB916FD230F00C000C0002C7BB900C0DC
:100B100000C000C041FF6BB92795889417FD230FD3
:100B200000C000C000C000C000C000C000C0002C59
:100B300000C000C06BB92795889400C000C0002C8D
:100B40007BB900C000C000C040FF6BB9432F11113A
:100B5000422F8C0D00C000C000C000C000C000C00B
:100B600000C0002C00C000C06BB900C0119709F094
:100B700096CD20EC33E0D2010E94750EDC01CB0152
:100B8000F4E0B695A79597958795FA95D1F720E06B
:100B900030E0B901EAE94E9E040C611D5E9E600DD5
:100BA000711D1124650D711D860F971FA11DB11DAB
:100BB000893E43E09407A105B10508F434C0885E7E
:100BC0009340A109B10942E0B695A79597958795FD
:100BD0004A95D1F747E0849F080E211D949F200D70
:100BE000311D1124290F311D60915E0170E0860FC7
:100BF000971F820F931F4091B5015091B6016091EC
:100C0000B7017091B801292F3327420F531F611D7F
:100C1000711D4093B5015093B6016093B701709375
:100C2000B80180935E0178940E94B00AF301708B42
:100C30006787DF91CF911F910F91EF90DF90CF9059
:100C4000BF90AF908F907F906F905F904F9008957E
:100C500040916201509163012091600130916101E6
:100C600042175307B4F49091E8009570E1F3909126
:100C7000E80092FD19C08093F1008091620190918B
:100C8000630101968F739927892B19F48EEF809356
:100C9000E800809162019091630101969093630155
:100CA0008093620181E0089580E00895615030F002
:100CB0002091F100FC0120830196F8CF289A84E668
:100CC0008093830108950E94B00EDF92EF92FF920D
:100CD0000F931F93CF93DF93D82EF92EE42E062F78
:100CE00010E0C8010196880F0E94280683E00E9448
:100CF0002806CD2DDF2D0C0F1D1FC017D10789F041
:100D0000E7FE03C0FE01849101C088810E9428068D
:100D1000F82E80E00E9428068F2121968111EDCFC8
:100D200001C081E0DF91CF911F910F91FF90EF9073
:100D3000DF900895DF92EF92FF920F931F93CF936E
:100D4000DF93D82E8A017B01E40EF51EEB01CE1550
:100D5000DF0571F0D7FE03C0FE01849101C08881D8
:100D60000E94280621968111F2CF8FEF9FEF01C0DC
:100D7000C801DF91CF911F910F91FF90EF90DF900D
:100D800008950F931F93CF93DF931F92CDB7DEB7D4
:100D900082E0898342E450E06CEA70E080E80E94DF
:100DA0009A060E949C0ADC0112960D911C911397E1
:100DB0000115110589F0D801ED91FC910280F381B4
:100DC000E02DBE016F5F7F4FC801099597FD04C0FC
:100DD000F80100851185ECCF89810F90DF91CF91CB
:100DE0001F910F9108951F920F920FB60F92112429
:100DF0008F939F938091E1009091E100937F909376
:100E0000E10083FF0FC01092E90091E09093EB00A6
:100E10001092EC0092E39093ED001092840198E020
:100E20009093F00082FF20C093E09093E9009091AE
:100E3000F200992319F09AE39093E80090916401ED
:100E4000992339F090916401915090936401992312
:100E500089F190918301992339F090918301915008
:100E600090938301992341F184FF10C08091E200A7
:100E70008E7E81608093E2008091E1008F7E80937E
:100E8000E100809165018E7E806111C080FF16C0F7
:100E90008091E2008E7E80618093E2008091E1008B
:100EA0008E7E8093E100809165018E7E81608093CB
:100EB000650104C05D98CDCF2898D6CF9F918F91C2
:100EC0000F900FBE0F901F9018951F920F920FB6A4
:100ED0000F921124CF92DF92EF92FF920F931F9304
:100EE0002F933F934F935F936F937F938F939F9332
:100EF000AF93BF93EF93FF93CF93DF93CDB7DEB75D
:100F00006C97DEBFCDBF1092E9008091E80083FFAF
:100F1000FBC168E0CE0145960E94560682EF8093A1
:100F2000E8008D8987FF05C09091E80090FFFCCF15
:100F300003C09EEF9093E800982F907609F0C6C00A
:100F40009E894F89588D2F89F88C91110CC080385B
:100F500029F4809167018093F10002C01092F100A2
:100F60001092F10045C1913051F4811141C14130DD
:100F7000510509F03DC1809167018D7F0BC0933011
:100F800061F4811135C14130510509F031C18091C1
:100F900067018260809367012BC1953049F480918D
:100FA000E80080FFFCCF822F80688093E30020C19F
:100FB000963009F05EC00B8D1C8D22E01092E90086
:100FC0001092630110926201F21232C0109261011C
:100FD000109260010E94C10699E0BE016F5F7F4FD1
:100FE000DB01E92F1D92EA95E9F79983FA8291E0F6
:100FF0009E8390EA98879AEF9987209162013091B9
:101000006301275F3F4F3C832B838D831092E90060
:1010100010926301109262011093610100936001CC
:1010200049E050E080E00E949A060E94C106E0C0BC
:1010300010936101009360010E949C0ADC011296EA
:101040000D911C9113970115110509F4BBC0D8012E
:10105000ED91FC910480F581E02DBE016B5E7F4F28
:10106000C8010995009709F0C7C0F80100851185EE
:10107000EACF973009F445C1983021F481E080939C
:10108000F100B6C0993009F0B3C0837009F039C1DE
:10109000EDE0F1E081E031E096E32081211109C02B
:1010A0008EE78093EA001092EA008F898093840192
:1010B0009FC08093E9003093EB0021912093EC00D6
:1010C0009093ED008F5F873041F7EACF8B8D9C8D39
:1010D0001092E900109263011092620190936101F5
:1010E00080936001898D811153C08E899D89913AC9
:1010F00049F4813209F005C147E050E064E071E055
:1011000080E0BBC0913209F0FCC0833269F48F8962
:10111000988DA0E0B0E08093000190930101A0932E
:101120000201B093030164C0803269F48091E80049
:1011300082FFFCCF67E084E091E00E9456068BEFCF
:101140008093E80055C0823209F052C08F898093A5
:101150000B01EEEFFFE7859194918B3F9C4D19F0C9
:10116000E0E0F8E002C0EEEFFAE080910401909137
:101170000501A0910601B0910701803B9440A105B3
:10118000B10509F09EC080910B0180FF79C099C024
:101190000E949C0AFC01028113810115110509F4CA
:1011A000B0C0D801ED91FC910190F081E02DBE011D
:1011B0006B5E7F4FC801099581111AC0F801008547
:1011C0001185EBCFF1E0FF1609F44EC0F3E0FF12FA
:1011D00098C08F89882309F44AC0823089F440E896
:1011E0006DE080E191E00E946506882309F489C0E2
:1011F0008EEF8093E80088C018161906CCF381C0E2
:10120000813029F440E86BE084E091E0ECCF83305A
:1012100009F077C00E949C0ADC011296ED90FC90C8
:1012200013978E010F5F1F4F6801E114F10479F0ED
:10123000D701ED91FC910680F781E02DB801C7013F
:101240000995080F111DF701E084F184EECFD80154
:101250001C92F60101900020E9F73197BF016C194B
:101260007D0940E0C601BFCF62EF70E002C06EEEC4
:1012700070E0FB01449150E080E80E949A06B8CFEC
:10128000EE3F2AE0F20751F0808191818737A7E78E
:101290009A0721F09093FF0A8093FE0A87E797E769
:1012A0009183808380916000809366019BE088E158
:1012B0000FB6F894A895809360000FBE90936000DD
:1012C00097CF808191818737974709F091CFA89573
:1012D00080916000886180936000809166018093B6
:1012E0006000EE3FBAE0FB0739F08091FE0A909172
:1012F000FF0A918380837CCF1092FF0A1092FE0A2E
:1013000077CF81E28093EB006C960FB6F894DEBF46
:101310000FBECDBFDF91CF91FF91EF91BF91AF9104
:101320009F918F917F916F915F914F913F912F91FD
:101330001F910F91FF90EF90DF90CF900F900FBE15
:101340000F901F901895009769F0FC010190002004
:10135000E9F73197AF01481B590BBC018BEB91E0CA
:101360000C94190280E090E008952F923F924F92E2
:101370005F926F927F928F929F92AF92BF92CF9225
:10138000DF92EF92FF920F931F93CF93DF93CDB72E
:10139000DEB7A3970FB6F894DEBF0FBECDBF7BA319
:1013A0006AA38C01000F111F080F191F0B571E4F46
:1013B000812C912C54016C01990FEE08FF083AE042
:1013C000432E512C612C712C8CEF88168FEF9806D0
:1013D000A806B80609F458C0A701960128193909CA
:1013E0004A095B0957FF1FC06DE28BEB91E00E9439
:1013F000E400A50194012C193D094E095F0919A2C9
:10140000FE01B1961F01CA01B901A30192010E9418
:10141000530E605DF10162931F01211531054105F5
:10142000510589F713C019A2CE0181961C01CA018A
:10143000B901A30192010E94530E605DF101629314
:101440001F01211531054105510589F7C1010E9490
:10145000A3098BE591E00E94A309EAA1FBA1808189
:10146000F8018083EAA1FBA18181F8018183EAA1CF
:10147000FBA18281F80182830D5F1F4FF1E08F1A7B
:101480009108A108B108A0CFA3960FB6F894DEBFCB
:101490000FBECDBFDF91CF911F910F91FF90EF90C5
:1014A000DF90CF90BF90AF909F908F907F906F9084
:1014B0005F904F903F902F900895209184012111CB
:1014C00003C08FEF9FEF08955FB7F89422E0209359
:1014D000E9002091F20030E01216130614F421E026
:1014E00030E0422FFC0184E6415038F0289A809386
:1014F00083019091F1009193F7CF2115310521F0EF
:101500008091F200882319F05FBFC90108958BE62E
:101510008093E800F9CF2FB7F89483E08093E90037
:101520009091E800892F807295FF04C09091F2009D
:1015300080E4891B2FBF08958091210281110DC085
:1015400082E080931D0284E080931E0210922002AC
:1015500010921F0281E0809321028DE192E00895B4
:101560003FB7F8948091190290911A02A0911B0242
:10157000B0911C0226B5A89B05C02F3F19F001961B
:10158000A11DB11D3FBFBA2FA92F982F8827820F09
:10159000911DA11DB11DBC01CD0142E0660F771F59
:1015A000881F991F4A95D1F708953F924F925F92F5
:1015B0006F927F928F929F92AF92BF92CF92DF9263
:1015C000EF92FF920F931F93CF93DF9300D01F9260
:1015D000CDB7DEB7F82E80910E0290910F02A09148
:1015E0001002B0911102892B8A2B8B2BE9F00E94FB
:1015F000B00A00912F0210913002209131023091F7
:101600003202DC01CB01801B910BA20BB30B0091CA
:101610000E0210910F0220911002309111028017DA
:101620009107A207B307B8F20E94B00A60932F0295
:10163000709330028093310290933202E09116024F
:10164000F0911702309759F0409112025091130215
:1016500060911402709115028F2D0995F82E00915A
:10166000B9011091BA014F2C512C612C712C01152C
:10167000110509F45FC0D8011C96EC901C9780916D
:101680000C0290910D028436910510F41C961C9268
:10169000D801ED91FC91A280B38019821A821B823D
:1016A000F11014C0F80145855685628173819E0151
:1016B0002F5F3F4FC801F5010995D8011C96EC92A8
:1016C0001C9714960D911C911597D1CFF801369661
:1016D000CE0101966C01480199E0890E911C21917F
:1016E000222309F132803320F1F0822F90E0A0E034
:1016F000B0E09C01AD012F5F3F4F4F4F5F4FC301E3
:10170000B2010E942F0E9B01AC01832D90E0A0E05E
:10171000B0E0BC01CD016F5F7F4F8F4F9F4F0E94A4
:101720002F0ED6018C93BFEFCB1ADB0AE815F90513
:10173000B1F6B8CF80912D0290912E029C012F5FBF
:101740003F4F30932E0220932D0249970CF447C04F
:101750008FB7F8940091B5011091B6012091B701AF
:101760003091B8018FBFE0912D02F0912E0288EEEA
:1017700093E0E89FB001E99F700DF89F700D112470
:10178000072E000C880B990BC0902902D0902A02DA
:10179000E0902B02F0902C02A90198012C193D0930
:1017A0004E095F090E94530E30930D0220930C02E4
:1017B00010922E0210922D022FB7F8948091B5014D
:1017C0009091B601A091B701B091B8012FBF80935D
:1017D000290290932A02A0932B02B0932C020F901F
:1017E0000F900F90DF91CF911F910F91FF90EF908D
:1017F000DF90CF90BF90AF909F908F907F906F9031
:101800005F904F903F9008958F929F92AF92BF92BA
:10181000CF92DF92EF92FF926B017C010E94B00A9F
:101820004B015C01C114D104E104F104F1F00E9408
:10183000B00ADC01CB0188199909AA09BB09883EC5
:101840009340A105B10570F321E0C21AD108E10867
:10185000F10888EE880E83E0981EA11CB11CC1140B
:10186000D104E104F10419F7DDCFFF90EF90DF9090
:10187000CF90BF90AF909F908F9008951F920F923E
:101880000FB60F9211242F933F938F939F93AF9393
:10189000BF938091B5019091B601A091B701B0912D
:1018A000B8013091180223E0230F2D3720F4019660
:1018B000A11DB11D05C026E8230F0296A11DB11D73
:1018C000209318028093B5019093B601A093B701BD
:1018D000B093B8018091190290911A02A0911B0255
:1018E000B0911C020196A11DB11D80931902909325
:1018F0001A02A0931B02B0931C02BF91AF919F915B
:101900008F913F912F910F900FBE0F901F901895C0
:10191000CF93DF9300D01F92CDB7DEB7789484B514
:10192000826084BD84B5816084BD85B5826085BDDB
:1019300085B5816085BD80916E00816080936E0069
:10194000109281008091810082608093810080915B
:10195000810081608093810080918000816080930C
:10196000800080919100826080939100809191002D
:1019700081608093910080919000816080939000BD
:101980008091C10084608093C1008091C100826019
:101990008093C1008091C10081608093C1008091DB
:1019A000C30081608093C3008091C00082608093F7
:1019B000C0008091C20081608093C20080917A0053
:1019C000846080937A0080917A00826080937A00AC
:1019D00080917A00816080937A0080917A0080689B
:1019E00080937A0010928401109267011092650131
:1019F0008091D70081608093D70080EA8093D800DF
:101A000089B5806189BD89B5826089BD09B400FE50
:101A1000FDCF61E070E080E090E00E94040C8091D6
:101A2000D8008F7C80618093D8008091E000807F17
:101A30008093E0008091E1008E7E8093E1008DE054
:101A40008093E200559A209A5D9828988FEF9FEF37
:101A50009093C8018093C70168EE73E080E090E046
:101A60000E94040C80917B01811145C010926D0190
:101A700010926C018FEF80937001809371018093BD
:101A8000720180937301809374018093750181E0EA
:101A900080937601109278011092770110926F0175
:101AA00010926E018091B9019091BA01892B31F4A5
:101AB0008AE691E09093BA018093B901E0916801C0
:101AC000F0916901309721F08AE691E09583848353
:101AD0008AE691E0909369018093680110927A01FF
:101AE0001092790187E291E090936B0180936A01F3
:101AF00081E080937B01579A85E891E090936D0196
:101B000080936C0180E190E090937801809377015D
:101B100080910E0290910F02A0911002B0911102DB
:101B2000843C29E09207A105B10520F484EC99E0FA
:101B3000A0E0B0E080930E0290930F02A0931002F9
:101B4000B09311028FEF80930B0287E491E00E9423
:101B5000A3098BE591E00E94A30980E0E82E80E0D4
:101B6000F82E1FEF04EE9DE2D92E19830A83DB8243
:101B7000BE016F5F7F4F84E090E00E94B50919833A
:101B80001A821B82BE016F5F7F4F8CE090E00E9443
:101B9000B50919821A821B83BE016F5F7F4F80E0F7
:101BA00090E00E94B50980910B020E94D50A64EF73
:101BB00071E080E090E00E94040C19821A821B827E
:101BC000BE016F5F7F4F84E090E00E94B5091982EB
:101BD0001A821B82BE016F5F7F4F8CE090E00E94F3
:101BE000B50919821A821B82BE016F5F7F4F80E0A8
:101BF00090E00E94B50980910B020E94D50A64EF23
:101C000071E080E090E00E94040CE114F10409F41A
:101C1000ACCF0E940000A9CFEBEBF1E0138212825F
:101C200088EE93E0A0E0B0E084839583A683B78339
:101C300089E391E0918380838FEF9FEF958784877D
:101C4000EBE0F2E0808312821182148613868FEF1C
:101C50009FEFDC0187839087A187B2870895DB011E
:101C60008F939F930E947C0EBF91AF91A29F800D96
:101C7000911DA39F900DB29F900D1124089597FB85
:101C8000072E16F4009407D077FD09D00E94870E26
:101C900007FC05D03EF4909581959F4F089570956F
:101CA00061957F4F0895A1E21A2EAA1BBB1BFD016F
:101CB0000DC0AA1FBB1FEE1FFF1FA217B307E4072B
:101CC000F50720F0A21BB30BE40BF50B661F771F83
:101CD000881F991F1A9469F7609570958095909563
:101CE0009B01AC01BD01CF0108950E94A10EB7FF79
:101CF0000895821B930B08950E94A10EA59F900D3D
:101D0000B49F900DA49F800D911D11240895AA1BCE
:101D1000BB1B51E107C0AA1FBB1FA617B70710F0D6
:101D2000A61BB70B881F991F5A95A9F78095909508
:101D3000BC01CD010895EE0FFF1F0590F491E02D39
:101D40000994A29FB001B39FC001A39F700D811D94
:101D50001124911DB29F700D811D1124911D0895B4
:0E1D600081E090E0F8940C94B50EF894FFCF5B
:101D6E00FFFFFFFF00E100000000000000C18081C6
:101D7E0000000000000000630663066306EE011219
:101D8E0002160200000000AB0167016501EE0112B0
:101D9E00026201E50200000000E40019029F02FA4F
:101DAE00000501C702A3022053746172742075707E
:0E1DBE0020616374697669746979000D0A000A
:00000001FF
