:100000000C9465010C948D010C948D010C948D0160
:100010000C948D010C948D010C948D010C948D0128
:100020000C948D010C9410100C94C60B0C94380C8D
:100030000C948D010C948D010C948D010C948D0108
:100040000C948D010C948D010C948D010C948D01F8
:100050000C948D010C948D010C948D010C94AD09C0
:100060000C948D010C948D010C948D010C948D01D8
:100070000C948D010C948D010C948D010C948D01C8
:100080000C948D010C948D010C948D010C948D01B8
:100090000C948D010C948D010C948D010C948D01A8
:1000A0000C948D010C948D010C948D012E1B311B31
:1000B000201B241B281B521B521B521B351B391B98
:1000C0003D1B431B471B521B4D1B3D1245124F123C
:1000D0002C124F122E124D1256124F124F124F1257
:1000E0004F124F124F124F124F1256124F124F1201
:1000F0004F124F124F124446506C61796572204D79
:10010000696E69206F6E6C696E652E00322E506CC0
:100110006561736520696E7365727420746865200B
:10012000534420636172642100312E506C65617309
:1001300065207265636865636B2074686520636F12
:100140006E6E656374696F6E2100556E61626C65D9
:1001500020746F20626567696E3A00496E69746940
:10016000616C697A696E67204446506C617965728A
:10017000202E2E2E20284D61792074616B6520334E
:100180007E35207365636F6E647329004446526F39
:10019000626F74204446506C61796572204D696EBF
:1001A000692044656D6F00080B000202020100091E
:1001B00004000001020200000524001001052401D2
:1001C000010104240206052406000107058103102D
:1001D000004009040100020A000000070502024075
:1001E0000000070583024000000403090412010017
:1001F00002EF020140412337800001010203014167
:10020000726475696E6F204C4C430041726475696D
:100210006E6F204D6963726F0007060504010008C8
:100220000A0B0C0D0900000000240027002A002DF5
:100230000030000000000200090F0000030401006C
:100240000C000000000000000000000000000000A2
:100250000000200073656E64696E673A002000201C
:100260000072656365697665643A000000000023EA
:1002700000260029002C002F000000000025002887
:10028000002B002E003100040404040403040502C2
:100290000202020403020202020606060606060421
:1002A00004020202040404080201104080401020ED
:1002B000408040800802040180402010020110802C
:1002C000102040402000671B581D11241FBECFEF97
:1002D000DAE0DEBFCDBF12E0A0E0B1E0E2EDF2E493
:1002E00002C005900D92A232B107D9F724E0A2E234
:1002F000B2E001C01D92A33FB207E1F711E0C4E6EE
:10030000D1E004C02197FE010E94A91EC336D10787
:10031000C9F70E9420150C945C210C94000080E920
:1003200091E008953E9A08950895CF93DF9300D009
:1003300000D000D0CDB7DEB7AB011C821D821E827B
:10034000DC01ED91FC910190F081E02D19821A827F
:100350001B829E012F5F3F4FBE016C5F7F4F09954F
:1003600026960FB6F894DEBF0FBECDBFDF91CF91BA
:100370000895FC0185859685089580E090E00895B4
:100380004F925F926F927F928F92AF92BF92CF9275
:10039000DF92EF920F931F93CF93DF933C01EB011A
:1003A0000E940511F30127853089621B730B6A30A7
:1003B0007105B0F3F894E881F98178B1706468B19F
:1003C0006F7B68B9CB8488852C2D281B822F2887CA
:1003D000BF844A805B801E850C85DD841F5F0F5FB4
:1003E000D3949E813F81A984EA844281D20120E096
:1003F000C32F522F322F3281442788943111380F66
:1004000008F43FEF8195889410FD430F4795889439
:1004100011FD430F4795889412FD430F479588942B
:1004200013FD430F4795889414FD430F4795889417
:1004300015FD430F4795889416FD430F4795889403
:1004400017FD430F47958894232F1111242F8C0DEE
:10045000422F002C78B900C000C000C047FF68B927
:1004600030812227889400C000C000C000C000C0B6
:1004700000C000C0002C00C000C068B93111390FA5
:1004800000C000C0002C78B900C000C000C046FF0A
:1004900068B908F43FEF9195889400C000C000C08F
:1004A00000C000C000C000C0002C00C000C068B97F
:1004B00000FD230F00C000C0002C78B900C000C0B0
:1004C00000C045FF68B92795889401FD230F00C03F
:1004D00000C000C000C000C000C000C0002C00C0B0
:1004E00000C068B92795889400C000C0002C78B976
:1004F00000C000C000C044FF68B902FD230F27956B
:10050000889400C000C000C000C000C000C000C08F
:10051000002C00C000C068B903FD230F00C000C05C
:10052000002C78B900C000C000C043FF68B927950F
:10053000889404FD230F00C000C000C000C000C0AC
:1005400000C000C0002C00C000C068B92795889486
:1005500000C000C0002C78B900C000C000C042FF3D
:1005600068B905FD230F2795889400C000C000C01E
:1005700000C000C000C000C0002C00C000C068B9AE
:1005800006FD230F00C000C0002C78B900C000C0D9
:1005900000C041FF68B92795889407FD230F00C06C
:1005A00000C000C000C000C000C000C0002C00C0DF
:1005B00000C068B92795889400C000C0002C78B9A5
:1005C00000C000C000C040FF68B9432F0111422F96
:1005D0009A0D00C000C000C000C000C000C000C034
:1005E000002C00C000C068B900C000C000C0002CD2
:1005F00078B900C000C000C047FF68B93181222728
:10060000889400C000C000C000C000C000C000C08E
:10061000002C00C000C068B931113C0F00C000C000
:10062000002C78B900C000C000C046FF68B908F4CB
:100630003FEFEB0DF11D00C000C000C000C000C0C6
:1006400000C000C0002C00C000C068B9D0FC230F5F
:1006500000C000C0002C78B900C000C000C045FF39
:1006600068B927958894D1FC230F00C000C000C052
:1006700000C000C000C000C0002C00C000C068B9AD
:100680002795889400C000C0002C78B900C000C035
:1006900000C044FF68B9D2FC230F2795889400C09E
:1006A00000C000C000C000C000C000C0002C00C0DE
:1006B00000C068B9D3FC230F00C000C0002C78B97B
:1006C00000C000C000C043FF68B927958894D4FCDF
:1006D000230F00C000C000C000C000C000C000C0A8
:1006E000002C00C000C068B92795889400C000C0E5
:1006F000002C78B900C000C000C042FF68B9D5FC2A
:10070000230F2795889400C000C000C000C000C01F
:1007100000C000C0002C00C000C068B9D6FC230F88
:1007200000C000C0002C78B900C000C000C041FF6C
:1007300068B927958894D7FC230F00C000C000C07B
:1007400000C000C000C000C0002C00C000C068B9DC
:100750002795889400C000C0002C78B900C000C064
:1007600000C040FF68B9432FD110422FC19500C08F
:1007700000C000C000C000C000C000C0002C00C00D
:1007800000C068B9CE0D00C000C000C078B900C07C
:1007900000C000C047FF68B932812227889400C09A
:1007A00000C000C000C000C000C000C0002C00C0DD
:1007B00000C068B93111380F00C000C0002C78B9F2
:1007C00000C000C000C046FF68B908F43FEF819543
:1007D000889400C000C000C000C000C000C000C0BD
:1007E000002C00C000C068B910FD230F00C000C07D
:1007F000002C78B900C000C000C045FF68B927953B
:10080000889411FD230F00C000C000C000C000C0CC
:1008100000C000C0002C00C000C068B927958894B3
:1008200000C000C0002C78B900C000C000C044FF68
:1008300068B912FD230F2795889400C000C000C03E
:1008400000C000C000C000C0002C00C000C068B9DB
:1008500013FD230F00C000C0002C78B900C000C0F9
:1008600000C043FF68B92795889414FD230F00C08A
:1008700000C000C000C000C000C000C0002C00C00C
:1008800000C068B92795889400C000C0002C78B9D2
:1008900000C000C000C042FF68B915FD230F2795B6
:1008A000889400C000C000C000C000C000C000C0EC
:1008B000002C00C000C068B916FD230F00C000C0A6
:1008C000002C78B900C000C000C041FF68B927956E
:1008D000889417FD230F00C000C000C000C000C0F6
:1008E00000C000C0002C00C000C068B927958894E3
:1008F00000C000C0002C78B900C000C000C040FF9C
:1009000068B9432F1111422F8C0D00C000C000C0E8
:1009100000C000C000C000C0002C00C000C068B90A
:1009200000C0119709F096CD20EC33E0D2010E946F
:10093000AF1EDC01CB01F4E0B695A795979587959E
:10094000FA95D1F720E030E0B901EAE94E9E040CB7
:10095000611D5E9E600D711D1124650D711D860F58
:10096000971FA11DB11D893E43E09407A105B10564
:1009700008F434C0885E9340A109B10942E0B695FD
:10098000A795979587954A95D1F747E0849F080EDC
:10099000211D949F200D311D1124290F311D6091BF
:1009A000480270E0860F971F820F931F40917A02D2
:1009B00050917B0260917C0270917D02292F332738
:1009C000420F531F611D711D40937A0250937B02A9
:1009D00060937C0270937D028093480278940E9419
:1009E0000511F301708B6787DF91CF911F910F91F4
:1009F000EF90DF90CF90BF90AF908F907F906F90EF
:100A00005F904F9008950F931F93CF93DF93CDB7CF
:100A1000DEB762970FB6F894DEBF0FBECDBF8C0174
:100A2000F901DC011C968C917A8369835C834B838A
:100A30005E834D8390819D8791819E8792819F8760
:100A4000813029F4CE0101960E94780E06C01C86E2
:100A50001B861A86198618861F82188A1A8A198A8E
:100A6000D801ED91FC910484F585E02DBE016F5F06
:100A70007F4FC801099562960FB6F894DEBF0FBE8E
:100A8000CDBFDF91CF911F910F9108950F931F93C9
:100A9000CF93DF93CDB7DEB762970FB6F894DEBF82
:100AA0000FBECDBF8C01F901DC011C968C917A83BD
:100AB00069835C834B835E834D8390819D879181A5
:100AC0009E8792819F87813029F4CE0101960E94F2
:100AD000780E06C01C861B861A86198618861F8209
:100AE00083E0888B1A8A198AD801ED91FC910484DD
:100AF000F585E02DBE016F5F7F4FC80109956296B5
:100B00000FB6F894DEBF0FBECDBFDF91CF911F911E
:100B10000F910895AF92BF92CF92DF92EF92FF9222
:100B20000F931F93CF93DF93EC018B018BE10E9416
:100B3000DA105C01BC01990F880B990B0E94CC1E46
:100B400060932A0270932B0280932C0290932D02C3
:100B50008AE10E94DA106C01BC01990F880B990B95
:100B60000E94CC1E60932602709327028093280275
:100B70009093290289E10E94DA107C01BC01990F4F
:100B8000880B990B0E94CC1E609322027093230263
:100B9000809324029093250288E10E94DA10980144
:100BA00024513109A216B30634F0A8014C5E5F4F00
:100BB0004A155B05B4F4C216D30604F1A8014C5ED5
:100BC0005F4F4C155D05D4F08EE891E00E94780FE0
:100BD0008091C80488838091C90489838091CA0464
:100BE00037C088E891E00E94780F8091CB04888319
:100BF0008091CC0489838091CD042AC0E216F3064B
:100C00009CF0A8014C5E5F4F4E155F056CF082E9C9
:100C100091E00E94780F8091C50488838091C6047A
:100C200089838091C70414C0821793079CF00C5EDF
:100C30001F4F0817190774F082E991E00E94780F9E
:100C40008091C20488838091C30489838091C40405
:100C50008A8303C0188219821A82CE01DF91CF9154
:100C60001F910F91FF90EF90DF90CF90BF90AF90CA
:100C70000895CF92DF92EF92FF92CF93DF93EC0132
:100C80000E9464116B017C0188810E94DA109C0132
:100C90008C859D85AE85BF85B701A601481B590B84
:100CA0006A0B7B0B89819A81AB81BC8148175907FC
:100CB0006A077B0710F41F8211C091E023333105CE
:100CC0000CF490E08D818E839D83282F29272F831C
:100CD000891721F0CC86DD86EE86FF86C886D98608
:100CE000EA86FB868D81DF91CF91FF90EF90DF90B8
:100CF000CF9008958091BB04882321F081E090E09B
:100D00000C94EB140895CF92DF92EF92FF920F9321
:100D10001F93CF93DF9300D01F92CDB7DEB789E941
:100D200091E00E94780F04E913E094E0C92ED12CE1
:100D3000E12CF12C0E94CB1DA70196010E94221EDE
:100D4000FB01EE0FFF1F6E0F7F1FFB01EC56FC4FE8
:100D5000208191818281D8013C91308311963C9110
:100D60001197318312963C91129732832C931196EE
:100D70009C93119712968C930D5F1F4FB3E0003A2E
:100D80001B07C1F6809194038983809195038A8320
:100D9000809196038B83BE016F5F7F4F82E294E068
:100DA0000E945014809197038983809198038A83CD
:100DB000809199038B83BE016F5F7F4F80E194E048
:100DC0000E94501480919A03898380919B038A83A7
:100DD00080919C038B83BE016F5F7F4F8EEF93E00A
:100DE0000E94501480919D03898380919E038A8381
:100DF00080919F038B83BE016F5F7F4F8CEE93E0EA
:100E00000E945014809194038983809195038A8372
:100E1000809196038B83BE016F5F7F4F8AE694E0DB
:100E20000E945014809197038983809198038A834C
:100E3000809199038B83BE016F5F7F4F88E594E0BB
:100E40000E94501480919A03898380919B038A8326
:100E500080919C038B83BE016F5F7F4F86E494E09B
:100E60000E94501480919D03898380919E038A8300
:100E700080919F038B83BE016F5F7F4F84E394E07B
:100E80000E9450141092410281E08093470288EC46
:100E9000809352030F900F900F90DF91CF911F918D
:100EA0000F91FF90EF90DF90CF900895209147022F
:100EB000211107C021E020938204BC0183E00C943F
:100EC0009C120895CF92DF92EF92FF920F931F939F
:100ED000CF93DF9300D01F92CDB7DEB78CED93E0B8
:100EE0000E9439068CEC93E00E9439068CEB93E06B
:100EF0000E9439068CEA93E00E9439068091E30350
:100F0000882309F4C7C182E10E94DA108C01BC0178
:100F1000990F880B990B0E94CC1E6B017C0160938A
:100F200043027093440280934502909346028AEAFA
:100F300091E00E94780F1092420220E030E048E4F5
:100F400052E4C701B6010E94071F18168CF5B801BC
:100F5000CE0101960E948A0599818091940398138D
:100F60001AC09A8180919503981315C090919603A9
:100F70008B81981310C063E070E08AE694E00E94D1
:100F80007114882321F081E090E00E94560781E0EF
:100F90008093420215C062E070E08AE694E00E940D
:100FA0007114882369F082E090E00E94560708C01F
:100FB0001092410261E070E08AE694E00E947114B0
:100FC0008091D303882309F46AC183E10E94DA1077
:100FD0008C01BC01990F880B990B0E94CC1E6B01F0
:100FE0007C0160933D0270933E0280933F02909398
:100FF000400287EB91E00E94780F10923C0220E0C3
:1010000030E048E452E4C701B6010E94071F1816F9
:101010008CF5B801CE0101960E948A059091970344
:10102000898198131AC0909198038A81981315C0EA
:10103000909199038B81981310C063E070E088E56C
:1010400094E00E947114882321F081E090E00E94D6
:10105000560781E080933C0215C062E070E088E5AD
:1010600094E00E947114882369F082E090E00E946D
:10107000560708C01092410261E070E088E594E0F4
:101080000E9471148091C303882309F40DC184E187
:101090000E94DA108C01BC01990F880B990B0E94F9
:1010A000CC1E6B017C0160933802709339028093EF
:1010B0003A0290933B0284EC91E00E94780F1092E8
:1010C000370220E030E048E452E4C701B6010E9454
:1010D000071F18168CF5B801CE0101960E948A05EB
:1010E00090919A03898198131AC090919B038A81E9
:1010F000981315C090919C038B81981310C063E0E6
:1011000070E086E494E00E947114882321F081E06D
:1011100090E00E94560781E08093370215C062E09C
:1011200070E086E494E00E947114882369F082E004
:1011300090E00E94560708C01092410261E070E002
:1011400086E494E00E9471148091B303882309F42B
:10115000B0C085E10E94DA108C01BC01990F880BA8
:10116000990B0E94CC1E6B017C016093330270933B
:101170003402809335029093360281ED91E00E9413
:10118000780F1092320220E030E048E452E4C701C8
:10119000B6010E94071F18168CF5B801CE01019602
:1011A0000E948A0590919D03898198131AC090919D
:1011B0009E038A81981315C090919F038B81981389
:1011C00010C063E070E084E394E00E94711488230F
:1011D00021F081E090E00E94560781E08093320286
:1011E00015C062E070E084E394E00E9471148823EB
:1011F00069F082E090E00E94560708C01092410218
:1012000061E070E084E394E00E9471141092470260
:1012100080914102811124C080914202882301F112
:1012200080913C028823E1F0809137028823C1F04D
:10123000809132028823A1F081E0809341028FEFF8
:10124000809352030E94641160932E0270932F02C8
:1012500080933002909331028EED91E00E94780FDE
:10126000809141028823B1F10E94641100912E0205
:1012700010912F022091300230913102DC01CB011C
:10128000801B910BA20BB30B81349F41A105B105CB
:10129000A8F420C080914702811135CE91CE809173
:1012A0004702811192CEEECE809147028111EFCE9E
:1012B0004BCF8091470281114CCFA8CF8CEE91E0AB
:1012C0000E94780F8091BB04882321F082E090E097
:1012D0000E94EB140F900F900F90DF91CF911F9110
:1012E0000F91FF90EF90DF90CF9008950C94C81F5E
:1012F0000895409100015091010125E038E0429F9E
:10130000C001439F900D529F900D1124875E994C10
:101310009093010180930001890F0895CF93DF938B
:10132000EC0160E088810E949E1088810E94DA10A2
:1013300021E0C3970CF420E02D830E94641168879C
:1013400079878A879B872D812E831F826C877D8773
:101350008E879F87DF91CF9108951F920F920FB6CE
:101360000F9211242F933F938F939F93AF93BF932B
:1013700080917A0290917B02A0917C02B0917D02D3
:101380003091720223E0230F2D3720F40196A11D26
:10139000B11D05C026E8230F0296A11DB11D2093A3
:1013A000720280937A0290937B02A0937C02B093A6
:1013B0007D0280917E0290917F02A0918002B09187
:1013C00081020196A11DB11D80937E0290937F0240
:1013D000A0938002B0938102BF91AF919F918F91B2
:1013E0003F912F910F900FBE0F901F901895409135
:1013F0007602509177022091740230917502421763
:101400005307B4F49091E8009570E1F39091E800EF
:1014100092FD19C08093F10080917602909177023D
:1014200001968F739927892B19F48EEF8093E8002A
:101430008091760290917702019690937702809343
:10144000760281E0089580E00895DF92EF92FF92A6
:101450000F931F93CF93DF93D82E8A017B01E40E65
:10146000F51EEB01CE15DF0571F0D7FE03C0FE01BE
:10147000849101C088810E94F70921968111F2CFE1
:101480008FEF9FEF01C0C801DF91CF911F910F91A6
:10149000FF90EF90DF900895615030F02091F100BF
:1014A000FC0120830196F8CF289A84E68093840279
:1014B0000895CF92DF92EF92FF920F931F93CF93F5
:1014C000DF936C017A018B01C0E0D0E0CE15DF051F
:1014D00081F0D8016D918D01D601ED91FC910190C3
:1014E000F081E02DC6010995892B11F02196EECFF0
:1014F0007E01C701DF91CF911F910F91FF90EF9077
:10150000DF90CF900895CF93DF931F92CDB7DEB7D2
:101510006983DC01ED91FC910280F381E02D41E0D3
:1015200050E0BE016F5F7F4F09950F90DF91CF9123
:10153000089583E08093E9008091F200882319F0F8
:101540008AE38093E8000895FC018485958597FDE2
:101550000BC09FB7F89482E08093E9008091F2007D
:101560009FBF90E0019608959FB7F89482E0809322
:10157000E9008091F2009FBF90E00895089580E017
:1015800090E008950E9417210F931F93CF93DF934C
:101590001F92CDB7DEB782E0898342E450E067EA6C
:1015A00071E080E80E94250A0E948A10DC011296F0
:1015B0000D911C9113970115110589F0D801ED913A
:1015C000FC910280F381E02DBE016F5F7F4FC80167
:1015D000099597FD04C0F80100851185ECCF89813C
:1015E0000F90DF91CF911F910F9108958F929F924D
:1015F000AF92BF92CF92DF92EF92FF920F931F9321
:10160000CF93DF936C017B018A0180910D018823C8
:1016100009F45CC080918502882309F457C0809149
:10162000490280FF05C08091E00082608093E00065
:10163000E801B12C8AEFA82E93E0892E2AE3922E9E
:10164000209711F4BB20D9F10E94FF0F81110AC02D
:10165000AA94AA20D9F161E070E080E090E00E94B5
:101660002A11EECF282F30E0C217D3070CF48C2FAD
:101670009FB7F8948092E9002091E80025FF1DC0F3
:10168000282F30E0C21BD30BF701815020F041918D
:101690004093F100FACFE20EF31EBB2019F09092B6
:1016A000E8000AC08091E80085FD07C09092E8003C
:1016B000BB24B394209709F0B12C9FBFC1CF5D9A92
:1016C00084E6809379021016110644F081E090E0E0
:1016D000F6019383828380E090E001C0C801DF912E
:1016E000CF911F910F91FF90EF90DF90CF90BF901F
:1016F000AF909F908F9008950E94FF0F90E0089503
:101700000F931F93CF93DF931F92CDB7DEB78C015A
:10171000FC018485958597FF0EC0CE0101960E943D
:10172000D10F019719F4898190E002C08FEF9FEFEC
:10173000F80195878487F801848595850F90DF915E
:10174000CF911F910F910895CF93DF931F92CDB743
:10175000DEB7FC018485958597FD05C02FEF3FEF2F
:10176000358724870BC0CE0101960E94D10F0197C7
:1017700019F4898190E002C08FEF9FEF0F90DF9105
:10178000CF9108950C94C81F0C94C81F1F920F92FC
:101790000FB60F9211248F939F938091E100909147
:1017A000E100937F9093E10083FF0FC01092E90066
:1017B00091E09093EB001092EC0092E39093ED0097
:1017C0001092850298E09093F00082FF20C093E091
:1017D0009093E9009091F200992319F09AE3909385
:1017E000E80090917902992339F090917902915013
:1017F00090937902992389F190918402992339F089
:1018000090918402915090938402992341F184FF36
:1018100010C08091E2008E7E81608093E200809112
:10182000E1008F7E8093E100809149028E7E80618D
:1018300011C080FF16C08091E2008E7E806180938F
:10184000E2008091E1008E7E8093E1008091490268
:101850008E7E81608093490204C05D98CDCF289828
:10186000D6CF9F918F910F900FBE0F901F9018951C
:101870001F920F920FB60F921124CF92DF92EF9228
:10188000FF920F931F932F933F934F935F936F9309
:101890007F938F939F93AF93BF93EF93FF93CF93D8
:1018A000DF93CDB7DEB76C97DEBFCDBF1092E900F6
:1018B0008091E80083FFFBC168E0CE0145960E945D
:1018C0004C0A82EF8093E8008D8987FF05C09091D4
:1018D000E80090FFFCCF03C09EEF9093E800982FA4
:1018E000907609F0C6C09E894F89588D2F89F88C53
:1018F00091110CC0803829F480914A028093F10044
:1019000002C01092F1001092F10045C1913051F4E3
:10191000811141C14130510509F03DC180914A0218
:101920008D7F0BC0933061F4811135C14130510579
:1019300009F031C180914A02826080934A022BC132
:10194000953049F48091E80080FFFCCF822F8068B9
:101950008093E30020C1963009F05EC00B8D1C8D92
:1019600022E01092E9001092770210927602F212B1
:1019700032C010927502109274020E94C40A99E05B
:10198000BE016F5F7F4FDB01E92F1D92EA95E9F7FA
:101990009983FA8291E09E8390EA98879AEF9987DB
:1019A0002091760230917702275F3F4F3C832B8353
:1019B0008D831092E90010927702109276021093B4
:1019C00075020093740249E050E080E00E94250A0D
:1019D0000E94C40AE0C010937502009374020E9432
:1019E0008A10DC0112960D911C91139701151105B7
:1019F00009F4BBC0D801ED91FC910480F581E02D84
:101A0000BE016B5E7F4FC8010995009709F0C7C002
:101A1000F80100851185EACF973009F445C1983067
:101A200021F481E08093F100B6C0993009F0B3C091
:101A3000837009F039C1E6E4F1E081E031E096E33A
:101A40002081211109C08EE78093EA001092EA00FC
:101A50008F89809385029FC08093E9003093EB00CB
:101A600021912093EC009093ED008F5F873041F738
:101A7000EACF8B8D9C8D1092E90010927702109224
:101A800076029093750280937402898D811153C000
:101A90008E899D89913A49F4813209F005C147E068
:101AA00050E066E071E080E0BBC0913209F0FCC01C
:101AB000833269F48F89988DA0E0B0E080930201B1
:101AC00090930301A0930401B093050164C0803298
:101AD00069F48091E80082FFFCCF67E086E091E046
:101AE0000E944C0A8BEF8093E80055C0823209F0C7
:101AF00052C08F8980930D01EEEFFFE7859194919D
:101B00008B3F9C4D19F0E0E0F8E002C0EEEFFAE008
:101B10008091060190910701A0910801B0910901FF
:101B2000803B9440A105B10509F09EC080910D0154
:101B300080FF79C099C00E948A10FC010281138144
:101B40000115110509F4B0C0D801ED91FC91019087
:101B5000F081E02DBE016B5E7F4FC80109958111B8
:101B60001AC0F80100851185EBCFF1E0FF1609F4EA
:101B70004EC0F3E0FF1298C08F89882309F44AC051
:101B8000823089F440E86DE08BE092E00E94B21A66
:101B9000882309F489C08EEF8093E80088C0181666
:101BA0001906CCF381C0813029F440E86BE08FEF57
:101BB00091E0ECCF833009F077C00E948A10DC01FD
:101BC0001296ED90FC9013978E010F5F1F4F6801E6
:101BD000E114F10479F0D701ED91FC910680F781D1
:101BE000E02DB801C7010995080F111DF701E08428
:101BF000F184EECFD8011C92F60101900020E9F7A4
:101C00003197BF016C197D0940E0C601BFCF6DEE71
:101C100071E002C069EE71E0FB01449150E080E8A0
:101C20000E94250AB8CFEE3F2AE0F20751F08081EA
:101C300091818737A7E79A0721F09093FF0A809355
:101C4000FE0A87E797E79183808380916000809305
:101C500078029BE088E10FB6F894A8958093600025
:101C60000FBE9093600097CF80819181873797470F
:101C700009F091CFA8958091600088618093600001
:101C80008091780280936000EE3FBAE0FB0739F064
:101C90008091FE0A9091FF0A918380837CCF1092FD
:101CA000FF0A1092FE0A77CF81E28093EB006C96D8
:101CB0000FB6F894DEBF0FBECDBFDF91CF91FF917D
:101CC000EF91BF91AF919F918F917F916F915F91B4
:101CD0004F913F912F911F910F91FF90EF90DF90C7
:101CE000CF900F900FBE0F901F90189508950895F4
:101CF0000F931F93CF93DF93209173022F5F322FA7
:101D000037703093730220FF02C020E801C020E04A
:101D100031FD2064347009F02062205FFC01EC0189
:101D2000239600E011E06485662331F070E0C8017D
:101D30000E94951E6F5F01C060E06187322F369F61
:101D4000030E30E0311D1124311102C0168202C091
:101D500031503683662311F0615061873196CE177A
:101D6000DF0709F7DF91CF911F910F91089520911F
:101D7000CE043091CF042817390771F49091830273
:101D800080918202981741F0E0918302F0E0EE56D4
:101D9000FD4F808190E008958FEF9FEF08950895A3
:101DA0001F93CF93DF93DC015C968D919C915D979F
:101DB000009739F421E030E013963C932E9312976C
:101DC0003BC05196ED91FC91529750962C915097B3
:101DD000322F30951FB75E964C915E97742F7270BC
:101DE00041FD6095F8944081772311F0422B01C0AA
:101DF00043234083EC012197F1F748E0508160FFD5
:101E000002C0522B01C053235083EC012197F1F7FC
:101E10006695415099F78081772319F08323808359
:101E200002C0282B20831FBF5C968D919C915D97EB
:101E30000197F1F781E090E0DF91CF911F91089534
:101E40002091CE043091CF042817390771F4809186
:101E500082022091830290E0805C9F4F821B910957
:101E600060E470E00E94951E089580E090E008957F
:101E70002091CE043091CF0428173907B9F49091FE
:101E8000830280918202981789F0E0918302F0E04A
:101E9000EE56FD4F80812091830230E02F5F3F4F4F
:101EA0002F7333272093830290E008958FEF9FEFE5
:101EB00008950F931F93CF93DF938C01C0E0D0E080
:101EC000F801EC0FFD1F6491662341F082E093E07E
:101ED0000E94830A892B11F02196F2CFCE01DF9167
:101EE000CF911F910F9108958FE192E00C940E1500
:101EF000CF93DF930E940E15EC010E94740F8C0F9C
:101F00009D1FDF91CF9108958F929F92AF92BF92C4
:101F10000F931F93CF93DF93CDB7DEB7A1970FB683
:101F2000F894DEBF0FBECDBF19A2423008F44AE0DC
:101F30008E010F5D1F4F842E912CA12CB12CA50179
:101F400094010E94541EE62FB901CA0101501109E3
:101F5000EA3014F4E05D01C0E95CD801EC93232B76
:101F6000242B252B61F7C8010E940E15A1960FB6F0
:101F7000F894DEBF0FBECDBFDF91CF911F910F91BF
:101F8000BF90AF909F908F900895CF93DF930E9462
:101F9000590FEC010E94740F8C0F9D1FDF91CF91A0
:101FA000089520918502211103C08FEF9FEF0895BE
:101FB0005FB7F89422E02093E9002091F20030E02E
:101FC0001216130614F421E030E0422FFC0184E6DF
:101FD000415038F0289A809384029091F1009193B7
:101FE000F7CF2115310521F08091F200882319F0F7
:101FF0005FBFC90108958BE68093E800F9CF2FB742
:10200000F89483E08093E9009091E800892F807232
:1020100095FF04C09091F20080E4891B2FBF0895C2
:102020001F920F920FB60F9211242F933F934F934D
:102030005F936F937F938F939F93AF93BF93EF9330
:10204000FF93E091CE04F091CF04309709F451C092
:10205000968DA685B785858591FF04C09C918923BF
:1020600029F447C09C91892309F043C0A389B4890E
:102070009C918589809589238C938689978901977E
:10208000F1F7608D718DA685B785558538E020E024
:10209000CB010197F1F7822F90E095958795282F36
:1020A0004C91452309F02068315091F7868D81FDD0
:1020B00020958091820290E001968F73992730914C
:1020C0008302381749F0A0918202B0E0AE56BD4FAE
:1020D0002C938093820203C0868D8160868F828DCF
:1020E000938D0197F1F7A389B4899C918589892BF8
:1020F0008C93FF91EF91BF91AF919F918F917F91C1
:102100006F915F914F913F912F910F900FBE0F9064
:102110001F90189580918A0281110DC082E08093F2
:10212000860284E0809387021092890210928802CE
:1021300081E080938A0286E892E00895CF93DF934E
:1021400090E0FC01EA55FD4F2491FC01E957FD4F59
:102150008491882361F190E0880F991FFC01EB5D69
:10216000FD4FC591D491FC01E758FD4FA591B49165
:10217000611109C09FB7F8948881209582238883D4
:10218000EC912E230BC0623061F49FB7F8948881E4
:10219000322F309583238883EC912E2B2C939FBF75
:1021A00006C08FB7F894E8812E2B28838FBFDF916C
:1021B000CF910895823108F08251E82FF0E0E75E78
:1021C000FD4FE49180917B00E3FB222720F930E072
:1021D00095E0220F331F9A95E1F78F7D282B2093EE
:1021E0007B00E770E064E0937C0080917A0080647B
:1021F00080937A0080917A0086FDFCCF80917800F0
:102200002091790090E0922B08953FB7F894809147
:102210007E0290917F02A0918002B091810226B54A
:10222000A89B05C02F3F19F00196A11DB11D3FBF0E
:10223000BA2FA92F982F8827820F911DA11DB11D9C
:10224000BC01CD0142E0660F771F881F991F4A9598
:10225000D1F708958F929F92AF92BF92CF92DF9263
:10226000EF92FF926B017C010E9405114B015C0112
:10227000C114D104E104F104F1F00E940511DC0164
:10228000CB0188199909AA09BB09883E9340A10589
:10229000B10570F321E0C21AD108E108F10888EE17
:1022A000880E83E0981EA11CB11CC114D104E10466
:1022B000F10419F7DDCFFF90EF90DF90CF90BF9042
:1022C000AF909F908F9008952FB7F89460917A0205
:1022D00070917B0280917C0290917D022FBF0895C6
:1022E0000F931F93CF938091830490918404DC011A
:1022F000ED91FC910084F185E02D0995892B09F47D
:10230000E5C060E070E0CB010E942A11C091A104F9
:102310008091830490918404DC01ED91FC9102840E
:10232000F385E02DC1111EC0099580938D0481E6CF
:1023300092E00E94590FE091A104F0E0E458FB4FB5
:10234000618970E080E090E040E10E94840F8FE5B9
:1023500092E00E94590F80918D048E3721F6809172
:10236000A104B0C00995EC2FF0E0E458FB4F818B3D
:10237000E091A104F0E0E458FB4F618970E080E057
:1023800090E040E10E94840F8DE592E00E94590F99
:102390008091A1048230A1F08930C1F0813009F030
:1023A00091C090918E049F3F09F48CC01092A104BB
:1023B00081E08093A3041092A6041092A504B0C0FB
:1023C00090918F04963009F47DC0F0CF0E94740F75
:1023D000E091A104F0E0E458FB4F81898F3E31F792
:1023E000EEE8F4E084E994E020E030E04191240F4D
:1023F000311D8E179F07D1F78091940490E0982F9C
:10240000882740919504840F911D319521953109BC
:102410008217930759F61092A104E0919004E134D9
:1024200009F44DC0E093A4048091920490E0982FA9
:10243000882720919304820F911D9093A604809386
:10244000A5044E2F50E0FA01FA97E631F10570F538
:10245000EB59FF4F0C94A91E85E022C080FF02C0FB
:1024600089E01EC081FF02C084E01AC083709927F2
:10247000892B09F45BC08AE013C080FF02C087E0AB
:102480000FC081FF53C082E00BC080FF02C088E014
:1024900007C081FF4BC083E003C086E001C08BE032
:1024A0008093A30481E08093A70440C081E08093DF
:1024B000A3041092A6041092A5048093A70410927E
:1024C000A80434C08F5F8093A1040DCF8091A8042D
:1024D000882361F10E9464110091850410918604A3
:1024E0002091870430918804DC01CB01801B910B83
:1024F000A20BB30B0091890410918A0420918B04E4
:1025000030918C0480179107A207B30778F01092DE
:10251000A1041092A3041092A6041092A50481E0D5
:102520008093A7041092A80480E002C08091A704C1
:10253000CF911F910F9108950F931F93CF93DF9326
:1025400080939A0470939C0460939D04E8E9F4E0FE
:102550002EE934E080E090E04191840F911D2E1728
:102560003F07D1F791958195910990939E048093AF
:102570009F0480919B04882361F08091A8048823A4
:1025800041F060E070E0CB010E942A110E947011BE
:10259000F4CF0E94740F84E592E00E94590FC7E9BE
:1025A000D4E001EA14E0699170E080E090E040E15D
:1025B0000E94840F82E592E00E94590F0C171D07BC
:1025C00091F70E94740F8091830490918404DC0140
:1025D000ED91FC910280F381E02D4AE050E067E943
:1025E00074E009950E9464116093850470938604D9
:1025F000809387049093880480919B0491E08111DB
:1026000001C090E09093A80481110AC06AE070E0D4
:1026100080E090E0DF91CF911F910F910C942A11EF
:10262000DF91CF911F910F9108958F929F92AF925A
:10263000BF92CF92DF92EF92FF92CF936B017C011A
:102640000E9464114B015C01C114D104E104F10446
:1026500041F4C0908904D0908A04E0908B04F090FB
:102660008C040E947011C82F811113C00E94641144
:10267000DC01CB0188199909AA09BB09C816D9063A
:10268000EA06FB0630F060E070E0CB010E942A1100
:10269000E8CF8C2FCF91FF90EF90DF90CF90BF903D
:1026A000AF909F908F900895CF93DF93DC01EB0163
:1026B00012964D915C9113979A01220F331F240FAC
:1026C000351F12966D917C91139714968D919C9164
:1026D0001597860F971F481759078CF41D96ED9193
:1026E000FC911E97E20FF31F88818083898181838B
:1026F0008A8182834F5F5F4F2D5F3F4FE2CFDF9133
:10270000CF910895CF92DF92EF92FF920F931F9394
:10271000CF93DF93EC016FE5C62E63E0D62E76E211
:10272000E72E72E0F72E6C817D81C6018F559340B4
:102730008617970794F4C7010E94951E12E0160FA2
:102740000E947909819FB0011124F6012081271B85
:1027500008F420E021936F01E6CF6330710569F43E
:1027600020915F038091600390E0820F911D820FA2
:10277000911D0E94951E609361030E9479098C3D12
:10278000D0F40E947909F7E08F9FC0011124092F2E
:10279000112707FD1A950E9479092FE5829FC00134
:1027A000112430EA390FF801E15AFC4F2081230F40
:1027B00008F42FEF2083AFE5B3E07FEBF12C8D0120
:1027C0000F5513404C815D81041715070CF035C07F
:1027D0002D913F2D222329F0279F312D1124711196
:1027E0003F5F232F220F220F37FD06C036FD06C0A4
:1027F000622F20E030E005C03FEF02C0322F20E022
:102800006FEFEC858A819B81EE2339F0FA013197D5
:10281000E80FF91FE01BF10B03C0F801E80FF91FE7
:10282000CF01880F991FE80FF91F8D859E85E80F4E
:10283000F91F608331832283C2CFDF91CF911F9133
:102840000F91FF90EF90DF90CF900895CF93DF939B
:1028500000D01F92CDB7DEB7FB0122ED32E0DC01E4
:102860001E963C932E931D9720811F962C931F97A5
:10287000218150962C935097228151962C93208140
:10288000298321812A8322812B83BE016F5F7F4FA1
:102890000E9454130F900F900F90DF91CF910895E5
:1028A000CF93DF9300D01F92CDB7DEB7FB014081FD
:1028B000DC011F964C931F97318150963C935097A3
:1028C000228151962C9349833A832B83BE016F5FFB
:1028D0007F4F0E9454130F900F900F90DF91CF9174
:1028E0000895CF93DF9300D01F92CDB7DEB7FC01E0
:1028F0002285338526173707E9F0738762876130B1
:10290000710559F06330710589F4FC01278529832D
:1029100020892A8321892B8303C019821A821B8272
:10292000BE016F5F7F4F0E94541302C00E9482134A
:1029300081E001C080E00F900F900F90DF91CF9168
:102940000895FC01228533852230310511F40C9461
:1029500082130895CF93DF93EC01E881F98104801D
:10296000F581E02D309709F00995EE81FF813097D0
:1029700009F00995EA81FB810190F081E02D309703
:1029800009F009958A819B819093B2048093B104E8
:102990000E9464112091B9043091BA04A091B1044D
:1029A000B091B204E091B704F091B80440E050E077
:1029B000421753076CF4C081D181CA17DB0721F499
:1029C00060877187828793874F5F5F4F7096F0CFE4
:1029D000DF91CF9108954091B5045091B604609174
:1029E000B1047091B204E091B304F091B40420E01A
:1029F00030E0241735078CF4A081B181A617B70702
:102A000041F4A481B581A817B90719F4CF010C943A
:102A1000AA142F5F3F4F3896ECCF0895009769F0C6
:102A2000FC0101900020E9F73197AF01481B590BD9
:102A3000BC0182E093E00C94F60A80E090E00895F7
:102A4000CF93DF93CDB7DEB727970FB6F894DEBFED
:102A50000FBECDBF789484B5826084BD84B581609B
:102A600084BD85B5826085BD85B5816085BD809159
:102A70006E00816080936E001092810080918100D1
:102A800082608093810080918100816080938100C9
:102A900080918000816080938000809191008260AD
:102AA000809391008091910081608093910080914A
:102AB00090008160809390008091C1008460809339
:102AC000C1008091C10082608093C1008091C100EB
:102AD00081608093C1008091C30081608093C300B6
:102AE0008091C00082608093C0008091C2008160AC
:102AF0008093C20080917A00846080937A008091F4
:102B00007A00826080937A0080917A00816080935D
:102B10007A0080917A00806880937A001092850212
:102B200010924A02109249028091D70081608093EE
:102B3000D70080EA8093D80089B5806189BD89B5C6
:102B4000826089BD09B400FEFDCF61E070E080E0E5
:102B500090E00E942A118091D8008F7C8061809340
:102B6000D8008091E000807F8093E0008091E100B8
:102B70008E7E8093E1008DE08093E200559A209A4A
:102B80005D9828988FEF9FEF90930F0380930E032B
:102B900068E873E180E090E00E942A116091B5043A
:102BA0007091B6046F5F7F4F93E0660F771F9A9521
:102BB000E1F78091B3049091B4040E945120909366
:102BC000B4048093B3042091B5043091B604B901E4
:102BD00043E0660F771F4A95E1F7FC01E60FF71F08
:102BE0000EE813E01183008358E8E52E53E0F52E3C
:102BF000F382E28241E050E05583448317821682DB
:102C00002F5F3F4F3093B6042093B504605F7F4F32
:102C10000E9451209093B4048093B3044091B50472
:102C20005091B6049A0163E0220F331F6A95E1F7D1
:102C3000FC01E20FF31FF182E0821383028382E042
:102C400090E095838483178216824F5F5F4F509385
:102C5000B6044093B50480915E02811145C0109284
:102C6000500210924F028FEF8093530280935402D0
:102C700080935502809356028093570280935802A6
:102C800081E08093590210925B0210925A021092D6
:102C900052021092510280916C0290916D02892B28
:102CA00031F48DE492E090936D0280936C02E09198
:102CB0004B02F0914C02309721F08DE492E0958325
:102CC00084838DE492E090934C0280934B021092A7
:102CD0005D0210925C028CE291E090934E02809330
:102CE0004D0281E080935E023E9A82ED92E09093E5
:102CF000500280934F0280E190E090935B028093BA
:102D00005A028091550390915603A0915703B091B8
:102D10005803843C29E09207A105B10520F484EC16
:102D200099E0A0E0B0E08093550390935603A09300
:102D30005703B093580388EC809352038091CB04DF
:102D400089838091CC048A838091CD048B83BE01DA
:102D50006F5F7F4F8AE694E00E9426148091C8043A
:102D600089838091C9048A838091CA048B83BE01C0
:102D70006F5F7F4F88E594E00E9426148091C50420
:102D800089838091C6048A838091C7048B83BE01A6
:102D90006F5F7F4F86E494E00E9426148091C20406
:102DA00089838091C3048A838091C4048B83BE018C
:102DB0006F5F7F4F84E394E00E9426148091CB04E0
:102DC00089838091CC048A838091CD048B83BE015A
:102DD0006F5F7F4F82E294E00E9426148091C804C6
:102DE00089838091C9048A838091CA048B83BE0140
:102DF0006F5F7F4F80E194E00E9426148091C504AC
:102E000089838091C6048A838091C7048B83BE0125
:102E10006F5F7F4F8EEF93E00E9426148091C20473
:102E200089838091C3048A838091C4048B83BE010B
:102E30006F5F7F4F8CEE93E00E94261463E070E09A
:102E400082E294E00E94711463E070E080E194E01B
:102E50000E94711463E070E08EEF93E00E947114A1
:102E600063E070E08CEE93E00E94711462E070E029
:102E70008AE694E00E94711463E070E086E494E0D6
:102E80000E9471148DEF91E00E94780F86E10E94FC
:102E9000DA10BC01990F880B990B6115710581053A
:102EA000910511F00E94191E8CED93E00E948E098D
:102EB0008CEC93E00E948E098CEB93E00E948E09CB
:102EC0008CEA93E00E948E0960E082E10E949E10ED
:102ED00060E083E10E949E1060E084E10E949E1009
:102EE00060E085E10E949E1060E08BE10E949E10F0
:102EF00060E08AE10E949E1060E089E10E949E10DD
:102F000060E088E10E949E101092EB041092EA04A7
:102F10001092E9041092E8041092E7041092E6047B
:102F20008DE991E09093ED048093EC048091DC04B2
:102F300098EF980F943048F022EF280F243028F0B3
:102F400026EE280F233008F04AC02DEB30E03093F6
:102F5000E7042093E6042BE931E03093E904209361
:102F6000E8042CE231E03093EB042093EA0494303F
:102F700050F092EF980F943030F08A51833030F453
:102F8000A8E6B0E005C0A8E6B0E0E9C2A0E0B0E085
:102F9000833008F4E4C2E0E0F0E0808181608C934B
:102FA0008091DC0498EF980F943008F0B9C22BE6BA
:102FB00030E03093E4042093E304943008F0BDC281
:102FC0009CEF980F81E001C0880F9A95EAF78093F3
:102FD000E5048091EC049091ED040197F1F7809164
:102FE000EA049091EB04892B49F1E091CE04F09131
:102FF000CF0444E0E03DF40709F1309739F0A389AC
:10300000B4899C918589809589238C938091EE0465
:103010008E7F8093EE04109282021092830280EDE4
:1030200094E09093CF048093CE04E091E304F09178
:10303000E40490818091E504892B80830E94740FC1
:103040008CE891E00E94C50F8BE591E00E94C50FCE
:1030500080ED94E0909384048093830481E08093D6
:103060009B0460E070E08CE00E949C1260ED77E0D1
:1030700080E090E00E94151368EC70E080E090E042
:103080000E942A111092A7048091A304843079F041
:10309000893069F08AE491E00E94C50F89E291E0ED
:1030A0000E94C50F8CE091E00E94C50FFFCF86EF14
:1030B00090E00E94C50F6EE170E086E00E949C12D5
:1030C00060E070E088E40E949C1260E070E0CB0158
:1030D0000E941513882331F01092A7048091A30455
:1030E0008B3019F08FEF9FEF04C08091A504909171
:1030F000A604909381048093800481E192E00E9471
:103100000E15C0908004D09081040D2C000CEE08A8
:10311000FF08F7FE0EC06DE282E093E00E94830A92
:1031200066277727CB016C197D098E099F094AE034
:1031300003C04AE0C701B6010E94840F0E94740FC9
:10314000E091B104F091B2040480F581E02D309754
:1031500009F009958EE893E09093B2048093B1044E
:10316000E0918E03F0918F03309709F00995812C3F
:1031700084E0982EA12CB12C332433948091AB049D
:103180000E94DA102091AD043091AE04DC01A21B44
:10319000B30B9D01B7FF03C03195219531094091D3
:1031A000AF045091B0044217530794F49093AE04C7
:1031B0008093AD042FE130E0DC010E94AF1EA50139
:1031C00094010E94221E622F70E086E00E949C12F1
:1031D0008AE694E00E94A11488E594E00E94A1147C
:1031E00086E494E00E94A11484E394E00E94A11478
:1031F00082E294E00E94A11480E194E00E94A11474
:103200008EEF93E00E94A1148CEE93E00E94A11433
:103210008091BB0481110CC03092BB04E091B104D9
:10322000F091B2040190F081E02D309709F00995FA
:10323000E091B104F091B2040280F381E02D309767
:1032400009F00995E12CF12CC12CD12C8091B90405
:103250009091BA04C816D9060CF049C00091B70481
:103260001091B8040E0D1F1DF8012081318180914D
:10327000B1049091B2042817390791F580859185A2
:10328000A285B385892B8A2B8B2B51F40E94641164
:10329000D80118966D937D938D939C931B9720C0B6
:1032A0000E946411F8014084518462847384DC01BB
:1032B000CB0184199509A609B7094484558466840D
:1032C000778484159505A605B70550F0C8010E94BE
:1032D000AA14D80118961D921D921D921C921B973C
:1032E000BFEFCB1ADB0AE0E1EE0EF11CAFCF0E947C
:1032F0007011882361F080918204882341F010923C
:10330000A7048091A304853011F410928204F090F8
:1033100052038091550390915603A0915703B091A9
:103320005803892B8A2B8B2BE9F00E940511009101
:103330006E0210916F022091700230917102DC01D7
:10334000CB01801B910BA20BB30B00915503109185
:103350005603209157033091580380179107A20715
:10336000B307B8F20E94051160936E0270936F026A
:103370008093700290937102E0915D03F0915E037F
:10338000309759F04091590350915A0360915B0373
:1033900070915C038F2D0995F82E00916C021091AD
:1033A0006D024F2C512C612C712C0115110509F463
:1033B00069C0D8011C96EC901C97809153039091A2
:1033C00054038436910510F41C961C92D801ED919B
:1033D000FC91428153815F834E8319821A821B8242
:1033E000F11019C0D8011D964D915C911E9712964F
:1033F0006D917C9113979E012F5F3F4FC801EE8125
:10340000FF810995D8011C96EC921C9714960D919A
:103410001C911597CACFF8013696AE014F5F5F4FEA
:103420006A01C80109969D838C832191222309F1A9
:1034300022802220F1F0822F90E0A0E0B0E09C01F9
:10344000AD012F5F3F4F4F4F5F4FC301B2010E944D
:10345000851E9B01AC01822D90E0A0E0B0E0BC0194
:10346000CD016F5F7F4F8F4F9F4F0E94851ED6010A
:103470008C93BFEFCB1ADB0A4C815D814E175F073F
:10348000A1F6B0CF80916A0290916B028C010F5F20
:103490001F4F10936B0200936A0249979CF10E94A0
:1034A00064112B013C0188EE93E0089FB001099F55
:1034B000700D189F700D1124072E000C880B990BAE
:1034C000C0906602D0906702E0906802F0906902B6
:1034D000A30192012C193D094E095F090E94541E57
:1034E000309354032093530310926B0210926A029C
:1034F0000E94641160936602709367028093680271
:103500009093690260E170E080E090E00E942A11EF
:10351000A0E0B0E0AB2B09F431CE0E9400002ECE2B
:1035200022EF280F243008F442CD26EE280F233056
:1035300008F43DCD20E030E03CCD8E3041F08F30BE
:1035400041F0803141F0813141F09AEE3ACD88E08E
:103550003ECD82E03CCD84E03ACD81E038CDE8E656
:10356000F0E01BCDDF92EF92FF920F931F93CF936A
:10357000DF93D82EF92EE42E062F10E0C801019615
:10358000880F0E94F70983E00E94F709CD2DDF2DF7
:103590000C0F1D1FC017D10789F0E7FE03C0FE0105
:1035A000849101C088810E94F709F82E80E00E9472
:1035B000F7098F2121968111EDCF01C081E0DF91C4
:1035C000CF911F910F91FF90EF90DF900895CF93CF
:1035D000DF93EC0184EF91E0A0E0B0E08E839F8365
:1035E000A887B9878AE0EBE3F1E0DE015496019009
:1035F0000D928A95E1F71E8E82E08F8F1CA21DA28C
:10360000DF91CF910895362F90E0FC01ED5CFD4FE6
:103610004491FC01EA55FD4F2491FC01E957FD4F0F
:103620008491882309F452C04423E1F150E0FA0167
:103630003197EF30F105B0F5EA5AFF4F0C94A91E0F
:10364000909180009F7707C0909180009F7D03C07C
:1036500090918000977F9093800024C094B59F77CD
:1036600002C094B59F7D94BD1DC0909190009F773E
:1036700007C0909190009F7D03C090919000977F2C
:10368000909390000FC09091C0009F7703C09091DD
:10369000C0009F7D9093C00005C09091C200977FAD
:1036A0009093C200E82FF0E0EE0FFF1FE758FD4FA8
:1036B000A591B4919FB7F894311104C08C912095D5
:1036C000282302C0EC912E2B2C939FBF08950F93BB
:1036D0001F93CF93109205031092040388EE93E09A
:1036E000A0E0B0E08093060390930703A093080343
:1036F000B093090320E531E03093030320930203E4
:103700002FEF3FEF30930F0320930E031092D3045B
:103710001092D2048093D4049093D504A093D6043D
:10372000B093D7048AE791E09093D1048093D004BA
:103730001092E7041092E6041092E9041092E80453
:103740001092EB041092EA041092ED041092EC0433
:103750006091EE046E7F6D7F6093EE0466956170FC
:1037600081E068278BE00E94031B61E08BE00E94F0
:103770009E10E1EBF2E0E491E093E004E2E9F2E094
:10378000E491F0E0EE0FFF1FE758FD4F8591949113
:103790009093E2048093E10460E08AE00E949E102E
:1037A0008091EE0481FD04C061E08AE00E94031B69
:1037B0008AE08093DC04E0EBF2E0E491E093DD0446
:1037C000E1E9F2E0E491F0E0EE0FFF1FE559FD4F73
:1037D000859194919093DF048093DE0482E693E0D8
:1037E0000E94E71A1092CB0480E88093CC041092D8
:1037F000CD04CFEFC093C8041092C9041092CA043C
:10380000C093C504C093C6041092C7041092C204AA
:103810001092C304C093C4041092BD041092BC045F
:103820001092BF041092BE041092C1041092C00402
:103830008CEB94E09093B2048093B1041092B404A2
:103840001092B3041092B6041092B5041092BA0408
:103850001092B9041092BB0482E791E09093AA04FD
:103860008093A90487E190E09093AC048093AB042B
:103870000CE010E01093B0040093AF041092AE047B
:103880001092AD0460E00E949E108AE691E0909351
:103890007D0480937C0483E894E00E94E71A82E62A
:1038A00091E090936B0480936A0421E030E03093C0
:1038B0006D0420936C0443E050E050936F044093F8
:1038C0006E04909359048093580464E070E0709300
:1038D0005B0460935A0450935D0440935C0490939E
:1038E00047048093460469E070E070934904609354
:1038F000480450934B0440934A04909335048093BA
:1039000034041093370400933604509339044093E1
:10391000380490932304809322041092250410927B
:103920002404309327042093260490931104809359
:10393000100447E050E05093130440931204309376
:103940001504209314049093FF038093FE0348E032
:1039500050E05093010440930004309303042093FB
:1039600002049093ED038093EC038FE090E090933A
:10397000EF038093EE033093F1032093F00382E191
:103980008093DC0389E190E0A0E0B0E08093DD0368
:103990009093DE03A093DF03B093E00323E1209331
:1039A000CC038093CD039093CE03A093CF03B09329
:1039B000D00324E12093BC038093BD039093BE0306
:1039C000A093BF03B093C00325E12093AC03809381
:1039D000AD039093AE03A093AF03B093B003A09157
:1039E000CC04F091CD04E091C8047091C9046091B9
:1039F000CA045091C5044091C6043091C704209177
:103A0000C2049091C3048091C404B091CB04B093DC
:103A10009403A0939503F0939603E0939703709318
:103A200098036093990350939A0340939B033093B8
:103A30009C0320939D0390939E0380939F0383E8B0
:103A400096E090938F0380938E038AE796E090939D
:103A5000910380939003109293031092920384E950
:103A600091E0909389038093880382E697E0909396
:103A70008B0380938A0310928D0310928C03C09362
:103A80005203109254031092530310925E0310924B
:103A90005D038FEF9FEFDC018093590390935A03EE
:103AA000A0935B03B0935C03CF911F910F91089596
:103AB0008091B3049091B4040E94C81F8091B70410
:103AC0009091B8040E94C81F8AE791E09093D104B6
:103AD0008093D0048091CE049091CF04805D944077
:103AE00071F4E091E304F091E40490818091E504A5
:103AF0008095892380831092CF041092CE0408957C
:103B00008F929F92AF92BF92CF92DF92EF92FF92ED
:103B1000CF93DF93EC01688179818A819B81611564
:103B200071058105910521F464E279ED8BE597E05B
:103B30002DE133EF41E050E00E94221E49015A017D
:103B40009B01AC01A7EAB1E40E94411E6B017C011C
:103B5000ACEEB4EFA50194010E944F1EDC01CB0135
:103B60008C0D9D1DAE1DBF1DB7FF03C00197A109A0
:103B7000B04888839983AA83BB83BC01CD019F771A
:103B8000DF91CF91FF90EF90DF90CF90BF90AF90FB
:103B90009F908F9008958F929F92AF92BF92CF92F5
:103BA000DF92EF92FF9260910E0170910F01809170
:103BB000100190911101611571058105910521F4A4
:103BC00064E279ED8BE597E02DE133EF41E050E0E1
:103BD0000E94221E49015A019B01AC01A7EAB1E4EF
:103BE0000E94411E6B017C01ACEEB4EFA501940173
:103BF0000E944F1EDC01CB018C0D9D1DAE1DBF1D13
:103C0000B7FF03C00197A109B04880930E019093BC
:103C10000F01A0931001B0931101BC01CD019F775A
:103C2000FF90EF90DF90CF90BF90AF909F908F90DC
:103C3000089560930E0170930F018093100190938B
:103C400011010895052E97FB1EF400940E94391E61
:103C500057FD07D00E94541E07FC03D04EF40C946D
:103C6000391E50954095309521953F4F4F4F5F4FEE
:103C7000089590958095709561957F4F8F4F9F4FD8
:103C800008950E94761EA59F900DB49F900DA49F4D
:103C9000800D911D11240895B7FF0C94411E0E94C0
:103CA000411E821B930B0895A1E21A2EAA1BBB1B77
:103CB000FD010DC0AA1FBB1FEE1FFF1FA217B307F8
:103CC000E407F50720F0A21BB30BE40BF50B661F0E
:103CD000771F881F991F1A9469F7609570958095D2
:103CE00090959B01AC01BD01CF010895A29FB00149
:103CF000B39FC001A39F700D811D1124911DB29F20
:103D0000700D811D1124911D0895DB018F939F93E8
:103D10000E94411EBF91AF91A29F800D911DA39F54
:103D2000900DB29F900D1124089597FB072E16F465
:103D3000009407D077FD09D00E94B61E07FC05D07D
:103D40003EF4909581959F4F0895709561957F4FB2
:103D50000895EE0FFF1F0590F491E02D09940E9445
:103D6000761EB7FF0895821B930B0895AA1BBB1BF9
:103D700051E107C0AA1FBB1FA617B70710F0A61B6B
:103D8000B70B881F991F5A95A9F780959095BC018C
:103D9000CD010895E89409C097FB3EF49095809575
:103DA000709561957F4F8F4F9F4F9923A9F0F92F01
:103DB00096E9BB279395F695879577956795B7957F
:103DC000F111F8CFFAF4BB0F11F460FF1BC06F5F65
:103DD0007F4F8F4F9F4F16C0882311F096E911C077
:103DE000772321F09EE8872F762F05C0662371F098
:103DF00096E8862F70E060E02AF09A95660F771FAC
:103E0000881FDAF7880F9695879597F908950E948D
:103E10000C1F08F48FEF0895990F0008550FAA0B97
:103E2000E0E8FEEF16161706E807F907C0F01216CD
:103E30001306E407F50798F0621B730B840B950BD0
:103E400039F40A2661F0232B242B252B21F4089525
:103E50000A2609F4A140A6958FEF811D811D0895C2
:103E60000F931F93CF93DF938230910510F482E07C
:103E700090E0E091F104F091F20420E030E0A0E065
:103E8000B0E0309719F140815181028113814817C8
:103E90005907C8F08417950769F4109731F0129606
:103EA0000C93129713961C9327C00093F104109360
:103EB000F20422C02115310519F04217530718F4F6
:103EC0009A01BD01EF01DF01F801DBCF21153105BA
:103ED000F9F0281B390B2430310580F48A819B814D
:103EE0006115710521F0FB019383828304C09093D7
:103EF000F2048093F104FE01329644C0FE01E20F09
:103F0000F31F8193919322503109398328833AC05A
:103F10002091EF043091F004232B41F420911401FF
:103F2000309115013093F0042093EF042091120199
:103F3000309113012115310541F42DB73EB7409161
:103F4000160150911701241B350BE091EF04F091FD
:103F5000F004E217F307A0F42E1B3F0B28173907D4
:103F600078F0AC014E5F5F4F2417350748F04E0FD5
:103F70005F1F5093F0044093EF048193919302C02C
:103F8000E0E0F0E0CF01DF91CF911F910F91089514
:103F9000CF93DF93009709F481C0FC01329713821D
:103FA0001282A091F104B091F204109781F4208163
:103FB0003181820F931F2091EF043091F004281774
:103FC000390751F5F093F004E093EF0467C0ED0179
:103FD00020E030E0CE17DF0740F44A815B819E018C
:103FE00041155105F1F0EA01F5CFD383C283408139
:103FF0005181840F951FC817D90759F48881998179
:10400000840F951F0296918380838A819B8193837D
:1040100082832115310529F4F093F204E093F10431
:104020003DC0E901FB83EA8349915991C40FD51F33
:10403000EC17FD0761F480819181840F951F029632
:10404000E90199838883828193819B838A83E0E05D
:10405000F0E012968D919C911397009719F0FD0155
:10406000DC01F7CF8D919C9111979D012E5F3F4F01
:10407000820F931F2091EF043091F0042817390725
:1040800069F4309729F41092F2041092F10402C0FE
:1040900013821282B093F004A093EF04DF91CF91CA
:1040A0000895A0E0B0E0E7E5F0E20C942921EC01EE
:1040B000009721F4CB010E94301FB4C0FC01E60F31
:1040C000F71F9C0122503109E217F30708F4A8C03A
:1040D000D9010D911C91119706171707B0F0053003
:1040E000110508F49BC0C80104978617970708F4C8
:1040F00095C002501109061B170B019311936D9384
:104100007C93CF010E94C81F89C05B01A01AB10A2D
:104110004C01800E911EA091F104B091F204612C2B
:10412000712CE12CF12C109709F446C08D919C91D3
:104130001197A815B905B1F56C0142E0C40ED11C68
:10414000CA14DB0478F14C018A189B08640142E030
:10415000C40ED11C1296BC9012971396AC91B5E088
:10416000CB16D10440F0B282A38391828082D90120
:104170006D937C9309C00E5F1F4F800F911FF90153
:1041800091838083EB2DFA2FE114F10431F0D701F4
:104190001396FC93EE93129741C0F093F204E093D0
:1041A000F1043CC06816790608F43C017D011296C2
:1041B0000D90BC91A02DB7CF8091EF049091F004A9
:1041C00088169906E1F466167706C8F48091120104
:1041D00090911301009741F48DB79EB7409116015D
:1041E00050911701841B950BE817F907C8F4F09359
:1041F000F004E093EF04F901718360830FC0CB01F9
:104200000E94301F7C01009759F0A801BE010E9456
:104210001C21CE010E94C81FC70104C0CE0102C0EC
:1042200080E090E0CDB7DEB7EEE00C94452181E070
:1042300090E0F8940C945C21FB01DC0102C0019039
:104240000D9241505040D8F708952F923F924F92CF
:104250005F926F927F928F929F92AF92BF92CF9216
:10426000DF92EF92FF920F931F93CF93DF93CDB71F
:10427000DEB7CA1BDB0B0FB6F894DEBF0FBECDBF97
:1042800009942A88398848885F846E847D848C8468
:104290009B84AA84B984C884DF80EE80FD800C8171
:1042A0001B81AA81B981CE0FD11D0FB6F894DEBF54
:1042B0000FBECDBFED01089511E0C4E6D1E004C00A
:1042C000FE010E94A91E2196C536D107C9F7F894B0
:0242D000FFCF1E
:1042D2003905FFFFFFFF00E10000000000000100C0
:1042E20000000000F304200000000000C20AC20A1D
:1042F200C20A9501B901BD0100000000030546058F
:1043020092019501B9018F01C001C87EFF0600012B
:1043120000000000EF00C1808100000000000000EA
:10432200830AF60A7C0B990AA40AA40B800B0000EC
:1043320000007809760900000000760EC20B00002A
:104342000000770EC40B00000000D00E590ABF0A0D
:10435200CF0E200F380FB70E477265656E0052659B
:10436200640059656C6C6F77006368616E676520E5
:1043720074686520626F6172640077697265427564
:1043820074746F6E20300077697265427574746F51
:104392006E20310077697265427574746F6E2032D7
:1043A2000077697265427574746F6E203300636FB3
:1043B2006D706C65746564206D617000676F207448
:1043C2006F2073746172742067616D65002053748D
:1043D2006172742075702061637469766974697999
:1043E2000066696C6520636F756E74203D20000D58
:0243F2000A00BF
:00000001FF
