:100000000C9458010C9480010C9480010C94800194
:100010000C9480010C9480010C9480010C9480015C
:100020000C9480010C94D6120C940C0F0C947E0F3F
:100030000C9480010C9480010C9480010C9480013C
:100040000C9480010C9480010C9480010C9480012C
:100050000C9480010C9480010C9480010C94731416
:100060000C9480010C9480010C9480010C9480010C
:100070000C9480010C9480010C9480010C948001FC
:100080000C9480010C9480010C9480010C948001EC
:100090000C9480010C9480010C9480010C948001DC
:1000A0000C9480010C9480010C948001ED0BF50BF5
:1000B000FF0BDC0BFF0BDE0BFD0B060CFF0BFF0B2E
:1000C000FF0BFF0BFF0BFF0BFF0BFF0B060CFF0BD8
:1000D000FF0BFF0BFF0BFF0B7C137F136E137213D1
:1000E0007813A013A013A013831387138B139113FA
:1000F0009513A0139B134446506C61796572204D93
:10010000696E69206F6E6C696E652E00322E506CC0
:100110006561736520696E7365727420746865200B
:10012000534420636172642100312E506C65617309
:1001300065207265636865636B2074686520636F12
:100140006E6E656374696F6E2100556E61626C65D9
:1001500020746F20626567696E3A00496E69746940
:10016000616C697A696E67204446506C617965728A
:10017000202E2E2E20284D61792074616B6520334E
:100180007E35207365636F6E647329004446526F39
:10019000626F74204446506C61796572204D696EBF
:1001A000692044656D6F00000000002300260029CF
:1001B000002C002F0000000000250028002B002E3E
:1001C00000310004040404040304050202020204D2
:1001D00003020202020606060606060404020202E2
:1001E0000404040802011040804010204080408038
:1001F00008020401804020100201108010204040BD
:1002000020080B00020202010009040000010202A2
:100210000000052400100105240101010424020648
:1002200005240600010705810310004009040100B0
:10023000020A0000000705020240000007058302D1
:100240004000000403090412010002EF02014041D2
:1002500023378000010102030141726475696E6FEA
:10026000204C4C430041726475696E6F204D696388
:10027000726F00070605040100080A0B0C0D090047
:10028000000000240027002A002D0030000000009C
:100290000200090F0000030401000C000000000030
:1002A000000000000000000000000000861A3F1D52
:1002B00011241FBECFEFDAE0DEBFCDBF11E0A0E01A
:1002C000B1E0EEE5F3E402C005900D92A23FB10764
:1002D000D9F724E0A2EFB1E001C01D92AF3CB20714
:1002E000E1F711E0C7E5D1E004C02197FE010E94CB
:1002F000901EC635D107C9F70E94BD140C94A221E7
:100300000C94000080E991E008953E9A08950895C4
:10031000CF93DF9300D000D000D0CDB7DEB7AB01D4
:100320001C821D821E82DC01ED91FC910190F08106
:10033000E02D19821A821B829E012F5F3F4FBE0162
:100340006C5F7F4F099526960FB6F894DEBF0FBEFF
:10035000CDBFDF91CF910895FC01858596850895E5
:1003600080E090E008954F925F926F927F928F921B
:10037000AF92BF92CF92DF92EF920F931F93CF93E2
:10038000DF933C01EB010E940814F30127853089BB
:10039000621B730B6A307105B0F3F894E881F98140
:1003A00078B1706468B16F7B68B9CB8488852C2D77
:1003B000281B822F2887BF844A805B801E850C857E
:1003C000DD841F5F0F5FD3949E813F81A984EA84FF
:1003D0004281D20120E0C32F522F322F3281442795
:1003E00088943111380F08F43FEF8195889410FDFF
:1003F000430F4795889411FD430F4795889412FD4C
:10040000430F4795889413FD430F4795889414FD37
:10041000430F4795889415FD430F4795889416FD23
:10042000430F4795889417FD430F47958894232FD2
:100430001111242F8C0D422F002C78B900C000C060
:1004400000C047FF68B930812227889400C000C0EF
:1004500000C000C000C000C000C0002C00C000C030
:1004600068B93111390F00C000C0002C78B900C044
:1004700000C000C046FF68B908F43FEF919588942A
:1004800000C000C000C000C000C000C000C0002C00
:1004900000C000C068B900FD230F00C000C0002CE0
:1004A00078B900C000C000C045FF68B9279588949E
:1004B00001FD230F00C000C000C000C000C000C08C
:1004C00000C0002C00C000C068B92795889400C007
:1004D00000C0002C78B900C000C000C044FF68B95B
:1004E00002FD230F2795889400C000C000C000C003
:1004F00000C000C000C0002C00C000C068B903FDEF
:10050000230F00C000C0002C78B900C000C000C09C
:1005100043FF68B92795889404FD230F00C000C0ED
:1005200000C000C000C000C000C0002C00C000C05F
:1005300068B92795889400C000C0002C78B900C025
:1005400000C000C042FF68B905FD230F27958894BD
:1005500000C000C000C000C000C000C000C0002C2F
:1005600000C000C068B906FD230F00C000C0002C09
:1005700078B900C000C000C041FF68B927958894D1
:1005800007FD230F00C000C000C000C000C000C0B5
:1005900000C0002C00C000C068B92795889400C036
:1005A00000C0002C78B900C000C000C040FF68B98E
:1005B000432F0111422F9A0D00C000C000C000C09F
:1005C00000C000C000C0002C00C000C068B900C05E
:1005D00000C000C0002C78B900C000C000C047FFB8
:1005E00068B931812227889400C000C000C000C0D3
:1005F00000C000C000C0002C00C000C068B93111AC
:100600003C0F00C000C0002C78B900C000C000C082
:1006100046FF68B908F43FEFEB0DF11D00C000C0C4
:1006200000C000C000C000C000C0002C00C000C05E
:1006300068B9D0FC230F00C000C0002C78B900C0FE
:1006400000C000C045FF68B927958894D1FC230FEE
:1006500000C000C000C000C000C000C000C0002C2E
:1006600000C000C068B92795889400C000C0002C65
:1006700078B900C000C000C044FF68B9D2FC230FA5
:100680002795889400C000C000C000C000C000C012
:1006900000C0002C00C000C068B9D3FC230F00C00C
:1006A00000C0002C78B900C000C000C043FF68B98A
:1006B00027958894D4FC230F00C000C000C000C060
:1006C00000C000C000C0002C00C000C068B9279561
:1006D000889400C000C0002C78B900C000C000C0E1
:1006E00042FF68B9D5FC230F2795889400C000C04D
:1006F00000C000C000C000C000C0002C00C000C08E
:1007000068B9D6FC230F00C000C0002C78B900C027
:1007100000C000C041FF68B927958894D7FC230F1B
:1007200000C000C000C000C000C000C000C0002C5D
:1007300000C000C068B92795889400C000C0002C94
:1007400078B900C000C000C040FF68B9432FD11085
:10075000422FC19500C000C000C000C000C000C052
:1007600000C0002C00C000C068B9CE0D00C000C0A1
:1007700000C078B900C000C000C047FF68B932812E
:100780002227889400C000C000C000C000C000C084
:1007900000C0002C00C000C068B93111380F00C083
:1007A00000C0002C78B900C000C000C046FF68B986
:1007B00008F43FEF8195889400C000C000C000C0DD
:1007C00000C000C000C0002C00C000C068B910FD0F
:1007D000230F00C000C0002C78B900C000C000C0CA
:1007E00045FF68B92795889411FD230F00C000C00C
:1007F00000C000C000C000C000C0002C00C000C08D
:1008000068B92795889400C000C0002C78B900C052
:1008100000C000C044FF68B912FD230F27958894DB
:1008200000C000C000C000C000C000C000C0002C5C
:1008300000C000C068B913FD230F00C000C0002C29
:1008400078B900C000C000C043FF68B927958894FC
:1008500014FD230F00C000C000C000C000C000C0D5
:1008600000C0002C00C000C068B92795889400C063
:1008700000C0002C78B900C000C000C042FF68B9B9
:1008800015FD230F2795889400C000C000C000C04C
:1008900000C000C000C0002C00C000C068B916FD38
:1008A000230F00C000C0002C78B900C000C000C0F9
:1008B00041FF68B92795889417FD230F00C000C039
:1008C00000C000C000C000C000C0002C00C000C0BC
:1008D00068B92795889400C000C0002C78B900C082
:1008E00000C000C040FF68B9432F1111422F8C0D8A
:1008F00000C000C000C000C000C000C000C0002C8C
:1009000000C000C068B900C0119709F096CD20EC76
:1009100033E0D2010E94961EDC01CB01F4E0B695D3
:10092000A79597958795FA95D1F720E030E0B90122
:10093000EAE94E9E040C611D5E9E600D711D11243E
:10094000650D711D860F971FA11DB11D893E43E0E6
:100950009407A105B10508F434C0885E9340A1094D
:10096000B10942E0B695A795979587954A95D1F735
:1009700047E0849F080E211D949F200D311D1124F6
:10098000290F311D6091040270E0860F971F820FBE
:10099000931F40912F035091300360913103709168
:1009A0003203292F3327420F531F611D711D4093BE
:1009B0002F0350933003609331037093320380937D
:1009C000040278940E940814F301708B6787DF910A
:1009D000CF911F910F91EF90DF90CF90BF90AF908C
:1009E0008F907F906F905F904F9008950F931F931B
:1009F000CF93DF93CDB7DEB762970FB6F894DEBF23
:100A00000FBECDBF8C01F901DC011C968C917A835D
:100A100069835C834B835E834D8390819D87918145
:100A20009E8792819F87813029F4CE0101960E9492
:100A30000E1206C01C861B861A86198618861F820F
:100A4000188A1A8A198AD801ED91FC910484F585D7
:100A5000E02DBE016F5F7F4FC801099562960FB60A
:100A6000F894DEBF0FBECDBFDF91CF911F910F91E4
:100A700008950F931F93CF93DF93CDB7DEB762979F
:100A80000FB6F894DEBF0FBECDBF8C01F901DC01BB
:100A90001C968C917A8369835C834B835E834D8340
:100AA00090819D8791819E8792819F87813029F4D3
:100AB000CE0101960E940E1206C01C861B861A8665
:100AC000198618861F8283E0888B1A8A198AD801B2
:100AD000ED91FC910484F585E02DBE016F5F7F4FA1
:100AE000C801099562960FB6F894DEBF0FBECDBF60
:100AF000DF91CF911F910F910895AF92BF92CF9246
:100B0000DF92EF92FF920F931F93CF93DF93EC014D
:100B10008B018BE10E94DD135C01BC01990F880BF6
:100B2000990B0E94E91E6093FA017093FB01809378
:100B3000FC019093FD018AE10E94DD136C01BC0170
:100B4000990F880B990B0E94E91E6093F601709330
:100B5000F7018093F8019093F90189E10E94DD1378
:100B60007C01BC01990F880B990B0E94E91E6093D0
:100B7000F2017093F3018093F4019093F50188E101
:100B80000E94DD13980124513109A216B30634F0F6
:100B9000A8014C5E5F4F4A155B0594F4C216D3065C
:100BA000C4F0A8014C5E5F4F4C155D0594F0809138
:100BB000A40488838091A50489838091A6042BC016
:100BC0008091A70488838091A80489838091A904D7
:100BD00022C0E216F3067CF0A8014C5E5F4F4E1572
:100BE0005F054CF08091A10488838091A2048983E1
:100BF0008091A30410C0821793077CF00C5E1F4FF6
:100C00000817190754F080919E04888380919F04EF
:100C100089838091A0048A8303C0188219821A8272
:100C2000CE01DF91CF911F910F91FF90EF90DF9058
:100C3000CF90BF90AF90089580919704882321F0C2
:100C400081E090E00C94090B0895CF92DF92EF922F
:100C5000FF920F931F93CF93DF9300D01F92CDB7D6
:100C6000DEB788E891E00E943E0B00E513E094E0D7
:100C7000C92ED12CE12CF12C0E94B21DA7019601A6
:100C80000E94091EFB01EE0FFF1F6E0F7F1FFB016D
:100C9000E05BFC4F208191818281D8013C913083BF
:100CA00011963C911197318312963C9112973283A1
:100CB0002C9311969C93119712968C930D5F1F4F56
:100CC000B3E00C351B07C1F68091500389838091F6
:100CD00051038A83809152038B83BE016F5F7F4FE4
:100CE0008EEF93E00E946E0A809153038983809176
:100CF00054038A83809155038B83BE016F5F7F4FBE
:100D00008CEE93E00E946E0A809156038983809155
:100D100057038A83809158038B83BE016F5F7F4F97
:100D20008AED93E00E946E0A809159038983809135
:100D30005A038A8380915B038B83BE016F5F7F4F71
:100D400088EC93E00E946E0A809150038983809121
:100D500051038A83809152038B83BE016F5F7F4F63
:100D600086E494E00E946E0A809153038983809107
:100D700054038A83809155038B83BE016F5F7F4F3D
:100D800084E394E00E946E0A8091560389838091E7
:100D900057038A83809158038B83BE016F5F7F4F17
:100DA00082E294E00E946E0A8091590389838091C7
:100DB0005A038A8380915B038B83BE016F5F7F4FF1
:100DC00080E194E00E946E0A1092020281E080931A
:100DD000030288EC8093F2020F900F900F90DF9146
:100DE000CF911F910F91FF90EF90DF90CF900895DA
:100DF00020910302211107C021E020935E04BC0171
:100E000083E00C944C0C0895CF92DF92EF92FF9206
:100E10000F931F93CF93DF9300D01F92CDB7DEB710
:100E200082E10E94DD13BC01990F880B990B0E948F
:100E3000E91E6093C4037093C5038093C603909327
:100E4000C70383E10E94DD13BC01990F880B990B46
:100E50000E94E91E6093AC037093AD038093AE03D0
:100E60009093AF0384E10E94DD13BC01990F880BBE
:100E7000990B0E94E91E60939403709395038093ED
:100E800096039093970385E10E94DD13BC01990FAF
:100E9000880B990B0E94E91E60937C0370937D037D
:100EA00080937E0390937F038091B903882309F494
:100EB000A2C182E10E94DD13BC01990F880B990B3E
:100EC0000E94E91E6093C4037093C5038093C60318
:100ED0009093C70389E991E00E943E0B8091A103A2
:100EE000811197C1809189038823A9F084E10E9430
:100EF000DD13BC01990F880B990B0E94E91E6093CA
:100F0000940370939503809396039093970386EAD6
:100F100091E00E943E0B80917103811190C1C090BD
:100F2000C403D090C503E090C603F090C70320E04F
:100F300030E048E452E4C701B6010E944D1F181684
:100F40008CF5C701B6010E94B11ECE0101960E9428
:100F50007D05998180915003981317C09A818091E3
:100F60005103981312C0909152038B8198130DC0B6
:100F700063E070E086E494E00E948F0A8823D9F051
:100F800081E090E00E94F80616C062E070E086E41E
:100F900094E00E948F0A882389F082E090E00E940A
:100FA000F8060CC01092020261E070E086E494E062
:100FB0000E948F0A03C001E010E002C000E010E0D0
:100FC000C090AC03D090AD03E090AE03F090AF03BF
:100FD00020E030E048E452E4C701B6010E944D1F12
:100FE00018169CF5C701B6010E94B11ECE010196EC
:100FF0000E947D05909153038981981319C09091A7
:1010000054038A81981314C0909155038B819813CF
:101010000FC063E070E084E394E00E948F0A8823AD
:1010200021F081E090E00E94F8060F5F1F4F15C08D
:1010300062E070E084E394E00E948F0A882369F004
:1010400082E090E00E94F80608C01092020261E07F
:1010500070E084E394E00E948F0AC0909403D090E3
:101060009503E0909603F090970320E030E048E489
:1010700052E4C701B6010E944D1F18169CF5C70126
:10108000B6010E94B11ECE0101960E947D0590918D
:1010900056038981981319C0909157038A81981338
:1010A00014C0909158038B8198130FC063E070E0D7
:1010B00082E294E00E948F0A882321F081E090E090
:1010C0000E94F8060F5F1F4F15C062E070E082E2D9
:1010D00094E00E948F0A882369F082E090E00E94E9
:1010E000F80608C01092020261E070E082E294E02B
:1010F0000E948F0AC0907C03D0907D03E0907E0315
:10110000F0907F0320E030E048E452E4C701B601EC
:101110000E944D1F18169CF5C701B6010E94B11E12
:10112000CE0101960E947D05909159038981981303
:1011300019C090915A038A81981314C090915B034F
:101140008B8198130FC063E070E080E194E00E940F
:101150008F0A882321F081E090E00E94F8060F5F5B
:101160001F4F15C062E070E080E194E00E948F0A9A
:10117000882369F082E090E00E94F80608C010928F
:10118000020261E070E080E194E00E948F0A109218
:10119000030280910202811113C00430110581F411
:1011A00081E0809302028FEF8093F2020E94671425
:1011B0006093FE017093FF018093000290930102FF
:1011C00080910202882309F450C00E9467140091A4
:1011D000FE011091FF012091000230910102DC011B
:1011E000CB01801B910BA20BB30B89399A43A1054C
:1011F000B10530F43AC08091030281115ACE6ECE0F
:1012000080919704882389F182E090E00E94090B85
:101210002CC083E10E94DD13BC01990F880B990B50
:101220000E94E91E6093AC037093AD038093AE03FC
:101230009093AF0383EB91E00E943E0B53CE85E188
:101240000E94DD13BC01990F880B990B0E94E91EC7
:1012500060937C0370937D0380937E0390937F0360
:1012600080EC91E00E943E0B5ACE0F900F900F90B1
:10127000DF91CF911F910F91FF90EF90DF90CF9072
:1012800008950C940E2008954091000150910101A1
:1012900025E038E0429FC001439F900D529F900D82
:1012A0001124875E994C9093010180930001890F6E
:1012B0000895CF93DF93DC01EB0112964D915C9181
:1012C00013979A01220F331F240F351F12966D9129
:1012D0007C91139714968D919C911597860F971F6B
:1012E000481759078CF41D96ED91FC911E97E20F5B
:1012F000F31F88818083898181838A8182834F5F04
:101300005F4F2D5F3F4FE2CFDF91CF910895209146
:10131000AA043091AB042817390771F490916F0239
:1013200080916E02981741F0E0916F02F0E0E25D6B
:10133000FD4F808190E008958FEF9FEF089508950D
:10134000CF92DF92EF92FF920F931F93CF93DF9391
:10135000EC016FEFC62E62E0D62E76E2E72E72E049
:10136000F72E6C817D81C6018F5F924086179707AB
:1013700094F4C7010E947C1E12E0160F0E944409DB
:10138000819FB0011124F6012081271B08F420E081
:1013900021936F01E6CF6330710569F42091FF025C
:1013A0008091000390E0820F911D820F911D0E9499
:1013B0007C1E609301030E9444098C3DD0F40E947E
:1013C0004409F7E08F9FC0011124092F112707FD61
:1013D0001A950E9444092FE5829FC001112430EA2A
:1013E000390FF801E150FD4F2081230F08F42FEF52
:1013F0002083AFEFB2E07FEBF12C8D010F5F124045
:101400004C815D81041715070CF035C02D913F2DDF
:10141000222329F0279F312D112471113F5F232FA3
:10142000220F220F37FD06C036FD06C0622F20E0D6
:1014300030E005C03FEF02C0322F20E06FEFEC85B7
:101440008A819B81EE2339F0FA013197E80FF91F69
:10145000E01BF10B03C0F801E80FF91FCF01880F63
:10146000991FE80FF91F8D859E85E80FF91F60838E
:1014700031832283C2CFDF91CF911F910F91FF90D3
:10148000EF90DF90CF900895CF93DF9300D01F921D
:10149000CDB7DEB7FB0122E732E0DC011E963C93BC
:1014A0002E931D9720811F962C931F972181509674
:1014B0002C935097228151962C932081298321814E
:1014C0002A8322812B83BE016F5F7F4F0E945909BF
:1014D0000F900F900F90DF91CF910895CF93DF93EE
:1014E00000D01F92CDB7DEB7FB014081DC011F9613
:1014F0004C931F97318150963C935097228151967F
:101500002C9349833A832B83BE016F5F7F4F0E94E8
:1015100059090F900F900F90DF91CF910895CF93BD
:10152000DF9300D01F92CDB7DEB7FC012285338553
:1015300026173707E9F0738762876130710559F024
:101540006330710589F4FC012785298320892A836A
:1015500021892B8303C019821A821B82BE016F5F0F
:101560007F4F0E94590902C00E94A00981E001C07A
:1015700080E00F900F900F90DF91CF910895FC01C4
:10158000228533852230310511F40C94A009089589
:10159000CF93DF93EC01E881F9810480F581E02DA0
:1015A000309709F00995EE81FF81309709F0099590
:1015B000EA81FB810190F081E02D309709F00995D7
:1015C0008A819B8190938E0480938D040E9467147E
:1015D0002091950430919604A0918D04B0918E04D1
:1015E000E0919304F091940440E050E042175307D7
:1015F0006CF4C081D181CA17DB0721F46087718741
:10160000828793874F5F5F4F7096F0CFDF91CF91C6
:101610000895409191045091920460918D047091CD
:101620008E04E0918F04F091900420E030E02417C4
:1016300035078CF4A081B181A617B70741F4A481C6
:10164000B581A817B90719F4CF010C94C80A2F5F08
:101650003F4F3896ECCF0895009769F0FC01019058
:101660000020E9F73197AF01481B590BBC0182EA12
:1016700092E00C943C0E80E090E00895CF93DF93CD
:101680000E942C0BEC0181EE91E00E942C0B8C0F40
:101690009D1FDF91CF9108950F931F93CF9380915A
:1016A0005F0490916004DC01ED91FC910084F18570
:1016B000E02D0995892B09F4B9C060E070E0CB01F9
:1016C0000E942D14C0917D0480915F04909160046C
:1016D000DC01ED91FC910284F385E02DC11108C07D
:1016E0000995809369048E37D1F680917D049AC064
:1016F0000995EC2FF0E0E85AFB4F818B80917D0437
:101700008230A1F08930C1F0813009F08BC0909116
:101710006A049F3F09F486C010927D0481E08093A3
:101720007F041092820410928104AAC090916B04ED
:10173000963009F477C0F0CF809172048F3E61F744
:10174000EAE6F4E080E794E020E030E04191240F05
:10175000311D8E179F07D1F78091700490E0982F6C
:10176000882740917104840F911D3195219531098D
:101770008217930789F610927D04E0916C04E1349E
:1017800009F44DC0E093800480916E0490E0982F9E
:10179000882720916F04820F911D9093820480937B
:1017A00081044E2F50E0FA01FA97E631F10570F509
:1017B000EA5AFF4F0C94901E85E022C080FF02C0C1
:1017C00089E01EC081FF02C084E01AC0837099279F
:1017D000892B09F45BC08AE013C080FF02C087E058
:1017E0000FC081FF53C082E00BC080FF02C088E0C1
:1017F00007C081FF4BC083E003C086E001C08BE0DF
:1018000080937F0481E08093830440C081E08093D3
:101810007F041092820410928104809383041092BA
:10182000840434C08F5F80937D0439CF8091840419
:10183000882361F10E946714009161041091620491
:101840002091630430916404DC01CB01801B910B77
:10185000A20BB30B009165041091660420916704FC
:101860003091680480179107A207B30778F01092AF
:101870007D0410927F04109282041092810481E012
:10188000809383041092840480E002C080918304DA
:10189000CF911F910F9108958093760470937804EF
:1018A00060937904E4E7F4E02AE734E080E090E034
:1018B0004191840F911D2E173F07D1F79195819586
:1018C000910990937A0480937B0480917704882314
:1018D00061F080918404882341F060E070E0CB01E6
:1018E0000E942D140E944C0BF4CF80915F049091C4
:1018F0006004DC01ED91FC910280F381E02D4AE06F
:1019000050E063E774E009950E94671460936104F6
:1019100070936204809363049093640480917704CD
:1019200091E0811101C090E090938404811106C080
:101930006AE070E080E090E00C942D1408958F929E
:101940009F92AF92BF92CF92DF92EF92FF92CF938E
:101950006B017C010E9467144B015C01C114D1042E
:10196000E104F10441F4C0906504D0906604E09075
:101970006704F09068040E944C0BC82F811113C0BB
:101980000E946714DC01CB0188199909AA09BB09D7
:10199000C816D906EA06FB0630F060E070E0CB011D
:1019A0000E942D14E8CF8C2FCF91FF90EF90DF9005
:1019B000CF90BF90AF909F908F9008950F931F93FB
:1019C000CF93DF938C01C0E0D0E0F801EC0FFD1F56
:1019D0006491662341F082EA92E00E94C90D892B4E
:1019E00011F02196F2CF81EE91E00E942C0B8C0F2A
:1019F0009D1FDF91CF911F910F910895209171024A
:101A0000211103C08FEF9FEF08955FB7F89422E094
:101A10002093E9002091F20030E01216130614F42E
:101A200021E030E0422FFC0184E6415038F0289A52
:101A3000809370029091F1009193F7CF21153105B9
:101A400021F08091F200882319F05FBFC901089549
:101A50008BE68093E800F9CF2FB7F89483E080936A
:101A6000E9009091E800892F807295FF04C0909161
:101A7000F20080E4891B2FBF089540912B03509101
:101A80002C032091290330912A0342175307B4F401
:101A90009091E8009570E1F39091E80092FD19C0F3
:101AA0008093F10080912B0390912C0301968F730A
:101AB0009927892B19F48EEF8093E80080912B03EE
:101AC00090912C03019690932C0380932B0381E03B
:101AD000089580E00895DF92EF92FF920F931F9395
:101AE000CF93DF93D82E8A017B01E40EF51EEB0124
:101AF000CE15DF0571F0D7FE03C0FE01849101C051
:101B000088810E943D0D21968111F2CF8FEF9FEFCA
:101B100001C0C801DF91CF911F910F91FF90EF900D
:101B2000DF900895615030F02091F100FC01208396
:101B30000196F8CF289A84E6809370020895CF9298
:101B4000DF92EF92FF920F931F93CF93DF936C017D
:101B50007A018B01C0E0D0E0CE15DF0581F0D8011D
:101B60006D918D01D601ED91FC910190F081E02DF8
:101B7000C6010995892B11F02196EECF7E01C70190
:101B8000DF91CF911F910F91FF90EF90DF90CF9059
:101B90000895CF93DF931F92CDB7DEB76983DC0141
:101BA000ED91FC910280F381E02D41E050E0BE0117
:101BB0006F5F7F4F09950F90DF91CF91089583E07C
:101BC0008093E9008091F200882319F08AE38093E2
:101BD000E8000895FC018485958597FD0BC09FB7AB
:101BE000F89482E08093E9008091F2009FBF90E03A
:101BF000019608959FB7F89482E08093E900809160
:101C0000F2009FBF90E00895089580E090E008956D
:101C10000E945D210F931F93CF93DF931F92CDB747
:101C2000DEB782E0898342E450E061E072E080E860
:101C30000E946B0D0E945013DC0112960D911C91B5
:101C400013970115110589F0D801ED91FC910280DF
:101C5000F381E02DBE016F5F7F4FC801099597FDAD
:101C600004C0F80100851185ECCF89810F90DF91C8
:101C7000CF911F910F9108958F929F92AF92BF9233
:101C8000CF92DF92EF92FF920F931F93CF93DF9348
:101C90006C017B018A0180910D01882309F45CC0ED
:101CA00080917102882309F457C08091050280FF5A
:101CB00005C08091E00082608093E000E801B12CD3
:101CC0008AEFA82E93E0892E2AE3922E209711F412
:101CD000BB20D9F10E942C0D81110AC0AA94AA2020
:101CE000D9F161E070E080E090E00E942D14EECF29
:101CF000282F30E0C217D3070CF48C2F9FB7F8942D
:101D00008092E9002091E80025FF1DC0282F30E0D7
:101D1000C21BD30BF701815020F041914093F10099
:101D2000FACFE20EF31EBB2019F09092E8000AC031
:101D30008091E80085FD07C09092E800BB24B39431
:101D4000209709F0B12C9FBFC1CF5D9A84E68093A4
:101D50002E031016110644F081E090E0F601938303
:101D6000828380E090E001C0C801DF91CF911F9194
:101D70000F91FF90EF90DF90CF90BF90AF909F902A
:101D80008F9008950E942C0D90E008950F931F935B
:101D9000CF93DF931F92CDB7DEB78C01FC01848512
:101DA000958597FF0EC0CE0101960E94FE0C01970B
:101DB00019F4898190E002C08FEF9FEFF8019587B9
:101DC0008487F801848595850F90DF91CF911F91CD
:101DD0000F910895CF93DF931F92CDB7DEB7FC012B
:101DE0008485958597FD05C02FEF3FEF35872487C4
:101DF0000BC0CE0101960E94FE0C019719F4898157
:101E000090E002C08FEF9FEF0F90DF91CF91089588
:101E10000C940E200C940E201F920F920FB60F926E
:101E200011248F939F938091E1009091E100937F23
:101E30009093E10083FF0FC01092E90091E090932E
:101E4000EB001092EC0092E39093ED00109271027F
:101E500098E09093F00082FF20C093E09093E90017
:101E60009091F200992319F09AE39093E8009091F1
:101E70002E03992339F090912E03915090932E03C5
:101E8000992389F190917002992339F09091700211
:101E9000915090937002992341F184FF10C080917A
:101EA000E2008E7E81608093E2008091E1008F7E6F
:101EB0008093E100809105028E7E806111C080FFD9
:101EC00016C08091E2008E7E80618093E200809156
:101ED000E1008E7E8093E100809105028E7E81601C
:101EE0008093050204C05D98CDCF2898D6CF9F91EE
:101EF0008F910F900FBE0F901F9018951F920F9209
:101F00000FB60F921124CF92DF92EF92FF920F93B0
:101F10001F932F933F934F935F936F937F938F9371
:101F20009F93AF93BF93EF93FF93CF93DF93CDB77F
:101F3000DEB76C97DEBFCDBF1092E9008091E8005C
:101F400083FFFBC168E0CE0145960E94920D82EFAF
:101F50008093E8008D8987FF05C09091E80090FF8D
:101F6000FCCF03C09EEF9093E800982F907609F085
:101F7000C6C09E894F89588D2F89F88C91110CC04D
:101F8000803829F4809106028093F10002C01092FB
:101F9000F1001092F10045C1913051F4811141C11D
:101FA0004130510509F03DC1809106028D7F0BC083
:101FB000933061F4811135C14130510509F031C1CF
:101FC000809106028260809306022BC1953049F40D
:101FD0008091E80080FFFCCF822F80688093E3002F
:101FE00020C1963009F05EC00B8D1C8D22E010924E
:101FF000E90010922C0310922B03F21232C01092BF
:102000002A03109229030E940A0E99E0BE016F5F15
:102010007F4FDB01E92F1D92EA95E9F79983FA8258
:1020200091E09E8390EA98879AEF998720912B03FD
:1020300030912C03275F3F4F3C832B838D8310927D
:10204000E90010922C0310922B0310932A030093A3
:10205000290349E050E080E00E946B0D0E940A0EC7
:10206000E0C010932A03009329030E945013DC015F
:1020700012960D911C9113970115110509F4BBC01F
:10208000D801ED91FC910480F581E02DBE016B5EDD
:102090007F4FC8010995009709F0C7C0F801008576
:1020A0001185EACF973009F445C1983021F481E0D9
:1020B0008093F100B6C0993009F0B3C0837009F085
:1020C00039C1E8E5F1E081E031E096E320812111BA
:1020D00009C08EE78093EA001092EA008F8980930E
:1020E00071029FC08093E9003093EB00219120930F
:1020F000EC009093ED008F5F873041F7EACF8B8D36
:102100009C8D1092E90010922C0310922B03909357
:102110002A0380932903898D811153C08E899D895B
:10212000913A49F4813209F005C147E050E066E098
:1021300071E080E0BBC0913209F0FCC0833269F4E9
:102140008F89988DA0E0B0E0809302019093030105
:10215000A0930401B093050164C0803269F48091BA
:10216000E80082FFFCCF67E086E091E00E94920DDC
:102170008BEF8093E80055C0823209F052C08F89FE
:1021800080930D01EEEFFFE7859194918B3F9C4D7D
:1021900019F0E0E0F8E002C0EEEFFAE0809106010D
:1021A00090910701A0910801B0910901803B9440F2
:1021B000A105B10509F09EC080910D0180FF79C095
:1021C00099C00E945013FC01028113810115110571
:1021D00009F4B0C0D801ED91FC910190F081E02D9F
:1021E000BE016B5E7F4FC801099581111AC0F801CD
:1021F00000851185EBCFF1E0FF1609F44EC0F3E046
:10220000FF1298C08F89882309F44AC0823089F46C
:1022100040E86DE085E692E00E94BF1C882309F447
:1022200089C08EEF8093E80088C018161906CCF399
:1022300081C0813029F440E86BE089E592E0ECCF81
:10224000833009F077C00E945013DC011296ED90A4
:10225000FC9013978E010F5F1F4F6801E114F1048A
:1022600079F0D701ED91FC910680F781E02DB8015E
:10227000C7010995080F111DF701E084F184EECF25
:10228000D8011C92F60101900020E9F73197BF01B7
:102290006C197D0940E0C601BFCF67E472E002C05F
:1022A00063E472E0FB01449150E080E80E946B0D12
:1022B000B8CFEE3F2AE0F20751F080819181873755
:1022C000A7E79A0721F09093FF0A8093FE0A87E719
:1022D00097E7918380838091600080932D039BE03A
:1022E00088E10FB6F894A895809360000FBE909394
:1022F000600097CF808191818737974709F091CF10
:10230000A8958091600088618093600080912D0382
:1023100080936000EE3FBAE0FB0739F08091FE0A3F
:102320009091FF0A918380837CCF1092FF0A1092D4
:10233000FE0A77CF81E28093EB006C960FB6F8949B
:10234000DEBF0FBECDBFDF91CF91FF91EF91BF9167
:10235000AF919F918F917F916F915F914F913F913D
:102360002F911F910F91FF90EF90DF90CF900F90E2
:102370000FBE0F901F901895089508950F931F9307
:10238000CF93DF93EC018D81811102C060E001C029
:1023900062E088810E94A113288130E0F901E357AF
:1023A000FD4F8491F901EE51FE4F0491F901ED5377
:1023B000FE4F14911123A1F081110E946413E12FAB
:1023C000F0E0EE0FFF1FE955FE4FA591B491EC919F
:1023D000E02331E020E009F430E0832F922F02C0A7
:1023E00080E090E0282F21702F832E81222321F07E
:1023F00021E0822781708F830E9467146A877B8720
:102400008C879D872F81288719866E877F87888B89
:10241000998BDF91CF911F910F9108950F931F9387
:10242000CF93DF93209128032F5F322F37703093A3
:10243000280320FF02C020E801C020E031FD206415
:10244000347009F02062205FFC01EC01239600E06B
:1024500011E06485662331F070E0C8010E947C1EA3
:102460006F5F01C060E06187322F369F030E30E05E
:10247000311D1124311102C0168202C03150368341
:10248000662311F0615061873196CE17DF0709F797
:10249000DF91CF911F910F9108951F93CF93DF93F9
:1024A000DC015C968D919C915D97009739F421E059
:1024B00030E013963C932E9312973BC05196ED91CA
:1024C000FC91529750962C915097322F30951FB710
:1024D0005E964C915E97742F727041FD6095F894F2
:1024E0004081772311F0422B01C043234083EC014C
:1024F0002197F1F748E0508160FF02C0522B01C0E4
:1025000053235083EC012197F1F76695415099F7D9
:102510008081772319F08323808302C0282B2083B6
:102520001FBF5C968D919C915D970197F1F781E0BB
:1025300090E0DF91CF911F9108952091AA043091EE
:10254000AB042817390771F480916E0220916F0255
:1025500090E0805C9F4F821B910960E470E00E94D4
:102560007C1E089580E090E008952091AA043091A7
:10257000AB0428173907B9F490916F0280916E026D
:10258000981789F0E0916F02F0E0E25DFD4F8081E5
:1025900020916F0230E02F5F3F4F2F73332720933E
:1025A0006F0290E008958FEF9FEF08951F920F92B2
:1025B0000FB60F9211242F933F934F935F936F9316
:1025C0007F938F939F93AF93BF93EF93FF93E0918C
:1025D000AA04F091AB04309709F451C0968DA685FA
:1025E000B785858591FF04C09C91892329F447C054
:1025F0009C91892309F043C0A389B4899C91858962
:10260000809589238C93868997890197F1F7608D4E
:10261000718DA685B785558538E020E0CB010197FF
:10262000F1F7822F90E095958795282F4C914523BF
:1026300009F02068315091F7868D81FD20958091B9
:102640006E0290E001968F73992730916F023817D0
:1026500049F0A0916E02B0E0A25DBD4F2C93809333
:102660006E0203C0868D8160868F828D938D019767
:10267000F1F7A389B4899C918589892B8C93FF916B
:10268000EF91BF91AF919F918F917F916F915F91EA
:102690004F913F912F910F900FBE0F901F90189563
:1026A00080913C0381110DC082E08093380384E067
:1026B0008093390310923B0310923A0381E0809398
:1026C0003C0388E393E0089590E0FC013197EF30FC
:1026D000F105B0F5E459FF4F0C94901E80918000F5
:1026E0008F7703C0809180008F7D80938000089554
:1026F00080918000877FF9CF84B58F7702C084B541
:102700008F7D84BD0895809190008F7707C0809160
:1027100090008F7D03C080919000877F8093900010
:1027200008958091C0008F7703C08091C0008F7D95
:102730008093C00008958091C200877F8093C2007B
:102740000895CF93DF9390E0FC01EE51FE4F24916A
:10275000FC01ED53FE4F8491882361F190E0880FD6
:10276000991FFC01E158FD4FC591D491FC01EB5438
:10277000FE4FA591B491611109C09FB7F89488816B
:10278000209582238883EC912E230BC0623061F464
:102790009FB7F8948881322F309583238883EC91FA
:1027A0002E2B2C939FBF06C08FB7F894E8812E2B59
:1027B00028838FBFDF91CF910895823108F0825135
:1027C000E82FF0E0ED58FD4FE49180917B00E3FBB2
:1027D000222720F930E095E0220F331F9A95E1F788
:1027E0008F7D282B20937B00E770E064E0937C00D2
:1027F00080917A00806480937A0080917A0086FDCF
:10280000FCCF809178002091790090E0922B089580
:102810003FB7F8948091340390913503A09136032B
:10282000B091370326B5A89B05C02F3F19F001963C
:10283000A11DB11D3FBFBA2FA92F982F8827820F46
:10284000911DA11DB11DBC01CD0142E0660F771F96
:10285000881F991F4A95D1F708958F929F92AF9242
:10286000BF92CF92DF92EF92FF926B017C010E94A8
:1028700008144B015C01C114D104E104F104F1F02E
:102880000E940814DC01CB0188199909AA09BB0927
:10289000883E9340A105B10570F321E0C21AD1082A
:1028A000E108F10888EE880E83E0981EA11CB11C97
:1028B000C114D104E104F10419F7DDCFFF90EF90CA
:1028C000DF90CF90BF90AF909F908F9008952FB7DB
:1028D000F89460912F0370913003809131039091AF
:1028E00032032FBF08951F920F920FB60F9211243B
:1028F0002F933F938F939F93AF93BF9380912F0319
:1029000090913003A0913103B091320330913303A1
:1029100023E0230F2D3720F40196A11DB11D05C022
:1029200026E8230F0296A11DB11D20933303809347
:102930002F0390933003A0933103B093320380911F
:10294000340390913503A0913603B091370301967B
:10295000A11DB11D8093340390933503A0933603DA
:10296000B0933703BF91AF919F918F913F912F917A
:102970000F900FBE0F901F901895CF93DF93CDB798
:10298000DEB7A5970FB6F894DEBF0FBECDBF789423
:1029900084B5826084BD84B5816084BD85B5826064
:1029A00085BD85B5816085BD80916E008160809315
:1029B0006E0010928100809181008260809381007E
:1029C000809181008160809381008091800081608E
:1029D000809380008091910082608093910080912B
:1029E000910081608093910080919000816080933C
:1029F00090008091C10084608093C1008091C100EB
:102A000082608093C1008091C10081608093C10089
:102A10008091C30081608093C3008091C000826078
:102A20008093C0008091C20081608093C200809139
:102A30007A00846080937A0080917A00826080932B
:102A40007A0080917A00816080937A0080917A0088
:102A5000806880937A0010927102109206021092A0
:102A600005028091D70081608093D70080EA80932F
:102A7000D80089B5806189BD89B5826089BD09B4F6
:102A800000FEFDCF61E070E080E090E00E942D1438
:102A90008091D8008F7C80618093D8008091E00085
:102AA000807F8093E0008091E1008E7E8093E10042
:102AB0008DE08093E200559A209A5D9828988FEFD8
:102AC0009FEF9093AF028093AE0268E873E180E0DD
:102AD00090E00E942D1460919104709192046F5FB8
:102AE0007F4FE3E0660F771FEA95E1F780918F044F
:102AF000909190040E9497209093900480938F046B
:102B00002091910430919204B901F3E0660F771F90
:102B1000FA95E1F7FC01E60FF71F0AE413E01183D1
:102B20000083A4E4EA2EA3E0FA2EF382E28241E0DD
:102B300050E055834483178216822F5F3F4F3093B6
:102B4000920420939104605F7F4F0E94972090939E
:102B5000900480938F0440919104509192049A01C3
:102B6000B3E0220F331FBA95E1F7FC01E20FF31F28
:102B7000F182E0821383028382E090E09583848374
:102B8000178216824F5F5F4F5093920440939104D7
:102B900080911A02811145C010920C0210920B0212
:102BA0008FEF80930F028093100280931102809325
:102BB0001202809313028093140281E08093150225
:102BC000109217021092160210920E0210920D022D
:102BD0008091280290912902892B31F489E092E0BA
:102BE0009093290280932802E0910702F091080255
:102BF000309721F089E092E09583848389E092E028
:102C00009093080280930702109219021092180202
:102C10008CE291E090930A028093090281E0809314
:102C20001A023E9A82E792E090930C0280930B0284
:102C300080E190E090931702809316028091F50254
:102C40009091F602A091F702B091F802843C29E03D
:102C50009207A105B10520F484EC99E0A0E0B0E072
:102C60008093F5029093F602A093F702B093F802D6
:102C700088EC8093F2028091A70489838091A80454
:102C80008A838091A9048B83BE016F5F7F4F86E4A6
:102C900094E00E94440A8091A40489838091A50451
:102CA0008A838091A6048B83BE016F5F7F4F84E38C
:102CB00094E00E94440A8091A10489838091A20437
:102CC0008A838091A3048B83BE016F5F7F4F82E272
:102CD00094E00E94440A80919E04898380919F041D
:102CE0008A838091A0048B83BE016F5F7F4F80E158
:102CF00094E00E94440A8091A70489838091A804EB
:102D00008A838091A9048B83BE016F5F7F4F8EEF12
:102D100093E00E94440A8091A40489838091A504D1
:102D20008A838091A6048B83BE016F5F7F4F8CEEF8
:102D300093E00E94440A8091A10489838091A204B7
:102D40008A838091A3048B83BE016F5F7F4F8AEDDE
:102D500093E00E94440A80919E04898380919F049D
:102D60008A838091A0048B83BE016F5F7F4F88ECC4
:102D700093E00E94440A63E070E08EEF93E00E94CB
:102D80008F0A63E070E08CEE93E00E948F0A63E0AC
:102D900070E08AED93E00E948F0A63E070E088ECB7
:102DA00093E00E948F0A62E070E086E494E00E9463
:102DB0008F0A63E070E082E294E00E948F0A8DEC5B
:102DC00091E00E943E0B86E10E94DD13BC01990F49
:102DD000880B990B611571058105910511F00E9411
:102DE000001E80EB93E00E94BE1188E993E00E94F0
:102DF000BE1180E893E00E94BE1188E693E00E9435
:102E0000BE1160E082E10E94A11360E083E10E94B4
:102E1000A11360E084E10E94A11360E085E10E94BB
:102E2000A11360E08BE10E94A11360E08AE10E949F
:102E3000A11360E089E10E94A11360E088E10E9493
:102E4000A1131092C7041092C6041092C5041092E8
:102E5000C4041092C3041092C2048DE991E09093CF
:102E6000C9048093C8048091B80498EF980F9430F7
:102E700048F022EF280F243028F026EE280F2330C8
:102E800008F04AC02DEB30E03093C3042093C20415
:102E90002BE931E03093C5042093C4042CE231E0E7
:102EA0003093C7042093C604943050F092EF980FEB
:102EB000943030F08A51833030F4A8E6B0E005C099
:102EC000A8E6B0E020C3A0E0B0E0833008F41BC364
:102ED000E0E0F0E0808181608C938091B80498EF0D
:102EE000980F943008F0F0C22BE630E03093C00425
:102EF0002093BF04943008F0F4C29CEF980F81E057
:102F000001C0880F9A95EAF78093C1048091C804A4
:102F10009091C9040197F1F78091C6049091C7047C
:102F2000892B49F1E091AA04F091AB0444E0EC3A1A
:102F3000F40709F1309739F0A389B4899C91858908
:102F4000809589238C938091CA048E7F8093CA04D4
:102F500010926E0210926F028CEA94E09093AB0490
:102F60008093AA04E091BF04F091C0049081809105
:102F7000C104892B808381EE91E00E942C0B8CE8A8
:102F800091E00E94DE0C8BE591E00E94DE0C8CEA61
:102F900094E09093600480935F0481E080937704D1
:102FA00060E070E08CE00E944C0C60ED77E080E027
:102FB00090E00E949F0C68EC70E080E090E00E943E
:102FC0002D141092830480917F04843079F089302D
:102FD00069F08AE491E00E94DE0C89E291E00E94AF
:102FE000DE0C8CE091E00E94DE0CFFCF86EF90E0DB
:102FF0000E94DE0C6EE170E086E00E944C0C60E006
:1030000070E088E40E944C0C60E070E0CB010E940C
:103010009F0C882331F01092830480917F048B30C1
:1030200019F08FEF9FEF04C080918104909182048A
:1030300090935D0480935C0484EE91E00E942C0BDD
:10304000C0905C04D0905D040D2C000CEE08FF08CD
:10305000F7FE25C06DE282EA92E00E94C90D2227A8
:103060003327A9012C193D094E095F0919A28E01C8
:103070000F5D1F4F6AE0C62ED12CE12CF12CCA0146
:10308000B901A70196010E943B1E605DD8016E93B5
:103090008D01211531054105510589F71AC0A70198
:1030A000960119A28E010F5D1F4F9AE0C92ED12CF7
:1030B000E12CF12CCA01B901A70196010E943B1E27
:1030C000605DF80162938F012115310541055105BD
:1030D00089F7C8010E942C0B81EE91E00E942C0B15
:1030E000E0918D04F0918E040480F581E02D3097FD
:1030F00009F009958AE493E090938E0480938D04FF
:10310000E0914A03F0914B03309709F00995812C27
:1031100084E0982EA12CB12C332433948091870421
:103120000E94DD132091890430918A04AC01421B76
:10313000530B9A0157FF03C03195219531094091F6
:103140008B0450918C044217530794F490938A0493
:10315000809389042FE130E0DC010E94961EA501D6
:1031600094010E94091E622F70E086E00E944C0CC0
:1031700086E494E00E94BF0A84E394E00E94BF0AC0
:1031800082E294E00E94BF0A80E194E00E94BF0ABC
:103190008EEF93E00E94BF0A8CEE93E00E94BF0A7C
:1031A0008AED93E00E94BF0A88EC93E00E94BF0A78
:1031B0008091970481110CC030929704E0918D04A6
:1031C000F0918E040190F081E02D309709F009957F
:1031D000E0918D04F0918E040280F381E02D309710
:1031E00009F00995E12CF12CC12CD12C809195048A
:1031F00090919604C816D9060CF04DC00091930426
:10320000109194040E0D1F1DD8012D913C91119722
:1032100080918D0490918E0428173907A9F518968E
:103220008D919D910D90BC91A02D892B8A2B8B2B7C
:1032300041F40E946714F801608771878287938741
:1032400023C00E946714D80118964D905D906D9030
:103250007C901B97DC01CB0184199509A609B7095D
:10326000F801448455846684778484159505A60501
:10327000B70550F0C8010E94C80AD80118961D92DF
:103280001D921D921C921B97BFEFCB1ADB0AE0E147
:10329000EE0EF11CABCF0E944C0B882361F08091A5
:1032A0005E04882341F01092830480917F0485306E
:1032B00011F410925E04F090F2028091F502909168
:1032C000F602A091F702B091F802892B8A2B8B2B82
:1032D000E9F00E94081400912A0210912B0220911B
:1032E0002C0230912D02DC01CB01801B910BA20B33
:1032F000B30B0091F5021091F6022091F702309184
:10330000F80280179107A207B307B8F20E940814C9
:1033100060932A0270932B0280932C0290932D02CB
:10332000E091FD02F091FE02309759F04091F902D0
:103330005091FA026091FB027091FC028F2D099569
:10334000F82E00912802109129024F2C512C612C4B
:10335000712C0115110509F469C0D8011C96EC9077
:103360001C978091F3029091F4028436910510F439
:103370001C961C92D801ED91FC91428153815DA372
:103380004CA319821A821B82F11019C0D8011D9614
:103390004D915C911E9712966D917C9113979E01B1
:1033A0002F5F3F4FC801ECA1FDA10995D8011C96E4
:1033B000EC921C9714960D911C911597CACFF801A9
:1033C0003696AE014F5F5F4F6A01C80109969BA315
:1033D0008AA32191222309F122802220F1F0822F59
:1033E00090E0A0E0B0E09C01AD012F5F3F4F4F4F58
:1033F0005F4FC301B2010E946C1E9B01AC01822D84
:1034000090E0A0E0B0E0BC01CD016F5F7F4F8F4F37
:103410009F4F0E946C1ED6018C93BFEFCB1ADB0A24
:103420004AA15BA14E175F07A1F6B0CF809126029B
:10343000909127028C010F5F1F4F1093270200937A
:10344000260249979CF10E9467142B013C0188EEEB
:1034500093E0089FB001099F700D189F700D112413
:10346000072E000C880B990BC0902202D0902302EB
:10347000E0902402F0902502A30192012C193D094D
:103480004E095F090E943B1E3093F4022093F30221
:1034900010922702109226020E9467146093220263
:1034A00070932302809324029093250260E170E0E0
:1034B00080E090E00E942D14A0E0B0E0AB2B09F476
:1034C0002DCE0E9400002ACE22EF280F243008F4CF
:1034D0000BCD26EE280F233008F406CD20E030E097
:1034E00005CD8E3041F08F3041F0803141F0813197
:1034F00041F09AEE03CD88E007CD82E005CD84E06F
:1035000003CD81E001CDE8E6F0E0E4CCCF92DF929C
:10351000EF92FF920F931F93CF93DF931092A50228
:103520001092A40288EE93E0A0E0B0E08093A6029F
:103530009093A702A093A802B093A9022FE331E0D1
:103540003093A3022093A2022FEF3FEF3093AF02FC
:103550002093AE021092AF041092AE048093B00498
:103560009093B104A093B204B093B3048AE791E0BE
:103570009093AD048093AC041092C3041092C204E3
:103580001092C5041092C4041092C7041092C6048D
:103590001092C9041092C8046091CA046E7F6D7FB6
:1035A0006093CA046695617081E068278BE00E9491
:1035B000101D61E08BE00E94A113EDEEF1E0E491BB
:1035C000E093BC04EEECF1E0E491F0E0EE0FFF1FBD
:1035D000EB54FE4F859194919093BE048093BD046B
:1035E00060E08AE00E94A1138091CA0481FD04C0BA
:1035F00061E08AE00E94101D8AE08093B804ECEE3E
:10360000F1E0E491E093B904EDECF1E0E491F0E055
:10361000EE0FFF1FE955FE4F859194919093BB04E7
:103620008093BA0482E093E00E94F41C1092A704F5
:1036300080E88093A8041092A904DFEFD093A4043B
:103640001092A5041092A604D093A104D093A204D2
:103650001092A30410929E0410929F04D093A00491
:10366000109299041092980410929B0410929A045C
:1036700010929D0410929C0488E994E090938E042B
:1036800080938D041092900410928F0410929204F3
:10369000109291041092960410929504109297043F
:1036A00082E791E0909386048093850487E190E01F
:1036B00090938804809387040CE010E010938C04AE
:1036C00000938B0410928A041092890460E00E9497
:1036D000A1138AE691E090935904809358048FE5F2
:1036E00094E00E94F41C82E691E09093470480935A
:1036F000460421E030E0309349042093480443E03D
:1037000050E050934B0440934A04909335048093C7
:10371000340464E070E0709337046093360450938F
:10372000390440933804909323048093220469E081
:1037300070E0709325046093240450932704409311
:1037400026049093110480931004109313040093A3
:10375000120450931504409314049093FF03809334
:10376000FE0310920104109200043093030420938E
:1037700002049093ED038093EC0347E050E05093F4
:10378000EF034093EE033093F1032093F003909303
:10379000DB038093DA0348E050E05093DD0340936D
:1037A000DC033093DF032093DE039093C9038093FF
:1037B000C8038FE090E09093CB038093CA033093CB
:1037C000CD032093CC036091C4037091C503809115
:1037D000C6039091C7030E94B81E6093B00392E3A2
:1037E000C92ED12CE12CF12CC092B103D092B2039E
:1037F000E092B303F092B403C1E0C093B503C09369
:10380000B6031092C2036091AC037091AD03809136
:10381000AE039091AF030E94B81E60939803C092CC
:103820009903D0929A03E0929B03F0929C03C09379
:103830009D03C0939E031092AA036091940370911C
:10384000950380919603909197030E94B81E609310
:103850008003C0928103D0928203E0928303F092AE
:103860008403C0938503C0938603109292036091F2
:103870007C0370917D0380917E0390917F030E9471
:10388000B81E60936803C0926903D0926A03E09205
:103890006B03F0926C03C0936D03C0936E031092A0
:1038A0007A03A091A804F091A904E091A404709176
:1038B000A5046091A6045091A1044091A204309106
:1038C000A30420919E0490919F048091A004B09144
:1038D000A704B0935003A0935103F0935203E093D5
:1038E00053037093540360935503509356034093CE
:1038F0005703309358032093590390935A038093AE
:103900005B0385E296E090934B0380934A038CE13E
:1039100096E090934D0380934C0310924F031092C6
:103920004E0387E891E0909345038093440384E03D
:1039300097E09093470380934603109249031092B7
:103940004803D093F2021092F4021092F302109204
:10395000FE021092FD028FEF9FEFDC018093F902CF
:103960009093FA02A093FB02B093FC02DF91CF91F7
:103970001F910F91FF90EF90DF90CF900895DF920D
:10398000EF92FF920F931F93CF93DF93D82EF92ED0
:10399000E42E062F10E0C8010196880F0E943D0D0D
:1039A00083E00E943D0DCD2DDF2D0C0F1D1FC01794
:1039B000D10789F0E7FE03C0FE01849101C0888130
:1039C0000E943D0DF82E80E00E943D0D8F21219632
:1039D0008111EDCF01C081E0DF91CF911F910F9157
:1039E000FF90EF90DF900895CF93DF93EC0184EF89
:1039F00091E0A0E0B0E08E839F83A887B9878AE03A
:103A0000EDE4F1E0DE01549601900D928A95E1F724
:103A10001E8E82E08F8F1CA21DA2DF91CF91089590
:103A20001F93CF93DF93282F30E0F901E357FD4F29
:103A30008491F901EE51FE4FD491F901ED53FE4FFF
:103A4000C491CC23C1F0162F81110E946413EC2F76
:103A5000F0E0EE0FFF1FEB54FE4FA591B4919FB71E
:103A6000F894111104C08C91D095D82302C0EC9128
:103A7000DE2BDC939FBFDF91CF911F910895809142
:103A80008F04909190040E940E2080919304909155
:103A900094040E940E208AE791E09093AD048093F5
:103AA000AC048091AA049091AB048C5A944071F4B8
:103AB000E091BF04F091C00490818091C104809591
:103AC000892380831092AB041092AA0408958F92E8
:103AD0009F92AF92BF92CF92DF92EF92FF92CF93DD
:103AE000DF93EC01688179818A819B816115710581
:103AF0008105910521F464E279ED8BE597E02DE1F4
:103B000033EF41E050E00E94091E49015A019B0138
:103B1000AC01A7EAB1E40E94281E6B017C01ACEE67
:103B2000B4EFA50194010E94361EDC01CB018C0D7F
:103B30009D1DAE1DBF1DB7FF03C00197A109B04871
:103B400088839983AA83BB83BC01CD019F77DF91D2
:103B5000CF91FF90EF90DF90CF90BF90AF909F906C
:103B60008F9008958F929F92AF92BF92CF92DF92E3
:103B7000EF92FF9260910E0170910F018091100100
:103B800090911101611571058105910521F464E29F
:103B900079ED8BE597E02DE133EF41E050E00E94B5
:103BA000091E49015A019B01AC01A7EAB1E40E9438
:103BB000281E6B017C01ACEEB4EFA50194010E94BC
:103BC000361EDC01CB018C0D9D1DAE1DBF1DB7FF48
:103BD00003C00197A109B04880930E0190930F0193
:103BE000A0931001B0931101BC01CD019F77FF900C
:103BF000EF90DF90CF90BF90AF909F908F900895FF
:103C000060930E0170930F01809310019093110146
:103C10000895052E97FB1EF400940E94201E57FD68
:103C200007D00E943B1E07FC03D04EF40C94201ECC
:103C300050954095309521953F4F4F4F5F4F0895D8
:103C400090958095709561957F4F8F4F9F4F089508
:103C50000E945D1EA59F900DB49F900DA49F800DA6
:103C6000911D11240895B7FF0C94281E0E94281E50
:103C7000821B930B0895A1E21A2EAA1BBB1BFD0108
:103C80000DC0AA1FBB1FEE1FFF1FA217B307E4073B
:103C9000F50720F0A21BB30BE40BF50B661F771F93
:103CA000881F991F1A9469F7609570958095909573
:103CB0009B01AC01BD01CF010895A29FB001B39F4C
:103CC000C001A39F700D811D1124911DB29F700D25
:103CD000811D1124911D0895DB018F939F930E94F4
:103CE000281EBF91AF91A29F800D911DA39F900DA3
:103CF000B29F900D1124089597FB072E16F400949F
:103D000007D077FD09D00E949D1E07FC05D03EF428
:103D1000909581959F4F0895709561957F4F089577
:103D2000EE0FFF1F0590F491E02D09940E945D1E97
:103D3000B7FF0895821B930B0895AA1BBB1B51E18B
:103D400007C0AA1FBB1FA617B70710F0A61BB70B0B
:103D5000881F991F5A95A9F780959095BC01CD01B0
:103D600008950E94B81E6894B1110C94471F0895DD
:103D70000E942C1F88F09F5798F0B92F9927B751B0
:103D8000B0F0E1F0660F771F881F991F1AF0BA95FF
:103D9000C9F714C0B13091F00E94461FB1E00895F8
:103DA0000C94461F672F782F8827B85F39F0B93FEA
:103DB000CCF3869577956795B395D9F73EF49095B2
:103DC0008095709561957F4F8F4F9F4F0895E89430
:103DD00009C097FB3EF490958095709561957F4F53
:103DE0008F4F9F4F9923A9F0F92F96E9BB27939501
:103DF000F695879577956795B795F111F8CFFAF411
:103E0000BB0F11F460FF1BC06F5F7F4F8F4F9F4F41
:103E100016C0882311F096E911C0772321F09EE89F
:103E2000872F762F05C0662371F096E8862F70E005
:103E300060E02AF09A95660F771F881FDAF7880FDF
:103E40009695879597F9089557FD9058440F551FFB
:103E500059F05F3F71F04795880F97FB991F61F00C
:103E60009F3F79F087950895121613061406551F83
:103E7000F2CF4695F1DF08C0161617061806991FEF
:103E8000F1CF86957105610508940895E894BB27E4
:103E900066277727CB0197F908950E94521F08F4EF
:103EA0008FEF0895990F0008550FAA0BE0E8FEEF79
:103EB00016161706E807F907C0F012161306E407EE
:103EC000F50798F0621B730B840B950B39F40A26E7
:103ED00061F0232B242B252B21F408950A2609F4C5
:103EE000A140A6958FEF811D811D08950F931F930B
:103EF000CF93DF938230910510F482E090E0E0915F
:103F0000CD04F091CE0420E030E0A0E0B0E03097A6
:103F100019F1408151810281138148175907C8F076
:103F20008417950769F4109731F012960C93129745
:103F300013961C9327C00093CD041093CE0422C087
:103F40002115310519F04217530718F49A01BD01E4
:103F5000EF01DF01F801DBCF21153105F9F0281B56
:103F6000390B2430310580F48A819B8161157105FC
:103F700021F0FB019383828304C09093CE0480934D
:103F8000CD04FE01329644C0FE01E20FF31F81937F
:103F9000919322503109398328833AC02091CB0470
:103FA0003091CC04232B41F4209114013091150160
:103FB0003093CC042093CB04209112013091130153
:103FC0002115310541F42DB73EB7409116015091AE
:103FD0001701241B350BE091CB04F091CC04E217C0
:103FE000F307A0F42E1B3F0B2817390778F0AC011C
:103FF0004E5F5F4F2417350748F04E0F5F1F5093F9
:10400000CC044093CB048193919302C0E0E0F0E0B4
:10401000CF01DF91CF911F910F910895CF93DF933F
:10402000009709F481C0FC01329713821282A0919B
:10403000CD04B091CE04109781F420813181820F9C
:10404000931F2091CB043091CC042817390751F5E8
:10405000F093CC04E093CB0467C0ED0120E030E0A6
:10406000CE17DF0740F44A815B819E01411551055F
:10407000F1F0EA01F5CFD383C28340815181840FEF
:10408000951FC817D90759F488819981840F951F06
:104090000296918380838A819B81938382832115F9
:1040A000310529F4F093CE04E093CD043DC0E9013D
:1040B000FB83EA8349915991C40FD51FEC17FD0783
:1040C00061F480819181840F951F0296E9019983A3
:1040D0008883828193819B838A83E0E0F0E012965B
:1040E0008D919C911397009719F0FD01DC01F7CF9A
:1040F0008D919C9111979D012E5F3F4F820F931FD1
:104100002091CB043091CC042817390769F43097FB
:1041100029F41092CE041092CD0402C013821282B0
:10412000B093CC04A093CB04DF91CF910895A0E08D
:10413000B0E0EDE9F0E20C946F21EC01009721F47E
:10414000CB010E94761FB4C0FC01E60FF71F9C0153
:1041500022503109E217F30708F4A8C0D9010D91E4
:104160001C91119706171707B0F00530110508F4D8
:104170009BC0C80104978617970708F495C00250A2
:104180001109061B170B019311936D937C93CF01BB
:104190000E940E2089C05B01A01AB10A4C01800E5A
:1041A000911EA091CD04B091CE04612C712CE12C14
:1041B000F12C109709F446C08D919C911197A81588
:1041C000B905B1F56C0142E0C40ED11CCA14DB0480
:1041D00078F14C018A189B08640142E0C40ED11C9E
:1041E0001296BC9012971396AC91B5E0CB16D10401
:1041F00040F0B282A38391828082D9016D937C9337
:1042000009C00E5F1F4F800F911FF90191838083BA
:10421000EB2DFA2FE114F10431F0D7011396FC9342
:10422000EE93129741C0F093CE04E093CD043CC0CE
:104230006816790608F43C017D0112960D90BC9138
:10424000A02DB7CF8091CB049091CC04881699060D
:10425000E1F466167706C8F480911201909113017B
:10426000009741F48DB79EB7409116015091170108
:10427000841B950BE817F907C8F4F093CC04E0937E
:10428000CB04F901718360830FC0CB010E94761FBC
:104290007C01009759F0A801BE010E946221CE0165
:1042A0000E940E20C70104C0CE0102C080E090E051
:1042B000CDB7DEB7EEE00C948B2181E090E0F8946E
:1042C0000C94A221FB01DC0102C001900D9241502F
:1042D0005040D8F708952F923F924F925F926F927D
:1042E0007F928F929F92AF92BF92CF92DF92EF9286
:1042F000FF920F931F93CF93DF93CDB7DEB7CA1B07
:10430000DB0B0FB6F894DEBF0FBECDBF09942A8831
:10431000398848885F846E847D848C849B84AA84D9
:10432000B984C884DF80EE80FD800C811B81AA8166
:10433000B981CE0FD11D0FB6F894DEBF0FBECDBF31
:10434000ED01089511E0C7E5D1E004C0FE010E942F
:0E435000901E2196C835D107C9F7F894FFCF0B
:10435E003905FFFFFFFF00E1000000000000010033
:10436E0000000000CF04200000000000080E080E20
:10437E00080E8801AC01B00100000000F6043905FA
:10438E0085018801AC018201B301C800000000C99B
:10439E000D3C0EC20EDF0DEA0DEA0EC60E7EFF06B6
:1043AE00000100000000EF00C1808100000000004D
:1043BE0000004309410900000000BC11080F000075
:1043CE000000BD110A0F000000004D129F0D050EDA
:1043DE009F099D12B51287096368616E6765207427
:1043EE00686520626F6172640077697265427574E8
:1043FE00746F6E20300077697265427574746F6EDB
:10440E0020320077697265427574746F6E203100C8
:10441E0077697265427574746F6E20330020537421
:10442E00617274207570206163746976697469793C
:10443E00000D0A0066696C6520636F756E74203D11
:02444E0020004C
:00000001FF
