:100000000C94E3000C940B010C940B010C940B0169
:100010000C940B010C940B010C940B010C940B0130
:100020000C940B010C940B010C9409080C947B08A4
:100030000C940B010C940B010C940B010C940B0110
:100040000C940B010C940B010C940B010C940B0100
:100050000C940B010C940B010C940B010C94FC0BF5
:100060000C940B010C940B010C940B010C940B01E0
:100070000C940B010C940B010C940B010C940B01D0
:100080000C940B010C940B010C940B010C940B01C0
:100090000C940B010C940B010C940B010C940B01B0
:1000A0000C940B010C940B010C940B01670B6A0B65
:1000B000590B5D0B610B8B0B8B0B8B0B6E0B720B50
:1000C000760B7C0B800B8B0B860B00000000250051
:1000D00028002B002E003100000000002400270023
:1000E0002A002D003000080B000202020100090462
:1000F0000000010202000005240010010524010196
:1001000001042402060524060001070581031000EE
:100110004009040100020A00000007050202400035
:1001200000070583024000000403090412010002D5
:10013000EF020140412337800001010203014172B7
:100140006475696E6F204C4C430041726475696E32
:100150006F204D6963726F000000000023002600CD
:1001600029002C002F0004040404040304050202E7
:100170000202040302020202060606060606040440
:1001800002020204040408020110408040102040D2
:10019000804080080204018040201002011080107D
:1001A000204040200000000200090F00000304016D
:1001B000000C000000000000000000000000000033
:1001C00000000000DA0E11241FBECFEFDAE0DEBF20
:1001D000CDBF11E0A0E0B1E0E8E0F2E202C005909E
:1001E0000D92AC36B107D9F722E0ACE6B1E001C020
:1001F0001D92A93CB207E1F710E0C3EED0E004C0C5
:100200002197FE010E94A10FC23ED107C9F70E94AB
:10021000460C0C9402110C940000CF92DF92EF92E6
:10022000FF920F931F93CF93DF936C017A018B01A1
:10023000C0E0D0E0CE15DF0581F0D8016D918D01D1
:10024000D601ED91FC910190F081E02DC601099558
:10025000892B11F02196EECF7E01C701DF91CF915E
:100260001F910F91FF90EF90DF90CF900895CF9363
:10027000DF931F92CDB7DEB76983DC01ED91FC916E
:100280000280F381E02D41E050E0BE016F5F7F4FBF
:1002900009950F90DF91CF91089583E08093E90055
:1002A0008091F200882319F08AE38093E800089592
:1002B000FC018485958597FD0BC09FB7F89482E07B
:1002C0008093E9008091F2009FBF90E0019608952D
:1002D0009FB7F89482E08093E9008091F2009FBF7D
:1002E00090E00895089580E090E008950F931F93A3
:1002F000CF93DF9320916D012F5F322F37703093B2
:100300006D0120FF02C020E801C020E031FD206423
:10031000347009F02062205FFC01EC01239600E0BC
:1003200011E06485662331F070E0C8010E946B0F14
:100330006F5F01C060E06187322F369F030E30E0AF
:10034000311D1124311102C0168202C03150368392
:10035000662311F0615061873196CE17DF0709F7E8
:10036000DF91CF911F910F91089580E991E0089559
:10037000579A08950F931F93CF93DF93CDB7DEB7AE
:1003800062970FB6F894DEBF0FBECDBF8C01F901A6
:10039000DC011C968C917A8369835C834B835E833A
:1003A0004D8390819D8791819E8792819F87813027
:1003B00029F4CE0101960E94760106C01C861B8698
:1003C0001A86198618861F8283E0888B1A8A198AF2
:1003D000D801ED91FC910484F585E02DBE016F5F9D
:1003E0007F4FC801099562960FB6F894DEBF0FBE25
:1003F000CDBFDF91CF911F910F9108950F931F9360
:10040000CF93DF93CDB7DEB762970FB6F894DEBF18
:100410000FBECDBF8C01F901DC011C968C917A8353
:1004200069835C834B835E834D8390819D8791813B
:100430009E8792819F87813029F4CE0101960E9488
:10044000760106C01C861B861A86198618861F82AE
:10045000188A1A8A198AD801ED91FC910484F585CD
:10046000E02DBE016F5F7F4FC801099562960FB600
:10047000F894DEBF0FBECDBFDF91CF911F910F91DA
:100480000895CF93DF9300D000D000D0CDB7DEB772
:10049000AB011C821D821E82DC01ED91FC9101905A
:1004A000F081E02D19821A821B829E012F5F3F4F3F
:1004B000BE016C5F7F4F099526960FB6F894DEBF9C
:1004C0000FBECDBFDF91CF910895FC018585968544
:1004D000089580E090E008958F929F92AF92BF922E
:1004E000CF92DF92EF92FF920F931F93CF93DF9300
:1004F0006C017B018A0180910B01882309F45CC0A7
:100500008091A201882309F457C08091730180FF74
:1005100005C08091E00082608093E000E801B12C8A
:100520008AEFA82E93E0892E2AE3922E209711F4C9
:10053000BB20D9F10E94180B81110AC0AA94AA20ED
:10054000D9F161E070E080E090E00E94C20BEECF54
:10055000282F30E0C217D3070CF48C2F9FB7F894E4
:100560008092E9002091E80025FF1DC0282F30E08F
:10057000C21BD30BF701815020F041914093F10051
:10058000FACFE20EF31EBB2019F09092E8000AC0E9
:100590008091E80085FD07C09092E800BB24B394E9
:1005A000209709F0B12C9FBFC1CF5D9A84E680935C
:1005B00072011016110644F081E090E0F601938379
:1005C000828380E090E001C0C801DF91CF911F914C
:1005D0000F91FF90EF90DF90CF90BF90AF909F90E2
:1005E0008F9008950E94180B90E008950F931F9329
:1005F000CF93DF931F92CDB7DEB78C01FC018485CA
:10060000958597FF0EC0CE0101960E94EA0A0197D8
:1006100019F4898190E002C08FEF9FEFF801958770
:100620008487F801848595850F90DF91CF911F9184
:100630000F910895CF93DF931F92CDB7DEB7FC01E2
:100640008485958597FD05C02FEF3FEF358724877B
:100650000BC0CE0101960E94EA0A019719F4898124
:1006600090E002C08FEF9FEF0F90DF91CF91089540
:100670004F925F926F927F928F92AF92BF92CF9282
:10068000DF92EF920F931F93CF93DF933C01EB0127
:100690000E949D0BF30127853089621B730B6A3022
:1006A0007105B0F3F894E881F9817BB170686BB1A2
:1006B0006F776BB9CB8488852C2D281B822F2887D8
:1006C000BF844A805B801E850C85DD841F5F0F5FC1
:1006D000D3949E813F81A984EA844281D20120E0A3
:1006E000C32F522F322F3281442788943111380F73
:1006F00008F43FEF8195889410FD430F4795889447
:1007000011FD430F4795889412FD430F4795889438
:1007100013FD430F4795889414FD430F4795889424
:1007200015FD430F4795889416FD430F4795889410
:1007300017FD430F47958894232F1111242F8C0DFB
:10074000422F002C7BB900C000C000C047FF6BB92E
:1007500030812227889400C000C000C000C000C0C3
:1007600000C000C0002C00C000C06BB93111390FAF
:1007700000C000C0002C7BB900C000C000C046FF14
:100780006BB908F43FEF9195889400C000C000C099
:1007900000C000C000C000C0002C00C000C06BB989
:1007A00000FD230F00C000C0002C7BB900C000C0BA
:1007B00000C045FF6BB92795889401FD230F00C049
:1007C00000C000C000C000C000C000C0002C00C0BD
:1007D00000C06BB92795889400C000C0002C7BB97D
:1007E00000C000C000C044FF6BB902FD230F279575
:1007F000889400C000C000C000C000C000C000C09D
:10080000002C00C000C06BB903FD230F00C000C066
:10081000002C7BB900C000C000C043FF6BB9279516
:10082000889404FD230F00C000C000C000C000C0B9
:1008300000C000C0002C00C000C06BB92795889490
:1008400000C000C0002C7BB900C000C000C042FF47
:100850006BB905FD230F2795889400C000C000C028
:1008600000C000C000C000C0002C00C000C06BB9B8
:1008700006FD230F00C000C0002C7BB900C000C0E3
:1008800000C041FF6BB92795889407FD230F00C076
:1008900000C000C000C000C000C000C0002C00C0EC
:1008A00000C06BB92795889400C000C0002C7BB9AC
:1008B00000C000C000C040FF6BB9432F0111422FA0
:1008C0009A0D00C000C000C000C000C000C000C041
:1008D000002C00C000C06BB900C000C000C0002CDC
:1008E0007BB900C000C000C047FF6BB9318122272F
:1008F000889400C000C000C000C000C000C000C09C
:10090000002C00C000C06BB931113C0F00C000C00A
:10091000002C7BB900C000C000C046FF6BB908F4D2
:100920003FEFEB0DF11D00C000C000C000C000C0D3
:1009300000C000C0002C00C000C06BB9D0FC230F69
:1009400000C000C0002C7BB900C000C000C045FF43
:100950006BB927958894D1FC230F00C000C000C05C
:1009600000C000C000C000C0002C00C000C06BB9B7
:100970002795889400C000C0002C7BB900C000C03F
:1009800000C044FF6BB9D2FC230F2795889400C0A8
:1009900000C000C000C000C000C000C0002C00C0EB
:1009A00000C06BB9D3FC230F00C000C0002C7BB982
:1009B00000C000C000C043FF6BB927958894D4FCE9
:1009C000230F00C000C000C000C000C000C000C0B5
:1009D000002C00C000C06BB92795889400C000C0EF
:1009E000002C7BB900C000C000C042FF6BB9D5FC31
:1009F000230F2795889400C000C000C000C000C02D
:100A000000C000C0002C00C000C06BB9D6FC230F92
:100A100000C000C0002C7BB900C000C000C041FF76
:100A20006BB927958894D7FC230F00C000C000C085
:100A300000C000C000C000C0002C00C000C06BB9E6
:100A40002795889400C000C0002C7BB900C000C06E
:100A500000C040FF6BB9432FD110422FC19500C099
:100A600000C000C000C000C000C000C0002C00C01A
:100A700000C06BB9CE0D00C000C000C07BB900C083
:100A800000C000C047FF6BB932812227889400C0A4
:100A900000C000C000C000C000C000C0002C00C0EA
:100AA00000C06BB93111380F00C000C0002C7BB9F9
:100AB00000C000C000C046FF6BB908F43FEF81954D
:100AC000889400C000C000C000C000C000C000C0CA
:100AD000002C00C000C06BB910FD230F00C000C087
:100AE000002C7BB900C000C000C045FF6BB9279542
:100AF000889411FD230F00C000C000C000C000C0DA
:100B000000C000C0002C00C000C06BB927958894BD
:100B100000C000C0002C7BB900C000C000C044FF72
:100B20006BB912FD230F2795889400C000C000C048
:100B300000C000C000C000C0002C00C000C06BB9E5
:100B400013FD230F00C000C0002C7BB900C000C003
:100B500000C043FF6BB92795889414FD230F00C094
:100B600000C000C000C000C000C000C0002C00C019
:100B700000C06BB92795889400C000C0002C7BB9D9
:100B800000C000C000C042FF6BB915FD230F2795C0
:100B9000889400C000C000C000C000C000C000C0F9
:100BA000002C00C000C06BB916FD230F00C000C0B0
:100BB000002C7BB900C000C000C041FF6BB9279575
:100BC000889417FD230F00C000C000C000C000C003
:100BD00000C000C0002C00C000C06BB927958894ED
:100BE00000C000C0002C7BB900C000C000C040FFA6
:100BF0006BB9432F1111422F8C0D00C000C000C0F3
:100C000000C000C000C000C0002C00C000C06BB914
:100C100000C0119709F096CD20EC33E0D2010E947C
:100C2000A70FDC01CB01F4E0B695A79597958795C2
:100C3000FA95D1F720E030E0B901EAE94E9E040CC4
:100C4000611D5E9E600D711D1124650D711D860F65
:100C5000971FA11DB11D893E43E09407A105B10571
:100C600008F434C0885E9340A109B10942E0B6950A
:100C7000A795979587954A95D1F747E0849F080EE9
:100C8000211D949F200D311D1124290F311D6091CC
:100C90006C0170E0860F971F820F931F40919D019A
:100CA00050919E0160919F017091A001292F3327DF
:100CB000420F531F611D711D40939D0150939E0172
:100CC00060939F017093A00180936C0178940E94BF
:100CD0009D0BF301708B6787DF91CF911F910F916F
:100CE000EF90DF90CF90BF90AF908F907F906F90FC
:100CF0005F904F9008950C94741040917001509142
:100D0000710120916E0130916F0142175307B4F4C5
:100D10009091E8009570E1F39091E80092FD19C080
:100D20008093F100809170019091710101968F7311
:100D30009927892B19F48EEF8093E8008091700138
:100D4000909171010196909371018093700181E0FF
:100D5000089580E00895615030F02091F100FC0189
:100D600020830196F8CF289A84E68093A101089504
:100D7000CF92DF92EF92FF920F931F93CF93DF9367
:100D8000EC018FB7F894C0909D01D0909E01E09047
:100D90009F01F090A0018FBF88810E943D0B9C01B4
:100DA0008E8191E0811103C0232B21F402C0232BFB
:100DB00009F090E04E855F85688979899701860101
:100DC000041B150B260B370B49815A816B817C81E3
:100DD000041715072607370710F419860CC08F81F2
:100DE00088879F83292F28272987981721F0CE8667
:100DF000DF86E88AF98ACA86DB86EC86FD868F81E3
:100E0000DF91CF911F910F91FF90EF90DF90CF90E6
:100E10000895CF93DF93EC018D81811102C030E002
:100E200001C032E0888190E0FC01EB57FE4F249135
:100E3000FC01EA59FE4F8491882379F190E0880FF4
:100E4000991FFC01E852FF4F45915491FC01E65374
:100E5000FF4FA591B49131110AC09FB7F894FA01E0
:100E60008081209582238083EC912E230CC0323028
:100E700069F49FB7F894FA018081322F309583236B
:100E80008083EC912E2B2C939FBF07C08FB7F894D3
:100E9000DA01EC912E2B2C938FBF88810E943D0BA1
:100EA0009C0181E02115310509F480E08F838E815A
:100EB000882329F091E0232B09F090E09F832FB73E
:100EC000F89480919D0190919E01A0919F01B09115
:100ED000A0012FBF8A879B87AC87BD872F8128877A
:100EE00019868E879F87A88BB98BDF91CF91089544
:100EF00008950E94FD10DF92EF92FF920F931F93CF
:100F0000CF93DF93D82EF92EE42E062F10E0C801E0
:100F10000196880F0E947D0683E00E947D06CD2DFC
:100F2000DF2D0C0F1D1FC017D10789F0E7FE03C08E
:100F3000FE01849101C088810E947D06F82E80E028
:100F40000E947D068F2121968111EDCF01C081E0A5
:100F5000DF91CF911F910F91FF90EF90DF90089557
:100F6000DF92EF92FF920F931F93CF93DF93D82ED0
:100F70008A017B01E40EF51EEB01CE15DF0571F051
:100F8000D7FE03C0FE01849101C088810E947D06C6
:100F900021968111F2CF8FEF9FEF01C0C801DF9141
:100FA000CF911F910F91FF90EF90DF9008950F93D5
:100FB0001F93CF93DF931F92CDB7DEB782E0898373
:100FC00042E450E066EE70E080E80E94B0070E94C4
:100FD000290BDC0112960D911C9113970115110537
:100FE00089F0D801ED91FC910280F381E02DBE01E2
:100FF0006F5F7F4FC801099597FD04C0F801008518
:101000001185ECCF89810F90DF91CF911F910F91C6
:1010100008951F920F920FB60F9211248F939F93F2
:101020008091E1009091E100937F9093E10083FF34
:101030000FC01092E90091E09093EB001092EC0049
:1010400092E39093ED001092A20198E09093F0004B
:1010500082FF20C093E09093E9009091F2009923E1
:1010600019F09AE39093E80090917201992339F076
:1010700090917201915090937201992389F190910E
:10108000A101992339F09091A10191509093A10170
:10109000992341F184FF10C08091E2008E7E81602F
:1010A0008093E2008091E1008F7E8093E100809147
:1010B00073018E7E806111C080FF16C08091E200B6
:1010C0008E7E80618093E2008091E1008E7E80932D
:1010D000E100809173018E7E81608093730104C072
:1010E0005D98CDCF2898D6CF9F918F910F900FBE4E
:1010F0000F901F9018951F920F920FB60F92112408
:10110000CF92DF92EF92FF920F931F932F933F9313
:101110004F935F936F937F938F939F93AF93BF93FF
:10112000EF93FF93CF93DF93CDB7DEB76C97DEBF1E
:10113000CDBF1092E9008091E80083FFFBC168E019
:10114000CE0145960E94AB0682EF8093E8008D8920
:1011500087FF05C09091E80090FFFCCF03C09EEF91
:101160009093E800982F907609F0C6C09E894F8929
:10117000588D2F89F88C91110CC0803829F48091FA
:1011800075018093F10002C01092F1001092F100FD
:1011900045C1913051F4811141C14130510509F0EF
:1011A0003DC1809175018D7F0BC0933061F4811139
:1011B00035C14130510509F031C18091750182601E
:1011C000809375012BC1953049F48091E80080FF30
:1011D000FCCF822F80688093E30020C1963009F015
:1011E0005EC00B8D1C8D22E01092E90010927101FF
:1011F00010927001F21232C010926F0110926E01C3
:101200000E94D70799E0BE016F5F7F4FDB01E92F96
:101210001D92EA95E9F79983FA8291E09E8390EA1C
:1012200098879AEF99872091700130917101275F1B
:101230003F4F3C832B838D831092E9001092710104
:101240001092700110936F0100936E0149E050E01D
:1012500080E00E94B0070E94D707E0C010936F01A2
:1012600000936E010E94290BDC0112960D911C91D6
:1012700013970115110509F4BBC0D801ED91FC913C
:101280000480F581E02DBE016B5E7F4FC80109959A
:10129000009709F0C7C0F80100851185EACF9730A3
:1012A00009F445C1983021F481E08093F100B6C083
:1012B000993009F0B3C0837009F039C1E3E1F1E07E
:1012C00081E031E096E32081211109C08EE780930F
:1012D000EA001092EA008F898093A2019FC0809358
:1012E000E9003093EB0021912093EC009093ED0006
:1012F0008F5F873041F7EACF8B8D9C8D1092E9008C
:10130000109271011092700190936F0180936E01A1
:10131000898D811153C08E899D89913A49F481321A
:1013200009F005C147E050E064E071E080E0BBC037
:10133000913209F0FCC0833269F48F89988DA0E066
:10134000B0E08093000190930101A0930201B0935B
:10135000030164C0803269F48091E80082FFFCCF11
:1013600067E084E091E00E94AB068BEF8093E80099
:1013700055C0823209F052C08F8980930B01EEEF85
:10138000FFE7859194918B3F9C4D19F0E0E0F8E0E8
:1013900002C0EEEFFAE08091040190910501A09166
:1013A0000601B0910701803B9440A105B10509F009
:1013B0009EC080910B0180FF79C099C00E94290BCB
:1013C000FC01028113810115110509F4B0C0D80197
:1013D000ED91FC910190F081E02DBE016B5E7F4F9D
:1013E000C801099581111AC0F80100851185EBCF5C
:1013F000F1E0FF1609F44EC0F3E0FF1298C08F89A8
:10140000882309F44AC0823089F440E86DE08AE418
:1014100091E00E947B07882309F489C08EEF8093B6
:10142000E80088C018161906CCF381C0813029F471
:1014300040E86BE08EE391E0ECCF833009F077C0B9
:101440000E94290BDC011296ED90FC9013978E01FF
:101450000F5F1F4F6801E114F10479F0D701ED919E
:10146000FC910680F781E02DB801C7010995080FAE
:10147000111DF701E084F184EECFD8011C92F60132
:1014800001900020E9F73197BF016C197D0940E018
:10149000C601BFCF6CE271E002C068E271E0FB01FF
:1014A000449150E080E80E94B007B8CFEE3F2AE0B8
:1014B000F20751F0808191818737A7E79A0721F0E1
:1014C0009093FF0A8093FE0A87E797E791838083D2
:1014D00080916000809374019BE088E10FB6F894DE
:1014E000A895809360000FBE9093600097CF808195
:1014F00091818737974709F091CFA8958091600037
:101500008861809360008091740180936000EE3F59
:10151000BAE0FB0739F08091FE0A9091FF0A9183AF
:1015200080837CCF1092FF0A1092FE0A77CF81E26F
:101530008093EB006C960FB6F894DEBF0FBECDBF64
:10154000DF91CF91FF91EF91BF91AF919F918F91DB
:101550007F916F915F914F913F912F911F910F91CB
:10156000FF90EF90DF90CF900F900FBE0F901F90E5
:101570001895FC01DB0183EA91E0938782878C91C7
:10158000848711968C911197858712968C91868706
:101590000895DC01E0913402F0913502CF01880F0B
:1015A000991FE80FF91F80913C0290913D02E80FCE
:1015B000F91F85E090E0019761F02C91208311964E
:1015C0002C911197218312962C9112972283339696
:1015D000F2CF08952091A201211103C08FEF9FEF58
:1015E00008955FB7F89422E02093E9002091F2007B
:1015F00030E01216130614F421E030E0422FFC0113
:1016000084E6415038F0289A8093A1019091F1002E
:101610009193F7CF2115310521F08091F2008823B5
:1016200019F05FBFC90108958BE68093E800F9CFF8
:101630002FB7F89483E08093E9009091E800892F18
:10164000807295FF04C09091F20080E4891B2FBF47
:1016500008958091BD0281110DC082E08093B9028E
:1016600084E08093BA021092BC021092BB0281E027
:101670008093BD0289EB92E0089590E0FC01EC5567
:10168000FE4F4491FC01EB57FE4F2491FC01EA59B7
:10169000FE4F8491882309F44DC04423E1F150E0CA
:1016A000FA013197EF30F105B0F5EA5AFF4F0C948B
:1016B000A10F909180009F7707C0909180009F7D3F
:1016C00003C090918000977F9093800024C094B5D0
:1016D0009F7702C094B59F7D94BD1DC090919000EE
:1016E0009F7707C0909190009F7D03C090919000DC
:1016F000977F909390000FC09091C0009F7703C098
:101700009091C0009F7D9093C00005C09091C20051
:10171000977F9093C200E82FF0E0EE0FFF1FE85A8A
:10172000FE4FA591B491EC91E22381E090E021F489
:1017300080E0089580E090E008953FB7F8948091AC
:10174000B5029091B602A091B702B091B80226B549
:10175000A89B05C02F3F19F00196A11DB11D3FBFE9
:10176000BA2FA92F982F8827820F911DA11DB11D77
:10177000BC01CD0142E0660F771F881F991F4A9573
:10178000D1F708958F929F92AF92BF92CF92DF923E
:10179000EF92FF926B017C010E949D0B4B015C015B
:1017A000C114D104E104F104F1F00E949D0BDC01AD
:1017B000CB0188199909AA09BB09883E9340A10564
:1017C000B10570F321E0C21AD108E108F10888EEF2
:1017D000880E83E0981EA11CB11CC114D104E10441
:1017E000F10419F7DDCFFF90EF90DF90CF90BF901D
:1017F000AF909F908F9008951F920F920FB60F9207
:1018000011242F933F938F939F93AF93BF93809116
:101810009D0190919E01A0919F01B091A0013091F6
:10182000B40223E0230F2D3720F40196A11DB11D32
:1018300005C026E8230F0296A11DB11D2093B40216
:1018400080939D0190939E01A0939F01B093A0016E
:101850008091B5029091B602A091B702B091B80202
:101860000196A11DB11D8093B5029093B602A0937D
:10187000B702B093B802BF91AF919F918F913F9102
:101880002F910F900FBE0F901F901895CF93DF935D
:1018900000D01F92CDB7DEB7789484B5826084BD46
:1018A00084B5816084BD85B5826085BD85B5816064
:1018B00085BD80916E00816080936E0010928100E2
:1018C000809181008260809381008091810081609D
:1018D000809381008091800081608093800080915E
:1018E000910082608093910080919100816080934B
:1018F0009100809190008160809390008091C10060
:1019000084608093C1008091C10082608093C10097
:101910008091C10081608093C1008091C30081608B
:101920008093C3008091C00082608093C00080914A
:10193000C20081608093C20080917A0084608093AD
:101940007A0080917A00826080937A0080917A0098
:10195000816080937A0080917A00806880937A0019
:101960001092A20110927501109273018091D7001C
:1019700081608093D70080EA8093D80089B5806128
:1019800089BD89B5826089BD09B400FEFDCF61E0E3
:1019900070E080E090E00E94C20B8091D8008F7CC4
:1019A00080618093D8008091E000807F8093E00088
:1019B0008091E1008E7E8093E1008DE08093E200D3
:1019C000559A209A5D9828988FEF9FEF9093E001A9
:1019D0008093DF0168EE73E080E090E00E94C20B2C
:1019E00080918901811145C010927B0110927A018A
:1019F0008FEF80937E0180937F018093800180939D
:101A00008101809382018093830181E0809384012E
:101A1000109286011092850110927D0110927C0136
:101A20008091970190919801892B31F488E791E09A
:101A30009093980180939701E0917601F09177015E
:101A4000309721F088E791E09583848388E791E0DF
:101A5000909377018093760110928801109287010C
:101A60008DE291E0909379018093780181E08093F9
:101A70008901579A83EA91E090937B0180937A01E0
:101A800080E190E090938601809385018091AA0285
:101A90009091AB02A091AC02B091AD02843C29E0E0
:101AA0009207A105B10520F484EC99E0A0E0B0E034
:101AB0008093AA029093AB02A093AC02B093AD02C4
:101AC0001FEF1093A70285E992E00E94090783E8BF
:101AD00092E00E94090781E792E00E9409078FE5E2
:101AE00092E00E94090719831A821B82BE016F5F70
:101AF0007F4F80E592E00E94B90A19831A831B8206
:101B0000BE016F5F7F4F81E492E00E94B90A1982A3
:101B10001A821B83BE016F5F7F4F82E392E00E94B7
:101B2000B90A198280E88A831B82BE016F5F7F4FEA
:101B300083E292E00E94B90A43E150E065E571E07A
:101B400083ED91E00E946C0242E050E069E671E0B2
:101B500083ED91E00E946C02EE24EA9485E992E024
:101B60000E94B80683E892E00E94B80681E792E0FE
:101B70000E94B8068FE592E00E94B806E9821A82B8
:101B80001B82CE0101960E94C90AF090A7028091A3
:101B9000AA029091AB02A091AC02B091AD02892B48
:101BA0008A2B8B2BE9F00E949D0B009199011091DB
:101BB0009A0120919B0130919C01DC01CB01801B9B
:101BC000910BA20BB30B0091AA021091AB022091D2
:101BD000AC023091AD0280179107A207B307B8F2AB
:101BE0000E949D0B6093990170939A0180939B01D1
:101BF00090939C01E091B202F091B302309759F0BA
:101C00004091AE025091AF026091B0027091B1026A
:101C10008F2D0995F82E00919701109198014F2C66
:101C2000512C612C712C0115110509F460C0D801EB
:101C30001C96BC901C978091A8029091A9028436B2
:101C4000910510F41C961C92D801ED91FC91228014
:101C5000338019821A821B82F11014C0F801458565
:101C60005685628173819E012F5F3F4FC801F1014C
:101C70000995D8011C96BC921C9714960D911C9145
:101C80001597D1CFF8013696AE014F5F5F4F6A01CD
:101C9000480159E0850E911C2191222309F1A2806F
:101CA000AA20F1F0822F90E0A0E0B0E09C01AD010D
:101CB0002F5F3F4F4F4F5F4FC301B2010E945B0F39
:101CC0009B01AC018A2D90E0A0E0B0E0BC01CD0109
:101CD0006F5F7F4F8F4F9F4F0E945B0FD6018C939A
:101CE000BFEFCB1ADB0A8E169F06B1F6B7CF8091F5
:101CF0009501909196019C012F5F3F4F3093960183
:101D00002093950149970CF447C08FB7F894009140
:101D10009D0110919E0120919F013091A0018FBFE4
:101D20008091950190919601E8EEF3E08E9FB001CD
:101D30008F9F700D9E9F700D1124072E000C880B35
:101D4000990B8090910190909201A0909301B09096
:101D50009401A9019801281939094A095B090E94CF
:101D60007F0F3093A9022093A8021092960110923F
:101D700095012FB7F89480919D0190919E01A091BB
:101D80009F01B091A0012FBF809391019093920188
:101D9000A0939301B093940164EF71E080E090E030
:101DA0000E94C20B40E050E0452B09F4D7CE0E94C0
:101DB0000000D4CEE3EDF1E01382128288EE93E0CE
:101DC000A0E0B0E084839583A683B7838FE391E09E
:101DD000918380838FEF9FEF95878487E5E9F2E019
:101DE00082E1808349E150E060E070E0418352830A
:101DF0006383748381E085838683E3E8F2E093E183
:101E00009083418352836383748385838683E1E770
:101E1000F2E094E1908341835283638374838583EA
:101E20008683EFE5F2E095E19083418352836383FB
:101E3000748385838683E0E5F2E081E591E0918318
:101E40008083138212822BE031E035832483E1E426
:101E5000F2E09183808324E030E03383228320E02A
:101E600032E035832483E2E3F2E09183808328E04B
:101E700030E03383228320E033E035832483E3E2C0
:101E8000F2E0918380838CE090E09383828381E011
:101E900094E095838483E7EAF2E08FEF80831282F7
:101EA0001182148613868FEF9FEFDC018783908762
:101EB000A187B2870895DB018F939F930E94AE0F95
:101EC000BF91AF91A29F800D911DA39F900DB29FD6
:101ED000900D1124089597FB072E16F4009407D057
:101EE00077FD09D00E94B90F07FC05D03EF490950C
:101EF00081959F4F0895709561957F4F0895A1E258
:101F00001A2EAA1BBB1BFD010DC0AA1FBB1FEE1F73
:101F1000FF1FA217B307E407F50720F0A21BB30BBE
:101F2000E40BF50B661F771F881F991F1A9469F73A
:101F300060957095809590959B01AC01BD01CF0196
:101F40000895EE0FFF1F0590F491E02D09940E9473
:101F5000CD0FB7FF0895821B930B08950E94CD0FFC
:101F6000A59F900DB49F900DA49F800D911D1124ED
:101F70000895AA1BBB1B51E107C0AA1FBB1FA617D0
:101F8000B70710F0A61BB70B881F991F5A95A9F722
:101F900080959095BC01CD010895A29FB001B39F9B
:101FA000C001A39F700D811D1124911DB29F700D62
:101FB000811D1124911D08950F931F93CF93DF93DB
:101FC0008230910510F482E090E0E091C702F09138
:101FD000C80220E030E0A0E0B0E0309719F1408185
:101FE00051810281138148175907C8F0841795075A
:101FF00069F4109731F012960C93129713961C9374
:1020000027C00093C7021093C80222C021153105D2
:1020100019F04217530718F49A01BD01EF01DF01CF
:10202000F801DBCF21153105F9F0281B390B2430DD
:10203000310580F48A819B816115710521F0FB01D6
:102040009383828304C09093C8028093C702FE01E9
:10205000329644C0FE01E20FF31F81939193225008
:102060003109398328833AC02091C5023091C602D4
:10207000232B41F420910E0130910F013093C602C1
:102080002093C50220910C0130910D0121153105DD
:1020900041F42DB73EB74091100150911101241B1E
:1020A000350BE091C502F091C602E217F307A0F4E8
:1020B0002E1B3F0B2817390778F0AC014E5F5F4F9E
:1020C0002417350748F04E0F5F1F5093C602409308
:1020D000C5028193919302C0E0E0F0E0CF01DF916F
:1020E000CF911F910F910895CF93DF93009709F43B
:1020F00081C0FC01329713821282A091C702B09175
:10210000C802109781F420813181820F931F2091A2
:10211000C5023091C6022817390751F5F093C6025F
:10212000E093C50267C0ED0120E030E0CE17DF0785
:1021300040F44A815B819E0141155105F1F0EA01AD
:10214000F5CFD383C28340815181840F951FC81777
:10215000D90759F488819981840F951F029691833C
:1021600080838A819B81938382832115310529F4A1
:10217000F093C802E093C7023DC0E901FB83EA8304
:1021800049915991C40FD51FEC17FD0761F4808167
:102190009181840F951F0296E9019983888382813A
:1021A00093819B838A83E0E0F0E012968D919C916D
:1021B0001397009719F0FD01DC01F7CF8D919C91E9
:1021C00011979D012E5F3F4F820F931F2091C502F3
:1021D0003091C6022817390769F4309729F4109214
:1021E000C8021092C70202C013821282B093C602C4
:1021F000A093C502DF91CF91089581E090E0F8941B
:082200000C940211F894FFCFC9
:10220800FFFFFFFF00E10000000000000000C9021E
:10221800200000C1808100000000000000790779DB
:1022280007790741026502690200000000FE01BA51
:1022380001B80141026502B501380300000000370A
:10224800016C02F2024D0158011A03F60200000067
:102258000078077B062053746172742075702061C2
:0C2268006374697669746979000D0A00DE
:00000001FF
